{
  "address": "0x9fE46736679d2D9a65F0992F2272dE9f3c7fa6e0",
  "abi": [
    {
      "inputs": [
        {
          "internalType": "contract VintageWine",
          "name": "_vintageWine",
          "type": "address"
        }
      ],
      "stateMutability": "nonpayable",
      "type": "constructor"
    },
    {
      "anonymous": false,
      "inputs": [
        {
          "indexed": true,
          "internalType": "address",
          "name": "owner",
          "type": "address"
        },
        {
          "indexed": true,
          "internalType": "address",
          "name": "spender",
          "type": "address"
        },
        {
          "indexed": false,
          "internalType": "uint256",
          "name": "value",
          "type": "uint256"
        }
      ],
      "name": "Approval",
      "type": "event"
    },
    {
      "anonymous": false,
      "inputs": [
        {
          "indexed": true,
          "internalType": "address",
          "name": "previousOwner",
          "type": "address"
        },
        {
          "indexed": true,
          "internalType": "address",
          "name": "newOwner",
          "type": "address"
        }
      ],
      "name": "OwnershipTransferred",
      "type": "event"
    },
    {
      "anonymous": false,
      "inputs": [
        {
          "indexed": false,
          "internalType": "address",
          "name": "account",
          "type": "address"
        }
      ],
      "name": "Paused",
      "type": "event"
    },
    {
      "anonymous": false,
      "inputs": [
        {
          "indexed": true,
          "internalType": "address",
          "name": "from",
          "type": "address"
        },
        {
          "indexed": true,
          "internalType": "address",
          "name": "to",
          "type": "address"
        },
        {
          "indexed": false,
          "internalType": "uint256",
          "name": "value",
          "type": "uint256"
        }
      ],
      "name": "Transfer",
      "type": "event"
    },
    {
      "anonymous": false,
      "inputs": [
        {
          "indexed": false,
          "internalType": "address",
          "name": "account",
          "type": "address"
        }
      ],
      "name": "Unpaused",
      "type": "event"
    },
    {
      "inputs": [],
      "name": "DELAYED_UNSTAKE_BURN_PERCENT",
      "outputs": [
        {
          "internalType": "uint256",
          "name": "",
          "type": "uint256"
        }
      ],
      "stateMutability": "view",
      "type": "function"
    },
    {
      "inputs": [],
      "name": "DELAYED_UNSTAKE_LOCKUP_PERIOD",
      "outputs": [
        {
          "internalType": "uint256",
          "name": "",
          "type": "uint256"
        }
      ],
      "stateMutability": "view",
      "type": "function"
    },
    {
      "inputs": [],
      "name": "QUICK_UNSTAKE_BURN_PERCENT",
      "outputs": [
        {
          "internalType": "uint256",
          "name": "",
          "type": "uint256"
        }
      ],
      "stateMutability": "view",
      "type": "function"
    },
    {
      "inputs": [],
      "name": "QUICK_UNSTAKE_CONTRIBUTION_PERCENT",
      "outputs": [
        {
          "internalType": "uint256",
          "name": "",
          "type": "uint256"
        }
      ],
      "stateMutability": "view",
      "type": "function"
    },
    {
      "inputs": [
        {
          "internalType": "address",
          "name": "owner",
          "type": "address"
        },
        {
          "internalType": "address",
          "name": "spender",
          "type": "address"
        }
      ],
      "name": "allowance",
      "outputs": [
        {
          "internalType": "uint256",
          "name": "",
          "type": "uint256"
        }
      ],
      "stateMutability": "view",
      "type": "function"
    },
    {
      "inputs": [
        {
          "internalType": "address",
          "name": "spender",
          "type": "address"
        },
        {
          "internalType": "uint256",
          "name": "amount",
          "type": "uint256"
        }
      ],
      "name": "approve",
      "outputs": [
        {
          "internalType": "bool",
          "name": "",
          "type": "bool"
        }
      ],
      "stateMutability": "nonpayable",
      "type": "function"
    },
    {
      "inputs": [
        {
          "internalType": "address",
          "name": "account",
          "type": "address"
        }
      ],
      "name": "balanceOf",
      "outputs": [
        {
          "internalType": "uint256",
          "name": "",
          "type": "uint256"
        }
      ],
      "stateMutability": "view",
      "type": "function"
    },
    {
      "inputs": [
        {
          "internalType": "uint256",
          "name": "_amount",
          "type": "uint256"
        }
      ],
      "name": "claimDelayedUnstake",
      "outputs": [],
      "stateMutability": "nonpayable",
      "type": "function"
    },
    {
      "inputs": [],
      "name": "decimals",
      "outputs": [
        {
          "internalType": "uint8",
          "name": "",
          "type": "uint8"
        }
      ],
      "stateMutability": "view",
      "type": "function"
    },
    {
      "inputs": [
        {
          "internalType": "address",
          "name": "spender",
          "type": "address"
        },
        {
          "internalType": "uint256",
          "name": "subtractedValue",
          "type": "uint256"
        }
      ],
      "name": "decreaseAllowance",
      "outputs": [
        {
          "internalType": "bool",
          "name": "",
          "type": "bool"
        }
      ],
      "stateMutability": "nonpayable",
      "type": "function"
    },
    {
      "inputs": [],
      "name": "frozenVintageWine",
      "outputs": [
        {
          "internalType": "uint256",
          "name": "",
          "type": "uint256"
        }
      ],
      "stateMutability": "view",
      "type": "function"
    },
    {
      "inputs": [
        {
          "internalType": "address",
          "name": "spender",
          "type": "address"
        },
        {
          "internalType": "uint256",
          "name": "addedValue",
          "type": "uint256"
        }
      ],
      "name": "increaseAllowance",
      "outputs": [
        {
          "internalType": "bool",
          "name": "",
          "type": "bool"
        }
      ],
      "stateMutability": "nonpayable",
      "type": "function"
    },
    {
      "inputs": [],
      "name": "name",
      "outputs": [
        {
          "internalType": "string",
          "name": "",
          "type": "string"
        }
      ],
      "stateMutability": "view",
      "type": "function"
    },
    {
      "inputs": [],
      "name": "owner",
      "outputs": [
        {
          "internalType": "address",
          "name": "",
          "type": "address"
        }
      ],
      "stateMutability": "view",
      "type": "function"
    },
    {
      "inputs": [],
      "name": "paused",
      "outputs": [
        {
          "internalType": "bool",
          "name": "",
          "type": "bool"
        }
      ],
      "stateMutability": "view",
      "type": "function"
    },
    {
      "inputs": [
        {
          "internalType": "uint256",
          "name": "_share",
          "type": "uint256"
        }
      ],
      "name": "prepareDelayedUnstake",
      "outputs": [],
      "stateMutability": "nonpayable",
      "type": "function"
    },
    {
      "inputs": [
        {
          "internalType": "uint256",
          "name": "_share",
          "type": "uint256"
        }
      ],
      "name": "quickUnstake",
      "outputs": [],
      "stateMutability": "nonpayable",
      "type": "function"
    },
    {
      "inputs": [],
      "name": "renounceOwnership",
      "outputs": [],
      "stateMutability": "nonpayable",
      "type": "function"
    },
    {
      "inputs": [
        {
          "internalType": "uint256",
          "name": "_startTime",
          "type": "uint256"
        }
      ],
      "name": "setStakeStartTime",
      "outputs": [],
      "stateMutability": "nonpayable",
      "type": "function"
    },
    {
      "inputs": [
        {
          "internalType": "uint256",
          "name": "_amount",
          "type": "uint256"
        }
      ],
      "name": "stake",
      "outputs": [],
      "stateMutability": "nonpayable",
      "type": "function"
    },
    {
      "inputs": [],
      "name": "stakeStarted",
      "outputs": [
        {
          "internalType": "bool",
          "name": "",
          "type": "bool"
        }
      ],
      "stateMutability": "view",
      "type": "function"
    },
    {
      "inputs": [],
      "name": "stakeTime",
      "outputs": [
        {
          "internalType": "uint256",
          "name": "",
          "type": "uint256"
        }
      ],
      "stateMutability": "view",
      "type": "function"
    },
    {
      "inputs": [],
      "name": "symbol",
      "outputs": [
        {
          "internalType": "string",
          "name": "",
          "type": "string"
        }
      ],
      "stateMutability": "view",
      "type": "function"
    },
    {
      "inputs": [],
      "name": "totalSupply",
      "outputs": [
        {
          "internalType": "uint256",
          "name": "",
          "type": "uint256"
        }
      ],
      "stateMutability": "view",
      "type": "function"
    },
    {
      "inputs": [
        {
          "internalType": "address",
          "name": "to",
          "type": "address"
        },
        {
          "internalType": "uint256",
          "name": "amount",
          "type": "uint256"
        }
      ],
      "name": "transfer",
      "outputs": [
        {
          "internalType": "bool",
          "name": "",
          "type": "bool"
        }
      ],
      "stateMutability": "nonpayable",
      "type": "function"
    },
    {
      "inputs": [
        {
          "internalType": "address",
          "name": "from",
          "type": "address"
        },
        {
          "internalType": "address",
          "name": "to",
          "type": "address"
        },
        {
          "internalType": "uint256",
          "name": "amount",
          "type": "uint256"
        }
      ],
      "name": "transferFrom",
      "outputs": [
        {
          "internalType": "bool",
          "name": "",
          "type": "bool"
        }
      ],
      "stateMutability": "nonpayable",
      "type": "function"
    },
    {
      "inputs": [
        {
          "internalType": "address",
          "name": "newOwner",
          "type": "address"
        }
      ],
      "name": "transferOwnership",
      "outputs": [],
      "stateMutability": "nonpayable",
      "type": "function"
    },
    {
      "inputs": [
        {
          "internalType": "address",
          "name": "",
          "type": "address"
        }
      ],
      "name": "unlockAmounts",
      "outputs": [
        {
          "internalType": "uint256",
          "name": "",
          "type": "uint256"
        }
      ],
      "stateMutability": "view",
      "type": "function"
    },
    {
      "inputs": [
        {
          "internalType": "address",
          "name": "",
          "type": "address"
        }
      ],
      "name": "unlockTimestamps",
      "outputs": [
        {
          "internalType": "uint256",
          "name": "",
          "type": "uint256"
        }
      ],
      "stateMutability": "view",
      "type": "function"
    },
    {
      "inputs": [],
      "name": "vintageWine",
      "outputs": [
        {
          "internalType": "contract VintageWine",
          "name": "",
          "type": "address"
        }
      ],
      "stateMutability": "view",
      "type": "function"
    },
    {
      "inputs": [],
      "name": "vintageWineBalance",
      "outputs": [
        {
          "internalType": "uint256",
          "name": "balance",
          "type": "uint256"
        }
      ],
      "stateMutability": "view",
      "type": "function"
    }
  ],
  "transactionHash": "0x185612308dbee7531c8c410683d7a28f88242b9d419496417523faefbf4a1e2d",
  "args": [
    "0x5FbDB2315678afecb367f032d93F642f64180aa3"
  ],
  "solcInputHash": "ef38a41fd3eca54d5c65573518215212",
  "bytecode": "0x60806040523480156200001157600080fd5b5060405162001aa338038062001aa38339810160408190526200003491620001f4565b60408051808201825260128152715374616b65642056696e7461676557696e6560701b60208083019182528351808501909452600c84526b7356494e5441474557494e4560a01b90840152815191929162000092916003916200014e565b508051620000a89060049060208401906200014e565b505050620000c5620000bf620000f860201b60201c565b620000fc565b6005805460ff60a01b19169055600680546001600160a01b0319166001600160a01b039290921691909117905562000263565b3390565b600580546001600160a01b038381166001600160a01b0319831681179093556040519116919082907f8be0079c531659141344cd1fd0a4f28419497f9722a3daafe3b4186f6b6457e090600090a35050565b8280546200015c9062000226565b90600052602060002090601f016020900481019282620001805760008555620001cb565b82601f106200019b57805160ff1916838001178555620001cb565b82800160010185558215620001cb579182015b82811115620001cb578251825591602001919060010190620001ae565b50620001d9929150620001dd565b5090565b5b80821115620001d95760008155600101620001de565b6000602082840312156200020757600080fd5b81516001600160a01b03811681146200021f57600080fd5b9392505050565b600181811c908216806200023b57607f821691505b602082108114156200025d57634e487b7160e01b600052602260045260246000fd5b50919050565b61183080620002736000396000f3fe608060405234801561001057600080fd5b50600436106101a55760003560e01c806395d89b41116100ef578063c55510a011610092578063c55510a014610350578063cc1b63d514610359578063dbc782311461036c578063dd62ed3e14610374578063edb46a1b14610387578063efe6066f1461039a578063f2fde38b146103ad578063fc2759bf146103c057600080fd5b806395d89b41146102ee578063a457c2d7146102f6578063a694fc3a14610309578063a8c43c7c1461031c578063a9059cbb14610324578063b31c67fa14610337578063b77a2c1c1461033f578063bb09ae991461034857600080fd5b806347ef867e1161015757806347ef867e1461023a5780634c7cc901146102655780635c975abb1461026f578063634b189714610277578063700763291461028c57806370a08231146102ac578063715018a6146102d55780638da5cb5b146102dd57600080fd5b8063058b7784146101aa57806306fdde03146101c5578063095ea7b3146101da57806318160ddd146101fd57806323b872dd14610205578063313ce567146102185780633950935114610227575b600080fd5b6101b2600a81565b6040519081526020015b60405180910390f35b6101cd6103e0565b6040516101bc919061152e565b6101ed6101e836600461157d565b610472565b60405190151581526020016101bc565b6002546101b2565b6101ed6102133660046115a7565b61048a565b604051601281526020016101bc565b6101ed61023536600461157d565b6104b0565b60065461024d906001600160a01b031681565b6040516001600160a01b0390911681526020016101bc565b6101b26202a30081565b6101ed6104d2565b61028a6102853660046115e3565b6104e2565b005b6101b261029a3660046115fc565b60096020526000908152604090205481565b6101b26102ba3660046115fc565b6001600160a01b031660009081526020819052604090205490565b61028a610615565b6005546001600160a01b031661024d565b6101cd61064b565b6101ed61030436600461157d565b61065a565b61028a6103173660046115e3565b6106e0565b6101b2603281565b6101ed61033236600461157d565b61080d565b6101b2601981565b6101b2600a5481565b6101b261081b565b6101b260075481565b61028a6103673660046115e3565b61089b565b6101ed610969565b6101b2610382366004611617565b610983565b61028a6103953660046115e3565b6109ae565b61028a6103a83660046115e3565b610ae8565b61028a6103bb3660046115fc565b610bdd565b6101b26103ce3660046115fc565b60086020526000908152604090205481565b6060600380546103ef9061164a565b80601f016020809104026020016040519081016040528092919081815260200182805461041b9061164a565b80156104685780601f1061043d57610100808354040283529160200191610468565b820191906000526020600020905b81548152906001019060200180831161044b57829003601f168201915b5050505050905090565b600033610480818585610c75565b5060019392505050565b600033610498858285610d9a565b6104a3858585610e0e565b60019150505b9392505050565b6000336104808185856104c38383610983565b6104cd919061169b565b610c75565b600554600160a01b900460ff1690565b6104ea6104d2565b156105105760405162461bcd60e51b8152600401610507906116b3565b60405180910390fd5b600061051b82610fca565b90506105273383610fee565b600061053f606461053984600a611127565b90611133565b905061054b81836116dd565b3360009081526008602052604081208054929450849290919061056f90849061169b565b9091555061058290506202a3004261169b565b33600090815260096020526040812091909155600780548492906105a790849061169b565b9091555050600654604051632770a7eb60e21b81526001600160a01b0390911690639dc29fac906105de90309085906004016116f4565b600060405180830381600087803b1580156105f857600080fd5b505af115801561060c573d6000803e3d6000fd5b50505050505050565b6005546001600160a01b0316331461063f5760405162461bcd60e51b81526004016105079061170d565b610649600061113f565b565b6060600480546103ef9061164a565b600033816106688286610983565b9050838110156106c85760405162461bcd60e51b815260206004820152602560248201527f45524332303a2064656372656173656420616c6c6f77616e63652062656c6f77604482015264207a65726f60d81b6064820152608401610507565b6106d58286868403610c75565b506001949350505050565b6106e86104d2565b156107055760405162461bcd60e51b8152600401610507906116b3565b61070d610969565b61074f5760405162461bcd60e51b8152602060048201526013602482015272165bdd4818d85b89dd081cdd185ad9481e595d606a1b6044820152606401610507565b600061075a60025490565b905080158061076e575061076c61081b565b155b156107825761077d3383611191565b6107a7565b600061079961078f61081b565b6105398585611127565b90506107a53382611191565b505b6006546001600160a01b031663ca39ec5133846040518363ffffffff1660e01b81526004016107d79291906116f4565b600060405180830381600087803b1580156107f157600080fd5b505af1158015610805573d6000803e3d6000fd5b505050505050565b600033610480818585610e0e565b6007546006546040516370a0823160e01b8152306004820152600092916001600160a01b0316906370a0823190602401602060405180830381865afa158015610868573d6000803e3d6000fd5b505050506040513d601f19601f8201168201806040525081019061088c9190611742565b61089691906116dd565b905090565b6005546001600160a01b031633146108c55760405162461bcd60e51b81526004016105079061170d565b428110156109155760405162461bcd60e51b815260206004820152601f60248201527f737461727454696d652063616e6e6f7420626520696e207468652070617374006044820152606401610507565b61091d610969565b156109645760405162461bcd60e51b81526020600482015260176024820152761cdd185ada5b99c8185b1c9958591e481cdd185c9d1959604a1b6044820152606401610507565b600a55565b6000600a54600014158015610896575050600a5442101590565b6001600160a01b03918216600090815260016020908152604080832093909416825291909152205490565b6109b66104d2565b156109d35760405162461bcd60e51b8152600401610507906116b3565b33600090815260096020526040902054421015610a325760405162461bcd60e51b815260206004820152601c60248201527f56494e5441474557494e45206e6f742079657420756e6c6f636b6564000000006044820152606401610507565b33600090815260086020526040902054811115610a915760405162461bcd60e51b815260206004820152601b60248201527f696e73756666696369656e74206c6f636b65642062616c616e636500000000006044820152606401610507565b3360009081526008602052604081208054839290610ab09084906116dd565b925050819055508060076000828254610ac991906116dd565b9091555050600654610ae5906001600160a01b0316338361125e565b50565b610af06104d2565b15610b0d5760405162461bcd60e51b8152600401610507906116b3565b6000610b1882610fca565b90506000610b366064610539610b2f6032836116dd565b8590611127565b90506000610b4a6064610539856019611127565b9050610b563385610fee565b600654604051632770a7eb60e21b81526001600160a01b0390911690639dc29fac90610b8890309085906004016116f4565b600060405180830381600087803b158015610ba257600080fd5b505af1158015610bb6573d6000803e3d6000fd5b50505050610bd7610bc43390565b6006546001600160a01b0316908461125e565b50505050565b6005546001600160a01b03163314610c075760405162461bcd60e51b81526004016105079061170d565b6001600160a01b038116610c6c5760405162461bcd60e51b815260206004820152602660248201527f4f776e61626c653a206e6577206f776e657220697320746865207a65726f206160448201526564647265737360d01b6064820152608401610507565b610ae58161113f565b6001600160a01b038316610cd75760405162461bcd60e51b8152602060048201526024808201527f45524332303a20617070726f76652066726f6d20746865207a65726f206164646044820152637265737360e01b6064820152608401610507565b6001600160a01b038216610d385760405162461bcd60e51b815260206004820152602260248201527f45524332303a20617070726f766520746f20746865207a65726f206164647265604482015261737360f01b6064820152608401610507565b6001600160a01b0383811660008181526001602090815260408083209487168084529482529182902085905590518481527f8c5be1e5ebec7d5bd14f71427d1e84f3dd0314c0f7b2291e5b200ac8c7c3b92591015b60405180910390a3505050565b6000610da68484610983565b90506000198114610bd75781811015610e015760405162461bcd60e51b815260206004820152601d60248201527f45524332303a20696e73756666696369656e7420616c6c6f77616e63650000006044820152606401610507565b610bd78484848403610c75565b6001600160a01b038316610e725760405162461bcd60e51b815260206004820152602560248201527f45524332303a207472616e736665722066726f6d20746865207a65726f206164604482015264647265737360d81b6064820152608401610507565b6001600160a01b038216610ed45760405162461bcd60e51b815260206004820152602360248201527f45524332303a207472616e7366657220746f20746865207a65726f206164647260448201526265737360e81b6064820152608401610507565b6001600160a01b03831660009081526020819052604090205481811015610f4c5760405162461bcd60e51b815260206004820152602660248201527f45524332303a207472616e7366657220616d6f756e7420657863656564732062604482015265616c616e636560d01b6064820152608401610507565b6001600160a01b03808516600090815260208190526040808220858503905591851681529081208054849290610f8390849061169b565b92505081905550826001600160a01b0316846001600160a01b03166000805160206117db83398151915284604051610fbd91815260200190565b60405180910390a3610bd7565b600080610fd660025490565b90506104a981610539610fe761081b565b8690611127565b6001600160a01b03821661104e5760405162461bcd60e51b815260206004820152602160248201527f45524332303a206275726e2066726f6d20746865207a65726f206164647265736044820152607360f81b6064820152608401610507565b6001600160a01b038216600090815260208190526040902054818110156110c25760405162461bcd60e51b815260206004820152602260248201527f45524332303a206275726e20616d6f756e7420657863656564732062616c616e604482015261636560f01b6064820152608401610507565b6001600160a01b03831660009081526020819052604081208383039055600280548492906110f19084906116dd565b90915550506040518281526000906001600160a01b038516906000805160206117db83398151915290602001610d8d565b505050565b60006104a9828461175b565b60006104a9828461177a565b600580546001600160a01b038381166001600160a01b0319831681179093556040519116919082907f8be0079c531659141344cd1fd0a4f28419497f9722a3daafe3b4186f6b6457e090600090a35050565b6001600160a01b0382166111e75760405162461bcd60e51b815260206004820152601f60248201527f45524332303a206d696e7420746f20746865207a65726f2061646472657373006044820152606401610507565b80600260008282546111f9919061169b565b90915550506001600160a01b0382166000908152602081905260408120805483929061122690849061169b565b90915550506040518181526001600160a01b038316906000906000805160206117db8339815191529060200160405180910390a35050565b6111228363a9059cbb60e01b848460405160240161127d9291906116f4565b60408051601f198184030181529190526020810180516001600160e01b03166001600160e01b0319909316929092179091526000611304826040518060400160405280602081526020017f5361666545524332303a206c6f772d6c6576656c2063616c6c206661696c6564815250856001600160a01b03166113819092919063ffffffff16565b8051909150156111225780806020019051810190611322919061179c565b6111225760405162461bcd60e51b815260206004820152602a60248201527f5361666545524332303a204552433230206f7065726174696f6e20646964206e6044820152691bdd081cdd58d8d9595960b21b6064820152608401610507565b60606113908484600085611398565b949350505050565b6060824710156113f95760405162461bcd60e51b815260206004820152602660248201527f416464726573733a20696e73756666696369656e742062616c616e636520666f6044820152651c8818d85b1b60d21b6064820152608401610507565b6001600160a01b0385163b6114505760405162461bcd60e51b815260206004820152601d60248201527f416464726573733a2063616c6c20746f206e6f6e2d636f6e74726163740000006044820152606401610507565b600080866001600160a01b0316858760405161146c91906117be565b60006040518083038185875af1925050503d80600081146114a9576040519150601f19603f3d011682016040523d82523d6000602084013e6114ae565b606091505b50915091506114be8282866114c9565b979650505050505050565b606083156114d85750816104a9565b8251156114e85782518084602001fd5b8160405162461bcd60e51b8152600401610507919061152e565b60005b8381101561151d578181015183820152602001611505565b83811115610bd75750506000910152565b602081526000825180602084015261154d816040850160208701611502565b601f01601f19169190910160400192915050565b80356001600160a01b038116811461157857600080fd5b919050565b6000806040838503121561159057600080fd5b61159983611561565b946020939093013593505050565b6000806000606084860312156115bc57600080fd5b6115c584611561565b92506115d360208501611561565b9150604084013590509250925092565b6000602082840312156115f557600080fd5b5035919050565b60006020828403121561160e57600080fd5b6104a982611561565b6000806040838503121561162a57600080fd5b61163383611561565b915061164160208401611561565b90509250929050565b600181811c9082168061165e57607f821691505b6020821081141561167f57634e487b7160e01b600052602260045260246000fd5b50919050565b634e487b7160e01b600052601160045260246000fd5b600082198211156116ae576116ae611685565b500190565b60208082526010908201526f14185d5cd8589b194e881c185d5cd95960821b604082015260600190565b6000828210156116ef576116ef611685565b500390565b6001600160a01b03929092168252602082015260400190565b6020808252818101527f4f776e61626c653a2063616c6c6572206973206e6f7420746865206f776e6572604082015260600190565b60006020828403121561175457600080fd5b5051919050565b600081600019048311821515161561177557611775611685565b500290565b60008261179757634e487b7160e01b600052601260045260246000fd5b500490565b6000602082840312156117ae57600080fd5b815180151581146104a957600080fd5b600082516117d0818460208701611502565b919091019291505056feddf252ad1be2c89b69c2b068fc378daa952ba7f163c4a11628f55a4df523b3efa264697066735822122009a6b3f2bba451142ed70379b6ba8948825a03829b82ccbaaf0a3a2eb5a12a0c64736f6c634300080b0033"
}