{
  "address": "0xe7f1725E7734CE288F8367e1Bb143E90bb3F0512",
  "abi": [
    {
      "inputs": [],
      "stateMutability": "nonpayable",
      "type": "constructor"
    },
    {
      "anonymous": false,
      "inputs": [
        {
          "indexed": true,
          "internalType": "address",
          "name": "owner",
          "type": "address"
        },
        {
          "indexed": true,
          "internalType": "address",
          "name": "spender",
          "type": "address"
        },
        {
          "indexed": false,
          "internalType": "uint256",
          "name": "value",
          "type": "uint256"
        }
      ],
      "name": "Approval",
      "type": "event"
    },
    {
      "anonymous": false,
      "inputs": [
        {
          "indexed": true,
          "internalType": "address",
          "name": "previousOperator",
          "type": "address"
        },
        {
          "indexed": true,
          "internalType": "address",
          "name": "newOperator",
          "type": "address"
        }
      ],
      "name": "OperatorTransferred",
      "type": "event"
    },
    {
      "anonymous": false,
      "inputs": [
        {
          "indexed": true,
          "internalType": "address",
          "name": "previousOwner",
          "type": "address"
        },
        {
          "indexed": true,
          "internalType": "address",
          "name": "newOwner",
          "type": "address"
        }
      ],
      "name": "OwnershipTransferred",
      "type": "event"
    },
    {
      "anonymous": false,
      "inputs": [
        {
          "indexed": true,
          "internalType": "address",
          "name": "from",
          "type": "address"
        },
        {
          "indexed": true,
          "internalType": "address",
          "name": "to",
          "type": "address"
        },
        {
          "indexed": false,
          "internalType": "uint256",
          "name": "value",
          "type": "uint256"
        }
      ],
      "name": "Transfer",
      "type": "event"
    },
    {
      "inputs": [],
      "name": "INITIAL_AIRDROP_WALLET_DISTRIBUTION",
      "outputs": [
        {
          "internalType": "uint256",
          "name": "",
          "type": "uint256"
        }
      ],
      "stateMutability": "view",
      "type": "function"
    },
    {
      "inputs": [],
      "name": "INITIAL_GENESIS_POOL_DISTRIBUTION",
      "outputs": [
        {
          "internalType": "uint256",
          "name": "",
          "type": "uint256"
        }
      ],
      "stateMutability": "view",
      "type": "function"
    },
    {
      "inputs": [],
      "name": "INITIAL_GRAPE_POOL_DISTRIBUTION",
      "outputs": [
        {
          "internalType": "uint256",
          "name": "",
          "type": "uint256"
        }
      ],
      "stateMutability": "view",
      "type": "function"
    },
    {
      "inputs": [
        {
          "internalType": "address",
          "name": "owner",
          "type": "address"
        },
        {
          "internalType": "address",
          "name": "spender",
          "type": "address"
        }
      ],
      "name": "allowance",
      "outputs": [
        {
          "internalType": "uint256",
          "name": "",
          "type": "uint256"
        }
      ],
      "stateMutability": "view",
      "type": "function"
    },
    {
      "inputs": [
        {
          "internalType": "address",
          "name": "spender",
          "type": "address"
        },
        {
          "internalType": "uint256",
          "name": "amount",
          "type": "uint256"
        }
      ],
      "name": "approve",
      "outputs": [
        {
          "internalType": "bool",
          "name": "",
          "type": "bool"
        }
      ],
      "stateMutability": "nonpayable",
      "type": "function"
    },
    {
      "inputs": [
        {
          "internalType": "address",
          "name": "account",
          "type": "address"
        }
      ],
      "name": "balanceOf",
      "outputs": [
        {
          "internalType": "uint256",
          "name": "",
          "type": "uint256"
        }
      ],
      "stateMutability": "view",
      "type": "function"
    },
    {
      "inputs": [
        {
          "internalType": "uint256",
          "name": "amount",
          "type": "uint256"
        }
      ],
      "name": "burn",
      "outputs": [],
      "stateMutability": "nonpayable",
      "type": "function"
    },
    {
      "inputs": [
        {
          "internalType": "address",
          "name": "account",
          "type": "address"
        },
        {
          "internalType": "uint256",
          "name": "amount",
          "type": "uint256"
        }
      ],
      "name": "burnFrom",
      "outputs": [],
      "stateMutability": "nonpayable",
      "type": "function"
    },
    {
      "inputs": [],
      "name": "decimals",
      "outputs": [
        {
          "internalType": "uint8",
          "name": "",
          "type": "uint8"
        }
      ],
      "stateMutability": "view",
      "type": "function"
    },
    {
      "inputs": [
        {
          "internalType": "address",
          "name": "spender",
          "type": "address"
        },
        {
          "internalType": "uint256",
          "name": "subtractedValue",
          "type": "uint256"
        }
      ],
      "name": "decreaseAllowance",
      "outputs": [
        {
          "internalType": "bool",
          "name": "",
          "type": "bool"
        }
      ],
      "stateMutability": "nonpayable",
      "type": "function"
    },
    {
      "inputs": [
        {
          "internalType": "address",
          "name": "_genesisPool",
          "type": "address"
        },
        {
          "internalType": "address",
          "name": "_grapePool",
          "type": "address"
        },
        {
          "internalType": "address",
          "name": "_airdropWallet",
          "type": "address"
        }
      ],
      "name": "distributeReward",
      "outputs": [],
      "stateMutability": "nonpayable",
      "type": "function"
    },
    {
      "inputs": [
        {
          "internalType": "contract IERC20",
          "name": "_token",
          "type": "address"
        },
        {
          "internalType": "uint256",
          "name": "_amount",
          "type": "uint256"
        },
        {
          "internalType": "address",
          "name": "_to",
          "type": "address"
        }
      ],
      "name": "governanceRecoverUnsupported",
      "outputs": [],
      "stateMutability": "nonpayable",
      "type": "function"
    },
    {
      "inputs": [],
      "name": "grapeOracle",
      "outputs": [
        {
          "internalType": "address",
          "name": "",
          "type": "address"
        }
      ],
      "stateMutability": "view",
      "type": "function"
    },
    {
      "inputs": [
        {
          "internalType": "address",
          "name": "spender",
          "type": "address"
        },
        {
          "internalType": "uint256",
          "name": "addedValue",
          "type": "uint256"
        }
      ],
      "name": "increaseAllowance",
      "outputs": [
        {
          "internalType": "bool",
          "name": "",
          "type": "bool"
        }
      ],
      "stateMutability": "nonpayable",
      "type": "function"
    },
    {
      "inputs": [],
      "name": "isOperator",
      "outputs": [
        {
          "internalType": "bool",
          "name": "",
          "type": "bool"
        }
      ],
      "stateMutability": "view",
      "type": "function"
    },
    {
      "inputs": [
        {
          "internalType": "address",
          "name": "recipient_",
          "type": "address"
        },
        {
          "internalType": "uint256",
          "name": "amount_",
          "type": "uint256"
        }
      ],
      "name": "mint",
      "outputs": [
        {
          "internalType": "bool",
          "name": "",
          "type": "bool"
        }
      ],
      "stateMutability": "nonpayable",
      "type": "function"
    },
    {
      "inputs": [],
      "name": "name",
      "outputs": [
        {
          "internalType": "string",
          "name": "",
          "type": "string"
        }
      ],
      "stateMutability": "view",
      "type": "function"
    },
    {
      "inputs": [],
      "name": "operator",
      "outputs": [
        {
          "internalType": "address",
          "name": "",
          "type": "address"
        }
      ],
      "stateMutability": "view",
      "type": "function"
    },
    {
      "inputs": [],
      "name": "owner",
      "outputs": [
        {
          "internalType": "address",
          "name": "",
          "type": "address"
        }
      ],
      "stateMutability": "view",
      "type": "function"
    },
    {
      "inputs": [],
      "name": "renounceOwnership",
      "outputs": [],
      "stateMutability": "nonpayable",
      "type": "function"
    },
    {
      "inputs": [],
      "name": "rewardPoolDistributed",
      "outputs": [
        {
          "internalType": "bool",
          "name": "",
          "type": "bool"
        }
      ],
      "stateMutability": "view",
      "type": "function"
    },
    {
      "inputs": [
        {
          "internalType": "address",
          "name": "_grapeOracle",
          "type": "address"
        }
      ],
      "name": "setGrapeOracle",
      "outputs": [],
      "stateMutability": "nonpayable",
      "type": "function"
    },
    {
      "inputs": [],
      "name": "symbol",
      "outputs": [
        {
          "internalType": "string",
          "name": "",
          "type": "string"
        }
      ],
      "stateMutability": "view",
      "type": "function"
    },
    {
      "inputs": [],
      "name": "totalSupply",
      "outputs": [
        {
          "internalType": "uint256",
          "name": "",
          "type": "uint256"
        }
      ],
      "stateMutability": "view",
      "type": "function"
    },
    {
      "inputs": [
        {
          "internalType": "address",
          "name": "recipient",
          "type": "address"
        },
        {
          "internalType": "uint256",
          "name": "amount",
          "type": "uint256"
        }
      ],
      "name": "transfer",
      "outputs": [
        {
          "internalType": "bool",
          "name": "",
          "type": "bool"
        }
      ],
      "stateMutability": "nonpayable",
      "type": "function"
    },
    {
      "inputs": [
        {
          "internalType": "address",
          "name": "sender",
          "type": "address"
        },
        {
          "internalType": "address",
          "name": "recipient",
          "type": "address"
        },
        {
          "internalType": "uint256",
          "name": "amount",
          "type": "uint256"
        }
      ],
      "name": "transferFrom",
      "outputs": [
        {
          "internalType": "bool",
          "name": "",
          "type": "bool"
        }
      ],
      "stateMutability": "nonpayable",
      "type": "function"
    },
    {
      "inputs": [
        {
          "internalType": "address",
          "name": "newOperator_",
          "type": "address"
        }
      ],
      "name": "transferOperator",
      "outputs": [],
      "stateMutability": "nonpayable",
      "type": "function"
    },
    {
      "inputs": [
        {
          "internalType": "address",
          "name": "newOwner",
          "type": "address"
        }
      ],
      "name": "transferOwnership",
      "outputs": [],
      "stateMutability": "nonpayable",
      "type": "function"
    }
  ],
  "transactionHash": "0xdb07a77b0a489cbd2e3e770ef218140a66ac3c14d432a19d26c7fd0fd17577bc",
  "args": [],
  "solcInputHash": "b5027fc4a8a098529b3cbfdc01916af8",
  "bytecode": "0x60806040526006805460ff60a01b191690553480156200001e57600080fd5b50604080518082018252600d81526c47726170652046696e616e636560981b602080830191825283518085019094526005845264475241504560d81b9084015281519192916200007191600391620002e3565b50805162000087906004906020840190620002e3565b50506005805460ff19166012179055506000620000a362000169565b60058054610100600160a81b0319166101006001600160a01b03841690810291909117909155604051919250906000907f8be0079c531659141344cd1fd0a4f28419497f9722a3daafe3b4186f6b6457e0908290a3506200010362000169565b600680546001600160a01b0319166001600160a01b0392831617908190556040519116906000907f74da04524d50c64947f5dd5381ef1a4dca5cba8ed1d816243f9e48aa0b5617ed908290a36200016333670de0b6b3a76400006200016d565b6200037f565b3390565b6001600160a01b038216620001c9576040805162461bcd60e51b815260206004820152601f60248201527f45524332303a206d696e7420746f20746865207a65726f206164647265737300604482015290519081900360640190fd5b620001d7600083836200027c565b620001f3816002546200028160201b62000ece1790919060201c565b6002556001600160a01b038216600090815260208181526040909120546200022691839062000ece62000281821b17901c565b6001600160a01b0383166000818152602081815260408083209490945583518581529351929391927fddf252ad1be2c89b69c2b068fc378daa952ba7f163c4a11628f55a4df523b3ef9281900390910190a35050565b505050565b600082820183811015620002dc576040805162461bcd60e51b815260206004820152601b60248201527f536166654d6174683a206164646974696f6e206f766572666c6f770000000000604482015290519081900360640190fd5b9392505050565b828054600181600116156101000203166002900490600052602060002090601f016020900481019282601f106200032657805160ff191683800117855562000356565b8280016001018555821562000356579182015b828111156200035657825182559160200191906001019062000339565b506200036492915062000368565b5090565b5b8082111562000364576000815560010162000369565b61178e806200038f6000396000f3fe608060405234801561001057600080fd5b50600436106101845760003560e01c8063570ca735116100d95780639662676c116100875780639662676c1461048b578063a457c2d714610493578063a9059cbb146104bf578063d904f44d146104eb578063dd62ed3e146104f3578063f2fde38b14610521578063ffa8226e1461054757610184565b8063570ca735146103f55780635c03b0261461041957806370a0823114610421578063715018a61461044757806379cc67901461044f5780638da5cb5b1461047b57806395d89b411461048357610184565b806340c10f191161013657806340c10f191461030857806342966c681461033457806343692cdd146103515780634456eda2146103775780634e20a02c1461037f578063521181d51461038757806354575af4146103bf57610184565b806306fdde0314610189578063095ea7b31461020657806318160ddd1461024657806323b872dd1461026057806329605e7714610296578063313ce567146102be57806339509351146102dc575b600080fd5b61019161054f565b6040805160208082528351818301528351919283929083019185019080838360005b838110156101cb5781810151838201526020016101b3565b50505050905090810190601f1680156101f85780820380516001836020036101000a031916815260200191505b509250505060405180910390f35b6102326004803603604081101561021c57600080fd5b506001600160a01b0381351690602001356105e5565b604080519115158252519081900360200190f35b61024e610602565b60408051918252519081900360200190f35b6102326004803603606081101561027657600080fd5b506001600160a01b03813581169160208101359091169060400135610608565b6102bc600480360360208110156102ac57600080fd5b50356001600160a01b0316610665565b005b6102c66106d3565b6040805160ff9092168252519081900360200190f35b610232600480360360408110156102f257600080fd5b506001600160a01b0381351690602001356106dc565b6102326004803603604081101561031e57600080fd5b506001600160a01b03813516906020013561072a565b6102bc6004803603602081101561034a57600080fd5b50356107a4565b6102bc6004803603602081101561036757600080fd5b50356001600160a01b03166107ad565b61023261085d565b61024e610883565b6102bc6004803603606081101561039d57600080fd5b506001600160a01b038135811691602081013582169160409091013516610890565b6102bc600480360360608110156103d557600080fd5b506001600160a01b03813581169160208101359160409091013516610a66565b6103fd610b37565b604080516001600160a01b039092168252519081900360200190f35b61024e610b46565b61024e6004803603602081101561043757600080fd5b50356001600160a01b0316610b54565b6102bc610b6f565b6102bc6004803603604081101561046557600080fd5b506001600160a01b038135169060200135610c21565b6103fd610c78565b610191610c8c565b610232610ced565b610232600480360360408110156104a957600080fd5b506001600160a01b038135169060200135610cfd565b610232600480360360408110156104d557600080fd5b506001600160a01b038135169060200135610d65565b6103fd610d79565b61024e6004803603604081101561050957600080fd5b506001600160a01b0381358116916020013516610d88565b6102bc6004803603602081101561053757600080fd5b50356001600160a01b0316610db3565b61024e610ec1565b60038054604080516020601f60026000196101006001881615020190951694909404938401819004810282018101909252828152606093909290918301828280156105db5780601f106105b0576101008083540402835291602001916105db565b820191906000526020600020905b8154815290600101906020018083116105be57829003601f168201915b5050505050905090565b60006105f96105f2610f2f565b8484610f33565b50600192915050565b60025490565b600061061584848461101f565b61065b84610621610f2f565b610656856040518060600160405280602881526020016115f86028913961064f8a61064a610f2f565b610d88565b9190611168565b610f33565b5060019392505050565b61066d610f2f565b6001600160a01b031661067e610c78565b6001600160a01b0316146106c7576040805162461bcd60e51b81526020600482018190526024820152600080516020611620833981519152604482015290519081900360640190fd5b6106d0816111ff565b50565b60055460ff1690565b60006105f96106e9610f2f565b8461065685600160006106fa610f2f565b6001600160a01b03908116825260208083019390935260409182016000908120918c168152925290205490610ece565b6006546000906001600160a01b031633146107765760405162461bcd60e51b81526004018080602001828103825260248152602001806116646024913960400191505060405180910390fd5b600061078184610b54565b905061078d848461129c565b600061079885610b54565b91909111949350505050565b6106d08161137a565b6006546001600160a01b031633146107f65760405162461bcd60e51b81526004018080602001828103825260248152602001806116646024913960400191505060405180910390fd5b6001600160a01b03811661083b5760405162461bcd60e51b81526004018080602001828103825260228152602001806116c96022913960400191505060405180910390fd5b600780546001600160a01b0319166001600160a01b0392909216919091179055565b6006546000906001600160a01b0316610874610f2f565b6001600160a01b031614905090565b68821ab0d4414980000081565b6006546001600160a01b031633146108d95760405162461bcd60e51b81526004018080602001828103825260248152602001806116646024913960400191505060405180910390fd5b600654600160a01b900460ff1615610933576040805162461bcd60e51b81526020600482015260186024820152776f6e6c792063616e2064697374726962757465206f6e636560401b604482015290519081900360640190fd5b6001600160a01b03831661097e576040805162461bcd60e51b815260206004820152600d60248201526c0857d9d95b995cda5cd41bdbdb609a1b604482015290519081900360640190fd5b6001600160a01b0382166109c7576040805162461bcd60e51b815260206004820152600b60248201526a0857d9dc985c19541bdbdb60aa1b604482015290519081900360640190fd5b6001600160a01b038116610a14576040805162461bcd60e51b815260206004820152600f60248201526e0857d85a5c991c9bdc15d85b1b195d608a1b604482015290519081900360640190fd5b6006805460ff60a01b1916600160a01b179055610a3a8368821ab0d4414980000061129c565b610a4e82690492f037764b9580000061129c565b610a6181683635c9adc5dea0000061129c565b505050565b6006546001600160a01b03163314610aaf5760405162461bcd60e51b81526004018080602001828103825260248152602001806116646024913960400191505060405180910390fd5b826001600160a01b031663a9059cbb82846040518363ffffffff1660e01b815260040180836001600160a01b0316815260200182815260200192505050602060405180830381600087803b158015610b0657600080fd5b505af1158015610b1a573d6000803e3d6000fd5b505050506040513d6020811015610b3057600080fd5b5050505050565b6006546001600160a01b031690565b690492f037764b9580000081565b6001600160a01b031660009081526020819052604090205490565b610b77610f2f565b6001600160a01b0316610b88610c78565b6001600160a01b031614610bd1576040805162461bcd60e51b81526020600482018190526024820152600080516020611620833981519152604482015290519081900360640190fd5b60055460405160009161010090046001600160a01b0316907f8be0079c531659141344cd1fd0a4f28419497f9722a3daafe3b4186f6b6457e0908390a360058054610100600160a81b0319169055565b6006546001600160a01b03163314610c6a5760405162461bcd60e51b81526004018080602001828103825260248152602001806116646024913960400191505060405180910390fd5b610c74828261138b565b5050565b60055461010090046001600160a01b031690565b60048054604080516020601f60026000196101006001881615020190951694909404938401819004810282018101909252828152606093909290918301828280156105db5780601f106105b0576101008083540402835291602001916105db565b600654600160a01b900460ff1681565b60006105f9610d0a610f2f565b84610656856040518060600160405280602581526020016117346025913960016000610d34610f2f565b6001600160a01b03908116825260208083019390935260409182016000908120918d16815292529020549190611168565b60006105f9610d72610f2f565b848461101f565b6007546001600160a01b031681565b6001600160a01b03918216600090815260016020908152604080832093909416825291909152205490565b610dbb610f2f565b6001600160a01b0316610dcc610c78565b6001600160a01b031614610e15576040805162461bcd60e51b81526020600482018190526024820152600080516020611620833981519152604482015290519081900360640190fd5b6001600160a01b038116610e5a5760405162461bcd60e51b815260040180806020018281038252602681526020018061155d6026913960400191505060405180910390fd5b6005546040516001600160a01b0380841692610100900416907f8be0079c531659141344cd1fd0a4f28419497f9722a3daafe3b4186f6b6457e090600090a3600580546001600160a01b0390921661010002610100600160a81b0319909216919091179055565b683635c9adc5dea0000081565b600082820183811015610f28576040805162461bcd60e51b815260206004820152601b60248201527f536166654d6174683a206164646974696f6e206f766572666c6f770000000000604482015290519081900360640190fd5b9392505050565b3390565b6001600160a01b038316610f785760405162461bcd60e51b81526004018080602001828103825260248152602001806117106024913960400191505060405180910390fd5b6001600160a01b038216610fbd5760405162461bcd60e51b81526004018080602001828103825260228152602001806115836022913960400191505060405180910390fd5b6001600160a01b03808416600081815260016020908152604080832094871680845294825291829020859055815185815291517f8c5be1e5ebec7d5bd14f71427d1e84f3dd0314c0f7b2291e5b200ac8c7c3b9259281900390910190a3505050565b6001600160a01b0383166110645760405162461bcd60e51b81526004018080602001828103825260258152602001806116eb6025913960400191505060405180910390fd5b6001600160a01b0382166110a95760405162461bcd60e51b81526004018080602001828103825260238152602001806115186023913960400191505060405180910390fd5b6110b4838383610a61565b6110f1816040518060600160405280602681526020016115a5602691396001600160a01b0386166000908152602081905260409020549190611168565b6001600160a01b0380851660009081526020819052604080822093909355908416815220546111209082610ece565b6001600160a01b0380841660008181526020818152604091829020949094558051858152905191939287169260008051602061168883398151915292918290030190a3505050565b600081848411156111f75760405162461bcd60e51b81526004018080602001828103825283818151815260200191508051906020019080838360005b838110156111bc5781810151838201526020016111a4565b50505050905090810190601f1680156111e95780820380516001836020036101000a031916815260200191505b509250505060405180910390fd5b505050900390565b6001600160a01b0381166112445760405162461bcd60e51b815260040180806020018281038252602d8152602001806115cb602d913960400191505060405180910390fd5b6040516001600160a01b038216906000907f74da04524d50c64947f5dd5381ef1a4dca5cba8ed1d816243f9e48aa0b5617ed908290a3600680546001600160a01b0319166001600160a01b0392909216919091179055565b6001600160a01b0382166112f7576040805162461bcd60e51b815260206004820152601f60248201527f45524332303a206d696e7420746f20746865207a65726f206164647265737300604482015290519081900360640190fd5b61130360008383610a61565b6002546113109082610ece565b6002556001600160a01b0382166000908152602081905260409020546113369082610ece565b6001600160a01b0383166000818152602081815260408083209490945583518581529351929391926000805160206116888339815191529281900390910190a35050565b6106d0611385610f2f565b826113d0565b60006113b6826040518060600160405280602481526020016116406024913961064f8661064a610f2f565b90506113ca836113c4610f2f565b83610f33565b610a6183835b6001600160a01b0382166114155760405162461bcd60e51b81526004018080602001828103825260218152602001806116a86021913960400191505060405180910390fd5b61142182600083610a61565b61145e8160405180606001604052806022815260200161153b602291396001600160a01b0385166000908152602081905260409020549190611168565b6001600160a01b03831660009081526020819052604090205560025461148490826114ba565b6002556040805182815290516000916001600160a01b038516916000805160206116888339815191529181900360200190a35050565b600082821115611511576040805162461bcd60e51b815260206004820152601e60248201527f536166654d6174683a207375627472616374696f6e206f766572666c6f770000604482015290519081900360640190fd5b5090039056fe45524332303a207472616e7366657220746f20746865207a65726f206164647265737345524332303a206275726e20616d6f756e7420657863656564732062616c616e63654f776e61626c653a206e6577206f776e657220697320746865207a65726f206164647265737345524332303a20617070726f766520746f20746865207a65726f206164647265737345524332303a207472616e7366657220616d6f756e7420657863656564732062616c616e63656f70657261746f723a207a65726f206164647265737320676976656e20666f72206e6577206f70657261746f7245524332303a207472616e7366657220616d6f756e74206578636565647320616c6c6f77616e63654f776e61626c653a2063616c6c6572206973206e6f7420746865206f776e657245524332303a206275726e20616d6f756e74206578636565647320616c6c6f77616e63656f70657261746f723a2063616c6c6572206973206e6f7420746865206f70657261746f72ddf252ad1be2c89b69c2b068fc378daa952ba7f163c4a11628f55a4df523b3ef45524332303a206275726e2066726f6d20746865207a65726f20616464726573736f7261636c6520616464726573732063616e6e6f742062652030206164647265737345524332303a207472616e736665722066726f6d20746865207a65726f206164647265737345524332303a20617070726f76652066726f6d20746865207a65726f206164647265737345524332303a2064656372656173656420616c6c6f77616e63652062656c6f77207a65726fa264697066735822122007cf359f08dd1e3f1cba4a0b525c95714e50d2557f487c06668982e75c6b62fc64736f6c634300060c0033"
}