{
  "address": "0xCf7Ed3AccA5a467e9e704C703E8D87F634fB0Fc9",
  "abi": [
    {
      "inputs": [
        {
          "internalType": "contract VintageWine",
          "name": "_vintageWine",
          "type": "address"
        },
        {
          "internalType": "address",
          "name": "_grape",
          "type": "address"
        },
        {
          "internalType": "string",
          "name": "_BASE_URI",
          "type": "string"
        }
      ],
      "stateMutability": "nonpayable",
      "type": "constructor"
    },
    {
      "anonymous": false,
      "inputs": [
        {
          "indexed": true,
          "internalType": "address",
          "name": "owner",
          "type": "address"
        },
        {
          "indexed": true,
          "internalType": "address",
          "name": "approved",
          "type": "address"
        },
        {
          "indexed": true,
          "internalType": "uint256",
          "name": "tokenId",
          "type": "uint256"
        }
      ],
      "name": "Approval",
      "type": "event"
    },
    {
      "anonymous": false,
      "inputs": [
        {
          "indexed": true,
          "internalType": "address",
          "name": "owner",
          "type": "address"
        },
        {
          "indexed": true,
          "internalType": "address",
          "name": "operator",
          "type": "address"
        },
        {
          "indexed": false,
          "internalType": "bool",
          "name": "approved",
          "type": "bool"
        }
      ],
      "name": "ApprovalForAll",
      "type": "event"
    },
    {
      "anonymous": false,
      "inputs": [
        {
          "indexed": true,
          "internalType": "address",
          "name": "previousOwner",
          "type": "address"
        },
        {
          "indexed": true,
          "internalType": "address",
          "name": "newOwner",
          "type": "address"
        }
      ],
      "name": "OwnershipTransferred",
      "type": "event"
    },
    {
      "anonymous": false,
      "inputs": [
        {
          "indexed": false,
          "internalType": "address",
          "name": "account",
          "type": "address"
        }
      ],
      "name": "Paused",
      "type": "event"
    },
    {
      "anonymous": false,
      "inputs": [
        {
          "indexed": true,
          "internalType": "address",
          "name": "from",
          "type": "address"
        },
        {
          "indexed": true,
          "internalType": "address",
          "name": "to",
          "type": "address"
        },
        {
          "indexed": true,
          "internalType": "uint256",
          "name": "tokenId",
          "type": "uint256"
        }
      ],
      "name": "Transfer",
      "type": "event"
    },
    {
      "anonymous": false,
      "inputs": [
        {
          "indexed": false,
          "internalType": "address",
          "name": "account",
          "type": "address"
        }
      ],
      "name": "Unpaused",
      "type": "event"
    },
    {
      "anonymous": false,
      "inputs": [
        {
          "indexed": false,
          "internalType": "uint256",
          "name": "level",
          "type": "uint256"
        }
      ],
      "name": "onUpgradeCreated",
      "type": "event"
    },
    {
      "inputs": [],
      "name": "BASE_URI",
      "outputs": [
        {
          "internalType": "string",
          "name": "",
          "type": "string"
        }
      ],
      "stateMutability": "view",
      "type": "function"
    },
    {
      "inputs": [],
      "name": "LP_TAX_PERCENT",
      "outputs": [
        {
          "internalType": "uint256",
          "name": "",
          "type": "uint256"
        }
      ],
      "stateMutability": "view",
      "type": "function"
    },
    {
      "inputs": [
        {
          "internalType": "uint256",
          "name": "_maxSupply",
          "type": "uint256"
        },
        {
          "internalType": "uint256",
          "name": "_priceVintageWine",
          "type": "uint256"
        },
        {
          "internalType": "uint256",
          "name": "_priceGrape",
          "type": "uint256"
        },
        {
          "internalType": "uint256",
          "name": "_yield",
          "type": "uint256"
        }
      ],
      "name": "addLevel",
      "outputs": [],
      "stateMutability": "nonpayable",
      "type": "function"
    },
    {
      "inputs": [
        {
          "internalType": "address",
          "name": "to",
          "type": "address"
        },
        {
          "internalType": "uint256",
          "name": "tokenId",
          "type": "uint256"
        }
      ],
      "name": "approve",
      "outputs": [],
      "stateMutability": "nonpayable",
      "type": "function"
    },
    {
      "inputs": [
        {
          "internalType": "address",
          "name": "owner",
          "type": "address"
        }
      ],
      "name": "balanceOf",
      "outputs": [
        {
          "internalType": "uint256",
          "name": "",
          "type": "uint256"
        }
      ],
      "stateMutability": "view",
      "type": "function"
    },
    {
      "inputs": [
        {
          "internalType": "uint256",
          "name": "_index",
          "type": "uint256"
        },
        {
          "internalType": "uint256",
          "name": "_maxSupply",
          "type": "uint256"
        },
        {
          "internalType": "uint256",
          "name": "_priceVintageWine",
          "type": "uint256"
        },
        {
          "internalType": "uint256",
          "name": "_priceGrape",
          "type": "uint256"
        },
        {
          "internalType": "uint256",
          "name": "_yield",
          "type": "uint256"
        }
      ],
      "name": "changeLevel",
      "outputs": [],
      "stateMutability": "nonpayable",
      "type": "function"
    },
    {
      "inputs": [
        {
          "internalType": "contract IERC20",
          "name": "_token",
          "type": "address"
        },
        {
          "internalType": "uint256",
          "name": "_amount",
          "type": "uint256"
        },
        {
          "internalType": "address",
          "name": "target",
          "type": "address"
        }
      ],
      "name": "forwardERC20s",
      "outputs": [],
      "stateMutability": "nonpayable",
      "type": "function"
    },
    {
      "inputs": [
        {
          "internalType": "uint256",
          "name": "tokenId",
          "type": "uint256"
        }
      ],
      "name": "getApproved",
      "outputs": [
        {
          "internalType": "address",
          "name": "",
          "type": "address"
        }
      ],
      "stateMutability": "view",
      "type": "function"
    },
    {
      "inputs": [
        {
          "internalType": "uint256",
          "name": "_tokenId",
          "type": "uint256"
        }
      ],
      "name": "getLevel",
      "outputs": [
        {
          "internalType": "uint256",
          "name": "",
          "type": "uint256"
        }
      ],
      "stateMutability": "view",
      "type": "function"
    },
    {
      "inputs": [
        {
          "internalType": "uint256",
          "name": "_tokenId",
          "type": "uint256"
        }
      ],
      "name": "getYield",
      "outputs": [
        {
          "internalType": "uint256",
          "name": "",
          "type": "uint256"
        }
      ],
      "stateMutability": "view",
      "type": "function"
    },
    {
      "inputs": [
        {
          "internalType": "address",
          "name": "_owner",
          "type": "address"
        },
        {
          "internalType": "address",
          "name": "_operator",
          "type": "address"
        }
      ],
      "name": "isApprovedForAll",
      "outputs": [
        {
          "internalType": "bool",
          "name": "",
          "type": "bool"
        }
      ],
      "stateMutability": "view",
      "type": "function"
    },
    {
      "inputs": [
        {
          "internalType": "uint256",
          "name": "",
          "type": "uint256"
        }
      ],
      "name": "levels",
      "outputs": [
        {
          "internalType": "uint256",
          "name": "supply",
          "type": "uint256"
        },
        {
          "internalType": "uint256",
          "name": "maxSupply",
          "type": "uint256"
        },
        {
          "internalType": "uint256",
          "name": "priceVintageWine",
          "type": "uint256"
        },
        {
          "internalType": "uint256",
          "name": "priceGrape",
          "type": "uint256"
        },
        {
          "internalType": "uint256",
          "name": "yield",
          "type": "uint256"
        }
      ],
      "stateMutability": "view",
      "type": "function"
    },
    {
      "inputs": [
        {
          "internalType": "uint256",
          "name": "_level",
          "type": "uint256"
        },
        {
          "internalType": "uint256",
          "name": "_qty",
          "type": "uint256"
        }
      ],
      "name": "mintUpgrade",
      "outputs": [],
      "stateMutability": "nonpayable",
      "type": "function"
    },
    {
      "inputs": [],
      "name": "mintingStarted",
      "outputs": [
        {
          "internalType": "bool",
          "name": "",
          "type": "bool"
        }
      ],
      "stateMutability": "view",
      "type": "function"
    },
    {
      "inputs": [],
      "name": "name",
      "outputs": [
        {
          "internalType": "string",
          "name": "",
          "type": "string"
        }
      ],
      "stateMutability": "view",
      "type": "function"
    },
    {
      "inputs": [],
      "name": "owner",
      "outputs": [
        {
          "internalType": "address",
          "name": "",
          "type": "address"
        }
      ],
      "stateMutability": "view",
      "type": "function"
    },
    {
      "inputs": [
        {
          "internalType": "uint256",
          "name": "tokenId",
          "type": "uint256"
        }
      ],
      "name": "ownerOf",
      "outputs": [
        {
          "internalType": "address",
          "name": "",
          "type": "address"
        }
      ],
      "stateMutability": "view",
      "type": "function"
    },
    {
      "inputs": [],
      "name": "paused",
      "outputs": [
        {
          "internalType": "bool",
          "name": "",
          "type": "bool"
        }
      ],
      "stateMutability": "view",
      "type": "function"
    },
    {
      "inputs": [],
      "name": "renounceOwnership",
      "outputs": [],
      "stateMutability": "nonpayable",
      "type": "function"
    },
    {
      "inputs": [
        {
          "internalType": "address",
          "name": "from",
          "type": "address"
        },
        {
          "internalType": "address",
          "name": "to",
          "type": "address"
        },
        {
          "internalType": "uint256",
          "name": "tokenId",
          "type": "uint256"
        }
      ],
      "name": "safeTransferFrom",
      "outputs": [],
      "stateMutability": "nonpayable",
      "type": "function"
    },
    {
      "inputs": [
        {
          "internalType": "address",
          "name": "from",
          "type": "address"
        },
        {
          "internalType": "address",
          "name": "to",
          "type": "address"
        },
        {
          "internalType": "uint256",
          "name": "tokenId",
          "type": "uint256"
        },
        {
          "internalType": "bytes",
          "name": "_data",
          "type": "bytes"
        }
      ],
      "name": "safeTransferFrom",
      "outputs": [],
      "stateMutability": "nonpayable",
      "type": "function"
    },
    {
      "inputs": [
        {
          "internalType": "address",
          "name": "operator",
          "type": "address"
        },
        {
          "internalType": "bool",
          "name": "approved",
          "type": "bool"
        }
      ],
      "name": "setApprovalForAll",
      "outputs": [],
      "stateMutability": "nonpayable",
      "type": "function"
    },
    {
      "inputs": [
        {
          "internalType": "string",
          "name": "_BASE_URI",
          "type": "string"
        }
      ],
      "name": "setBaseURI",
      "outputs": [],
      "stateMutability": "nonpayable",
      "type": "function"
    },
    {
      "inputs": [
        {
          "internalType": "address",
          "name": "_grape",
          "type": "address"
        }
      ],
      "name": "setGrape",
      "outputs": [],
      "stateMutability": "nonpayable",
      "type": "function"
    },
    {
      "inputs": [
        {
          "internalType": "uint256",
          "name": "_startTime",
          "type": "uint256"
        }
      ],
      "name": "setStartTime",
      "outputs": [],
      "stateMutability": "nonpayable",
      "type": "function"
    },
    {
      "inputs": [
        {
          "internalType": "contract VintageWine",
          "name": "_vintageWine",
          "type": "address"
        }
      ],
      "name": "setVintageWine",
      "outputs": [],
      "stateMutability": "nonpayable",
      "type": "function"
    },
    {
      "inputs": [
        {
          "internalType": "address",
          "name": "_wineryAddress",
          "type": "address"
        }
      ],
      "name": "setWineryAddress",
      "outputs": [],
      "stateMutability": "nonpayable",
      "type": "function"
    },
    {
      "inputs": [],
      "name": "startTime",
      "outputs": [
        {
          "internalType": "uint256",
          "name": "",
          "type": "uint256"
        }
      ],
      "stateMutability": "view",
      "type": "function"
    },
    {
      "inputs": [
        {
          "internalType": "bytes4",
          "name": "interfaceId",
          "type": "bytes4"
        }
      ],
      "name": "supportsInterface",
      "outputs": [
        {
          "internalType": "bool",
          "name": "",
          "type": "bool"
        }
      ],
      "stateMutability": "view",
      "type": "function"
    },
    {
      "inputs": [],
      "name": "symbol",
      "outputs": [
        {
          "internalType": "string",
          "name": "",
          "type": "string"
        }
      ],
      "stateMutability": "view",
      "type": "function"
    },
    {
      "inputs": [
        {
          "internalType": "uint256",
          "name": "_tokenId",
          "type": "uint256"
        }
      ],
      "name": "tokenURI",
      "outputs": [
        {
          "internalType": "string",
          "name": "",
          "type": "string"
        }
      ],
      "stateMutability": "view",
      "type": "function"
    },
    {
      "inputs": [
        {
          "internalType": "address",
          "name": "from",
          "type": "address"
        },
        {
          "internalType": "address",
          "name": "to",
          "type": "address"
        },
        {
          "internalType": "uint256",
          "name": "tokenId",
          "type": "uint256"
        }
      ],
      "name": "transferFrom",
      "outputs": [],
      "stateMutability": "nonpayable",
      "type": "function"
    },
    {
      "inputs": [
        {
          "internalType": "address",
          "name": "newOwner",
          "type": "address"
        }
      ],
      "name": "transferOwnership",
      "outputs": [],
      "stateMutability": "nonpayable",
      "type": "function"
    },
    {
      "inputs": [],
      "name": "upgradesMinted",
      "outputs": [
        {
          "internalType": "uint256",
          "name": "",
          "type": "uint256"
        }
      ],
      "stateMutability": "view",
      "type": "function"
    },
    {
      "inputs": [],
      "name": "wineryAddress",
      "outputs": [
        {
          "internalType": "address",
          "name": "",
          "type": "address"
        }
      ],
      "stateMutability": "view",
      "type": "function"
    }
  ],
  "transactionHash": "0x9d589ecc27d600a0a76fba598caf162c7860bdada4b49c51dcd996cdb1ccf8d4",
  "args": [
    "0x5FbDB2315678afecb367f032d93F642f64180aa3",
    "0xe7f1725E7734CE288F8367e1Bb143E90bb3F0512",
    "https://api.pizza.game/chefs"
  ],
  "solcInputHash": "81aa17ed3ccd4f74d71c71b7323f9506",
  "bytecode": "0x60806040526000600e553480156200001657600080fd5b5060405162002f0438038062002f04833981016040819052620000399162000560565b604080518082018252601e81527f56696e7461676557696e652047616d652056696e746e657220546f6f6c73000060208083019182528351808501909452601d84527f56494e5441474557494e452d47414d452d56494e544e45522d544f4f4c000000908401528151919291620000b3916000916200048b565b508051620000c99060019060208401906200048b565b505050620000e6620000e06200043560201b60201c565b62000439565b6006805460ff60a01b19169055600780546001600160a01b038086166001600160a01b031992831617909255600880549285169290911691909117905580516200013890600a9060208401906200048b565b50506040805160a0808201835260008083526109c4602080850191825268a2a15d09519be000008587019081526802b5e3af16b1880000606080880191825260016080808a01828152888052600c8088529a517f13649b2456f1b42fef0f0040b3aaeabcd21a76a0f3f5defd4f583839455116e85596517f13649b2456f1b42fef0f0040b3aaeabcd21a76a0f3f5defd4f583839455116e95593517f13649b2456f1b42fef0f0040b3aaeabcd21a76a0f3f5defd4f583839455116ea5591517f13649b2456f1b42fef0f0040b3aaeabcd21a76a0f3f5defd4f583839455116eb5593517f13649b2456f1b42fef0f0040b3aaeabcd21a76a0f3f5defd4f583839455116ec558751808701895285815261089881850190815269021e19e0c9bab2400000828b019081526804563918244f40000083880190815260038487019081529489528a875292517fd421a5181c571bba3f01190c922c3b2a896fc1d84e86c9f17ac10e67ebef8b5c5590517fd421a5181c571bba3f01190c922c3b2a896fc1d84e86c9f17ac10e67ebef8b5d55517fd421a5181c571bba3f01190c922c3b2a896fc1d84e86c9f17ac10e67ebef8b5e55517fd421a5181c571bba3f01190c922c3b2a896fc1d84e86c9f17ac10e67ebef8b5f55517fd421a5181c571bba3f01190c922c3b2a896fc1d84e86c9f17ac10e67ebef8b6055865194850187528385526107d085830190815269043c33c19375648000009786019788526805f68e8131ecf8000093860193845260059186019182526002948590529590915292517f5d6016397a73f5e079297ac5a36fef17b4d9c3831618e63ab105738020ddd7205592517f5d6016397a73f5e079297ac5a36fef17b4d9c3831618e63ab105738020ddd7215592517f5d6016397a73f5e079297ac5a36fef17b4d9c3831618e63ab105738020ddd7225590517f5d6016397a73f5e079297ac5a36fef17b4d9c3831618e63ab105738020ddd72355517f5d6016397a73f5e079297ac5a36fef17b4d9c3831618e63ab105738020ddd72455600d5550620006a79050565b3390565b600680546001600160a01b038381166001600160a01b0319831681179093556040519116919082907f8be0079c531659141344cd1fd0a4f28419497f9722a3daafe3b4186f6b6457e090600090a35050565b82805462000499906200066a565b90600052602060002090601f016020900481019282620004bd576000855562000508565b82601f10620004d857805160ff191683800117855562000508565b8280016001018555821562000508579182015b8281111562000508578251825591602001919060010190620004eb565b50620005169291506200051a565b5090565b5b808211156200051657600081556001016200051b565b6001600160a01b03811681146200054757600080fd5b50565b634e487b7160e01b600052604160045260246000fd5b6000806000606084860312156200057657600080fd5b8351620005838162000531565b80935050602080850151620005988162000531565b60408601519093506001600160401b0380821115620005b657600080fd5b818701915087601f830112620005cb57600080fd5b815181811115620005e057620005e06200054a565b604051601f8201601f19908116603f011681019083821181831017156200060b576200060b6200054a565b816040528281528a868487010111156200062457600080fd5b600093505b8284101562000648578484018601518185018701529285019262000629565b828411156200065a5760008684830101525b8096505050505050509250925092565b600181811c908216806200067f57607f821691505b60208210811415620006a157634e487b7160e01b600052602260045260246000fd5b50919050565b61284d80620006b76000396000f3fe608060405234801561001057600080fd5b50600436106101d15760003560e01c806370a0823111610105578063abbc6d3f1161009d578063abbc6d3f146103b7578063b2596a67146103bf578063b3af245614610424578063b88d4fde14610437578063c87b56dd1461044a578063dbddb26a1461045d578063e06b971714610465578063e985e9c514610478578063f2fde38b1461048b57600080fd5b806370a0823114610337578063715018a61461034a578063735d09a61461035257806378e97925146103655780637cc8ef631461036e57806386481d40146103815780638da5cb5b1461039457806395d89b411461039c578063a22cb465146103a457600080fd5b806323b872dd1161017857806323b872dd146102985780632ecd520e146102ab5780633e0a322d146102be57806342842e0e146102d157806343f37b98146102e457806355f804b3146102f75780635c975abb1461030a5780636352211e1461031c5780636f8608e41461032f57600080fd5b806301ffc9a7146101d6578063047f3af1146101fe57806306fdde03146102155780630805d8841461022a578063081812fc1461023d578063095ea7b31461025d578063097f1f2f146102725780630b8faf2d14610285575b600080fd5b6101e96101e43660046120c7565b61049e565b60405190151581526020015b60405180910390f35b610207600e5481565b6040519081526020016101f5565b61021d6104f0565b6040516101f5919061213c565b61020761023836600461214f565b610582565b61025061024b36600461214f565b6105d5565b6040516101f59190612168565b61027061026b366004612191565b61065d565b005b6102706102803660046121bd565b61076e565b6102706102933660046121bd565b6107bf565b6102706102a63660046121da565b610810565b6102706102b936600461221b565b610841565b6102706102cc36600461214f565b6108de565b6102706102df3660046121da565b6109b0565b6102706102f236600461224d565b6109cb565b61027061030536600461228f565b610a0e565b600654600160a01b900460ff166101e9565b61025061032a36600461214f565b610a49565b6101e9610ac0565b6102076103453660046121bd565b610adb565b610270610b62565b600954610250906001600160a01b031681565b610207600b5481565b61027061037c366004612301565b610b9d565b61020761038f36600461214f565b61110d565b610250611147565b61021d611156565b6102706103b2366004612331565b611165565b610207600281565b6103fc6103cd36600461214f565b600c60205260009081526040902080546001820154600283015460038401546004909401549293919290919085565b604080519586526020860194909452928401919091526060830152608082015260a0016101f5565b6102706104323660046121bd565b611174565b610270610445366004612380565b6111c5565b61021d61045836600461214f565b6111fd565b61021d6112c1565b610270610473366004612460565b61134f565b6101e961048636600461249b565b6113f6565b6102706104993660046121bd565b61145e565b60006001600160e01b031982166380ac58cd60e01b14806104cf57506001600160e01b03198216635b5e139f60e01b145b806104ea57506301ffc9a760e01b6001600160e01b03198316145b92915050565b6060600080546104ff906124c9565b80601f016020809104026020016040519081016040528092919081815260200182805461052b906124c9565b80156105785780601f1061054d57610100808354040283529160200191610578565b820191906000526020600020905b81548152906001019060200180831161055b57829003601f168201915b5050505050905090565b600061058d826114fe565b6105b25760405162461bcd60e51b81526004016105a990612504565b60405180910390fd5b506000908152600f60209081526040808320548352600c90915290206004015490565b60006105e0826114fe565b6106415760405162461bcd60e51b815260206004820152602c60248201527f4552433732313a20617070726f76656420717565727920666f72206e6f6e657860448201526b34b9ba32b73a103a37b5b2b760a11b60648201526084016105a9565b506000908152600460205260409020546001600160a01b031690565b600061066882610a49565b9050806001600160a01b0316836001600160a01b031614156106d65760405162461bcd60e51b815260206004820152602160248201527f4552433732313a20617070726f76616c20746f2063757272656e74206f776e656044820152603960f91b60648201526084016105a9565b336001600160a01b03821614806106f257506106f281336113f6565b61075f5760405162461bcd60e51b815260206004820152603860248201527f4552433732313a20617070726f76652063616c6c6572206973206e6f74206f776044820152771b995c881b9bdc88185c1c1c9bdd995908199bdc88185b1b60421b60648201526084016105a9565b610769838361151b565b505050565b33610777611147565b6001600160a01b03161461079d5760405162461bcd60e51b81526004016105a990612532565b600980546001600160a01b0319166001600160a01b0392909216919091179055565b336107c8611147565b6001600160a01b0316146107ee5760405162461bcd60e51b81526004016105a990612532565b600780546001600160a01b0319166001600160a01b0392909216919091179055565b61081a3382611589565b6108365760405162461bcd60e51b81526004016105a990612567565b610769838383611653565b3361084a611147565b6001600160a01b0316146108705760405162461bcd60e51b81526004016105a990612532565b600d8054906000610880836125ce565b90915550506040805160a081018252600080825260208083019788528284019687526060830195865260808301948552600d548252600c90529190912090518155935160018501559151600284015551600383015551600490910155565b336108e7611147565b6001600160a01b03161461090d5760405162461bcd60e51b81526004016105a990612532565b42811161095c5760405162461bcd60e51b815260206004820152601b60248201527f737461727454696d65206d75737420626520696e20667574757265000000000060448201526064016105a9565b610964610ac0565b156109ab5760405162461bcd60e51b81526020600482015260176024820152761b5a5b9d1a5b99c8185b1c9958591e481cdd185c9d1959604a1b60448201526064016105a9565b600b55565b610769838383604051806020016040528060008152506111c5565b336109d4611147565b6001600160a01b0316146109fa5760405162461bcd60e51b81526004016105a990612532565b6107696001600160a01b03841682846117ef565b33610a17611147565b6001600160a01b031614610a3d5760405162461bcd60e51b81526004016105a990612532565b610769600a8383612018565b6000818152600260205260408120546001600160a01b0316806104ea5760405162461bcd60e51b815260206004820152602960248201527f4552433732313a206f776e657220717565727920666f72206e6f6e657869737460448201526832b73a103a37b5b2b760b91b60648201526084016105a9565b6000600b54600014158015610ad65750600b5442115b905090565b60006001600160a01b038216610b465760405162461bcd60e51b815260206004820152602a60248201527f4552433732313a2062616c616e636520717565727920666f7220746865207a65604482015269726f206164647265737360b01b60648201526084016105a9565b506001600160a01b031660009081526003602052604090205490565b33610b6b611147565b6001600160a01b031614610b915760405162461bcd60e51b81526004016105a990612532565b610b9b6000611845565b565b600654600160a01b900460ff1615610bea5760405162461bcd60e51b815260206004820152601060248201526f14185d5cd8589b194e881c185d5cd95960821b60448201526064016105a9565b610bf2610ac0565b610c395760405162461bcd60e51b81526020600482015260186024820152772a37b7b6399039b0b632b99030b932903737ba1037b832b760411b60448201526064016105a9565b600081118015610c4a5750600a8111155b610ca05760405162461bcd60e51b815260206004820152602160248201527f7175616e74697479206d757374206265206265747765656e203120616e6420316044820152600360fc1b60648201526084016105a9565b600d54821115610cc25760405162461bcd60e51b81526004016105a9906125e9565b6000828152600c6020526040902060018101549054610ce2908390612610565b1115610d3b5760405162461bcd60e51b815260206004820152602260248201527f796f752063616e2774206d696e742074686174206d616e79207269676874206e6044820152616f7760f01b60648201526084016105a9565b6000828152600c6020526040812060020154610d58908390612628565b6000848152600c602052604081206003015491925090610d79908490612628565b60075490915082906001600160a01b03166370a08231336040518263ffffffff1660e01b8152600401610dac9190612168565b602060405180830381865afa158015610dc9573d6000803e3d6000fd5b505050506040513d601f19601f82011682018060405250810190610ded9190612647565b1015610e3b5760405162461bcd60e51b815260206004820152601b60248201527f6e6f74206861766520656e6f7567682056494e5441474557494e45000000000060448201526064016105a9565b6008546040516370a0823160e01b815282916001600160a01b0316906370a0823190610e6b903390600401612168565b602060405180830381865afa158015610e88573d6000803e3d6000fd5b505050506040513d601f19601f82011682018060405250810190610eac9190612647565b1015610ef25760405162461bcd60e51b81526020600482015260156024820152746e6f74206861766520656e6f75676820475241504560581b60448201526064016105a9565b610efd838533611897565b6007546001600160a01b0316639dc29fac336064610f1c600282612660565b610f269087612628565b610f30919061268d565b6040518363ffffffff1660e01b8152600401610f4d9291906126a1565b600060405180830381600087803b158015610f6757600080fd5b505af1158015610f7b573d6000803e3d6000fd5b50506008546001600160a01b031691506323b872dd9050336040516001600160e01b031960e084901b1681526001600160a01b039091166004820152306024820152604481018490526064016020604051808303816000875af1158015610fe6573d6000803e3d6000fd5b505050506040513d601f19601f8201168201806040525081019061100a91906126ba565b506008546001600160a01b03166342966c686064611029600282612660565b6110339085612628565b61103d919061268d565b6040518263ffffffff1660e01b815260040161105b91815260200190565b600060405180830381600087803b15801561107557600080fd5b505af1158015611089573d6000803e3d6000fd5b50506007546001600160a01b0316915063bca6c75390503360646110ae600287612628565b6110b8919061268d565b6040518363ffffffff1660e01b81526004016110d59291906126a1565b600060405180830381600087803b1580156110ef57600080fd5b505af1158015611103573d6000803e3d6000fd5b5050505050505050565b6000611118826114fe565b6111345760405162461bcd60e51b81526004016105a990612504565b506000908152600f602052604090205490565b6006546001600160a01b031690565b6060600180546104ff906124c9565b611170338383611944565b5050565b3361117d611147565b6001600160a01b0316146111a35760405162461bcd60e51b81526004016105a990612532565b600880546001600160a01b0319166001600160a01b0392909216919091179055565b6111cf3383611589565b6111eb5760405162461bcd60e51b81526004016105a990612567565b6111f784848484611a0f565b50505050565b6060611208826114fe565b61126c5760405162461bcd60e51b815260206004820152602f60248201527f4552433732314d657461646174613a2055524920717565727920666f72206e6f60448201526e3732bc34b9ba32b73a103a37b5b2b760891b60648201526084016105a9565b6000828152600f6020526040812054611286906001612610565b9050611290611a42565b61129982611a51565b6040516020016112aa9291906126d7565b604051602081830303815290604052915050919050565b600a80546112ce906124c9565b80601f01602080910402602001604051908101604052809291908181526020018280546112fa906124c9565b80156113475780601f1061131c57610100808354040283529160200191611347565b820191906000526020600020905b81548152906001019060200180831161132a57829003601f168201915b505050505081565b33611358611147565b6001600160a01b03161461137e5760405162461bcd60e51b81526004016105a990612532565b600d548511156113a05760405162461bcd60e51b81526004016105a9906125e9565b6040805160a081018252600080825260208083019788528284019687526060830195865260808301948552978152600c909752952094518555925160018501559051600284015551600383015551600490910155565b6009546000906001600160a01b03161580159061142057506009546001600160a01b038381169116145b1561142d575060016104ea565b6001600160a01b0380841660009081526005602090815260408083209386168352929052205460ff165b9392505050565b33611467611147565b6001600160a01b03161461148d5760405162461bcd60e51b81526004016105a990612532565b6001600160a01b0381166114f25760405162461bcd60e51b815260206004820152602660248201527f4f776e61626c653a206e6577206f776e657220697320746865207a65726f206160448201526564647265737360d01b60648201526084016105a9565b6114fb81611845565b50565b6000908152600260205260409020546001600160a01b0316151590565b600081815260046020526040902080546001600160a01b0319166001600160a01b038416908117909155819061155082610a49565b6001600160a01b03167f8c5be1e5ebec7d5bd14f71427d1e84f3dd0314c0f7b2291e5b200ac8c7c3b92560405160405180910390a45050565b6000611594826114fe565b6115f55760405162461bcd60e51b815260206004820152602c60248201527f4552433732313a206f70657261746f7220717565727920666f72206e6f6e657860448201526b34b9ba32b73a103a37b5b2b760a11b60648201526084016105a9565b600061160083610a49565b9050806001600160a01b0316846001600160a01b03161480611627575061162781856113f6565b8061164b5750836001600160a01b0316611640846105d5565b6001600160a01b0316145b949350505050565b826001600160a01b031661166682610a49565b6001600160a01b0316146116ca5760405162461bcd60e51b815260206004820152602560248201527f4552433732313a207472616e736665722066726f6d20696e636f72726563742060448201526437bbb732b960d91b60648201526084016105a9565b6001600160a01b03821661172c5760405162461bcd60e51b8152602060048201526024808201527f4552433732313a207472616e7366657220746f20746865207a65726f206164646044820152637265737360e01b60648201526084016105a9565b61173760008261151b565b6001600160a01b0383166000908152600360205260408120805460019290611760908490612660565b90915550506001600160a01b038216600090815260036020526040812080546001929061178e908490612610565b909155505060008181526002602052604080822080546001600160a01b0319166001600160a01b0386811691821790925591518493918716917fddf252ad1be2c89b69c2b068fc378daa952ba7f163c4a11628f55a4df523b3ef91a4505050565b6107698363a9059cbb60e01b848460405160240161180e9291906126a1565b60408051601f198184030181529190526020810180516001600160e01b03166001600160e01b031990931692909217909152611b4f565b600680546001600160a01b038381166001600160a01b0319831681179093556040519116919082907f8be0079c531659141344cd1fd0a4f28419497f9722a3daafe3b4186f6b6457e090600090a35050565b60005b838110156111f7576001600e60008282546118b59190612610565b90915550506000838152600c602052604081208054600192906118d9908490612610565b9091555050600e80546000908152600f60205260409020849055546118ff908390611c21565b6040518381527fbd8dec1c83646f9f8c3ca8465376ed8174df592e995a30a206944b013ca6bcb59060200160405180910390a18061193c816125ce565b91505061189a565b816001600160a01b0316836001600160a01b031614156119a25760405162461bcd60e51b815260206004820152601960248201527822a9219b99189d1030b8383937bb32903a379031b0b63632b960391b60448201526064016105a9565b6001600160a01b03838116600081815260056020908152604080832094871680845294825291829020805460ff191686151590811790915591519182527f17307eab39ab6107e8899845ad3d59bd9653f200f220920489ca2b5937696c31910160405180910390a3505050565b611a1a848484611653565b611a2684848484611c3b565b6111f75760405162461bcd60e51b81526004016105a990612725565b6060600a80546104ff906124c9565b606081611a755750506040805180820190915260018152600360fc1b602082015290565b8160005b8115611a9f5780611a89816125ce565b9150611a989050600a8361268d565b9150611a79565b60008167ffffffffffffffff811115611aba57611aba61236a565b6040519080825280601f01601f191660200182016040528015611ae4576020820181803683370190505b5090505b841561164b57611af9600183612660565b9150611b06600a86612777565b611b11906030612610565b60f81b818381518110611b2657611b2661278b565b60200101906001600160f81b031916908160001a905350611b48600a8661268d565b9450611ae8565b6000611ba4826040518060400160405280602081526020017f5361666545524332303a206c6f772d6c6576656c2063616c6c206661696c6564815250856001600160a01b0316611d399092919063ffffffff16565b8051909150156107695780806020019051810190611bc291906126ba565b6107695760405162461bcd60e51b815260206004820152602a60248201527f5361666545524332303a204552433230206f7065726174696f6e20646964206e6044820152691bdd081cdd58d8d9595960b21b60648201526084016105a9565b611170828260405180602001604052806000815250611d48565b60006001600160a01b0384163b15611d2e57604051630a85bd0160e11b81526001600160a01b0385169063150b7a0290611c7f9033908990889088906004016127a1565b6020604051808303816000875af1925050508015611cba575060408051601f3d908101601f19168201909252611cb7918101906127de565b60015b611d14573d808015611ce8576040519150601f19603f3d011682016040523d82523d6000602084013e611ced565b606091505b508051611d0c5760405162461bcd60e51b81526004016105a990612725565b805181602001fd5b6001600160e01b031916630a85bd0160e11b14905061164b565b506001949350505050565b606061164b8484600085611d7b565b611d528383611eac565b611d5f6000848484611c3b565b6107695760405162461bcd60e51b81526004016105a990612725565b606082471015611ddc5760405162461bcd60e51b815260206004820152602660248201527f416464726573733a20696e73756666696369656e742062616c616e636520666f6044820152651c8818d85b1b60d21b60648201526084016105a9565b6001600160a01b0385163b611e335760405162461bcd60e51b815260206004820152601d60248201527f416464726573733a2063616c6c20746f206e6f6e2d636f6e747261637400000060448201526064016105a9565b600080866001600160a01b03168587604051611e4f91906127fb565b60006040518083038185875af1925050503d8060008114611e8c576040519150601f19603f3d011682016040523d82523d6000602084013e611e91565b606091505b5091509150611ea1828286611fdf565b979650505050505050565b6001600160a01b038216611f025760405162461bcd60e51b815260206004820181905260248201527f4552433732313a206d696e7420746f20746865207a65726f206164647265737360448201526064016105a9565b611f0b816114fe565b15611f585760405162461bcd60e51b815260206004820152601c60248201527f4552433732313a20746f6b656e20616c7265616479206d696e7465640000000060448201526064016105a9565b6001600160a01b0382166000908152600360205260408120805460019290611f81908490612610565b909155505060008181526002602052604080822080546001600160a01b0319166001600160a01b03861690811790915590518392907fddf252ad1be2c89b69c2b068fc378daa952ba7f163c4a11628f55a4df523b3ef908290a45050565b60608315611fee575081611457565b825115611ffe5782518084602001fd5b8160405162461bcd60e51b81526004016105a9919061213c565b828054612024906124c9565b90600052602060002090601f016020900481019282612046576000855561208c565b82601f1061205f5782800160ff1982351617855561208c565b8280016001018555821561208c579182015b8281111561208c578235825591602001919060010190612071565b5061209892915061209c565b5090565b5b80821115612098576000815560010161209d565b6001600160e01b0319811681146114fb57600080fd5b6000602082840312156120d957600080fd5b8135611457816120b1565b60005b838110156120ff5781810151838201526020016120e7565b838111156111f75750506000910152565b600081518084526121288160208601602086016120e4565b601f01601f19169290920160200192915050565b6020815260006114576020830184612110565b60006020828403121561216157600080fd5b5035919050565b6001600160a01b0391909116815260200190565b6001600160a01b03811681146114fb57600080fd5b600080604083850312156121a457600080fd5b82356121af8161217c565b946020939093013593505050565b6000602082840312156121cf57600080fd5b81356114578161217c565b6000806000606084860312156121ef57600080fd5b83356121fa8161217c565b9250602084013561220a8161217c565b929592945050506040919091013590565b6000806000806080858703121561223157600080fd5b5050823594602084013594506040840135936060013592509050565b60008060006060848603121561226257600080fd5b833561226d8161217c565b92506020840135915060408401356122848161217c565b809150509250925092565b600080602083850312156122a257600080fd5b823567ffffffffffffffff808211156122ba57600080fd5b818501915085601f8301126122ce57600080fd5b8135818111156122dd57600080fd5b8660208285010111156122ef57600080fd5b60209290920196919550909350505050565b6000806040838503121561231457600080fd5b50508035926020909101359150565b80151581146114fb57600080fd5b6000806040838503121561234457600080fd5b823561234f8161217c565b9150602083013561235f81612323565b809150509250929050565b634e487b7160e01b600052604160045260246000fd5b6000806000806080858703121561239657600080fd5b84356123a18161217c565b935060208501356123b18161217c565b925060408501359150606085013567ffffffffffffffff808211156123d557600080fd5b818701915087601f8301126123e957600080fd5b8135818111156123fb576123fb61236a565b604051601f8201601f19908116603f011681019083821181831017156124235761242361236a565b816040528281528a602084870101111561243c57600080fd5b82602086016020830137600060208483010152809550505050505092959194509250565b600080600080600060a0868803121561247857600080fd5b505083359560208501359550604085013594606081013594506080013592509050565b600080604083850312156124ae57600080fd5b82356124b98161217c565b9150602083013561235f8161217c565b600181811c908216806124dd57607f821691505b602082108114156124fe57634e487b7160e01b600052602260045260246000fd5b50919050565b6020808252601490820152731d1bdad95b88191bd95cc81b9bdd08195e1a5cdd60621b604082015260600190565b6020808252818101527f4f776e61626c653a2063616c6c6572206973206e6f7420746865206f776e6572604082015260600190565b60208082526031908201527f4552433732313a207472616e736665722063616c6c6572206973206e6f74206f6040820152701ddb995c881b9bdc88185c1c1c9bdd9959607a1b606082015260800190565b634e487b7160e01b600052601160045260246000fd5b60006000198214156125e2576125e26125b8565b5060010190565b6020808252600d908201526c1a5b9d985b1a59081b195d995b609a1b604082015260600190565b60008219821115612623576126236125b8565b500190565b6000816000190483118215151615612642576126426125b8565b500290565b60006020828403121561265957600080fd5b5051919050565b600082821015612672576126726125b8565b500390565b634e487b7160e01b600052601260045260246000fd5b60008261269c5761269c612677565b500490565b6001600160a01b03929092168252602082015260400190565b6000602082840312156126cc57600080fd5b815161145781612323565b600083516126e98184602088016120e4565b602f60f81b90830190815283516127078160018401602088016120e4565b64173539b7b760d91b60019290910191820152600601949350505050565b60208082526032908201527f4552433732313a207472616e7366657220746f206e6f6e20455243373231526560408201527131b2b4bb32b91034b6b83632b6b2b73a32b960711b606082015260800190565b60008261278657612786612677565b500690565b634e487b7160e01b600052603260045260246000fd5b6001600160a01b03858116825284166020820152604081018390526080606082018190526000906127d490830184612110565b9695505050505050565b6000602082840312156127f057600080fd5b8151611457816120b1565b6000825161280d8184602087016120e4565b919091019291505056fea2646970667358221220ff3bfdf95f9e9b5c6b7f9ace46c7db0a07795d2f5aedfe0334870b826e0d875964736f6c634300080b0033"
}