{
  "address": "0xCf7Ed3AccA5a467e9e704C703E8D87F634fB0Fc9",
  "abi": [
    {
      "inputs": [
        {
          "internalType": "contract VintageWine",
          "name": "_vintageWine",
          "type": "address"
        },
        {
          "internalType": "address",
          "name": "_grape",
          "type": "address"
        },
        {
          "internalType": "string",
          "name": "_BASE_URI",
          "type": "string"
        }
      ],
      "stateMutability": "nonpayable",
      "type": "constructor"
    },
    {
      "anonymous": false,
      "inputs": [
        {
          "indexed": true,
          "internalType": "address",
          "name": "owner",
          "type": "address"
        },
        {
          "indexed": true,
          "internalType": "address",
          "name": "approved",
          "type": "address"
        },
        {
          "indexed": true,
          "internalType": "uint256",
          "name": "tokenId",
          "type": "uint256"
        }
      ],
      "name": "Approval",
      "type": "event"
    },
    {
      "anonymous": false,
      "inputs": [
        {
          "indexed": true,
          "internalType": "address",
          "name": "owner",
          "type": "address"
        },
        {
          "indexed": true,
          "internalType": "address",
          "name": "operator",
          "type": "address"
        },
        {
          "indexed": false,
          "internalType": "bool",
          "name": "approved",
          "type": "bool"
        }
      ],
      "name": "ApprovalForAll",
      "type": "event"
    },
    {
      "anonymous": false,
      "inputs": [
        {
          "indexed": true,
          "internalType": "address",
          "name": "previousOwner",
          "type": "address"
        },
        {
          "indexed": true,
          "internalType": "address",
          "name": "newOwner",
          "type": "address"
        }
      ],
      "name": "OwnershipTransferred",
      "type": "event"
    },
    {
      "anonymous": false,
      "inputs": [
        {
          "indexed": false,
          "internalType": "address",
          "name": "account",
          "type": "address"
        }
      ],
      "name": "Paused",
      "type": "event"
    },
    {
      "anonymous": false,
      "inputs": [
        {
          "indexed": true,
          "internalType": "address",
          "name": "from",
          "type": "address"
        },
        {
          "indexed": true,
          "internalType": "address",
          "name": "to",
          "type": "address"
        },
        {
          "indexed": true,
          "internalType": "uint256",
          "name": "tokenId",
          "type": "uint256"
        }
      ],
      "name": "Transfer",
      "type": "event"
    },
    {
      "anonymous": false,
      "inputs": [
        {
          "indexed": false,
          "internalType": "address",
          "name": "account",
          "type": "address"
        }
      ],
      "name": "Unpaused",
      "type": "event"
    },
    {
      "anonymous": false,
      "inputs": [
        {
          "indexed": false,
          "internalType": "uint256",
          "name": "level",
          "type": "uint256"
        }
      ],
      "name": "onUpgradeCreated",
      "type": "event"
    },
    {
      "inputs": [],
      "name": "BASE_URI",
      "outputs": [
        {
          "internalType": "string",
          "name": "",
          "type": "string"
        }
      ],
      "stateMutability": "view",
      "type": "function"
    },
    {
      "inputs": [],
      "name": "LP_TAX_PERCENT",
      "outputs": [
        {
          "internalType": "uint256",
          "name": "",
          "type": "uint256"
        }
      ],
      "stateMutability": "view",
      "type": "function"
    },
    {
      "inputs": [
        {
          "internalType": "uint256",
          "name": "_maxSupply",
          "type": "uint256"
        },
        {
          "internalType": "uint256",
          "name": "_priceVintageWine",
          "type": "uint256"
        },
        {
          "internalType": "uint256",
          "name": "_priceGrape",
          "type": "uint256"
        },
        {
          "internalType": "uint256",
          "name": "_yield",
          "type": "uint256"
        }
      ],
      "name": "addLevel",
      "outputs": [],
      "stateMutability": "nonpayable",
      "type": "function"
    },
    {
      "inputs": [
        {
          "internalType": "address",
          "name": "to",
          "type": "address"
        },
        {
          "internalType": "uint256",
          "name": "tokenId",
          "type": "uint256"
        }
      ],
      "name": "approve",
      "outputs": [],
      "stateMutability": "nonpayable",
      "type": "function"
    },
    {
      "inputs": [
        {
          "internalType": "address",
          "name": "owner",
          "type": "address"
        }
      ],
      "name": "balanceOf",
      "outputs": [
        {
          "internalType": "uint256",
          "name": "",
          "type": "uint256"
        }
      ],
      "stateMutability": "view",
      "type": "function"
    },
    {
      "inputs": [
        {
          "internalType": "address",
          "name": "_owner",
          "type": "address"
        },
        {
          "internalType": "uint256",
          "name": "_offset",
          "type": "uint256"
        },
        {
          "internalType": "uint256",
          "name": "_maxSize",
          "type": "uint256"
        }
      ],
      "name": "batchedUpgradesOfOwner",
      "outputs": [
        {
          "components": [
            {
              "internalType": "uint256",
              "name": "tokenId",
              "type": "uint256"
            },
            {
              "internalType": "uint256",
              "name": "level",
              "type": "uint256"
            },
            {
              "internalType": "uint256",
              "name": "yield",
              "type": "uint256"
            }
          ],
          "internalType": "struct Upgrade.UpgradeInfo[]",
          "name": "",
          "type": "tuple[]"
        }
      ],
      "stateMutability": "view",
      "type": "function"
    },
    {
      "inputs": [
        {
          "internalType": "uint256",
          "name": "_index",
          "type": "uint256"
        },
        {
          "internalType": "uint256",
          "name": "_maxSupply",
          "type": "uint256"
        },
        {
          "internalType": "uint256",
          "name": "_priceVintageWine",
          "type": "uint256"
        },
        {
          "internalType": "uint256",
          "name": "_priceGrape",
          "type": "uint256"
        },
        {
          "internalType": "uint256",
          "name": "_yield",
          "type": "uint256"
        }
      ],
      "name": "changeLevel",
      "outputs": [],
      "stateMutability": "nonpayable",
      "type": "function"
    },
    {
      "inputs": [
        {
          "internalType": "contract IERC20",
          "name": "_token",
          "type": "address"
        },
        {
          "internalType": "uint256",
          "name": "_amount",
          "type": "uint256"
        },
        {
          "internalType": "address",
          "name": "target",
          "type": "address"
        }
      ],
      "name": "forwardERC20s",
      "outputs": [],
      "stateMutability": "nonpayable",
      "type": "function"
    },
    {
      "inputs": [
        {
          "internalType": "uint256",
          "name": "tokenId",
          "type": "uint256"
        }
      ],
      "name": "getApproved",
      "outputs": [
        {
          "internalType": "address",
          "name": "",
          "type": "address"
        }
      ],
      "stateMutability": "view",
      "type": "function"
    },
    {
      "inputs": [
        {
          "internalType": "uint256",
          "name": "_tokenId",
          "type": "uint256"
        }
      ],
      "name": "getLevel",
      "outputs": [
        {
          "internalType": "uint256",
          "name": "",
          "type": "uint256"
        }
      ],
      "stateMutability": "view",
      "type": "function"
    },
    {
      "inputs": [
        {
          "internalType": "uint256",
          "name": "_tokenId",
          "type": "uint256"
        }
      ],
      "name": "getYield",
      "outputs": [
        {
          "internalType": "uint256",
          "name": "",
          "type": "uint256"
        }
      ],
      "stateMutability": "view",
      "type": "function"
    },
    {
      "inputs": [
        {
          "internalType": "address",
          "name": "_owner",
          "type": "address"
        },
        {
          "internalType": "address",
          "name": "_operator",
          "type": "address"
        }
      ],
      "name": "isApprovedForAll",
      "outputs": [
        {
          "internalType": "bool",
          "name": "",
          "type": "bool"
        }
      ],
      "stateMutability": "view",
      "type": "function"
    },
    {
      "inputs": [
        {
          "internalType": "uint256",
          "name": "",
          "type": "uint256"
        }
      ],
      "name": "levels",
      "outputs": [
        {
          "internalType": "uint256",
          "name": "supply",
          "type": "uint256"
        },
        {
          "internalType": "uint256",
          "name": "maxSupply",
          "type": "uint256"
        },
        {
          "internalType": "uint256",
          "name": "priceVintageWine",
          "type": "uint256"
        },
        {
          "internalType": "uint256",
          "name": "priceGrape",
          "type": "uint256"
        },
        {
          "internalType": "uint256",
          "name": "yield",
          "type": "uint256"
        }
      ],
      "stateMutability": "view",
      "type": "function"
    },
    {
      "inputs": [
        {
          "internalType": "uint256",
          "name": "_level",
          "type": "uint256"
        },
        {
          "internalType": "uint256",
          "name": "_qty",
          "type": "uint256"
        }
      ],
      "name": "mintUpgrade",
      "outputs": [],
      "stateMutability": "nonpayable",
      "type": "function"
    },
    {
      "inputs": [],
      "name": "mintingStarted",
      "outputs": [
        {
          "internalType": "bool",
          "name": "",
          "type": "bool"
        }
      ],
      "stateMutability": "view",
      "type": "function"
    },
    {
      "inputs": [],
      "name": "name",
      "outputs": [
        {
          "internalType": "string",
          "name": "",
          "type": "string"
        }
      ],
      "stateMutability": "view",
      "type": "function"
    },
    {
      "inputs": [],
      "name": "owner",
      "outputs": [
        {
          "internalType": "address",
          "name": "",
          "type": "address"
        }
      ],
      "stateMutability": "view",
      "type": "function"
    },
    {
      "inputs": [
        {
          "internalType": "uint256",
          "name": "tokenId",
          "type": "uint256"
        }
      ],
      "name": "ownerOf",
      "outputs": [
        {
          "internalType": "address",
          "name": "",
          "type": "address"
        }
      ],
      "stateMutability": "view",
      "type": "function"
    },
    {
      "inputs": [],
      "name": "paused",
      "outputs": [
        {
          "internalType": "bool",
          "name": "",
          "type": "bool"
        }
      ],
      "stateMutability": "view",
      "type": "function"
    },
    {
      "inputs": [],
      "name": "renounceOwnership",
      "outputs": [],
      "stateMutability": "nonpayable",
      "type": "function"
    },
    {
      "inputs": [
        {
          "internalType": "address",
          "name": "from",
          "type": "address"
        },
        {
          "internalType": "address",
          "name": "to",
          "type": "address"
        },
        {
          "internalType": "uint256",
          "name": "tokenId",
          "type": "uint256"
        }
      ],
      "name": "safeTransferFrom",
      "outputs": [],
      "stateMutability": "nonpayable",
      "type": "function"
    },
    {
      "inputs": [
        {
          "internalType": "address",
          "name": "from",
          "type": "address"
        },
        {
          "internalType": "address",
          "name": "to",
          "type": "address"
        },
        {
          "internalType": "uint256",
          "name": "tokenId",
          "type": "uint256"
        },
        {
          "internalType": "bytes",
          "name": "_data",
          "type": "bytes"
        }
      ],
      "name": "safeTransferFrom",
      "outputs": [],
      "stateMutability": "nonpayable",
      "type": "function"
    },
    {
      "inputs": [
        {
          "internalType": "address",
          "name": "operator",
          "type": "address"
        },
        {
          "internalType": "bool",
          "name": "approved",
          "type": "bool"
        }
      ],
      "name": "setApprovalForAll",
      "outputs": [],
      "stateMutability": "nonpayable",
      "type": "function"
    },
    {
      "inputs": [
        {
          "internalType": "string",
          "name": "_BASE_URI",
          "type": "string"
        }
      ],
      "name": "setBaseURI",
      "outputs": [],
      "stateMutability": "nonpayable",
      "type": "function"
    },
    {
      "inputs": [
        {
          "internalType": "address",
          "name": "_grape",
          "type": "address"
        }
      ],
      "name": "setGrape",
      "outputs": [],
      "stateMutability": "nonpayable",
      "type": "function"
    },
    {
      "inputs": [
        {
          "internalType": "uint256",
          "name": "_startTime",
          "type": "uint256"
        }
      ],
      "name": "setStartTime",
      "outputs": [],
      "stateMutability": "nonpayable",
      "type": "function"
    },
    {
      "inputs": [
        {
          "internalType": "contract VintageWine",
          "name": "_vintageWine",
          "type": "address"
        }
      ],
      "name": "setVintageWine",
      "outputs": [],
      "stateMutability": "nonpayable",
      "type": "function"
    },
    {
      "inputs": [
        {
          "internalType": "address",
          "name": "_wineryAddress",
          "type": "address"
        }
      ],
      "name": "setWineryAddress",
      "outputs": [],
      "stateMutability": "nonpayable",
      "type": "function"
    },
    {
      "inputs": [],
      "name": "startTime",
      "outputs": [
        {
          "internalType": "uint256",
          "name": "",
          "type": "uint256"
        }
      ],
      "stateMutability": "view",
      "type": "function"
    },
    {
      "inputs": [
        {
          "internalType": "bytes4",
          "name": "interfaceId",
          "type": "bytes4"
        }
      ],
      "name": "supportsInterface",
      "outputs": [
        {
          "internalType": "bool",
          "name": "",
          "type": "bool"
        }
      ],
      "stateMutability": "view",
      "type": "function"
    },
    {
      "inputs": [],
      "name": "symbol",
      "outputs": [
        {
          "internalType": "string",
          "name": "",
          "type": "string"
        }
      ],
      "stateMutability": "view",
      "type": "function"
    },
    {
      "inputs": [
        {
          "internalType": "uint256",
          "name": "index",
          "type": "uint256"
        }
      ],
      "name": "tokenByIndex",
      "outputs": [
        {
          "internalType": "uint256",
          "name": "",
          "type": "uint256"
        }
      ],
      "stateMutability": "view",
      "type": "function"
    },
    {
      "inputs": [
        {
          "internalType": "address",
          "name": "owner",
          "type": "address"
        },
        {
          "internalType": "uint256",
          "name": "index",
          "type": "uint256"
        }
      ],
      "name": "tokenOfOwnerByIndex",
      "outputs": [
        {
          "internalType": "uint256",
          "name": "",
          "type": "uint256"
        }
      ],
      "stateMutability": "view",
      "type": "function"
    },
    {
      "inputs": [
        {
          "internalType": "uint256",
          "name": "_tokenId",
          "type": "uint256"
        }
      ],
      "name": "tokenURI",
      "outputs": [
        {
          "internalType": "string",
          "name": "",
          "type": "string"
        }
      ],
      "stateMutability": "view",
      "type": "function"
    },
    {
      "inputs": [],
      "name": "totalSupply",
      "outputs": [
        {
          "internalType": "uint256",
          "name": "",
          "type": "uint256"
        }
      ],
      "stateMutability": "view",
      "type": "function"
    },
    {
      "inputs": [
        {
          "internalType": "address",
          "name": "from",
          "type": "address"
        },
        {
          "internalType": "address",
          "name": "to",
          "type": "address"
        },
        {
          "internalType": "uint256",
          "name": "tokenId",
          "type": "uint256"
        }
      ],
      "name": "transferFrom",
      "outputs": [],
      "stateMutability": "nonpayable",
      "type": "function"
    },
    {
      "inputs": [
        {
          "internalType": "address",
          "name": "newOwner",
          "type": "address"
        }
      ],
      "name": "transferOwnership",
      "outputs": [],
      "stateMutability": "nonpayable",
      "type": "function"
    },
    {
      "inputs": [],
      "name": "upgradesMinted",
      "outputs": [
        {
          "internalType": "uint256",
          "name": "",
          "type": "uint256"
        }
      ],
      "stateMutability": "view",
      "type": "function"
    },
    {
      "inputs": [],
      "name": "wineryAddress",
      "outputs": [
        {
          "internalType": "address",
          "name": "",
          "type": "address"
        }
      ],
      "stateMutability": "view",
      "type": "function"
    }
  ],
  "transactionHash": "0xb8bfb77674286cb19450e498a282b6330efdb71370a9dd30314502c83220ce05",
  "args": [
    "0x5FbDB2315678afecb367f032d93F642f64180aa3",
    "0xe7f1725E7734CE288F8367e1Bb143E90bb3F0512",
    "https://api.pizza.game/chefs"
  ],
  "solcInputHash": "895c55e540bde2b2c7554b49fd296800",
  "bytecode": "0x608060405260006012553480156200001657600080fd5b50604051620035b9380380620035b9833981016040819052620000399162000560565b604080518082018252601e81527f56696e7461676557696e652047616d652056696e746e657220546f6f6c73000060208083019182528351808501909452601d84527f56494e5441474557494e452d47414d452d56494e544e45522d544f4f4c000000908401528151919291620000b3916000916200048b565b508051620000c99060019060208401906200048b565b505050620000e6620000e06200043560201b60201c565b62000439565b600a805460ff60a01b19169055600b80546001600160a01b038086166001600160a01b031992831617909255600c80549285169290911691909117905580516200013890600e9060208401906200048b565b50506040805160a0808201835260008083526109c4602080850191825268a2a15d09519be000008587019081526802b5e3af16b1880000606080880191825260016080808a0182815288805260108088529a517f6e0956cda88cad152e89927e53611735b61a5c762d1428573c6931b0a5efcb015596517f6e0956cda88cad152e89927e53611735b61a5c762d1428573c6931b0a5efcb025593517f6e0956cda88cad152e89927e53611735b61a5c762d1428573c6931b0a5efcb035591517f6e0956cda88cad152e89927e53611735b61a5c762d1428573c6931b0a5efcb045593517f6e0956cda88cad152e89927e53611735b61a5c762d1428573c6931b0a5efcb05558751808701895285815261089881850190815269021e19e0c9bab2400000828b019081526804563918244f40000083880190815260038487019081529489528a875292517f8c6065603763fec3f5742441d3833f3f43b982453612d76adb39a885e3006b5f5590517f8c6065603763fec3f5742441d3833f3f43b982453612d76adb39a885e3006b6055517f8c6065603763fec3f5742441d3833f3f43b982453612d76adb39a885e3006b6155517f8c6065603763fec3f5742441d3833f3f43b982453612d76adb39a885e3006b6255517f8c6065603763fec3f5742441d3833f3f43b982453612d76adb39a885e3006b6355865194850187528385526107d085830190815269043c33c19375648000009786019788526805f68e8131ecf8000093860193845260059186019182526002948590529590915292517f853b2fefe141400fef543280f93d98bd49996069f632d0d20236afeeed8e46a25592517f853b2fefe141400fef543280f93d98bd49996069f632d0d20236afeeed8e46a35592517f853b2fefe141400fef543280f93d98bd49996069f632d0d20236afeeed8e46a45590517f853b2fefe141400fef543280f93d98bd49996069f632d0d20236afeeed8e46a555517f853b2fefe141400fef543280f93d98bd49996069f632d0d20236afeeed8e46a65560115550620006a79050565b3390565b600a80546001600160a01b038381166001600160a01b0319831681179093556040519116919082907f8be0079c531659141344cd1fd0a4f28419497f9722a3daafe3b4186f6b6457e090600090a35050565b82805462000499906200066a565b90600052602060002090601f016020900481019282620004bd576000855562000508565b82601f10620004d857805160ff191683800117855562000508565b8280016001018555821562000508579182015b8281111562000508578251825591602001919060010190620004eb565b50620005169291506200051a565b5090565b5b808211156200051657600081556001016200051b565b6001600160a01b03811681146200054757600080fd5b50565b634e487b7160e01b600052604160045260246000fd5b6000806000606084860312156200057657600080fd5b8351620005838162000531565b80935050602080850151620005988162000531565b60408601519093506001600160401b0380821115620005b657600080fd5b818701915087601f830112620005cb57600080fd5b815181811115620005e057620005e06200054a565b604051601f8201601f19908116603f011681019083821181831017156200060b576200060b6200054a565b816040528281528a868487010111156200062457600080fd5b600093505b8284101562000648578484018601518185018701529285019262000629565b828411156200065a5760008684830101525b8096505050505050509250925092565b600181811c908216806200067f57607f821691505b60208210811415620006a157634e487b7160e01b600052602260045260246000fd5b50919050565b612f0280620006b76000396000f3fe608060405234801561001057600080fd5b506004361061022d5760003560e01c80636f8608e41161013b578063a22cb465116100b8578063c87b56dd1161007c578063c87b56dd146104f4578063dbddb26a14610507578063e06b97171461050f578063e985e9c514610522578063f2fde38b1461053557600080fd5b8063a22cb4651461044e578063abbc6d3f14610461578063b2596a6714610469578063b3af2456146104ce578063b88d4fde146104e157600080fd5b80637cc8ef63116100ff5780637cc8ef63146103f857806386481d401461040b57806388d301861461041e5780638da5cb5b1461043e57806395d89b411461044657600080fd5b80636f8608e4146103b957806370a08231146103c1578063715018a6146103d4578063735d09a6146103dc57806378e97925146103ef57600080fd5b806323b872dd116101c957806343f37b981161018d57806343f37b981461035b5780634f6ccce71461036e57806355f804b3146103815780635c975abb146103945780636352211e146103a657600080fd5b806323b872dd146102fc5780632ecd520e1461030f5780632f745c59146103225780633e0a322d1461033557806342842e0e1461034857600080fd5b806301ffc9a714610232578063047f3af11461025a57806306fdde03146102715780630805d88414610286578063081812fc14610299578063095ea7b3146102b9578063097f1f2f146102ce5780630b8faf2d146102e157806318160ddd146102f4575b600080fd5b6102456102403660046126d8565b610548565b60405190151581526020015b60405180910390f35b61026360125481565b604051908152602001610251565b610279610573565b604051610251919061274d565b610263610294366004612760565b610605565b6102ac6102a7366004612760565b610658565b6040516102519190612779565b6102cc6102c73660046127a2565b6106e0565b005b6102cc6102dc3660046127ce565b6107f1565b6102cc6102ef3660046127ce565b610842565b600854610263565b6102cc61030a3660046127eb565b610893565b6102cc61031d36600461282c565b6108c4565b6102636103303660046127a2565b610961565b6102cc610343366004612760565b6109f7565b6102cc6103563660046127eb565b610ac9565b6102cc61036936600461285e565b610ae4565b61026361037c366004612760565b610b27565b6102cc61038f3660046128a0565b610bba565b600a54600160a01b900460ff16610245565b6102ac6103b4366004612760565b610bf5565b610245610c6c565b6102636103cf3660046127ce565b610c87565b6102cc610d0e565b600d546102ac906001600160a01b031681565b610263600f5481565b6102cc610406366004612912565b610d49565b610263610419366004612760565b6112d4565b61043161042c366004612934565b61130e565b6040516102519190612969565b6102ac6114ac565b6102796114bb565b6102cc61045c3660046129d0565b6114ca565b610263600281565b6104a6610477366004612760565b601060205260009081526040902080546001820154600283015460038401546004909401549293919290919085565b604080519586526020860194909452928401919091526060830152608082015260a001610251565b6102cc6104dc3660046127ce565b6114d9565b6102cc6104ef366004612a1f565b61152a565b610279610502366004612760565b611562565b610279611626565b6102cc61051d366004612aff565b6116b4565b610245610530366004612b3a565b61175b565b6102cc6105433660046127ce565b6117c0565b60006001600160e01b0319821663780e9d6360e01b148061056d575061056d82611860565b92915050565b60606000805461058290612b68565b80601f01602080910402602001604051908101604052809291908181526020018280546105ae90612b68565b80156105fb5780601f106105d0576101008083540402835291602001916105fb565b820191906000526020600020905b8154815290600101906020018083116105de57829003601f168201915b5050505050905090565b6000610610826118b0565b6106355760405162461bcd60e51b815260040161062c90612ba3565b60405180910390fd5b506000908152601360209081526040808320548352601090915290206004015490565b6000610663826118b0565b6106c45760405162461bcd60e51b815260206004820152602c60248201527f4552433732313a20617070726f76656420717565727920666f72206e6f6e657860448201526b34b9ba32b73a103a37b5b2b760a11b606482015260840161062c565b506000908152600460205260409020546001600160a01b031690565b60006106eb82610bf5565b9050806001600160a01b0316836001600160a01b031614156107595760405162461bcd60e51b815260206004820152602160248201527f4552433732313a20617070726f76616c20746f2063757272656e74206f776e656044820152603960f91b606482015260840161062c565b336001600160a01b03821614806107755750610775813361175b565b6107e25760405162461bcd60e51b815260206004820152603860248201527f4552433732313a20617070726f76652063616c6c6572206973206e6f74206f776044820152771b995c881b9bdc88185c1c1c9bdd995908199bdc88185b1b60421b606482015260840161062c565b6107ec83836118cd565b505050565b336107fa6114ac565b6001600160a01b0316146108205760405162461bcd60e51b815260040161062c90612bd1565b600d80546001600160a01b0319166001600160a01b0392909216919091179055565b3361084b6114ac565b6001600160a01b0316146108715760405162461bcd60e51b815260040161062c90612bd1565b600b80546001600160a01b0319166001600160a01b0392909216919091179055565b61089d338261193b565b6108b95760405162461bcd60e51b815260040161062c90612c06565b6107ec838383611a05565b336108cd6114ac565b6001600160a01b0316146108f35760405162461bcd60e51b815260040161062c90612bd1565b6011805490600061090383612c6d565b90915550506040805160a0810182526000808252602080830197885282840196875260608301958652608083019485526011548252601090529190912090518155935160018501559151600284015551600383015551600490910155565b600061096c83610c87565b82106109ce5760405162461bcd60e51b815260206004820152602b60248201527f455243373231456e756d657261626c653a206f776e657220696e646578206f7560448201526a74206f6620626f756e647360a81b606482015260840161062c565b506001600160a01b03919091166000908152600660209081526040808320938352929052205490565b33610a006114ac565b6001600160a01b031614610a265760405162461bcd60e51b815260040161062c90612bd1565b428111610a755760405162461bcd60e51b815260206004820152601b60248201527f737461727454696d65206d75737420626520696e206675747572650000000000604482015260640161062c565b610a7d610c6c565b15610ac45760405162461bcd60e51b81526020600482015260176024820152761b5a5b9d1a5b99c8185b1c9958591e481cdd185c9d1959604a1b604482015260640161062c565b600f55565b6107ec8383836040518060200160405280600081525061152a565b33610aed6114ac565b6001600160a01b031614610b135760405162461bcd60e51b815260040161062c90612bd1565b6107ec6001600160a01b0384168284611bac565b6000610b3260085490565b8210610b955760405162461bcd60e51b815260206004820152602c60248201527f455243373231456e756d657261626c653a20676c6f62616c20696e646578206f60448201526b7574206f6620626f756e647360a01b606482015260840161062c565b60088281548110610ba857610ba8612c88565b90600052602060002001549050919050565b33610bc36114ac565b6001600160a01b031614610be95760405162461bcd60e51b815260040161062c90612bd1565b6107ec600e8383612629565b6000818152600260205260408120546001600160a01b03168061056d5760405162461bcd60e51b815260206004820152602960248201527f4552433732313a206f776e657220717565727920666f72206e6f6e657869737460448201526832b73a103a37b5b2b760b91b606482015260840161062c565b6000600f54600014158015610c825750600f5442115b905090565b60006001600160a01b038216610cf25760405162461bcd60e51b815260206004820152602a60248201527f4552433732313a2062616c616e636520717565727920666f7220746865207a65604482015269726f206164647265737360b01b606482015260840161062c565b506001600160a01b031660009081526003602052604090205490565b33610d176114ac565b6001600160a01b031614610d3d5760405162461bcd60e51b815260040161062c90612bd1565b610d476000611c02565b565b600a54600160a01b900460ff1615610d965760405162461bcd60e51b815260206004820152601060248201526f14185d5cd8589b194e881c185d5cd95960821b604482015260640161062c565b610d9e610c6c565b610de55760405162461bcd60e51b81526020600482015260186024820152772a37b7b6399039b0b632b99030b932903737ba1037b832b760411b604482015260640161062c565b600081118015610df65750600a8111155b610e4c5760405162461bcd60e51b815260206004820152602160248201527f7175616e74697479206d757374206265206265747765656e203120616e6420316044820152600360fc1b606482015260840161062c565b601154821115610e6e5760405162461bcd60e51b815260040161062c90612c9e565b600082815260106020526040902060018101549054610e8e908390612cc5565b1115610ee75760405162461bcd60e51b815260206004820152602260248201527f796f752063616e2774206d696e742074686174206d616e79207269676874206e6044820152616f7760f01b606482015260840161062c565b600082815260106020526040812060020154610f04908390612cdd565b60008481526010602052604081206003015491925090610f25908490612cdd565b600b5490915082906001600160a01b03166370a08231336040518263ffffffff1660e01b8152600401610f589190612779565b602060405180830381865afa158015610f75573d6000803e3d6000fd5b505050506040513d601f19601f82011682018060405250810190610f999190612cfc565b1015610fe75760405162461bcd60e51b815260206004820152601b60248201527f6e6f74206861766520656e6f7567682056494e5441474557494e450000000000604482015260640161062c565b600c546040516370a0823160e01b815282916001600160a01b0316906370a0823190611017903390600401612779565b602060405180830381865afa158015611034573d6000803e3d6000fd5b505050506040513d601f19601f820116820180604052508101906110589190612cfc565b101561109e5760405162461bcd60e51b81526020600482015260156024820152746e6f74206861766520656e6f75676820475241504560581b604482015260640161062c565b6110a9838533611c54565b600b546001600160a01b0316639dc29fac3360646110c8600282612d15565b6110d29087612cdd565b6110dc9190612d42565b6040518363ffffffff1660e01b81526004016110f9929190612d56565b600060405180830381600087803b15801561111357600080fd5b505af1158015611127573d6000803e3d6000fd5b5050600c546001600160a01b031691506379cc6790905033606461114c600282612d15565b6111569086612cdd565b6111609190612d42565b6040518363ffffffff1660e01b815260040161117d929190612d56565b600060405180830381600087803b15801561119757600080fd5b505af11580156111ab573d6000803e3d6000fd5b5050600b546001600160a01b0316915063bca6c75390503360646111d0600287612cdd565b6111da9190612d42565b6040518363ffffffff1660e01b81526004016111f7929190612d56565b600060405180830381600087803b15801561121157600080fd5b505af1158015611225573d6000803e3d6000fd5b5050600c546001600160a01b031691506323b872dd90503330606461124b600288612cdd565b6112559190612d42565b6040516001600160e01b031960e086901b1681526001600160a01b03938416600482015292909116602483015260448201526064016020604051808303816000875af11580156112a9573d6000803e3d6000fd5b505050506040513d601f19601f820116820180604052508101906112cd9190612d6f565b5050505050565b60006112df826118b0565b6112fb5760405162461bcd60e51b815260040161062c90612ba3565b5060009081526013602052604090205490565b606061131984610c87565b831061137457604080516000808252602082019092529061136c565b61135960405180606001604052806000815260200160008152602001600081525090565b8152602001906001900390816113355790505b5090506114a5565b8161137e85610c87565b6113888486612cc5565b106113a4578361139786610c87565b6113a19190612d15565b90505b60008167ffffffffffffffff8111156113bf576113bf612a09565b60405190808252806020026020018201604052801561141457816020015b61140160405180606001604052806000815260200160008152602001600081525090565b8152602001906001900390816113dd5790505b50905060005b828110156114a057600061143288610330848a612cc5565b6040805160608101825282815260008381526013602090815283822054818401819052825260109052829020600401549181019190915284519192509084908490811061148157611481612c88565b602002602001018190525050808061149890612c6d565b91505061141a565b509150505b9392505050565b600a546001600160a01b031690565b60606001805461058290612b68565b6114d5338383611d01565b5050565b336114e26114ac565b6001600160a01b0316146115085760405162461bcd60e51b815260040161062c90612bd1565b600c80546001600160a01b0319166001600160a01b0392909216919091179055565b611534338361193b565b6115505760405162461bcd60e51b815260040161062c90612c06565b61155c84848484611dcc565b50505050565b606061156d826118b0565b6115d15760405162461bcd60e51b815260206004820152602f60248201527f4552433732314d657461646174613a2055524920717565727920666f72206e6f60448201526e3732bc34b9ba32b73a103a37b5b2b760891b606482015260840161062c565b6000828152601360205260408120546115eb906001612cc5565b90506115f5611dff565b6115fe82611e0e565b60405160200161160f929190612d8c565b604051602081830303815290604052915050919050565b600e805461163390612b68565b80601f016020809104026020016040519081016040528092919081815260200182805461165f90612b68565b80156116ac5780601f10611681576101008083540402835291602001916116ac565b820191906000526020600020905b81548152906001019060200180831161168f57829003601f168201915b505050505081565b336116bd6114ac565b6001600160a01b0316146116e35760405162461bcd60e51b815260040161062c90612bd1565b6011548511156117055760405162461bcd60e51b815260040161062c90612c9e565b6040805160a0810182526000808252602080830197885282840196875260608301958652608083019485529781526010909752952094518555925160018501559051600284015551600383015551600490910155565b600d546000906001600160a01b0316158015906117855750600d546001600160a01b038381169116145b156117925750600161056d565b6001600160a01b0380841660009081526005602090815260408083209386168352929052205460ff166114a5565b336117c96114ac565b6001600160a01b0316146117ef5760405162461bcd60e51b815260040161062c90612bd1565b6001600160a01b0381166118545760405162461bcd60e51b815260206004820152602660248201527f4f776e61626c653a206e6577206f776e657220697320746865207a65726f206160448201526564647265737360d01b606482015260840161062c565b61185d81611c02565b50565b60006001600160e01b031982166380ac58cd60e01b148061189157506001600160e01b03198216635b5e139f60e01b145b8061056d57506301ffc9a760e01b6001600160e01b031983161461056d565b6000908152600260205260409020546001600160a01b0316151590565b600081815260046020526040902080546001600160a01b0319166001600160a01b038416908117909155819061190282610bf5565b6001600160a01b03167f8c5be1e5ebec7d5bd14f71427d1e84f3dd0314c0f7b2291e5b200ac8c7c3b92560405160405180910390a45050565b6000611946826118b0565b6119a75760405162461bcd60e51b815260206004820152602c60248201527f4552433732313a206f70657261746f7220717565727920666f72206e6f6e657860448201526b34b9ba32b73a103a37b5b2b760a11b606482015260840161062c565b60006119b283610bf5565b9050806001600160a01b0316846001600160a01b031614806119d957506119d9818561175b565b806119fd5750836001600160a01b03166119f284610658565b6001600160a01b0316145b949350505050565b826001600160a01b0316611a1882610bf5565b6001600160a01b031614611a7c5760405162461bcd60e51b815260206004820152602560248201527f4552433732313a207472616e736665722066726f6d20696e636f72726563742060448201526437bbb732b960d91b606482015260840161062c565b6001600160a01b038216611ade5760405162461bcd60e51b8152602060048201526024808201527f4552433732313a207472616e7366657220746f20746865207a65726f206164646044820152637265737360e01b606482015260840161062c565b611ae9838383611f0c565b611af46000826118cd565b6001600160a01b0383166000908152600360205260408120805460019290611b1d908490612d15565b90915550506001600160a01b0382166000908152600360205260408120805460019290611b4b908490612cc5565b909155505060008181526002602052604080822080546001600160a01b0319166001600160a01b0386811691821790925591518493918716917fddf252ad1be2c89b69c2b068fc378daa952ba7f163c4a11628f55a4df523b3ef91a4505050565b6107ec8363a9059cbb60e01b8484604051602401611bcb929190612d56565b60408051601f198184030181529190526020810180516001600160e01b03166001600160e01b031990931692909217909152611fc4565b600a80546001600160a01b038381166001600160a01b0319831681179093556040519116919082907f8be0079c531659141344cd1fd0a4f28419497f9722a3daafe3b4186f6b6457e090600090a35050565b60005b8381101561155c57600160126000828254611c729190612cc5565b90915550506000838152601060205260408120805460019290611c96908490612cc5565b909155505060128054600090815260136020526040902084905554611cbc908390612096565b6040518381527fbd8dec1c83646f9f8c3ca8465376ed8174df592e995a30a206944b013ca6bcb59060200160405180910390a180611cf981612c6d565b915050611c57565b816001600160a01b0316836001600160a01b03161415611d5f5760405162461bcd60e51b815260206004820152601960248201527822a9219b99189d1030b8383937bb32903a379031b0b63632b960391b604482015260640161062c565b6001600160a01b03838116600081815260056020908152604080832094871680845294825291829020805460ff191686151590811790915591519182527f17307eab39ab6107e8899845ad3d59bd9653f200f220920489ca2b5937696c31910160405180910390a3505050565b611dd7848484611a05565b611de3848484846120b0565b61155c5760405162461bcd60e51b815260040161062c90612dda565b6060600e805461058290612b68565b606081611e325750506040805180820190915260018152600360fc1b602082015290565b8160005b8115611e5c5780611e4681612c6d565b9150611e559050600a83612d42565b9150611e36565b60008167ffffffffffffffff811115611e7757611e77612a09565b6040519080825280601f01601f191660200182016040528015611ea1576020820181803683370190505b5090505b84156119fd57611eb6600183612d15565b9150611ec3600a86612e2c565b611ece906030612cc5565b60f81b818381518110611ee357611ee3612c88565b60200101906001600160f81b031916908160001a905350611f05600a86612d42565b9450611ea5565b6001600160a01b038316611f6757611f6281600880546000838152600960205260408120829055600182018355919091527ff3f7a9fe364faab93b216da50a3214154f22a0a2b415b23a84c8169e8b636ee30155565b611f8a565b816001600160a01b0316836001600160a01b031614611f8a57611f8a83826121ae565b6001600160a01b038216611fa1576107ec8161224b565b826001600160a01b0316826001600160a01b0316146107ec576107ec82826122fa565b6000612019826040518060400160405280602081526020017f5361666545524332303a206c6f772d6c6576656c2063616c6c206661696c6564815250856001600160a01b031661233e9092919063ffffffff16565b8051909150156107ec57808060200190518101906120379190612d6f565b6107ec5760405162461bcd60e51b815260206004820152602a60248201527f5361666545524332303a204552433230206f7065726174696f6e20646964206e6044820152691bdd081cdd58d8d9595960b21b606482015260840161062c565b6114d582826040518060200160405280600081525061234d565b60006001600160a01b0384163b156121a357604051630a85bd0160e11b81526001600160a01b0385169063150b7a02906120f4903390899088908890600401612e40565b6020604051808303816000875af192505050801561212f575060408051601f3d908101601f1916820190925261212c91810190612e7d565b60015b612189573d80801561215d576040519150601f19603f3d011682016040523d82523d6000602084013e612162565b606091505b5080516121815760405162461bcd60e51b815260040161062c90612dda565b805181602001fd5b6001600160e01b031916630a85bd0160e11b1490506119fd565b506001949350505050565b600060016121bb84610c87565b6121c59190612d15565b600083815260076020526040902054909150808214612218576001600160a01b03841660009081526006602090815260408083208584528252808320548484528184208190558352600790915290208190555b5060009182526007602090815260408084208490556001600160a01b039094168352600681528383209183525290812055565b60085460009061225d90600190612d15565b6000838152600960205260408120546008805493945090928490811061228557612285612c88565b9060005260206000200154905080600883815481106122a6576122a6612c88565b60009182526020808320909101929092558281526009909152604080822084905585825281205560088054806122de576122de612e9a565b6001900381819060005260206000200160009055905550505050565b600061230583610c87565b6001600160a01b039093166000908152600660209081526040808320868452825280832085905593825260079052919091209190915550565b60606119fd8484600085612380565b61235783836124b1565b61236460008484846120b0565b6107ec5760405162461bcd60e51b815260040161062c90612dda565b6060824710156123e15760405162461bcd60e51b815260206004820152602660248201527f416464726573733a20696e73756666696369656e742062616c616e636520666f6044820152651c8818d85b1b60d21b606482015260840161062c565b6001600160a01b0385163b6124385760405162461bcd60e51b815260206004820152601d60248201527f416464726573733a2063616c6c20746f206e6f6e2d636f6e7472616374000000604482015260640161062c565b600080866001600160a01b031685876040516124549190612eb0565b60006040518083038185875af1925050503d8060008114612491576040519150601f19603f3d011682016040523d82523d6000602084013e612496565b606091505b50915091506124a68282866125f0565b979650505050505050565b6001600160a01b0382166125075760405162461bcd60e51b815260206004820181905260248201527f4552433732313a206d696e7420746f20746865207a65726f2061646472657373604482015260640161062c565b612510816118b0565b1561255d5760405162461bcd60e51b815260206004820152601c60248201527f4552433732313a20746f6b656e20616c7265616479206d696e74656400000000604482015260640161062c565b61256960008383611f0c565b6001600160a01b0382166000908152600360205260408120805460019290612592908490612cc5565b909155505060008181526002602052604080822080546001600160a01b0319166001600160a01b03861690811790915590518392907fddf252ad1be2c89b69c2b068fc378daa952ba7f163c4a11628f55a4df523b3ef908290a45050565b606083156125ff5750816114a5565b82511561260f5782518084602001fd5b8160405162461bcd60e51b815260040161062c919061274d565b82805461263590612b68565b90600052602060002090601f016020900481019282612657576000855561269d565b82601f106126705782800160ff1982351617855561269d565b8280016001018555821561269d579182015b8281111561269d578235825591602001919060010190612682565b506126a99291506126ad565b5090565b5b808211156126a957600081556001016126ae565b6001600160e01b03198116811461185d57600080fd5b6000602082840312156126ea57600080fd5b81356114a5816126c2565b60005b838110156127105781810151838201526020016126f8565b8381111561155c5750506000910152565b600081518084526127398160208601602086016126f5565b601f01601f19169290920160200192915050565b6020815260006114a56020830184612721565b60006020828403121561277257600080fd5b5035919050565b6001600160a01b0391909116815260200190565b6001600160a01b038116811461185d57600080fd5b600080604083850312156127b557600080fd5b82356127c08161278d565b946020939093013593505050565b6000602082840312156127e057600080fd5b81356114a58161278d565b60008060006060848603121561280057600080fd5b833561280b8161278d565b9250602084013561281b8161278d565b929592945050506040919091013590565b6000806000806080858703121561284257600080fd5b5050823594602084013594506040840135936060013592509050565b60008060006060848603121561287357600080fd5b833561287e8161278d565b92506020840135915060408401356128958161278d565b809150509250925092565b600080602083850312156128b357600080fd5b823567ffffffffffffffff808211156128cb57600080fd5b818501915085601f8301126128df57600080fd5b8135818111156128ee57600080fd5b86602082850101111561290057600080fd5b60209290920196919550909350505050565b6000806040838503121561292557600080fd5b50508035926020909101359150565b60008060006060848603121561294957600080fd5b83356129548161278d565b95602085013595506040909401359392505050565b602080825282518282018190526000919060409081850190868401855b828110156129b55781518051855286810151878601528501518585015260609093019290850190600101612986565b5091979650505050505050565b801515811461185d57600080fd5b600080604083850312156129e357600080fd5b82356129ee8161278d565b915060208301356129fe816129c2565b809150509250929050565b634e487b7160e01b600052604160045260246000fd5b60008060008060808587031215612a3557600080fd5b8435612a408161278d565b93506020850135612a508161278d565b925060408501359150606085013567ffffffffffffffff80821115612a7457600080fd5b818701915087601f830112612a8857600080fd5b813581811115612a9a57612a9a612a09565b604051601f8201601f19908116603f01168101908382118183101715612ac257612ac2612a09565b816040528281528a6020848701011115612adb57600080fd5b82602086016020830137600060208483010152809550505050505092959194509250565b600080600080600060a08688031215612b1757600080fd5b505083359560208501359550604085013594606081013594506080013592509050565b60008060408385031215612b4d57600080fd5b8235612b588161278d565b915060208301356129fe8161278d565b600181811c90821680612b7c57607f821691505b60208210811415612b9d57634e487b7160e01b600052602260045260246000fd5b50919050565b6020808252601490820152731d1bdad95b88191bd95cc81b9bdd08195e1a5cdd60621b604082015260600190565b6020808252818101527f4f776e61626c653a2063616c6c6572206973206e6f7420746865206f776e6572604082015260600190565b60208082526031908201527f4552433732313a207472616e736665722063616c6c6572206973206e6f74206f6040820152701ddb995c881b9bdc88185c1c1c9bdd9959607a1b606082015260800190565b634e487b7160e01b600052601160045260246000fd5b6000600019821415612c8157612c81612c57565b5060010190565b634e487b7160e01b600052603260045260246000fd5b6020808252600d908201526c1a5b9d985b1a59081b195d995b609a1b604082015260600190565b60008219821115612cd857612cd8612c57565b500190565b6000816000190483118215151615612cf757612cf7612c57565b500290565b600060208284031215612d0e57600080fd5b5051919050565b600082821015612d2757612d27612c57565b500390565b634e487b7160e01b600052601260045260246000fd5b600082612d5157612d51612d2c565b500490565b6001600160a01b03929092168252602082015260400190565b600060208284031215612d8157600080fd5b81516114a5816129c2565b60008351612d9e8184602088016126f5565b602f60f81b9083019081528351612dbc8160018401602088016126f5565b64173539b7b760d91b60019290910191820152600601949350505050565b60208082526032908201527f4552433732313a207472616e7366657220746f206e6f6e20455243373231526560408201527131b2b4bb32b91034b6b83632b6b2b73a32b960711b606082015260800190565b600082612e3b57612e3b612d2c565b500690565b6001600160a01b0385811682528416602082015260408101839052608060608201819052600090612e7390830184612721565b9695505050505050565b600060208284031215612e8f57600080fd5b81516114a5816126c2565b634e487b7160e01b600052603160045260246000fd5b60008251612ec28184602087016126f5565b919091019291505056fea264697066735822122001e18be65a481ef5b11a94e68810fb2cf68dd2cbff7dd79dbaf4b4317785da3b64736f6c634300080b0033"
}