{
  "address": "0x5FbDB2315678afecb367f032d93F642f64180aa3",
  "abi": [
    {
      "anonymous": false,
      "inputs": [
        {
          "indexed": true,
          "internalType": "address",
          "name": "owner",
          "type": "address"
        },
        {
          "indexed": true,
          "internalType": "address",
          "name": "spender",
          "type": "address"
        },
        {
          "indexed": false,
          "internalType": "uint256",
          "name": "value",
          "type": "uint256"
        }
      ],
      "name": "Approval",
      "type": "event"
    },
    {
      "anonymous": false,
      "inputs": [
        {
          "indexed": true,
          "internalType": "address",
          "name": "previousOwner",
          "type": "address"
        },
        {
          "indexed": true,
          "internalType": "address",
          "name": "newOwner",
          "type": "address"
        }
      ],
      "name": "OwnershipTransferred",
      "type": "event"
    },
    {
      "anonymous": false,
      "inputs": [
        {
          "indexed": true,
          "internalType": "address",
          "name": "from",
          "type": "address"
        },
        {
          "indexed": true,
          "internalType": "address",
          "name": "to",
          "type": "address"
        },
        {
          "indexed": false,
          "internalType": "uint256",
          "name": "value",
          "type": "uint256"
        }
      ],
      "name": "Transfer",
      "type": "event"
    },
    {
      "inputs": [],
      "name": "NUM_PROMOTIONAL_VINTAGEWINE",
      "outputs": [
        {
          "internalType": "uint256",
          "name": "",
          "type": "uint256"
        }
      ],
      "stateMutability": "view",
      "type": "function"
    },
    {
      "inputs": [],
      "name": "NUM_VINTAGEWINE_AVAX_LP",
      "outputs": [
        {
          "internalType": "uint256",
          "name": "",
          "type": "uint256"
        }
      ],
      "stateMutability": "view",
      "type": "function"
    },
    {
      "inputs": [],
      "name": "NUM_VINTAGEWINE_GRAPE_LP",
      "outputs": [
        {
          "internalType": "uint256",
          "name": "",
          "type": "uint256"
        }
      ],
      "stateMutability": "view",
      "type": "function"
    },
    {
      "inputs": [],
      "name": "ONE_VINTAGEWINE",
      "outputs": [
        {
          "internalType": "uint256",
          "name": "",
          "type": "uint256"
        }
      ],
      "stateMutability": "view",
      "type": "function"
    },
    {
      "inputs": [
        {
          "internalType": "address",
          "name": "owner",
          "type": "address"
        },
        {
          "internalType": "address",
          "name": "spender",
          "type": "address"
        }
      ],
      "name": "allowance",
      "outputs": [
        {
          "internalType": "uint256",
          "name": "",
          "type": "uint256"
        }
      ],
      "stateMutability": "view",
      "type": "function"
    },
    {
      "inputs": [
        {
          "internalType": "address",
          "name": "spender",
          "type": "address"
        },
        {
          "internalType": "uint256",
          "name": "amount",
          "type": "uint256"
        }
      ],
      "name": "approve",
      "outputs": [
        {
          "internalType": "bool",
          "name": "",
          "type": "bool"
        }
      ],
      "stateMutability": "nonpayable",
      "type": "function"
    },
    {
      "inputs": [],
      "name": "avaxLPVintageWineMinted",
      "outputs": [
        {
          "internalType": "bool",
          "name": "",
          "type": "bool"
        }
      ],
      "stateMutability": "view",
      "type": "function"
    },
    {
      "inputs": [
        {
          "internalType": "address",
          "name": "account",
          "type": "address"
        }
      ],
      "name": "balanceOf",
      "outputs": [
        {
          "internalType": "uint256",
          "name": "",
          "type": "uint256"
        }
      ],
      "stateMutability": "view",
      "type": "function"
    },
    {
      "inputs": [
        {
          "internalType": "address",
          "name": "_from",
          "type": "address"
        },
        {
          "internalType": "uint256",
          "name": "_amount",
          "type": "uint256"
        }
      ],
      "name": "burn",
      "outputs": [],
      "stateMutability": "nonpayable",
      "type": "function"
    },
    {
      "inputs": [],
      "name": "cellarAddress",
      "outputs": [
        {
          "internalType": "address",
          "name": "",
          "type": "address"
        }
      ],
      "stateMutability": "view",
      "type": "function"
    },
    {
      "inputs": [],
      "name": "decimals",
      "outputs": [
        {
          "internalType": "uint8",
          "name": "",
          "type": "uint8"
        }
      ],
      "stateMutability": "view",
      "type": "function"
    },
    {
      "inputs": [
        {
          "internalType": "address",
          "name": "spender",
          "type": "address"
        },
        {
          "internalType": "uint256",
          "name": "subtractedValue",
          "type": "uint256"
        }
      ],
      "name": "decreaseAllowance",
      "outputs": [
        {
          "internalType": "bool",
          "name": "",
          "type": "bool"
        }
      ],
      "stateMutability": "nonpayable",
      "type": "function"
    },
    {
      "inputs": [],
      "name": "grapeLPVintageWineMinted",
      "outputs": [
        {
          "internalType": "bool",
          "name": "",
          "type": "bool"
        }
      ],
      "stateMutability": "view",
      "type": "function"
    },
    {
      "inputs": [
        {
          "internalType": "address",
          "name": "spender",
          "type": "address"
        },
        {
          "internalType": "uint256",
          "name": "addedValue",
          "type": "uint256"
        }
      ],
      "name": "increaseAllowance",
      "outputs": [
        {
          "internalType": "bool",
          "name": "",
          "type": "bool"
        }
      ],
      "stateMutability": "nonpayable",
      "type": "function"
    },
    {
      "inputs": [
        {
          "internalType": "address",
          "name": "_to",
          "type": "address"
        },
        {
          "internalType": "uint256",
          "name": "_amount",
          "type": "uint256"
        }
      ],
      "name": "mint",
      "outputs": [],
      "stateMutability": "nonpayable",
      "type": "function"
    },
    {
      "inputs": [],
      "name": "mintAvaxLPVintageWine",
      "outputs": [],
      "stateMutability": "nonpayable",
      "type": "function"
    },
    {
      "inputs": [],
      "name": "mintGrapeLPVintageWine",
      "outputs": [],
      "stateMutability": "nonpayable",
      "type": "function"
    },
    {
      "inputs": [
        {
          "internalType": "address",
          "name": "_to",
          "type": "address"
        }
      ],
      "name": "mintPromotionalVintageWine",
      "outputs": [],
      "stateMutability": "nonpayable",
      "type": "function"
    },
    {
      "inputs": [],
      "name": "name",
      "outputs": [
        {
          "internalType": "string",
          "name": "",
          "type": "string"
        }
      ],
      "stateMutability": "view",
      "type": "function"
    },
    {
      "inputs": [],
      "name": "owner",
      "outputs": [
        {
          "internalType": "address",
          "name": "",
          "type": "address"
        }
      ],
      "stateMutability": "view",
      "type": "function"
    },
    {
      "inputs": [],
      "name": "promotionalVintageWineMinted",
      "outputs": [
        {
          "internalType": "bool",
          "name": "",
          "type": "bool"
        }
      ],
      "stateMutability": "view",
      "type": "function"
    },
    {
      "inputs": [],
      "name": "renounceOwnership",
      "outputs": [],
      "stateMutability": "nonpayable",
      "type": "function"
    },
    {
      "inputs": [
        {
          "internalType": "address",
          "name": "_cellarAddress",
          "type": "address"
        }
      ],
      "name": "setCellarAddress",
      "outputs": [],
      "stateMutability": "nonpayable",
      "type": "function"
    },
    {
      "inputs": [
        {
          "internalType": "uint256",
          "name": "_numVintageWineAvaxLp",
          "type": "uint256"
        }
      ],
      "name": "setNumVintageWineAvaxLp",
      "outputs": [],
      "stateMutability": "nonpayable",
      "type": "function"
    },
    {
      "inputs": [
        {
          "internalType": "address",
          "name": "_upgradeAddress",
          "type": "address"
        }
      ],
      "name": "setUpgradeAddress",
      "outputs": [],
      "stateMutability": "nonpayable",
      "type": "function"
    },
    {
      "inputs": [
        {
          "internalType": "address",
          "name": "_vintnerAddress",
          "type": "address"
        }
      ],
      "name": "setVintnerAddress",
      "outputs": [],
      "stateMutability": "nonpayable",
      "type": "function"
    },
    {
      "inputs": [
        {
          "internalType": "address",
          "name": "_wineryAddress",
          "type": "address"
        }
      ],
      "name": "setWineryAddress",
      "outputs": [],
      "stateMutability": "nonpayable",
      "type": "function"
    },
    {
      "inputs": [],
      "name": "symbol",
      "outputs": [
        {
          "internalType": "string",
          "name": "",
          "type": "string"
        }
      ],
      "stateMutability": "view",
      "type": "function"
    },
    {
      "inputs": [],
      "name": "totalSupply",
      "outputs": [
        {
          "internalType": "uint256",
          "name": "",
          "type": "uint256"
        }
      ],
      "stateMutability": "view",
      "type": "function"
    },
    {
      "inputs": [
        {
          "internalType": "address",
          "name": "to",
          "type": "address"
        },
        {
          "internalType": "uint256",
          "name": "amount",
          "type": "uint256"
        }
      ],
      "name": "transfer",
      "outputs": [
        {
          "internalType": "bool",
          "name": "",
          "type": "bool"
        }
      ],
      "stateMutability": "nonpayable",
      "type": "function"
    },
    {
      "inputs": [
        {
          "internalType": "address",
          "name": "_from",
          "type": "address"
        },
        {
          "internalType": "uint256",
          "name": "_amount",
          "type": "uint256"
        }
      ],
      "name": "transferForUpgradesFees",
      "outputs": [],
      "stateMutability": "nonpayable",
      "type": "function"
    },
    {
      "inputs": [
        {
          "internalType": "address",
          "name": "from",
          "type": "address"
        },
        {
          "internalType": "address",
          "name": "to",
          "type": "address"
        },
        {
          "internalType": "uint256",
          "name": "amount",
          "type": "uint256"
        }
      ],
      "name": "transferFrom",
      "outputs": [
        {
          "internalType": "bool",
          "name": "",
          "type": "bool"
        }
      ],
      "stateMutability": "nonpayable",
      "type": "function"
    },
    {
      "inputs": [
        {
          "internalType": "address",
          "name": "newOwner",
          "type": "address"
        }
      ],
      "name": "transferOwnership",
      "outputs": [],
      "stateMutability": "nonpayable",
      "type": "function"
    },
    {
      "inputs": [
        {
          "internalType": "address",
          "name": "_from",
          "type": "address"
        },
        {
          "internalType": "uint256",
          "name": "_amount",
          "type": "uint256"
        }
      ],
      "name": "transferToCellar",
      "outputs": [],
      "stateMutability": "nonpayable",
      "type": "function"
    },
    {
      "inputs": [],
      "name": "upgradeAddress",
      "outputs": [
        {
          "internalType": "address",
          "name": "",
          "type": "address"
        }
      ],
      "stateMutability": "view",
      "type": "function"
    },
    {
      "inputs": [],
      "name": "vintnerAddress",
      "outputs": [
        {
          "internalType": "address",
          "name": "",
          "type": "address"
        }
      ],
      "stateMutability": "view",
      "type": "function"
    },
    {
      "inputs": [],
      "name": "wineryAddress",
      "outputs": [
        {
          "internalType": "address",
          "name": "",
          "type": "address"
        }
      ],
      "stateMutability": "view",
      "type": "function"
    }
  ],
  "transactionHash": "0x51fa19d39d754a1f0b0b356637f704f89fd9dae476f4fb9b61eaea15c343ddf6",
  "args": [],
  "solcInputHash": "943f03f17f1e08bbbaf9e5d9f4917a46",
  "bytecode": "0x60806040526301c9c380600655600a805462ffffff60a01b191690553480156200002857600080fd5b506040518060400160405280600b81526020016a56696e7461676557696e6560a81b8152506040518060400160405280600b81526020016a56494e5441474557494e4560a81b81525081600390805190602001906200008992919062000118565b5080516200009f90600490602084019062000118565b505050620000bc620000b6620000c260201b60201c565b620000c6565b620001fb565b3390565b600580546001600160a01b038381166001600160a01b0319831681179093556040519116919082907f8be0079c531659141344cd1fd0a4f28419497f9722a3daafe3b4186f6b6457e090600090a35050565b8280546200012690620001be565b90600052602060002090601f0160209004810192826200014a576000855562000195565b82601f106200016557805160ff191683800117855562000195565b8280016001018555821562000195579182015b828111156200019557825182559160200191906001019062000178565b50620001a3929150620001a7565b5090565b5b80821115620001a35760008155600101620001a8565b600181811c90821680620001d357607f821691505b60208210811415620001f557634e487b7160e01b600052602260045260246000fd5b50919050565b611733806200020b6000396000f3fe608060405234801561001057600080fd5b50600436106101f75760003560e01c8063735d09a611610120578063bc5d7a9f116100b8578063d19238451161007c578063d19238451461044e578063d9605d1814610462578063dd62ed3e14610475578063f2fde38b14610488578063f83dcabd1461049b57600080fd5b8063bc5d7a9f146103f2578063bca6c75314610405578063c7418a6e14610418578063ca39ec511461042c578063cdb1ca511461043f57600080fd5b8063735d09a6146103715780638da5cb5b1461038457806393b95fd91461038c57806395d89b41146103955780639dc29fac1461039d578063a117abb7146103b0578063a457c2d7146103b8578063a9059cbb146103cb578063aa0872f4146103de57600080fd5b80633ad6655f116101935780633ad6655f146102b75780633f747e24146102c157806340c10f19146102ec5780634f445710146102ff5780635ea5379314610312578063631f0d661461031a57806366f9c99e1461032d57806370a0823114610340578063715018a61461036957600080fd5b806306fdde03146101fc578063095ea7b31461021a578063097f1f2f1461023d57806318160ddd1461025257806323b872dd1461026457806327148ceb146102775780632ff3b41514610282578063313ce5671461029557806339509351146102a4575b600080fd5b6102046104ae565b604051610211919061144b565b60405180910390f35b61022d6102283660046114bc565b610540565b6040519015158152602001610211565b61025061024b3660046114e6565b610558565b005b6002545b604051908152602001610211565b61022d610272366004611508565b6105b2565b6102566301312d0081565b6102506102903660046114e6565b6105d6565b60405160128152602001610211565b61022d6102b23660046114bc565b610627565b6102566207a12081565b6007546102d4906001600160a01b031681565b6040516001600160a01b039091168152602001610211565b6102506102fa3660046114bc565b610649565b61025061030d366004611544565b6106f6565b61025061072a565b600a546102d4906001600160a01b031681565b61025061033b3660046114e6565b610803565b61025661034e3660046114e6565b6001600160a01b031660009081526020819052604090205490565b610250610854565b6008546102d4906001600160a01b031681565b6102d461088d565b61025660065481565b61020461089c565b6102506103ab3660046114bc565b6108ab565b61025061097a565b61022d6103c63660046114bc565b610a4b565b61022d6103d93660046114bc565b610ac6565b600a5461022d90600160a81b900460ff1681565b6102506104003660046114e6565b610ad4565b6102506104133660046114bc565b610ba4565b600a5461022d90600160b01b900460ff1681565b61025061043a3660046114bc565b610c6d565b610256670de0b6b3a764000081565b600a5461022d90600160a01b900460ff1681565b6102506104703660046114e6565b610d2b565b61025661048336600461155d565b610dd5565b6102506104963660046114e6565b610e00565b6009546102d4906001600160a01b031681565b6060600380546104bd90611590565b80601f01602080910402602001604051908101604052809291908181526020018280546104e990611590565b80156105365780601f1061050b57610100808354040283529160200191610536565b820191906000526020600020905b81548152906001019060200180831161051957829003601f168201915b5050505050905090565b60003361054e818585610e9d565b5060019392505050565b3361056161088d565b6001600160a01b0316146105905760405162461bcd60e51b8152600401610587906115cb565b60405180910390fd5b600880546001600160a01b0319166001600160a01b0392909216919091179055565b6000336105c0858285610fc2565b6105cb85858561103c565b506001949350505050565b336105df61088d565b6001600160a01b0316146106055760405162461bcd60e51b8152600401610587906115cb565b600780546001600160a01b0319166001600160a01b0392909216919091179055565b60003361054e81858561063a8383610dd5565b6106449190611616565b610e9d565b6008546001600160a01b03161580159061066d57506009546001600160a01b031615155b801561068357506007546001600160a01b031615155b80156106995750600a546001600160a01b031615155b6106b55760405162461bcd60e51b81526004016105879061162e565b6008546001600160a01b0316336001600160a01b0316146106e85760405162461bcd60e51b815260040161058790611665565b6106f282826111f8565b5050565b336106ff61088d565b6001600160a01b0316146107255760405162461bcd60e51b8152600401610587906115cb565b600655565b3361073361088d565b6001600160a01b0316146107595760405162461bcd60e51b8152600401610587906115cb565b600a54600160b01b900460ff16156107c85760405162461bcd60e51b815260206004820152602c60248201527f67726170652076696e7461676557696e65204c502068617320616c726561647960448201526b081899595b881b5a5b9d195960a21b6064820152608401610587565b600a805460ff60b01b1916600160b01b1790556108016107e661088d565b6107fc670de0b6b3a76400006301312d006116a7565b6111f8565b565b3361080c61088d565b6001600160a01b0316146108325760405162461bcd60e51b8152600401610587906115cb565b600a80546001600160a01b0319166001600160a01b0392909216919091179055565b3361085d61088d565b6001600160a01b0316146108835760405162461bcd60e51b8152600401610587906115cb565b61080160006112c5565b6005546001600160a01b031690565b6060600480546104bd90611590565b6009546001600160a01b0316158015906108cf57506007546001600160a01b031615155b80156108e55750600a546001600160a01b031615155b6109015760405162461bcd60e51b81526004016105879061162e565b6009546001600160a01b0316336001600160a01b0316148061093657506007546001600160a01b0316336001600160a01b0316145b806109545750600a546001600160a01b0316336001600160a01b0316145b6109705760405162461bcd60e51b815260040161058790611665565b6106f28282611317565b3361098361088d565b6001600160a01b0316146109a95760405162461bcd60e51b8152600401610587906115cb565b600a54600160a81b900460ff1615610a175760405162461bcd60e51b815260206004820152602b60248201527f617661782076696e7461676557696e65204c502068617320616c72656164792060448201526a1899595b881b5a5b9d195960aa1b6064820152608401610587565b600a805460ff60a81b1916600160a81b179055610801610a3561088d565b670de0b6b3a76400006006546107fc91906116a7565b60003381610a598286610dd5565b905083811015610ab95760405162461bcd60e51b815260206004820152602560248201527f45524332303a2064656372656173656420616c6c6f77616e63652062656c6f77604482015264207a65726f60d81b6064820152608401610587565b6105cb8286868403610e9d565b60003361054e81858561103c565b33610add61088d565b6001600160a01b031614610b035760405162461bcd60e51b8152600401610587906115cb565b600a54600160a01b900460ff1615610b755760405162461bcd60e51b815260206004820152602f60248201527f70726f6d6f74696f6e616c2076696e7461676557696e652068617320616c726560448201526e18591e481899595b881b5a5b9d1959608a1b6064820152608401610587565b600a805460ff60a01b1916600160a01b179055610ba1816107fc670de0b6b3a76400006207a1206116a7565b50565b600a546001600160a01b0316610bcc5760405162461bcd60e51b81526004016105879061162e565b600a546001600160a01b0316336001600160a01b031614610c555760405162461bcd60e51b815260206004820152603a60248201527f6f6e6c7920746865207570677261646520636f6e74726163742063616e20636160448201527f6c6c207472616e73666572466f725570677261646573466565730000000000006064820152608401610587565b600a546106f29083906001600160a01b03168361103c565b6007546001600160a01b0316610c955760405162461bcd60e51b81526004016105879061162e565b6007546001600160a01b0316336001600160a01b031614610d135760405162461bcd60e51b815260206004820152603260248201527f6f6e6c79207468652063656c6c617220636f6e74726163742063616e2063616c60448201527136103a3930b739b332b92a37a1b2b63630b960711b6064820152608401610587565b6007546106f29083906001600160a01b03168361103c565b33610d3461088d565b6001600160a01b031614610d5a5760405162461bcd60e51b8152600401610587906115cb565b6009546001600160a01b031615610db35760405162461bcd60e51b815260206004820152601b60248201527f76696e746e6572206164647265737320616c72656164792073657400000000006044820152606401610587565b600980546001600160a01b0319166001600160a01b0392909216919091179055565b6001600160a01b03918216600090815260016020908152604080832093909416825291909152205490565b33610e0961088d565b6001600160a01b031614610e2f5760405162461bcd60e51b8152600401610587906115cb565b6001600160a01b038116610e945760405162461bcd60e51b815260206004820152602660248201527f4f776e61626c653a206e6577206f776e657220697320746865207a65726f206160448201526564647265737360d01b6064820152608401610587565b610ba1816112c5565b6001600160a01b038316610eff5760405162461bcd60e51b8152602060048201526024808201527f45524332303a20617070726f76652066726f6d20746865207a65726f206164646044820152637265737360e01b6064820152608401610587565b6001600160a01b038216610f605760405162461bcd60e51b815260206004820152602260248201527f45524332303a20617070726f766520746f20746865207a65726f206164647265604482015261737360f01b6064820152608401610587565b6001600160a01b0383811660008181526001602090815260408083209487168084529482529182902085905590518481527f8c5be1e5ebec7d5bd14f71427d1e84f3dd0314c0f7b2291e5b200ac8c7c3b92591015b60405180910390a3505050565b6000610fce8484610dd5565b9050600019811461103657818110156110295760405162461bcd60e51b815260206004820152601d60248201527f45524332303a20696e73756666696369656e7420616c6c6f77616e63650000006044820152606401610587565b6110368484848403610e9d565b50505050565b6001600160a01b0383166110a05760405162461bcd60e51b815260206004820152602560248201527f45524332303a207472616e736665722066726f6d20746865207a65726f206164604482015264647265737360d81b6064820152608401610587565b6001600160a01b0382166111025760405162461bcd60e51b815260206004820152602360248201527f45524332303a207472616e7366657220746f20746865207a65726f206164647260448201526265737360e81b6064820152608401610587565b6001600160a01b0383166000908152602081905260409020548181101561117a5760405162461bcd60e51b815260206004820152602660248201527f45524332303a207472616e7366657220616d6f756e7420657863656564732062604482015265616c616e636560d01b6064820152608401610587565b6001600160a01b038085166000908152602081905260408082208585039055918516815290812080548492906111b1908490611616565b92505081905550826001600160a01b0316846001600160a01b03166000805160206116de833981519152846040516111eb91815260200190565b60405180910390a3611036565b6001600160a01b03821661124e5760405162461bcd60e51b815260206004820152601f60248201527f45524332303a206d696e7420746f20746865207a65726f2061646472657373006044820152606401610587565b80600260008282546112609190611616565b90915550506001600160a01b0382166000908152602081905260408120805483929061128d908490611616565b90915550506040518181526001600160a01b038316906000906000805160206116de8339815191529060200160405180910390a35050565b600580546001600160a01b038381166001600160a01b0319831681179093556040519116919082907f8be0079c531659141344cd1fd0a4f28419497f9722a3daafe3b4186f6b6457e090600090a35050565b6001600160a01b0382166113775760405162461bcd60e51b815260206004820152602160248201527f45524332303a206275726e2066726f6d20746865207a65726f206164647265736044820152607360f81b6064820152608401610587565b6001600160a01b038216600090815260208190526040902054818110156113eb5760405162461bcd60e51b815260206004820152602260248201527f45524332303a206275726e20616d6f756e7420657863656564732062616c616e604482015261636560f01b6064820152608401610587565b6001600160a01b038316600090815260208190526040812083830390556002805484929061141a9084906116c6565b90915550506040518281526000906001600160a01b038516906000805160206116de83398151915290602001610fb5565b600060208083528351808285015260005b818110156114785785810183015185820160400152820161145c565b8181111561148a576000604083870101525b50601f01601f1916929092016040019392505050565b80356001600160a01b03811681146114b757600080fd5b919050565b600080604083850312156114cf57600080fd5b6114d8836114a0565b946020939093013593505050565b6000602082840312156114f857600080fd5b611501826114a0565b9392505050565b60008060006060848603121561151d57600080fd5b611526846114a0565b9250611534602085016114a0565b9150604084013590509250925092565b60006020828403121561155657600080fd5b5035919050565b6000806040838503121561157057600080fd5b611579836114a0565b9150611587602084016114a0565b90509250929050565b600181811c908216806115a457607f821691505b602082108114156115c557634e487b7160e01b600052602260045260246000fd5b50919050565b6020808252818101527f4f776e61626c653a2063616c6c6572206973206e6f7420746865206f776e6572604082015260600190565b634e487b7160e01b600052601160045260246000fd5b6000821982111561162957611629611600565b500190565b6020808252601c908201527f6d697373696e6720696e697469616c20726571756972656d656e747300000000604082015260600190565b60208082526022908201527f6d736773656e64657220646f6573206e6f742068617665207065726d6973736960408201526137b760f11b606082015260800190565b60008160001904831182151516156116c1576116c1611600565b500290565b6000828210156116d8576116d8611600565b50039056feddf252ad1be2c89b69c2b068fc378daa952ba7f163c4a11628f55a4df523b3efa26469706673582212206ceb1bd9e84c7ac05d4f2c44e0d13840327a4e91e002e66fddc9d2fb7ce424f064736f6c634300080b0033"
}