{
  "address": "0xDc64a140Aa3E981100a9becA4E685f962f0cF6C9",
  "abi": [
    {
      "inputs": [
        {
          "internalType": "contract VintageWine",
          "name": "_vintageWine",
          "type": "address"
        },
        {
          "internalType": "address",
          "name": "_vintnerTypeOracleAddress",
          "type": "address"
        },
        {
          "internalType": "string",
          "name": "_BASE_URI",
          "type": "string"
        }
      ],
      "stateMutability": "nonpayable",
      "type": "constructor"
    },
    {
      "anonymous": false,
      "inputs": [
        {
          "indexed": true,
          "internalType": "address",
          "name": "owner",
          "type": "address"
        },
        {
          "indexed": true,
          "internalType": "address",
          "name": "approved",
          "type": "address"
        },
        {
          "indexed": true,
          "internalType": "uint256",
          "name": "tokenId",
          "type": "uint256"
        }
      ],
      "name": "Approval",
      "type": "event"
    },
    {
      "anonymous": false,
      "inputs": [
        {
          "indexed": true,
          "internalType": "address",
          "name": "owner",
          "type": "address"
        },
        {
          "indexed": true,
          "internalType": "address",
          "name": "operator",
          "type": "address"
        },
        {
          "indexed": false,
          "internalType": "bool",
          "name": "approved",
          "type": "bool"
        }
      ],
      "name": "ApprovalForAll",
      "type": "event"
    },
    {
      "anonymous": false,
      "inputs": [
        {
          "indexed": true,
          "internalType": "address",
          "name": "previousOwner",
          "type": "address"
        },
        {
          "indexed": true,
          "internalType": "address",
          "name": "newOwner",
          "type": "address"
        }
      ],
      "name": "OwnershipTransferred",
      "type": "event"
    },
    {
      "anonymous": false,
      "inputs": [
        {
          "indexed": false,
          "internalType": "address",
          "name": "account",
          "type": "address"
        }
      ],
      "name": "Paused",
      "type": "event"
    },
    {
      "anonymous": false,
      "inputs": [
        {
          "indexed": true,
          "internalType": "address",
          "name": "from",
          "type": "address"
        },
        {
          "indexed": true,
          "internalType": "address",
          "name": "to",
          "type": "address"
        },
        {
          "indexed": true,
          "internalType": "uint256",
          "name": "tokenId",
          "type": "uint256"
        }
      ],
      "name": "Transfer",
      "type": "event"
    },
    {
      "anonymous": false,
      "inputs": [
        {
          "indexed": false,
          "internalType": "address",
          "name": "account",
          "type": "address"
        }
      ],
      "name": "Unpaused",
      "type": "event"
    },
    {
      "anonymous": false,
      "inputs": [
        {
          "indexed": false,
          "internalType": "uint256",
          "name": "tokenId",
          "type": "uint256"
        }
      ],
      "name": "onVintnerCreated",
      "type": "event"
    },
    {
      "anonymous": false,
      "inputs": [
        {
          "indexed": false,
          "internalType": "uint256",
          "name": "tokenId",
          "type": "uint256"
        },
        {
          "indexed": false,
          "internalType": "uint256",
          "name": "vintnerType",
          "type": "uint256"
        }
      ],
      "name": "onVintnerRevealed",
      "type": "event"
    },
    {
      "inputs": [],
      "name": "BASE_URI",
      "outputs": [
        {
          "internalType": "string",
          "name": "",
          "type": "string"
        }
      ],
      "stateMutability": "view",
      "type": "function"
    },
    {
      "inputs": [],
      "name": "MASTER_VINTNER_TYPE",
      "outputs": [
        {
          "internalType": "uint256",
          "name": "",
          "type": "uint256"
        }
      ],
      "stateMutability": "view",
      "type": "function"
    },
    {
      "inputs": [],
      "name": "MASTER_VINTNER_YIELD",
      "outputs": [
        {
          "internalType": "uint256",
          "name": "",
          "type": "uint256"
        }
      ],
      "stateMutability": "view",
      "type": "function"
    },
    {
      "inputs": [],
      "name": "NUM_GEN0_VINTNERS",
      "outputs": [
        {
          "internalType": "uint256",
          "name": "",
          "type": "uint256"
        }
      ],
      "stateMutability": "view",
      "type": "function"
    },
    {
      "inputs": [],
      "name": "NUM_GEN1_VINTNERS",
      "outputs": [
        {
          "internalType": "uint256",
          "name": "",
          "type": "uint256"
        }
      ],
      "stateMutability": "view",
      "type": "function"
    },
    {
      "inputs": [],
      "name": "PROMOTIONAL_VINTNERS",
      "outputs": [
        {
          "internalType": "uint256",
          "name": "",
          "type": "uint256"
        }
      ],
      "stateMutability": "view",
      "type": "function"
    },
    {
      "inputs": [],
      "name": "VINTNERS_PER_VINTAGEWINE_MINT_LEVEL",
      "outputs": [
        {
          "internalType": "uint256",
          "name": "",
          "type": "uint256"
        }
      ],
      "stateMutability": "view",
      "type": "function"
    },
    {
      "inputs": [],
      "name": "VINTNER_PRICE_AVAX",
      "outputs": [
        {
          "internalType": "uint256",
          "name": "",
          "type": "uint256"
        }
      ],
      "stateMutability": "view",
      "type": "function"
    },
    {
      "inputs": [],
      "name": "VINTNER_TYPE",
      "outputs": [
        {
          "internalType": "uint256",
          "name": "",
          "type": "uint256"
        }
      ],
      "stateMutability": "view",
      "type": "function"
    },
    {
      "inputs": [],
      "name": "VINTNER_YIELD",
      "outputs": [
        {
          "internalType": "uint256",
          "name": "",
          "type": "uint256"
        }
      ],
      "stateMutability": "view",
      "type": "function"
    },
    {
      "inputs": [
        {
          "internalType": "address",
          "name": "to",
          "type": "address"
        },
        {
          "internalType": "uint256",
          "name": "tokenId",
          "type": "uint256"
        }
      ],
      "name": "approve",
      "outputs": [],
      "stateMutability": "nonpayable",
      "type": "function"
    },
    {
      "inputs": [
        {
          "internalType": "address",
          "name": "owner",
          "type": "address"
        }
      ],
      "name": "balanceOf",
      "outputs": [
        {
          "internalType": "uint256",
          "name": "",
          "type": "uint256"
        }
      ],
      "stateMutability": "view",
      "type": "function"
    },
    {
      "inputs": [],
      "name": "currentVINTAGEWINEMintCost",
      "outputs": [
        {
          "internalType": "uint256",
          "name": "",
          "type": "uint256"
        }
      ],
      "stateMutability": "view",
      "type": "function"
    },
    {
      "inputs": [
        {
          "internalType": "contract IERC20",
          "name": "_token",
          "type": "address"
        },
        {
          "internalType": "uint256",
          "name": "_amount",
          "type": "uint256"
        },
        {
          "internalType": "address",
          "name": "target",
          "type": "address"
        }
      ],
      "name": "forwardERC20s",
      "outputs": [],
      "stateMutability": "nonpayable",
      "type": "function"
    },
    {
      "inputs": [
        {
          "internalType": "uint256",
          "name": "tokenId",
          "type": "uint256"
        }
      ],
      "name": "getApproved",
      "outputs": [
        {
          "internalType": "address",
          "name": "",
          "type": "address"
        }
      ],
      "stateMutability": "view",
      "type": "function"
    },
    {
      "inputs": [
        {
          "internalType": "uint256",
          "name": "_tokenId",
          "type": "uint256"
        }
      ],
      "name": "getType",
      "outputs": [
        {
          "internalType": "uint256",
          "name": "",
          "type": "uint256"
        }
      ],
      "stateMutability": "view",
      "type": "function"
    },
    {
      "inputs": [
        {
          "internalType": "uint256",
          "name": "_tokenId",
          "type": "uint256"
        }
      ],
      "name": "getYield",
      "outputs": [
        {
          "internalType": "uint256",
          "name": "",
          "type": "uint256"
        }
      ],
      "stateMutability": "view",
      "type": "function"
    },
    {
      "inputs": [
        {
          "internalType": "address",
          "name": "_owner",
          "type": "address"
        },
        {
          "internalType": "address",
          "name": "_operator",
          "type": "address"
        }
      ],
      "name": "isApprovedForAll",
      "outputs": [
        {
          "internalType": "bool",
          "name": "",
          "type": "bool"
        }
      ],
      "stateMutability": "view",
      "type": "function"
    },
    {
      "inputs": [
        {
          "internalType": "uint256",
          "name": "qty",
          "type": "uint256"
        },
        {
          "internalType": "uint256",
          "name": "vintnerType",
          "type": "uint256"
        },
        {
          "internalType": "address",
          "name": "target",
          "type": "address"
        }
      ],
      "name": "mintPromotional",
      "outputs": [],
      "stateMutability": "nonpayable",
      "type": "function"
    },
    {
      "inputs": [
        {
          "internalType": "uint256",
          "name": "qty",
          "type": "uint256"
        }
      ],
      "name": "mintVintnerWithAVAX",
      "outputs": [],
      "stateMutability": "payable",
      "type": "function"
    },
    {
      "inputs": [
        {
          "internalType": "uint256",
          "name": "qty",
          "type": "uint256"
        }
      ],
      "name": "mintVintnerWithVINTAGEWINE",
      "outputs": [],
      "stateMutability": "nonpayable",
      "type": "function"
    },
    {
      "inputs": [],
      "name": "mintingStartedAVAX",
      "outputs": [
        {
          "internalType": "bool",
          "name": "",
          "type": "bool"
        }
      ],
      "stateMutability": "view",
      "type": "function"
    },
    {
      "inputs": [],
      "name": "mintingStartedVINTAGEWINE",
      "outputs": [
        {
          "internalType": "bool",
          "name": "",
          "type": "bool"
        }
      ],
      "stateMutability": "view",
      "type": "function"
    },
    {
      "inputs": [],
      "name": "name",
      "outputs": [
        {
          "internalType": "string",
          "name": "",
          "type": "string"
        }
      ],
      "stateMutability": "view",
      "type": "function"
    },
    {
      "inputs": [],
      "name": "owner",
      "outputs": [
        {
          "internalType": "address",
          "name": "",
          "type": "address"
        }
      ],
      "stateMutability": "view",
      "type": "function"
    },
    {
      "inputs": [
        {
          "internalType": "uint256",
          "name": "tokenId",
          "type": "uint256"
        }
      ],
      "name": "ownerOf",
      "outputs": [
        {
          "internalType": "address",
          "name": "",
          "type": "address"
        }
      ],
      "stateMutability": "view",
      "type": "function"
    },
    {
      "inputs": [],
      "name": "paused",
      "outputs": [
        {
          "internalType": "bool",
          "name": "",
          "type": "bool"
        }
      ],
      "stateMutability": "view",
      "type": "function"
    },
    {
      "inputs": [],
      "name": "renounceOwnership",
      "outputs": [],
      "stateMutability": "nonpayable",
      "type": "function"
    },
    {
      "inputs": [
        {
          "internalType": "address",
          "name": "from",
          "type": "address"
        },
        {
          "internalType": "address",
          "name": "to",
          "type": "address"
        },
        {
          "internalType": "uint256",
          "name": "tokenId",
          "type": "uint256"
        }
      ],
      "name": "safeTransferFrom",
      "outputs": [],
      "stateMutability": "nonpayable",
      "type": "function"
    },
    {
      "inputs": [
        {
          "internalType": "address",
          "name": "from",
          "type": "address"
        },
        {
          "internalType": "address",
          "name": "to",
          "type": "address"
        },
        {
          "internalType": "uint256",
          "name": "tokenId",
          "type": "uint256"
        },
        {
          "internalType": "bytes",
          "name": "_data",
          "type": "bytes"
        }
      ],
      "name": "safeTransferFrom",
      "outputs": [],
      "stateMutability": "nonpayable",
      "type": "function"
    },
    {
      "inputs": [
        {
          "internalType": "address",
          "name": "operator",
          "type": "address"
        },
        {
          "internalType": "bool",
          "name": "approved",
          "type": "bool"
        }
      ],
      "name": "setApprovalForAll",
      "outputs": [],
      "stateMutability": "nonpayable",
      "type": "function"
    },
    {
      "inputs": [
        {
          "internalType": "string",
          "name": "_BASE_URI",
          "type": "string"
        }
      ],
      "name": "setBaseURI",
      "outputs": [],
      "stateMutability": "nonpayable",
      "type": "function"
    },
    {
      "inputs": [
        {
          "internalType": "uint256",
          "name": "_startTime",
          "type": "uint256"
        }
      ],
      "name": "setStartTimeAVAX",
      "outputs": [],
      "stateMutability": "nonpayable",
      "type": "function"
    },
    {
      "inputs": [
        {
          "internalType": "uint256",
          "name": "_startTime",
          "type": "uint256"
        }
      ],
      "name": "setStartTimeVINTAGEWINE",
      "outputs": [],
      "stateMutability": "nonpayable",
      "type": "function"
    },
    {
      "inputs": [
        {
          "internalType": "address",
          "name": "_vintageWine",
          "type": "address"
        }
      ],
      "name": "setVintageWine",
      "outputs": [],
      "stateMutability": "nonpayable",
      "type": "function"
    },
    {
      "inputs": [
        {
          "internalType": "uint256",
          "name": "tokenId",
          "type": "uint256"
        },
        {
          "internalType": "uint256",
          "name": "vintnerType",
          "type": "uint256"
        }
      ],
      "name": "setVintnerType",
      "outputs": [],
      "stateMutability": "nonpayable",
      "type": "function"
    },
    {
      "inputs": [
        {
          "internalType": "address",
          "name": "_wineryAddress",
          "type": "address"
        }
      ],
      "name": "setWineryAddress",
      "outputs": [],
      "stateMutability": "nonpayable",
      "type": "function"
    },
    {
      "inputs": [
        {
          "internalType": "address",
          "name": "_vintnerTypeOracleAddress",
          "type": "address"
        }
      ],
      "name": "setvintnerTypeOracleAddress",
      "outputs": [],
      "stateMutability": "nonpayable",
      "type": "function"
    },
    {
      "inputs": [],
      "name": "startTimeAVAX",
      "outputs": [
        {
          "internalType": "uint256",
          "name": "",
          "type": "uint256"
        }
      ],
      "stateMutability": "view",
      "type": "function"
    },
    {
      "inputs": [],
      "name": "startTimeVINTAGEWINE",
      "outputs": [
        {
          "internalType": "uint256",
          "name": "",
          "type": "uint256"
        }
      ],
      "stateMutability": "view",
      "type": "function"
    },
    {
      "inputs": [
        {
          "internalType": "bytes4",
          "name": "interfaceId",
          "type": "bytes4"
        }
      ],
      "name": "supportsInterface",
      "outputs": [
        {
          "internalType": "bool",
          "name": "",
          "type": "bool"
        }
      ],
      "stateMutability": "view",
      "type": "function"
    },
    {
      "inputs": [],
      "name": "symbol",
      "outputs": [
        {
          "internalType": "string",
          "name": "",
          "type": "string"
        }
      ],
      "stateMutability": "view",
      "type": "function"
    },
    {
      "inputs": [
        {
          "internalType": "uint256",
          "name": "",
          "type": "uint256"
        }
      ],
      "name": "tokenTypes",
      "outputs": [
        {
          "internalType": "uint256",
          "name": "",
          "type": "uint256"
        }
      ],
      "stateMutability": "view",
      "type": "function"
    },
    {
      "inputs": [
        {
          "internalType": "uint256",
          "name": "tokenId",
          "type": "uint256"
        }
      ],
      "name": "tokenURI",
      "outputs": [
        {
          "internalType": "string",
          "name": "",
          "type": "string"
        }
      ],
      "stateMutability": "view",
      "type": "function"
    },
    {
      "inputs": [
        {
          "internalType": "address",
          "name": "from",
          "type": "address"
        },
        {
          "internalType": "address",
          "name": "to",
          "type": "address"
        },
        {
          "internalType": "uint256",
          "name": "tokenId",
          "type": "uint256"
        }
      ],
      "name": "transferFrom",
      "outputs": [],
      "stateMutability": "nonpayable",
      "type": "function"
    },
    {
      "inputs": [
        {
          "internalType": "address",
          "name": "newOwner",
          "type": "address"
        }
      ],
      "name": "transferOwnership",
      "outputs": [],
      "stateMutability": "nonpayable",
      "type": "function"
    },
    {
      "inputs": [
        {
          "internalType": "uint256",
          "name": "",
          "type": "uint256"
        }
      ],
      "name": "typeYields",
      "outputs": [
        {
          "internalType": "uint256",
          "name": "",
          "type": "uint256"
        }
      ],
      "stateMutability": "view",
      "type": "function"
    },
    {
      "inputs": [],
      "name": "vintageWine",
      "outputs": [
        {
          "internalType": "contract VintageWine",
          "name": "",
          "type": "address"
        }
      ],
      "stateMutability": "view",
      "type": "function"
    },
    {
      "inputs": [],
      "name": "vintnerTypeOracleAddress",
      "outputs": [
        {
          "internalType": "address",
          "name": "",
          "type": "address"
        }
      ],
      "stateMutability": "view",
      "type": "function"
    },
    {
      "inputs": [],
      "name": "vintnersMinted",
      "outputs": [
        {
          "internalType": "uint256",
          "name": "",
          "type": "uint256"
        }
      ],
      "stateMutability": "view",
      "type": "function"
    },
    {
      "inputs": [],
      "name": "vintnersMintedPromotional",
      "outputs": [
        {
          "internalType": "uint256",
          "name": "",
          "type": "uint256"
        }
      ],
      "stateMutability": "view",
      "type": "function"
    },
    {
      "inputs": [],
      "name": "vintnersMintedWithAVAX",
      "outputs": [
        {
          "internalType": "uint256",
          "name": "",
          "type": "uint256"
        }
      ],
      "stateMutability": "view",
      "type": "function"
    },
    {
      "inputs": [],
      "name": "vintnersMintedWithVINTAGEWINE",
      "outputs": [
        {
          "internalType": "uint256",
          "name": "",
          "type": "uint256"
        }
      ],
      "stateMutability": "view",
      "type": "function"
    },
    {
      "inputs": [],
      "name": "wineryAddress",
      "outputs": [
        {
          "internalType": "address",
          "name": "",
          "type": "address"
        }
      ],
      "stateMutability": "view",
      "type": "function"
    },
    {
      "inputs": [
        {
          "internalType": "uint256",
          "name": "_amount",
          "type": "uint256"
        }
      ],
      "name": "withdrawAVAX",
      "outputs": [],
      "stateMutability": "payable",
      "type": "function"
    }
  ],
  "transactionHash": "0xa7d7ffe5fbe243db3a5f0d03f7df24890daead4c8965ad47d09a15e8833874b6",
  "args": [
    "0x5FbDB2315678afecb367f032d93F642f64180aa3",
    "0x70997970C51812dc3A010C7d01b50e0d17dc79C8",
    "https://api.pizza.game/chefs"
  ],
  "solcInputHash": "bd06ff42d3dc47771cf718ec29d54581",
  "bytecode": "0x6080604052603260105569043c33c19375648000006013553480156200002457600080fd5b50604051620031f2380380620031f28339810160408190526200004791620002f5565b604080518082018252601981527f56696e7461676557696e652047616d652056696e746e6572730000000000000060208083019182528351808501909452601884527f56494e5441474557494e452d47414d452d56494e544e45520000000000000000908401528151919291620000c19160009162000220565b508051620000d790600190602084019062000220565b505050620000f4620000ee620001ca60201b60201c565b620001ce565b6006805460ff60a01b191690556001600160a01b0383166200011557600080fd5b6001600160a01b0382166200012957600080fd5b600780546001600160a01b038086166001600160a01b031992831617909255600980549285169290911691909117905580516200016e90600a90602084019062000220565b5050600c602052505060017fd421a5181c571bba3f01190c922c3b2a896fc1d84e86c9f17ac10e67ebef8b5c55600260005260037f5d6016397a73f5e079297ac5a36fef17b4d9c3831618e63ab105738020ddd720556200043c565b3390565b600680546001600160a01b038381166001600160a01b0319831681179093556040519116919082907f8be0079c531659141344cd1fd0a4f28419497f9722a3daafe3b4186f6b6457e090600090a35050565b8280546200022e90620003ff565b90600052602060002090601f0160209004810192826200025257600085556200029d565b82601f106200026d57805160ff19168380011785556200029d565b828001600101855582156200029d579182015b828111156200029d57825182559160200191906001019062000280565b50620002ab929150620002af565b5090565b5b80821115620002ab5760008155600101620002b0565b6001600160a01b0381168114620002dc57600080fd5b50565b634e487b7160e01b600052604160045260246000fd5b6000806000606084860312156200030b57600080fd5b83516200031881620002c6565b809350506020808501516200032d81620002c6565b60408601519093506001600160401b03808211156200034b57600080fd5b818701915087601f8301126200036057600080fd5b815181811115620003755762000375620002df565b604051601f8201601f19908116603f01168101908382118183101715620003a057620003a0620002df565b816040528281528a86848701011115620003b957600080fd5b600093505b82841015620003dd5784840186015181850187015292850192620003be565b82841115620003ef5760008684830101525b8096505050505050509250925092565b600181811c908216806200041457607f821691505b602082108114156200043657634e487b7160e01b600052602260045260246000fd5b50919050565b612da6806200044c6000396000f3fe6080604052600436106102e05760003560e01c8063599dd97411610186578063a22cb465116100d7578063dbddb26a11610085578063dbddb26a1461084d578063def6b87214610862578063e95e46e014610878578063e985e9c514610898578063f2fde38b146108b8578063f7776f96146108d8578063fc7f3d571461031a57600080fd5b8063a22cb4651461078f578063a377d7ef146107af578063a682f862146107c4578063aeb5cd5e146107da578063b88d4fde146107ed578063b99630d51461080d578063c87b56dd1461082d57600080fd5b8063735d09a611610134578063735d09a6146107005780638287ef2c146107205780638670f79d146107335780638da5cb5b1461074f57806395d89b411461076457806396f983cb146104a45780639ead6ba11461077957600080fd5b8063599dd974146106335780635c975abb1461065357806362f7d7b9146106685780636352211e1461067e5780636de1a6d91461069e57806370a08231146106cb578063715018a6146106eb57600080fd5b80632c304aa11161024057806343f37b98116101ee57806343f37b9814610573578063459790931461059357806347ef867e146105b357806348c4c37f146105d35780634984a719146105e8578063522445c0146105fd57806355f804b31461061357600080fd5b80632c304aa1146104a457806330a9af7f146104ba57806333f6832a146104d05780633676edff146104fd5780633c1d4de7146105135780634036ab781461053357806342842e0e1461055357600080fd5b8063095ea7b31161029d578063095ea7b3146103d7578063097f1f2f146103f95780630b8faf2d14610419578063238aa9cd1461043957806323b872dd1461045957806327b28a0b146104795780632891b6a81461048f57600080fd5b806301ffc9a7146102e557806305c87a021461031a57806306fdde031461033d5780630805d8841461035f578063081812fc1461037f578063082ee8b2146103b7575b600080fd5b3480156102f157600080fd5b50610305610300366004612503565b6108ed565b60405190151581526020015b60405180910390f35b34801561032657600080fd5b5061032f600181565b604051908152602001610311565b34801561034957600080fd5b5061035261093f565b6040516103119190612578565b34801561036b57600080fd5b5061032f61037a36600461258b565b6109d1565b34801561038b57600080fd5b5061039f61039a36600461258b565b610a21565b6040516001600160a01b039091168152602001610311565b3480156103c357600080fd5b5060095461039f906001600160a01b031681565b3480156103e357600080fd5b506103f76103f23660046125b9565b610aa9565b005b34801561040557600080fd5b506103f76104143660046125e5565b610bba565b34801561042557600080fd5b506103f76104343660046125e5565b610c0b565b34801561044557600080fd5b506103f7610454366004612602565b610c5c565b34801561046557600080fd5b506103f761047436600461263b565b610dbf565b34801561048557600080fd5b5061032f60105481565b34801561049b57600080fd5b5061032f600381565b3480156104b057600080fd5b5061032f61271081565b3480156104c657600080fd5b5061032f600e5481565b3480156104dc57600080fd5b5061032f6104eb36600461258b565b600b6020526000908152604090205481565b34801561050957600080fd5b5061032f600f5481565b34801561051f57600080fd5b506103f761052e36600461258b565b610df0565b34801561053f57600080fd5b5061032f61054e36600461258b565b610e44565b34801561055f57600080fd5b506103f761056e36600461263b565b610e7e565b34801561057f57600080fd5b506103f761058e36600461267c565b610e99565b34801561059f57600080fd5b506103f76105ae36600461258b565b610edc565b3480156105bf57600080fd5b5060075461039f906001600160a01b031681565b3480156105df57600080fd5b5061032f603281565b3480156105f457600080fd5b5061032f600281565b34801561060957600080fd5b5061032f600d5481565b34801561061f57600080fd5b506103f761062e3660046126b3565b610f30565b34801561063f57600080fd5b506103f761064e366004612725565b610f6b565b34801561065f57600080fd5b50610305611080565b34801561067457600080fd5b5061032f61138881565b34801561068a57600080fd5b5061039f61069936600461258b565b611090565b3480156106aa57600080fd5b5061032f6106b936600461258b565b600c6020526000908152604090205481565b3480156106d757600080fd5b5061032f6106e63660046125e5565b611107565b3480156106f757600080fd5b506103f761118e565b34801561070c57600080fd5b5060085461039f906001600160a01b031681565b6103f761072e36600461258b565b6111c9565b34801561073f57600080fd5b5061032f6714d1120d7b16000081565b34801561075b57600080fd5b5061039f6112d9565b34801561077057600080fd5b506103526112e8565b34801561078557600080fd5b5061032f60125481565b34801561079b57600080fd5b506103f76107aa366004612755565b6112f7565b3480156107bb57600080fd5b50610305611302565b3480156107d057600080fd5b5061032f60115481565b6103f76107e836600461258b565b61131e565b3480156107f957600080fd5b506103f76108083660046127a4565b6113fd565b34801561081957600080fd5b506103f76108283660046125e5565b61142f565b34801561083957600080fd5b5061035261084836600461258b565b611480565b34801561085957600080fd5b50610352611527565b34801561086e57600080fd5b5061032f60135481565b34801561088457600080fd5b506103f761089336600461258b565b6115b5565b3480156108a457600080fd5b506103056108b3366004612884565b6117ef565b3480156108c457600080fd5b506103f76108d33660046125e5565b611857565b3480156108e457600080fd5b506103056118f7565b60006001600160e01b031982166380ac58cd60e01b148061091e57506001600160e01b03198216635b5e139f60e01b145b8061093957506301ffc9a760e01b6001600160e01b03198316145b92915050565b60606000805461094e906128b2565b80601f016020809104026020016040519081016040528092919081815260200182805461097a906128b2565b80156109c75780601f1061099c576101008083540402835291602001916109c7565b820191906000526020600020905b8154815290600101906020018083116109aa57829003601f168201915b5050505050905090565b60006109dc82611911565b610a015760405162461bcd60e51b81526004016109f8906128ed565b60405180910390fd5b506000908152600b60209081526040808320548352600c90915290205490565b6000610a2c82611911565b610a8d5760405162461bcd60e51b815260206004820152602c60248201527f4552433732313a20617070726f76656420717565727920666f72206e6f6e657860448201526b34b9ba32b73a103a37b5b2b760a11b60648201526084016109f8565b506000908152600460205260409020546001600160a01b031690565b6000610ab482611090565b9050806001600160a01b0316836001600160a01b03161415610b225760405162461bcd60e51b815260206004820152602160248201527f4552433732313a20617070726f76616c20746f2063757272656e74206f776e656044820152603960f91b60648201526084016109f8565b336001600160a01b0382161480610b3e5750610b3e81336117ef565b610bab5760405162461bcd60e51b815260206004820152603860248201527f4552433732313a20617070726f76652063616c6c6572206973206e6f74206f776044820152771b995c881b9bdc88185c1c1c9bdd995908199bdc88185b1b60421b60648201526084016109f8565b610bb5838361192e565b505050565b33610bc36112d9565b6001600160a01b031614610be95760405162461bcd60e51b81526004016109f89061291b565b600880546001600160a01b0319166001600160a01b0392909216919091179055565b33610c146112d9565b6001600160a01b031614610c3a5760405162461bcd60e51b81526004016109f89061291b565b600780546001600160a01b0319166001600160a01b0392909216919091179055565b33610c656112d9565b6001600160a01b031614610c8b5760405162461bcd60e51b81526004016109f89061291b565b60008311610cdb5760405162461bcd60e51b815260206004820152601f60248201527f7175616e74697479206d7573742062652067726561746572207468616e20300060448201526064016109f8565b603283600f54610ceb9190612966565b1115610d095760405162461bcd60e51b81526004016109f89061297e565b6001821480610d185750600282145b610d345760405162461bcd60e51b81526004016109f8906129c0565b60005b83811015610db9576001600f6000828254610d529190612966565b9091555050600f546000908152600b602052604090205415610d865760405162461bcd60e51b81526004016109f8906129ee565b600f80546000908152600b6020526040902084905554610da790839061199c565b80610db181612a34565b915050610d37565b50505050565b610dc93382611a33565b610de55760405162461bcd60e51b81526004016109f890612a4f565b610bb5838383611afd565b33610df96112d9565b6001600160a01b031614610e1f5760405162461bcd60e51b81526004016109f89061291b565b42811015610e3f5760405162461bcd60e51b81526004016109f890612aa0565b601155565b6000610e4f82611911565b610e6b5760405162461bcd60e51b81526004016109f8906128ed565b506000908152600b602052604090205490565b610bb5838383604051806020016040528060008152506113fd565b33610ea26112d9565b6001600160a01b031614610ec85760405162461bcd60e51b81526004016109f89061291b565b610bb56001600160a01b0384168284611c99565b33610ee56112d9565b6001600160a01b031614610f0b5760405162461bcd60e51b81526004016109f89061291b565b42811015610f2b5760405162461bcd60e51b81526004016109f890612aa0565b601255565b33610f396112d9565b6001600160a01b031614610f5f5760405162461bcd60e51b81526004016109f89061291b565b610bb5600a8383612454565b6009546001600160a01b0316336001600160a01b031614610fd95760405162461bcd60e51b815260206004820152602260248201527f6d736773656e64657220646f6573206e6f742068617665207065726d6973736960448201526137b760f11b60648201526084016109f8565b6000828152600b6020526040902054156110055760405162461bcd60e51b81526004016109f8906129ee565b60018114806110145750600281145b6110305760405162461bcd60e51b81526004016109f8906129c0565b6000828152600b602090815260409182902083905581518481529081018390527f99bfcaa3dc7409b462b5c2023b3fd711f104e8fc2f126ed387e6af9abbd9c94591015b60405180910390a15050565b600654600160a01b900460ff1690565b6000818152600260205260408120546001600160a01b0316806109395760405162461bcd60e51b815260206004820152602960248201527f4552433732313a206f776e657220717565727920666f72206e6f6e657869737460448201526832b73a103a37b5b2b760b91b60648201526084016109f8565b60006001600160a01b0382166111725760405162461bcd60e51b815260206004820152602a60248201527f4552433732313a2062616c616e636520717565727920666f7220746865207a65604482015269726f206164647265737360b01b60648201526084016109f8565b506001600160a01b031660009081526003602052604090205490565b336111976112d9565b6001600160a01b0316146111bd5760405162461bcd60e51b81526004016109f89061291b565b6111c76000611ceb565b565b6111d1611080565b156111ee5760405162461bcd60e51b81526004016109f890612ad7565b6111f6611302565b6112125760405162461bcd60e51b81526004016109f890612b01565b6000811180156112235750600a8111155b61123f5760405162461bcd60e51b81526004016109f890612b30565b61124c6032612710612b71565b81600d5461125a9190612966565b11156112785760405162461bcd60e51b81526004016109f89061297e565b600061128c826714d1120d7b160000612b88565b9050803410156112ae5760405162461bcd60e51b81526004016109f890612ba7565b81600d60008282546112c09190612966565b909155506112d590508233611d3d565b611d3d565b5050565b6006546001600160a01b031690565b60606001805461094e906128b2565b6112d5338383611d80565b600060115460001415801561131957506011544210155b905090565b336113276112d9565b6001600160a01b03161461134d5760405162461bcd60e51b81526004016109f89061291b565b8047101561136d5760405162461bcd60e51b81526004016109f890612ba7565b6040513390600090829084908381818185875af1925050503d80600081146113b1576040519150601f19603f3d011682016040523d82523d6000602084013e6113b6565b606091505b5050905080610bb55760405162461bcd60e51b815260206004820152601360248201527208cc2d2d8cac840e8de40e6cadcc84082ac82b606b1b60448201526064016109f8565b6114073383611a33565b6114235760405162461bcd60e51b81526004016109f890612a4f565b610db984848484611e4b565b336114386112d9565b6001600160a01b03161461145e5760405162461bcd60e51b81526004016109f89061291b565b600980546001600160a01b0319166001600160a01b0392909216919091179055565b606061148b82611911565b6114ef5760405162461bcd60e51b815260206004820152602f60248201527f4552433732314d657461646174613a2055524920717565727920666f72206e6f60448201526e3732bc34b9ba32b73a103a37b5b2b760891b60648201526084016109f8565b6114f7611e7e565b61150083611e8d565b604051602001611511929190612bd0565b6040516020818303038152906040529050919050565b600a8054611534906128b2565b80601f0160208091040260200160405190810160405280929190818152602001828054611560906128b2565b80156115ad5780601f10611582576101008083540402835291602001916115ad565b820191906000526020600020905b81548152906001019060200180831161159057829003601f168201915b505050505081565b6115bd611080565b156115da5760405162461bcd60e51b81526004016109f890612ad7565b6115e26118f7565b6115fe5760405162461bcd60e51b81526004016109f890612b01565b60008111801561160f5750600a8111155b61162b5760405162461bcd60e51b81526004016109f890612b30565b61271081600e5461163c9190612966565b111561165a5760405162461bcd60e51b81526004016109f89061297e565b60008160135461166a9190612b88565b6007546040516370a0823160e01b815233600482015291925082916001600160a01b03909116906370a0823190602401602060405180830381865afa1580156116b7573d6000803e3d6000fd5b505050506040513d601f19601f820116820180604052508101906116db9190612c1e565b10156117225760405162461bcd60e51b81526020600482015260166024820152756e6f7420656e6f7567682056494e5441474557494e4560501b60448201526064016109f8565b611388600e5411158015611744575061138882600e546117429190612966565b115b1561175b57601354611757906002612b88565b6013555b81600e600082825461176d9190612966565b90915550506007546001600160a01b0316639dc29fac336040516001600160e01b031960e084901b1681526001600160a01b03909116600482015260248101849052604401600060405180830381600087803b1580156117cc57600080fd5b505af11580156117e0573d6000803e3d6000fd5b505050506112d5826112d03390565b6008546000906001600160a01b03161580159061181957506008546001600160a01b038381169116145b1561182657506001610939565b6001600160a01b0380841660009081526005602090815260408083209386168352929052205460ff165b9392505050565b336118606112d9565b6001600160a01b0316146118865760405162461bcd60e51b81526004016109f89061291b565b6001600160a01b0381166118eb5760405162461bcd60e51b815260206004820152602660248201527f4f776e61626c653a206e6577206f776e657220697320746865207a65726f206160448201526564647265737360d01b60648201526084016109f8565b6118f481611ceb565b50565b600060125460001415801561131957505060125442101590565b6000908152600260205260409020546001600160a01b0316151590565b600081815260046020526040902080546001600160a01b0319166001600160a01b038416908117909155819061196382611090565b6001600160a01b03167f8c5be1e5ebec7d5bd14f71427d1e84f3dd0314c0f7b2291e5b200ac8c7c3b92560405160405180910390a45050565b6119a861271080612966565b60105411156119f95760405162461bcd60e51b815260206004820152601c60248201527f63616e6e6f74206d696e7420616e796d6f72652076696e746e6572730000000060448201526064016109f8565b611a038282611f8b565b6040518181527f3926193096e67dd1d3b1874999e37846ff022578abd9b20fe806f5dcb52d788d90602001611074565b6000611a3e82611911565b611a9f5760405162461bcd60e51b815260206004820152602c60248201527f4552433732313a206f70657261746f7220717565727920666f72206e6f6e657860448201526b34b9ba32b73a103a37b5b2b760a11b60648201526084016109f8565b6000611aaa83611090565b9050806001600160a01b0316846001600160a01b03161480611ad15750611ad181856117ef565b80611af55750836001600160a01b0316611aea84610a21565b6001600160a01b0316145b949350505050565b826001600160a01b0316611b1082611090565b6001600160a01b031614611b745760405162461bcd60e51b815260206004820152602560248201527f4552433732313a207472616e736665722066726f6d20696e636f72726563742060448201526437bbb732b960d91b60648201526084016109f8565b6001600160a01b038216611bd65760405162461bcd60e51b8152602060048201526024808201527f4552433732313a207472616e7366657220746f20746865207a65726f206164646044820152637265737360e01b60648201526084016109f8565b611be160008261192e565b6001600160a01b0383166000908152600360205260408120805460019290611c0a908490612b71565b90915550506001600160a01b0382166000908152600360205260408120805460019290611c38908490612966565b909155505060008181526002602052604080822080546001600160a01b0319166001600160a01b0386811691821790925591518493918716917fddf252ad1be2c89b69c2b068fc378daa952ba7f163c4a11628f55a4df523b3ef91a4505050565b604080516001600160a01b038416602482015260448082018490528251808303909101815260649091019091526020810180516001600160e01b031663a9059cbb60e01b179052610bb5908490611fa5565b600680546001600160a01b038381166001600160a01b0319831681179093556040519116919082907f8be0079c531659141344cd1fd0a4f28419497f9722a3daafe3b4186f6b6457e090600090a35050565b60005b82811015610bb557600160106000828254611d5b9190612966565b92505081905550611d6e8260105461199c565b80611d7881612a34565b915050611d40565b816001600160a01b0316836001600160a01b03161415611dde5760405162461bcd60e51b815260206004820152601960248201527822a9219b99189d1030b8383937bb32903a379031b0b63632b960391b60448201526064016109f8565b6001600160a01b03838116600081815260056020908152604080832094871680845294825291829020805460ff191686151590811790915591519182527f17307eab39ab6107e8899845ad3d59bd9653f200f220920489ca2b5937696c31910160405180910390a3505050565b611e56848484611afd565b611e6284848484612077565b610db95760405162461bcd60e51b81526004016109f890612c37565b6060600a805461094e906128b2565b606081611eb15750506040805180820190915260018152600360fc1b602082015290565b8160005b8115611edb5780611ec581612a34565b9150611ed49050600a83612c9f565b9150611eb5565b60008167ffffffffffffffff811115611ef657611ef661278e565b6040519080825280601f01601f191660200182016040528015611f20576020820181803683370190505b5090505b8415611af557611f35600183612b71565b9150611f42600a86612cb3565b611f4d906030612966565b60f81b818381518110611f6257611f62612cc7565b60200101906001600160f81b031916908160001a905350611f84600a86612c9f565b9450611f24565b6112d5828260405180602001604052806000815250612175565b6000611ffa826040518060400160405280602081526020017f5361666545524332303a206c6f772d6c6576656c2063616c6c206661696c6564815250856001600160a01b03166121a89092919063ffffffff16565b805190915015610bb557808060200190518101906120189190612cdd565b610bb55760405162461bcd60e51b815260206004820152602a60248201527f5361666545524332303a204552433230206f7065726174696f6e20646964206e6044820152691bdd081cdd58d8d9595960b21b60648201526084016109f8565b60006001600160a01b0384163b1561216a57604051630a85bd0160e11b81526001600160a01b0385169063150b7a02906120bb903390899088908890600401612cfa565b6020604051808303816000875af19250505080156120f6575060408051601f3d908101601f191682019092526120f391810190612d37565b60015b612150573d808015612124576040519150601f19603f3d011682016040523d82523d6000602084013e612129565b606091505b5080516121485760405162461bcd60e51b81526004016109f890612c37565b805181602001fd5b6001600160e01b031916630a85bd0160e11b149050611af5565b506001949350505050565b61217f83836121b7565b61218c6000848484612077565b610bb55760405162461bcd60e51b81526004016109f890612c37565b6060611af584846000856122ea565b6001600160a01b03821661220d5760405162461bcd60e51b815260206004820181905260248201527f4552433732313a206d696e7420746f20746865207a65726f206164647265737360448201526064016109f8565b61221681611911565b156122635760405162461bcd60e51b815260206004820152601c60248201527f4552433732313a20746f6b656e20616c7265616479206d696e7465640000000060448201526064016109f8565b6001600160a01b038216600090815260036020526040812080546001929061228c908490612966565b909155505060008181526002602052604080822080546001600160a01b0319166001600160a01b03861690811790915590518392907fddf252ad1be2c89b69c2b068fc378daa952ba7f163c4a11628f55a4df523b3ef908290a45050565b60608247101561234b5760405162461bcd60e51b815260206004820152602660248201527f416464726573733a20696e73756666696369656e742062616c616e636520666f6044820152651c8818d85b1b60d21b60648201526084016109f8565b6001600160a01b0385163b6123a25760405162461bcd60e51b815260206004820152601d60248201527f416464726573733a2063616c6c20746f206e6f6e2d636f6e747261637400000060448201526064016109f8565b600080866001600160a01b031685876040516123be9190612d54565b60006040518083038185875af1925050503d80600081146123fb576040519150601f19603f3d011682016040523d82523d6000602084013e612400565b606091505b509150915061241082828661241b565b979650505050505050565b6060831561242a575081611850565b82511561243a5782518084602001fd5b8160405162461bcd60e51b81526004016109f89190612578565b828054612460906128b2565b90600052602060002090601f01602090048101928261248257600085556124c8565b82601f1061249b5782800160ff198235161785556124c8565b828001600101855582156124c8579182015b828111156124c85782358255916020019190600101906124ad565b506124d49291506124d8565b5090565b5b808211156124d457600081556001016124d9565b6001600160e01b0319811681146118f457600080fd5b60006020828403121561251557600080fd5b8135611850816124ed565b60005b8381101561253b578181015183820152602001612523565b83811115610db95750506000910152565b60008151808452612564816020860160208601612520565b601f01601f19169290920160200192915050565b602081526000611850602083018461254c565b60006020828403121561259d57600080fd5b5035919050565b6001600160a01b03811681146118f457600080fd5b600080604083850312156125cc57600080fd5b82356125d7816125a4565b946020939093013593505050565b6000602082840312156125f757600080fd5b8135611850816125a4565b60008060006060848603121561261757600080fd5b83359250602084013591506040840135612630816125a4565b809150509250925092565b60008060006060848603121561265057600080fd5b833561265b816125a4565b9250602084013561266b816125a4565b929592945050506040919091013590565b60008060006060848603121561269157600080fd5b833561269c816125a4565b9250602084013591506040840135612630816125a4565b600080602083850312156126c657600080fd5b823567ffffffffffffffff808211156126de57600080fd5b818501915085601f8301126126f257600080fd5b81358181111561270157600080fd5b86602082850101111561271357600080fd5b60209290920196919550909350505050565b6000806040838503121561273857600080fd5b50508035926020909101359150565b80151581146118f457600080fd5b6000806040838503121561276857600080fd5b8235612773816125a4565b9150602083013561278381612747565b809150509250929050565b634e487b7160e01b600052604160045260246000fd5b600080600080608085870312156127ba57600080fd5b84356127c5816125a4565b935060208501356127d5816125a4565b925060408501359150606085013567ffffffffffffffff808211156127f957600080fd5b818701915087601f83011261280d57600080fd5b81358181111561281f5761281f61278e565b604051601f8201601f19908116603f011681019083821181831017156128475761284761278e565b816040528281528a602084870101111561286057600080fd5b82602086016020830137600060208483010152809550505050505092959194509250565b6000806040838503121561289757600080fd5b82356128a2816125a4565b91506020830135612783816125a4565b600181811c908216806128c657607f821691505b602082108114156128e757634e487b7160e01b600052602260045260246000fd5b50919050565b6020808252601490820152731d1bdad95b88191bd95cc81b9bdd08195e1a5cdd60621b604082015260600190565b6020808252818101527f4f776e61626c653a2063616c6c6572206973206e6f7420746865206f776e6572604082015260600190565b634e487b7160e01b600052601160045260246000fd5b6000821982111561297957612979612950565b500190565b60208082526022908201527f796f752063616e2774206d696e742074686174206d616e79207269676874206e6040820152616f7760f01b606082015260800190565b602080825260149082015273696e76616c69642076696e746e6572207479706560601b604082015260600190565b60208082526026908201527f7468617420746f6b656e277320747970652068617320616c7265616479206265604082015265195b881cd95d60d21b606082015260800190565b6000600019821415612a4857612a48612950565b5060010190565b60208082526031908201527f4552433732313a207472616e736665722063616c6c6572206973206e6f74206f6040820152701ddb995c881b9bdc88185c1c1c9bdd9959607a1b606082015260800190565b6020808252601f908201527f737461727454696d652063616e6e6f7420626520696e20746865207061737400604082015260600190565b60208082526010908201526f14185d5cd8589b194e881c185d5cd95960821b604082015260600190565b60208082526015908201527463616e6e6f74206d696e74207269676874206e6f7760581b604082015260600190565b60208082526021908201527f7175616e74697479206d757374206265206265747765656e203120616e6420316040820152600360fc1b606082015260800190565b600082821015612b8357612b83612950565b500390565b6000816000190483118215151615612ba257612ba2612950565b500290565b6020808252600f908201526e0dcdee840cadcdeeaced04082ac82b608b1b604082015260600190565b60008351612be2818460208801612520565b602f60f81b9083019081528351612c00816001840160208801612520565b64173539b7b760d91b60019290910191820152600601949350505050565b600060208284031215612c3057600080fd5b5051919050565b60208082526032908201527f4552433732313a207472616e7366657220746f206e6f6e20455243373231526560408201527131b2b4bb32b91034b6b83632b6b2b73a32b960711b606082015260800190565b634e487b7160e01b600052601260045260246000fd5b600082612cae57612cae612c89565b500490565b600082612cc257612cc2612c89565b500690565b634e487b7160e01b600052603260045260246000fd5b600060208284031215612cef57600080fd5b815161185081612747565b6001600160a01b0385811682528416602082015260408101839052608060608201819052600090612d2d9083018461254c565b9695505050505050565b600060208284031215612d4957600080fd5b8151611850816124ed565b60008251612d66818460208701612520565b919091019291505056fea26469706673582212200633316ab0ea2472079fae30a4a412a067375f6a8a5b9dff24f86054ee434d3364736f6c634300080b0033"
}