{
  "address": "0x5FbDB2315678afecb367f032d93F642f64180aa3",
  "abi": [
    {
      "anonymous": false,
      "inputs": [
        {
          "indexed": true,
          "internalType": "address",
          "name": "owner",
          "type": "address"
        },
        {
          "indexed": true,
          "internalType": "address",
          "name": "spender",
          "type": "address"
        },
        {
          "indexed": false,
          "internalType": "uint256",
          "name": "value",
          "type": "uint256"
        }
      ],
      "name": "Approval",
      "type": "event"
    },
    {
      "anonymous": false,
      "inputs": [
        {
          "indexed": true,
          "internalType": "address",
          "name": "previousOwner",
          "type": "address"
        },
        {
          "indexed": true,
          "internalType": "address",
          "name": "newOwner",
          "type": "address"
        }
      ],
      "name": "OwnershipTransferred",
      "type": "event"
    },
    {
      "anonymous": false,
      "inputs": [
        {
          "indexed": true,
          "internalType": "address",
          "name": "from",
          "type": "address"
        },
        {
          "indexed": true,
          "internalType": "address",
          "name": "to",
          "type": "address"
        },
        {
          "indexed": false,
          "internalType": "uint256",
          "name": "value",
          "type": "uint256"
        }
      ],
      "name": "Transfer",
      "type": "event"
    },
    {
      "inputs": [],
      "name": "NUM_PROMOTIONAL_VINTAGEWINE",
      "outputs": [
        {
          "internalType": "uint256",
          "name": "",
          "type": "uint256"
        }
      ],
      "stateMutability": "view",
      "type": "function"
    },
    {
      "inputs": [],
      "name": "NUM_VINTAGEWINE_AVAX_LP",
      "outputs": [
        {
          "internalType": "uint256",
          "name": "",
          "type": "uint256"
        }
      ],
      "stateMutability": "view",
      "type": "function"
    },
    {
      "inputs": [],
      "name": "NUM_VINTAGEWINE_GRAPE_LP",
      "outputs": [
        {
          "internalType": "uint256",
          "name": "",
          "type": "uint256"
        }
      ],
      "stateMutability": "view",
      "type": "function"
    },
    {
      "inputs": [],
      "name": "ONE_VINTAGEWINE",
      "outputs": [
        {
          "internalType": "uint256",
          "name": "",
          "type": "uint256"
        }
      ],
      "stateMutability": "view",
      "type": "function"
    },
    {
      "inputs": [
        {
          "internalType": "address",
          "name": "owner",
          "type": "address"
        },
        {
          "internalType": "address",
          "name": "spender",
          "type": "address"
        }
      ],
      "name": "allowance",
      "outputs": [
        {
          "internalType": "uint256",
          "name": "",
          "type": "uint256"
        }
      ],
      "stateMutability": "view",
      "type": "function"
    },
    {
      "inputs": [
        {
          "internalType": "address",
          "name": "spender",
          "type": "address"
        },
        {
          "internalType": "uint256",
          "name": "amount",
          "type": "uint256"
        }
      ],
      "name": "approve",
      "outputs": [
        {
          "internalType": "bool",
          "name": "",
          "type": "bool"
        }
      ],
      "stateMutability": "nonpayable",
      "type": "function"
    },
    {
      "inputs": [],
      "name": "avaxLPVintageWineMinted",
      "outputs": [
        {
          "internalType": "bool",
          "name": "",
          "type": "bool"
        }
      ],
      "stateMutability": "view",
      "type": "function"
    },
    {
      "inputs": [
        {
          "internalType": "address",
          "name": "account",
          "type": "address"
        }
      ],
      "name": "balanceOf",
      "outputs": [
        {
          "internalType": "uint256",
          "name": "",
          "type": "uint256"
        }
      ],
      "stateMutability": "view",
      "type": "function"
    },
    {
      "inputs": [
        {
          "internalType": "address",
          "name": "_from",
          "type": "address"
        },
        {
          "internalType": "uint256",
          "name": "_amount",
          "type": "uint256"
        }
      ],
      "name": "burn",
      "outputs": [],
      "stateMutability": "nonpayable",
      "type": "function"
    },
    {
      "inputs": [],
      "name": "cellarAddress",
      "outputs": [
        {
          "internalType": "address",
          "name": "",
          "type": "address"
        }
      ],
      "stateMutability": "view",
      "type": "function"
    },
    {
      "inputs": [],
      "name": "decimals",
      "outputs": [
        {
          "internalType": "uint8",
          "name": "",
          "type": "uint8"
        }
      ],
      "stateMutability": "view",
      "type": "function"
    },
    {
      "inputs": [
        {
          "internalType": "address",
          "name": "spender",
          "type": "address"
        },
        {
          "internalType": "uint256",
          "name": "subtractedValue",
          "type": "uint256"
        }
      ],
      "name": "decreaseAllowance",
      "outputs": [
        {
          "internalType": "bool",
          "name": "",
          "type": "bool"
        }
      ],
      "stateMutability": "nonpayable",
      "type": "function"
    },
    {
      "inputs": [],
      "name": "grapeLPVintageWineMinted",
      "outputs": [
        {
          "internalType": "bool",
          "name": "",
          "type": "bool"
        }
      ],
      "stateMutability": "view",
      "type": "function"
    },
    {
      "inputs": [
        {
          "internalType": "address",
          "name": "spender",
          "type": "address"
        },
        {
          "internalType": "uint256",
          "name": "addedValue",
          "type": "uint256"
        }
      ],
      "name": "increaseAllowance",
      "outputs": [
        {
          "internalType": "bool",
          "name": "",
          "type": "bool"
        }
      ],
      "stateMutability": "nonpayable",
      "type": "function"
    },
    {
      "inputs": [
        {
          "internalType": "address",
          "name": "_to",
          "type": "address"
        },
        {
          "internalType": "uint256",
          "name": "_amount",
          "type": "uint256"
        }
      ],
      "name": "mint",
      "outputs": [],
      "stateMutability": "nonpayable",
      "type": "function"
    },
    {
      "inputs": [],
      "name": "mintAvaxLPVintageWine",
      "outputs": [],
      "stateMutability": "nonpayable",
      "type": "function"
    },
    {
      "inputs": [],
      "name": "mintGrapeLPVintageWine",
      "outputs": [],
      "stateMutability": "nonpayable",
      "type": "function"
    },
    {
      "inputs": [
        {
          "internalType": "address",
          "name": "_to",
          "type": "address"
        }
      ],
      "name": "mintPromotionalVintageWine",
      "outputs": [],
      "stateMutability": "nonpayable",
      "type": "function"
    },
    {
      "inputs": [],
      "name": "name",
      "outputs": [
        {
          "internalType": "string",
          "name": "",
          "type": "string"
        }
      ],
      "stateMutability": "view",
      "type": "function"
    },
    {
      "inputs": [],
      "name": "owner",
      "outputs": [
        {
          "internalType": "address",
          "name": "",
          "type": "address"
        }
      ],
      "stateMutability": "view",
      "type": "function"
    },
    {
      "inputs": [],
      "name": "promotionalVintageWineMinted",
      "outputs": [
        {
          "internalType": "bool",
          "name": "",
          "type": "bool"
        }
      ],
      "stateMutability": "view",
      "type": "function"
    },
    {
      "inputs": [],
      "name": "renounceOwnership",
      "outputs": [],
      "stateMutability": "nonpayable",
      "type": "function"
    },
    {
      "inputs": [
        {
          "internalType": "address",
          "name": "_cellarAddress",
          "type": "address"
        }
      ],
      "name": "setCellarAddress",
      "outputs": [],
      "stateMutability": "nonpayable",
      "type": "function"
    },
    {
      "inputs": [
        {
          "internalType": "uint256",
          "name": "_numVintageWineAvaxLp",
          "type": "uint256"
        }
      ],
      "name": "setNumVintageWineAvaxLp",
      "outputs": [],
      "stateMutability": "nonpayable",
      "type": "function"
    },
    {
      "inputs": [
        {
          "internalType": "address",
          "name": "_upgradeAddress",
          "type": "address"
        }
      ],
      "name": "setUpgradeAddress",
      "outputs": [],
      "stateMutability": "nonpayable",
      "type": "function"
    },
    {
      "inputs": [
        {
          "internalType": "address",
          "name": "_wineryAddress",
          "type": "address"
        }
      ],
      "name": "setWineryAddress",
      "outputs": [],
      "stateMutability": "nonpayable",
      "type": "function"
    },
    {
      "inputs": [],
      "name": "symbol",
      "outputs": [
        {
          "internalType": "string",
          "name": "",
          "type": "string"
        }
      ],
      "stateMutability": "view",
      "type": "function"
    },
    {
      "inputs": [],
      "name": "totalSupply",
      "outputs": [
        {
          "internalType": "uint256",
          "name": "",
          "type": "uint256"
        }
      ],
      "stateMutability": "view",
      "type": "function"
    },
    {
      "inputs": [
        {
          "internalType": "address",
          "name": "to",
          "type": "address"
        },
        {
          "internalType": "uint256",
          "name": "amount",
          "type": "uint256"
        }
      ],
      "name": "transfer",
      "outputs": [
        {
          "internalType": "bool",
          "name": "",
          "type": "bool"
        }
      ],
      "stateMutability": "nonpayable",
      "type": "function"
    },
    {
      "inputs": [
        {
          "internalType": "address",
          "name": "_from",
          "type": "address"
        },
        {
          "internalType": "uint256",
          "name": "_amount",
          "type": "uint256"
        }
      ],
      "name": "transferForUpgradesFees",
      "outputs": [],
      "stateMutability": "nonpayable",
      "type": "function"
    },
    {
      "inputs": [
        {
          "internalType": "address",
          "name": "from",
          "type": "address"
        },
        {
          "internalType": "address",
          "name": "to",
          "type": "address"
        },
        {
          "internalType": "uint256",
          "name": "amount",
          "type": "uint256"
        }
      ],
      "name": "transferFrom",
      "outputs": [
        {
          "internalType": "bool",
          "name": "",
          "type": "bool"
        }
      ],
      "stateMutability": "nonpayable",
      "type": "function"
    },
    {
      "inputs": [
        {
          "internalType": "address",
          "name": "newOwner",
          "type": "address"
        }
      ],
      "name": "transferOwnership",
      "outputs": [],
      "stateMutability": "nonpayable",
      "type": "function"
    },
    {
      "inputs": [
        {
          "internalType": "address",
          "name": "_from",
          "type": "address"
        },
        {
          "internalType": "uint256",
          "name": "_amount",
          "type": "uint256"
        }
      ],
      "name": "transferToCellar",
      "outputs": [],
      "stateMutability": "nonpayable",
      "type": "function"
    },
    {
      "inputs": [],
      "name": "upgradeAddress",
      "outputs": [
        {
          "internalType": "address",
          "name": "",
          "type": "address"
        }
      ],
      "stateMutability": "view",
      "type": "function"
    },
    {
      "inputs": [],
      "name": "wineryAddress",
      "outputs": [
        {
          "internalType": "address",
          "name": "",
          "type": "address"
        }
      ],
      "stateMutability": "view",
      "type": "function"
    }
  ],
  "transactionHash": "0x1749ada74a1eebb906ba7d9e772c6616dcac4a4f5681155ab43045e351a0d607",
  "args": [],
  "solcInputHash": "4a7177b00cf6ae2d9dc68be1e5a854fb",
  "bytecode": "0x60806040526301c9c3806006556009805462ffffff60a01b191690553480156200002857600080fd5b506040518060400160405280600b81526020016a56696e7461676557696e6560a81b8152506040518060400160405280600b81526020016a56494e5441474557494e4560a81b81525081600390805190602001906200008992919062000118565b5080516200009f90600490602084019062000118565b505050620000bc620000b6620000c260201b60201c565b620000c6565b620001fb565b3390565b600580546001600160a01b038381166001600160a01b0319831681179093556040519116919082907f8be0079c531659141344cd1fd0a4f28419497f9722a3daafe3b4186f6b6457e090600090a35050565b8280546200012690620001be565b90600052602060002090601f0160209004810192826200014a576000855562000195565b82601f106200016557805160ff191683800117855562000195565b8280016001018555821562000195579182015b828111156200019557825182559160200191906001019062000178565b50620001a3929150620001a7565b5090565b5b80821115620001a35760008155600101620001a8565b600181811c90821680620001d357607f821691505b60208210811415620001f557634e487b7160e01b600052602260045260246000fd5b50919050565b6115f3806200020b6000396000f3fe608060405234801561001057600080fd5b50600436106101d15760003560e01c8063715018a611610105578063aa0872f41161009d578063aa0872f4146103b8578063bc5d7a9f146103cc578063bca6c753146103df578063c7418a6e146103f2578063ca39ec5114610406578063cdb1ca5114610419578063d192384514610428578063dd62ed3e1461043c578063f2fde38b1461044f57600080fd5b8063715018a614610343578063735d09a61461034b5780638da5cb5b1461035e57806393b95fd91461036657806395d89b411461036f5780639dc29fac14610377578063a117abb71461038a578063a457c2d714610392578063a9059cbb146103a557600080fd5b80633950935111610178578063395093511461027e5780633ad6655f146102915780633f747e241461029b57806340c10f19146102c65780634f445710146102d95780635ea53793146102ec578063631f0d66146102f457806366f9c99e1461030757806370a082311461031a57600080fd5b806306fdde03146101d6578063095ea7b3146101f4578063097f1f2f1461021757806318160ddd1461022c57806323b872dd1461023e57806327148ceb146102515780632ff3b4151461025c578063313ce5671461026f575b600080fd5b6101de610462565b6040516101eb919061130b565b60405180910390f35b61020761020236600461137c565b6104f4565b60405190151581526020016101eb565b61022a6102253660046113a6565b61050c565b005b6002545b6040519081526020016101eb565b61020761024c3660046113c8565b610566565b6102306301312d0081565b61022a61026a3660046113a6565b61058a565b604051601281526020016101eb565b61020761028c36600461137c565b6105db565b6102306207a12081565b6007546102ae906001600160a01b031681565b6040516001600160a01b0390911681526020016101eb565b61022a6102d436600461137c565b6105fd565b61022a6102e7366004611404565b610694565b61022a6106c8565b6009546102ae906001600160a01b031681565b61022a6103153660046113a6565b6107a1565b6102306103283660046113a6565b6001600160a01b031660009081526020819052604090205490565b61022a6107f2565b6008546102ae906001600160a01b031681565b6102ae61082b565b61023060065481565b6101de61083a565b61022a61038536600461137c565b610849565b61022a6108e4565b6102076103a036600461137c565b6109b5565b6102076103b336600461137c565b610a30565b60095461020790600160a81b900460ff1681565b61022a6103da3660046113a6565b610a3e565b61022a6103ed36600461137c565b610b0e565b60095461020790600160b01b900460ff1681565b61022a61041436600461137c565b610bd7565b610230670de0b6b3a764000081565b60095461020790600160a01b900460ff1681565b61023061044a36600461141d565b610c95565b61022a61045d3660046113a6565b610cc0565b60606003805461047190611450565b80601f016020809104026020016040519081016040528092919081815260200182805461049d90611450565b80156104ea5780601f106104bf576101008083540402835291602001916104ea565b820191906000526020600020905b8154815290600101906020018083116104cd57829003601f168201915b5050505050905090565b600033610502818585610d5d565b5060019392505050565b3361051561082b565b6001600160a01b0316146105445760405162461bcd60e51b815260040161053b9061148b565b60405180910390fd5b600880546001600160a01b0319166001600160a01b0392909216919091179055565b600033610574858285610e82565b61057f858585610efc565b506001949350505050565b3361059361082b565b6001600160a01b0316146105b95760405162461bcd60e51b815260040161053b9061148b565b600780546001600160a01b0319166001600160a01b0392909216919091179055565b6000336105028185856105ee8383610c95565b6105f891906114d6565b610d5d565b6008546001600160a01b03161580159061062157506007546001600160a01b031615155b801561063757506009546001600160a01b031615155b6106535760405162461bcd60e51b815260040161053b906114ee565b6008546001600160a01b0316336001600160a01b0316146106865760405162461bcd60e51b815260040161053b90611525565b61069082826110b8565b5050565b3361069d61082b565b6001600160a01b0316146106c35760405162461bcd60e51b815260040161053b9061148b565b600655565b336106d161082b565b6001600160a01b0316146106f75760405162461bcd60e51b815260040161053b9061148b565b600954600160b01b900460ff16156107665760405162461bcd60e51b815260206004820152602c60248201527f67726170652076696e7461676557696e65204c502068617320616c726561647960448201526b081899595b881b5a5b9d195960a21b606482015260840161053b565b6009805460ff60b01b1916600160b01b17905561079f61078461082b565b61079a670de0b6b3a76400006301312d00611567565b6110b8565b565b336107aa61082b565b6001600160a01b0316146107d05760405162461bcd60e51b815260040161053b9061148b565b600980546001600160a01b0319166001600160a01b0392909216919091179055565b336107fb61082b565b6001600160a01b0316146108215760405162461bcd60e51b815260040161053b9061148b565b61079f6000611185565b6005546001600160a01b031690565b60606004805461047190611450565b6007546001600160a01b03161580159061086d57506009546001600160a01b031615155b6108895760405162461bcd60e51b815260040161053b906114ee565b6007546001600160a01b0316336001600160a01b031614806108be57506009546001600160a01b0316336001600160a01b0316145b6108da5760405162461bcd60e51b815260040161053b90611525565b61069082826111d7565b336108ed61082b565b6001600160a01b0316146109135760405162461bcd60e51b815260040161053b9061148b565b600954600160a81b900460ff16156109815760405162461bcd60e51b815260206004820152602b60248201527f617661782076696e7461676557696e65204c502068617320616c72656164792060448201526a1899595b881b5a5b9d195960aa1b606482015260840161053b565b6009805460ff60a81b1916600160a81b17905561079f61099f61082b565b670de0b6b3a764000060065461079a9190611567565b600033816109c38286610c95565b905083811015610a235760405162461bcd60e51b815260206004820152602560248201527f45524332303a2064656372656173656420616c6c6f77616e63652062656c6f77604482015264207a65726f60d81b606482015260840161053b565b61057f8286868403610d5d565b600033610502818585610efc565b33610a4761082b565b6001600160a01b031614610a6d5760405162461bcd60e51b815260040161053b9061148b565b600954600160a01b900460ff1615610adf5760405162461bcd60e51b815260206004820152602f60248201527f70726f6d6f74696f6e616c2076696e7461676557696e652068617320616c726560448201526e18591e481899595b881b5a5b9d1959608a1b606482015260840161053b565b6009805460ff60a01b1916600160a01b179055610b0b8161079a670de0b6b3a76400006207a120611567565b50565b6009546001600160a01b0316610b365760405162461bcd60e51b815260040161053b906114ee565b6009546001600160a01b0316336001600160a01b031614610bbf5760405162461bcd60e51b815260206004820152603a60248201527f6f6e6c7920746865207570677261646520636f6e74726163742063616e20636160448201527f6c6c207472616e73666572466f72557067726164657346656573000000000000606482015260840161053b565b6009546106909083906001600160a01b031683610efc565b6007546001600160a01b0316610bff5760405162461bcd60e51b815260040161053b906114ee565b6007546001600160a01b0316336001600160a01b031614610c7d5760405162461bcd60e51b815260206004820152603260248201527f6f6e6c79207468652063656c6c617220636f6e74726163742063616e2063616c60448201527136103a3930b739b332b92a37a1b2b63630b960711b606482015260840161053b565b6007546106909083906001600160a01b031683610efc565b6001600160a01b03918216600090815260016020908152604080832093909416825291909152205490565b33610cc961082b565b6001600160a01b031614610cef5760405162461bcd60e51b815260040161053b9061148b565b6001600160a01b038116610d545760405162461bcd60e51b815260206004820152602660248201527f4f776e61626c653a206e6577206f776e657220697320746865207a65726f206160448201526564647265737360d01b606482015260840161053b565b610b0b81611185565b6001600160a01b038316610dbf5760405162461bcd60e51b8152602060048201526024808201527f45524332303a20617070726f76652066726f6d20746865207a65726f206164646044820152637265737360e01b606482015260840161053b565b6001600160a01b038216610e205760405162461bcd60e51b815260206004820152602260248201527f45524332303a20617070726f766520746f20746865207a65726f206164647265604482015261737360f01b606482015260840161053b565b6001600160a01b0383811660008181526001602090815260408083209487168084529482529182902085905590518481527f8c5be1e5ebec7d5bd14f71427d1e84f3dd0314c0f7b2291e5b200ac8c7c3b92591015b60405180910390a3505050565b6000610e8e8484610c95565b90506000198114610ef65781811015610ee95760405162461bcd60e51b815260206004820152601d60248201527f45524332303a20696e73756666696369656e7420616c6c6f77616e6365000000604482015260640161053b565b610ef68484848403610d5d565b50505050565b6001600160a01b038316610f605760405162461bcd60e51b815260206004820152602560248201527f45524332303a207472616e736665722066726f6d20746865207a65726f206164604482015264647265737360d81b606482015260840161053b565b6001600160a01b038216610fc25760405162461bcd60e51b815260206004820152602360248201527f45524332303a207472616e7366657220746f20746865207a65726f206164647260448201526265737360e81b606482015260840161053b565b6001600160a01b0383166000908152602081905260409020548181101561103a5760405162461bcd60e51b815260206004820152602660248201527f45524332303a207472616e7366657220616d6f756e7420657863656564732062604482015265616c616e636560d01b606482015260840161053b565b6001600160a01b038085166000908152602081905260408082208585039055918516815290812080548492906110719084906114d6565b92505081905550826001600160a01b0316846001600160a01b031660008051602061159e833981519152846040516110ab91815260200190565b60405180910390a3610ef6565b6001600160a01b03821661110e5760405162461bcd60e51b815260206004820152601f60248201527f45524332303a206d696e7420746f20746865207a65726f206164647265737300604482015260640161053b565b806002600082825461112091906114d6565b90915550506001600160a01b0382166000908152602081905260408120805483929061114d9084906114d6565b90915550506040518181526001600160a01b0383169060009060008051602061159e8339815191529060200160405180910390a35050565b600580546001600160a01b038381166001600160a01b0319831681179093556040519116919082907f8be0079c531659141344cd1fd0a4f28419497f9722a3daafe3b4186f6b6457e090600090a35050565b6001600160a01b0382166112375760405162461bcd60e51b815260206004820152602160248201527f45524332303a206275726e2066726f6d20746865207a65726f206164647265736044820152607360f81b606482015260840161053b565b6001600160a01b038216600090815260208190526040902054818110156112ab5760405162461bcd60e51b815260206004820152602260248201527f45524332303a206275726e20616d6f756e7420657863656564732062616c616e604482015261636560f01b606482015260840161053b565b6001600160a01b03831660009081526020819052604081208383039055600280548492906112da908490611586565b90915550506040518281526000906001600160a01b0385169060008051602061159e83398151915290602001610e75565b600060208083528351808285015260005b818110156113385785810183015185820160400152820161131c565b8181111561134a576000604083870101525b50601f01601f1916929092016040019392505050565b80356001600160a01b038116811461137757600080fd5b919050565b6000806040838503121561138f57600080fd5b61139883611360565b946020939093013593505050565b6000602082840312156113b857600080fd5b6113c182611360565b9392505050565b6000806000606084860312156113dd57600080fd5b6113e684611360565b92506113f460208501611360565b9150604084013590509250925092565b60006020828403121561141657600080fd5b5035919050565b6000806040838503121561143057600080fd5b61143983611360565b915061144760208401611360565b90509250929050565b600181811c9082168061146457607f821691505b6020821081141561148557634e487b7160e01b600052602260045260246000fd5b50919050565b6020808252818101527f4f776e61626c653a2063616c6c6572206973206e6f7420746865206f776e6572604082015260600190565b634e487b7160e01b600052601160045260246000fd5b600082198211156114e9576114e96114c0565b500190565b6020808252601c908201527f6d697373696e6720696e697469616c20726571756972656d656e747300000000604082015260600190565b60208082526022908201527f6d736773656e64657220646f6573206e6f742068617665207065726d6973736960408201526137b760f11b606082015260800190565b6000816000190483118215151615611581576115816114c0565b500290565b600082821015611598576115986114c0565b50039056feddf252ad1be2c89b69c2b068fc378daa952ba7f163c4a11628f55a4df523b3efa264697066735822122059c13c36ab72153955f8aff3d8076864423a0940debbf11690cf8d7a9bca304664736f6c634300080b0033"
}