{
  "address": "0xDc64a140Aa3E981100a9becA4E685f962f0cF6C9",
  "abi": [
    {
      "inputs": [
        {
          "internalType": "contract VintageWine",
          "name": "_vintageWine",
          "type": "address"
        },
        {
          "internalType": "address",
          "name": "_vintnerTypeOracleAddress",
          "type": "address"
        },
        {
          "internalType": "string",
          "name": "_BASE_URI",
          "type": "string"
        }
      ],
      "stateMutability": "nonpayable",
      "type": "constructor"
    },
    {
      "anonymous": false,
      "inputs": [
        {
          "indexed": true,
          "internalType": "address",
          "name": "owner",
          "type": "address"
        },
        {
          "indexed": true,
          "internalType": "address",
          "name": "approved",
          "type": "address"
        },
        {
          "indexed": true,
          "internalType": "uint256",
          "name": "tokenId",
          "type": "uint256"
        }
      ],
      "name": "Approval",
      "type": "event"
    },
    {
      "anonymous": false,
      "inputs": [
        {
          "indexed": true,
          "internalType": "address",
          "name": "owner",
          "type": "address"
        },
        {
          "indexed": true,
          "internalType": "address",
          "name": "operator",
          "type": "address"
        },
        {
          "indexed": false,
          "internalType": "bool",
          "name": "approved",
          "type": "bool"
        }
      ],
      "name": "ApprovalForAll",
      "type": "event"
    },
    {
      "anonymous": false,
      "inputs": [
        {
          "indexed": true,
          "internalType": "address",
          "name": "previousOwner",
          "type": "address"
        },
        {
          "indexed": true,
          "internalType": "address",
          "name": "newOwner",
          "type": "address"
        }
      ],
      "name": "OwnershipTransferred",
      "type": "event"
    },
    {
      "anonymous": false,
      "inputs": [
        {
          "indexed": false,
          "internalType": "address",
          "name": "account",
          "type": "address"
        }
      ],
      "name": "Paused",
      "type": "event"
    },
    {
      "anonymous": false,
      "inputs": [
        {
          "indexed": true,
          "internalType": "address",
          "name": "from",
          "type": "address"
        },
        {
          "indexed": true,
          "internalType": "address",
          "name": "to",
          "type": "address"
        },
        {
          "indexed": true,
          "internalType": "uint256",
          "name": "tokenId",
          "type": "uint256"
        }
      ],
      "name": "Transfer",
      "type": "event"
    },
    {
      "anonymous": false,
      "inputs": [
        {
          "indexed": false,
          "internalType": "address",
          "name": "account",
          "type": "address"
        }
      ],
      "name": "Unpaused",
      "type": "event"
    },
    {
      "anonymous": false,
      "inputs": [
        {
          "indexed": false,
          "internalType": "uint256",
          "name": "tokenId",
          "type": "uint256"
        }
      ],
      "name": "onVintnerCreated",
      "type": "event"
    },
    {
      "anonymous": false,
      "inputs": [
        {
          "indexed": false,
          "internalType": "uint256",
          "name": "tokenId",
          "type": "uint256"
        },
        {
          "indexed": false,
          "internalType": "uint256",
          "name": "vintnerType",
          "type": "uint256"
        }
      ],
      "name": "onVintnerRevealed",
      "type": "event"
    },
    {
      "inputs": [],
      "name": "BASE_URI",
      "outputs": [
        {
          "internalType": "string",
          "name": "",
          "type": "string"
        }
      ],
      "stateMutability": "view",
      "type": "function"
    },
    {
      "inputs": [],
      "name": "MASTER_VINTNER_TYPE",
      "outputs": [
        {
          "internalType": "uint256",
          "name": "",
          "type": "uint256"
        }
      ],
      "stateMutability": "view",
      "type": "function"
    },
    {
      "inputs": [],
      "name": "MASTER_VINTNER_YIELD",
      "outputs": [
        {
          "internalType": "uint256",
          "name": "",
          "type": "uint256"
        }
      ],
      "stateMutability": "view",
      "type": "function"
    },
    {
      "inputs": [],
      "name": "NUM_GEN0_VINTNERS",
      "outputs": [
        {
          "internalType": "uint256",
          "name": "",
          "type": "uint256"
        }
      ],
      "stateMutability": "view",
      "type": "function"
    },
    {
      "inputs": [],
      "name": "NUM_GEN1_VINTNERS",
      "outputs": [
        {
          "internalType": "uint256",
          "name": "",
          "type": "uint256"
        }
      ],
      "stateMutability": "view",
      "type": "function"
    },
    {
      "inputs": [],
      "name": "PROMOTIONAL_VINTNERS",
      "outputs": [
        {
          "internalType": "uint256",
          "name": "",
          "type": "uint256"
        }
      ],
      "stateMutability": "view",
      "type": "function"
    },
    {
      "inputs": [],
      "name": "VINTNERS_PER_VINTAGEWINE_MINT_LEVEL",
      "outputs": [
        {
          "internalType": "uint256",
          "name": "",
          "type": "uint256"
        }
      ],
      "stateMutability": "view",
      "type": "function"
    },
    {
      "inputs": [],
      "name": "VINTNER_PRICE_AVAX",
      "outputs": [
        {
          "internalType": "uint256",
          "name": "",
          "type": "uint256"
        }
      ],
      "stateMutability": "view",
      "type": "function"
    },
    {
      "inputs": [],
      "name": "VINTNER_TYPE",
      "outputs": [
        {
          "internalType": "uint256",
          "name": "",
          "type": "uint256"
        }
      ],
      "stateMutability": "view",
      "type": "function"
    },
    {
      "inputs": [],
      "name": "VINTNER_YIELD",
      "outputs": [
        {
          "internalType": "uint256",
          "name": "",
          "type": "uint256"
        }
      ],
      "stateMutability": "view",
      "type": "function"
    },
    {
      "inputs": [
        {
          "internalType": "address",
          "name": "to",
          "type": "address"
        },
        {
          "internalType": "uint256",
          "name": "tokenId",
          "type": "uint256"
        }
      ],
      "name": "approve",
      "outputs": [],
      "stateMutability": "nonpayable",
      "type": "function"
    },
    {
      "inputs": [
        {
          "internalType": "address",
          "name": "owner",
          "type": "address"
        }
      ],
      "name": "balanceOf",
      "outputs": [
        {
          "internalType": "uint256",
          "name": "",
          "type": "uint256"
        }
      ],
      "stateMutability": "view",
      "type": "function"
    },
    {
      "inputs": [
        {
          "internalType": "address",
          "name": "_owner",
          "type": "address"
        },
        {
          "internalType": "uint256",
          "name": "_offset",
          "type": "uint256"
        },
        {
          "internalType": "uint256",
          "name": "_maxSize",
          "type": "uint256"
        }
      ],
      "name": "batchedVintnersOfOwner",
      "outputs": [
        {
          "components": [
            {
              "internalType": "uint256",
              "name": "tokenId",
              "type": "uint256"
            },
            {
              "internalType": "uint256",
              "name": "vintnerType",
              "type": "uint256"
            }
          ],
          "internalType": "struct Vintner.VintnerInfo[]",
          "name": "",
          "type": "tuple[]"
        }
      ],
      "stateMutability": "view",
      "type": "function"
    },
    {
      "inputs": [],
      "name": "currentVINTAGEWINEMintCost",
      "outputs": [
        {
          "internalType": "uint256",
          "name": "",
          "type": "uint256"
        }
      ],
      "stateMutability": "view",
      "type": "function"
    },
    {
      "inputs": [
        {
          "internalType": "contract IERC20",
          "name": "_token",
          "type": "address"
        },
        {
          "internalType": "uint256",
          "name": "_amount",
          "type": "uint256"
        },
        {
          "internalType": "address",
          "name": "target",
          "type": "address"
        }
      ],
      "name": "forwardERC20s",
      "outputs": [],
      "stateMutability": "nonpayable",
      "type": "function"
    },
    {
      "inputs": [
        {
          "internalType": "uint256",
          "name": "tokenId",
          "type": "uint256"
        }
      ],
      "name": "getApproved",
      "outputs": [
        {
          "internalType": "address",
          "name": "",
          "type": "address"
        }
      ],
      "stateMutability": "view",
      "type": "function"
    },
    {
      "inputs": [
        {
          "internalType": "uint256",
          "name": "_tokenId",
          "type": "uint256"
        }
      ],
      "name": "getType",
      "outputs": [
        {
          "internalType": "uint256",
          "name": "",
          "type": "uint256"
        }
      ],
      "stateMutability": "view",
      "type": "function"
    },
    {
      "inputs": [
        {
          "internalType": "uint256",
          "name": "_tokenId",
          "type": "uint256"
        }
      ],
      "name": "getYield",
      "outputs": [
        {
          "internalType": "uint256",
          "name": "",
          "type": "uint256"
        }
      ],
      "stateMutability": "view",
      "type": "function"
    },
    {
      "inputs": [
        {
          "internalType": "address",
          "name": "_owner",
          "type": "address"
        },
        {
          "internalType": "address",
          "name": "_operator",
          "type": "address"
        }
      ],
      "name": "isApprovedForAll",
      "outputs": [
        {
          "internalType": "bool",
          "name": "",
          "type": "bool"
        }
      ],
      "stateMutability": "view",
      "type": "function"
    },
    {
      "inputs": [
        {
          "internalType": "uint256",
          "name": "qty",
          "type": "uint256"
        },
        {
          "internalType": "uint256",
          "name": "vintnerType",
          "type": "uint256"
        },
        {
          "internalType": "address",
          "name": "target",
          "type": "address"
        }
      ],
      "name": "mintPromotional",
      "outputs": [],
      "stateMutability": "nonpayable",
      "type": "function"
    },
    {
      "inputs": [
        {
          "internalType": "uint256",
          "name": "qty",
          "type": "uint256"
        }
      ],
      "name": "mintVintnerWithAVAX",
      "outputs": [],
      "stateMutability": "payable",
      "type": "function"
    },
    {
      "inputs": [
        {
          "internalType": "uint256",
          "name": "qty",
          "type": "uint256"
        }
      ],
      "name": "mintVintnerWithVINTAGEWINE",
      "outputs": [],
      "stateMutability": "nonpayable",
      "type": "function"
    },
    {
      "inputs": [],
      "name": "mintingStartedAVAX",
      "outputs": [
        {
          "internalType": "bool",
          "name": "",
          "type": "bool"
        }
      ],
      "stateMutability": "view",
      "type": "function"
    },
    {
      "inputs": [],
      "name": "mintingStartedVINTAGEWINE",
      "outputs": [
        {
          "internalType": "bool",
          "name": "",
          "type": "bool"
        }
      ],
      "stateMutability": "view",
      "type": "function"
    },
    {
      "inputs": [],
      "name": "name",
      "outputs": [
        {
          "internalType": "string",
          "name": "",
          "type": "string"
        }
      ],
      "stateMutability": "view",
      "type": "function"
    },
    {
      "inputs": [],
      "name": "owner",
      "outputs": [
        {
          "internalType": "address",
          "name": "",
          "type": "address"
        }
      ],
      "stateMutability": "view",
      "type": "function"
    },
    {
      "inputs": [
        {
          "internalType": "uint256",
          "name": "tokenId",
          "type": "uint256"
        }
      ],
      "name": "ownerOf",
      "outputs": [
        {
          "internalType": "address",
          "name": "",
          "type": "address"
        }
      ],
      "stateMutability": "view",
      "type": "function"
    },
    {
      "inputs": [],
      "name": "paused",
      "outputs": [
        {
          "internalType": "bool",
          "name": "",
          "type": "bool"
        }
      ],
      "stateMutability": "view",
      "type": "function"
    },
    {
      "inputs": [],
      "name": "renounceOwnership",
      "outputs": [],
      "stateMutability": "nonpayable",
      "type": "function"
    },
    {
      "inputs": [
        {
          "internalType": "address",
          "name": "from",
          "type": "address"
        },
        {
          "internalType": "address",
          "name": "to",
          "type": "address"
        },
        {
          "internalType": "uint256",
          "name": "tokenId",
          "type": "uint256"
        }
      ],
      "name": "safeTransferFrom",
      "outputs": [],
      "stateMutability": "nonpayable",
      "type": "function"
    },
    {
      "inputs": [
        {
          "internalType": "address",
          "name": "from",
          "type": "address"
        },
        {
          "internalType": "address",
          "name": "to",
          "type": "address"
        },
        {
          "internalType": "uint256",
          "name": "tokenId",
          "type": "uint256"
        },
        {
          "internalType": "bytes",
          "name": "_data",
          "type": "bytes"
        }
      ],
      "name": "safeTransferFrom",
      "outputs": [],
      "stateMutability": "nonpayable",
      "type": "function"
    },
    {
      "inputs": [
        {
          "internalType": "address",
          "name": "operator",
          "type": "address"
        },
        {
          "internalType": "bool",
          "name": "approved",
          "type": "bool"
        }
      ],
      "name": "setApprovalForAll",
      "outputs": [],
      "stateMutability": "nonpayable",
      "type": "function"
    },
    {
      "inputs": [
        {
          "internalType": "string",
          "name": "_BASE_URI",
          "type": "string"
        }
      ],
      "name": "setBaseURI",
      "outputs": [],
      "stateMutability": "nonpayable",
      "type": "function"
    },
    {
      "inputs": [
        {
          "internalType": "uint256",
          "name": "_startTime",
          "type": "uint256"
        }
      ],
      "name": "setStartTimeAVAX",
      "outputs": [],
      "stateMutability": "nonpayable",
      "type": "function"
    },
    {
      "inputs": [
        {
          "internalType": "uint256",
          "name": "_startTime",
          "type": "uint256"
        }
      ],
      "name": "setStartTimeVINTAGEWINE",
      "outputs": [],
      "stateMutability": "nonpayable",
      "type": "function"
    },
    {
      "inputs": [
        {
          "internalType": "address",
          "name": "_vintageWine",
          "type": "address"
        }
      ],
      "name": "setVintageWine",
      "outputs": [],
      "stateMutability": "nonpayable",
      "type": "function"
    },
    {
      "inputs": [
        {
          "internalType": "uint256",
          "name": "tokenId",
          "type": "uint256"
        },
        {
          "internalType": "uint256",
          "name": "vintnerType",
          "type": "uint256"
        }
      ],
      "name": "setVintnerType",
      "outputs": [],
      "stateMutability": "nonpayable",
      "type": "function"
    },
    {
      "inputs": [
        {
          "internalType": "address",
          "name": "_wineryAddress",
          "type": "address"
        }
      ],
      "name": "setWineryAddress",
      "outputs": [],
      "stateMutability": "nonpayable",
      "type": "function"
    },
    {
      "inputs": [
        {
          "internalType": "address",
          "name": "_vintnerTypeOracleAddress",
          "type": "address"
        }
      ],
      "name": "setvintnerTypeOracleAddress",
      "outputs": [],
      "stateMutability": "nonpayable",
      "type": "function"
    },
    {
      "inputs": [],
      "name": "startTimeAVAX",
      "outputs": [
        {
          "internalType": "uint256",
          "name": "",
          "type": "uint256"
        }
      ],
      "stateMutability": "view",
      "type": "function"
    },
    {
      "inputs": [],
      "name": "startTimeVINTAGEWINE",
      "outputs": [
        {
          "internalType": "uint256",
          "name": "",
          "type": "uint256"
        }
      ],
      "stateMutability": "view",
      "type": "function"
    },
    {
      "inputs": [
        {
          "internalType": "bytes4",
          "name": "interfaceId",
          "type": "bytes4"
        }
      ],
      "name": "supportsInterface",
      "outputs": [
        {
          "internalType": "bool",
          "name": "",
          "type": "bool"
        }
      ],
      "stateMutability": "view",
      "type": "function"
    },
    {
      "inputs": [],
      "name": "symbol",
      "outputs": [
        {
          "internalType": "string",
          "name": "",
          "type": "string"
        }
      ],
      "stateMutability": "view",
      "type": "function"
    },
    {
      "inputs": [
        {
          "internalType": "uint256",
          "name": "index",
          "type": "uint256"
        }
      ],
      "name": "tokenByIndex",
      "outputs": [
        {
          "internalType": "uint256",
          "name": "",
          "type": "uint256"
        }
      ],
      "stateMutability": "view",
      "type": "function"
    },
    {
      "inputs": [
        {
          "internalType": "address",
          "name": "owner",
          "type": "address"
        },
        {
          "internalType": "uint256",
          "name": "index",
          "type": "uint256"
        }
      ],
      "name": "tokenOfOwnerByIndex",
      "outputs": [
        {
          "internalType": "uint256",
          "name": "",
          "type": "uint256"
        }
      ],
      "stateMutability": "view",
      "type": "function"
    },
    {
      "inputs": [
        {
          "internalType": "uint256",
          "name": "",
          "type": "uint256"
        }
      ],
      "name": "tokenTypes",
      "outputs": [
        {
          "internalType": "uint256",
          "name": "",
          "type": "uint256"
        }
      ],
      "stateMutability": "view",
      "type": "function"
    },
    {
      "inputs": [
        {
          "internalType": "uint256",
          "name": "tokenId",
          "type": "uint256"
        }
      ],
      "name": "tokenURI",
      "outputs": [
        {
          "internalType": "string",
          "name": "",
          "type": "string"
        }
      ],
      "stateMutability": "view",
      "type": "function"
    },
    {
      "inputs": [],
      "name": "totalSupply",
      "outputs": [
        {
          "internalType": "uint256",
          "name": "",
          "type": "uint256"
        }
      ],
      "stateMutability": "view",
      "type": "function"
    },
    {
      "inputs": [
        {
          "internalType": "address",
          "name": "from",
          "type": "address"
        },
        {
          "internalType": "address",
          "name": "to",
          "type": "address"
        },
        {
          "internalType": "uint256",
          "name": "tokenId",
          "type": "uint256"
        }
      ],
      "name": "transferFrom",
      "outputs": [],
      "stateMutability": "nonpayable",
      "type": "function"
    },
    {
      "inputs": [
        {
          "internalType": "address",
          "name": "newOwner",
          "type": "address"
        }
      ],
      "name": "transferOwnership",
      "outputs": [],
      "stateMutability": "nonpayable",
      "type": "function"
    },
    {
      "inputs": [
        {
          "internalType": "uint256",
          "name": "",
          "type": "uint256"
        }
      ],
      "name": "typeYields",
      "outputs": [
        {
          "internalType": "uint256",
          "name": "",
          "type": "uint256"
        }
      ],
      "stateMutability": "view",
      "type": "function"
    },
    {
      "inputs": [],
      "name": "vintageWine",
      "outputs": [
        {
          "internalType": "contract VintageWine",
          "name": "",
          "type": "address"
        }
      ],
      "stateMutability": "view",
      "type": "function"
    },
    {
      "inputs": [],
      "name": "vintnerTypeOracleAddress",
      "outputs": [
        {
          "internalType": "address",
          "name": "",
          "type": "address"
        }
      ],
      "stateMutability": "view",
      "type": "function"
    },
    {
      "inputs": [],
      "name": "vintnersMinted",
      "outputs": [
        {
          "internalType": "uint256",
          "name": "",
          "type": "uint256"
        }
      ],
      "stateMutability": "view",
      "type": "function"
    },
    {
      "inputs": [],
      "name": "vintnersMintedPromotional",
      "outputs": [
        {
          "internalType": "uint256",
          "name": "",
          "type": "uint256"
        }
      ],
      "stateMutability": "view",
      "type": "function"
    },
    {
      "inputs": [],
      "name": "vintnersMintedWithAVAX",
      "outputs": [
        {
          "internalType": "uint256",
          "name": "",
          "type": "uint256"
        }
      ],
      "stateMutability": "view",
      "type": "function"
    },
    {
      "inputs": [],
      "name": "vintnersMintedWithVINTAGEWINE",
      "outputs": [
        {
          "internalType": "uint256",
          "name": "",
          "type": "uint256"
        }
      ],
      "stateMutability": "view",
      "type": "function"
    },
    {
      "inputs": [],
      "name": "wineryAddress",
      "outputs": [
        {
          "internalType": "address",
          "name": "",
          "type": "address"
        }
      ],
      "stateMutability": "view",
      "type": "function"
    },
    {
      "inputs": [
        {
          "internalType": "uint256",
          "name": "_amount",
          "type": "uint256"
        }
      ],
      "name": "withdrawAVAX",
      "outputs": [],
      "stateMutability": "payable",
      "type": "function"
    }
  ],
  "transactionHash": "0x3a5162ab97f375c5ee9f3ff6b2de4dee6545025f8b91a3056036a375cb63b722",
  "args": [
    "0x5FbDB2315678afecb367f032d93F642f64180aa3",
    "0x70997970C51812dc3A010C7d01b50e0d17dc79C8",
    "https://api.pizza.game/chefs"
  ],
  "solcInputHash": "1e670547cddf4062c5b32a5b69a33996",
  "bytecode": "0x6080604052603260145569043c33c19375648000006017553480156200002457600080fd5b5060405162003853380380620038538339810160408190526200004791620002f5565b604080518082018252601981527f56696e7461676557696e652047616d652056696e746e6572730000000000000060208083019182528351808501909452601884527f56494e5441474557494e452d47414d452d56494e544e45520000000000000000908401528151919291620000c19160009162000220565b508051620000d790600190602084019062000220565b505050620000f4620000ee620001ca60201b60201c565b620001ce565b600a805460ff60a01b191690556001600160a01b0383166200011557600080fd5b6001600160a01b0382166200012957600080fd5b600b80546001600160a01b038086166001600160a01b031992831617909255600d80549285169290911691909117905580516200016e90600e90602084019062000220565b50506010602052505060017f8c6065603763fec3f5742441d3833f3f43b982453612d76adb39a885e3006b5f55600260005260037f853b2fefe141400fef543280f93d98bd49996069f632d0d20236afeeed8e46a2556200043c565b3390565b600a80546001600160a01b038381166001600160a01b0319831681179093556040519116919082907f8be0079c531659141344cd1fd0a4f28419497f9722a3daafe3b4186f6b6457e090600090a35050565b8280546200022e90620003ff565b90600052602060002090601f0160209004810192826200025257600085556200029d565b82601f106200026d57805160ff19168380011785556200029d565b828001600101855582156200029d579182015b828111156200029d57825182559160200191906001019062000280565b50620002ab929150620002af565b5090565b5b80821115620002ab5760008155600101620002b0565b6001600160a01b0381168114620002dc57600080fd5b50565b634e487b7160e01b600052604160045260246000fd5b6000806000606084860312156200030b57600080fd5b83516200031881620002c6565b809350506020808501516200032d81620002c6565b60408601519093506001600160401b03808211156200034b57600080fd5b818701915087601f8301126200036057600080fd5b815181811115620003755762000375620002df565b604051601f8201601f19908116603f01168101908382118183101715620003a057620003a0620002df565b816040528281528a86848701011115620003b957600080fd5b600093505b82841015620003dd5784840186015181850187015292850192620003be565b82841115620003ef5760008684830101525b8096505050505050509250925092565b600181811c908216806200041457607f821691505b602082108114156200043657634e487b7160e01b600052602260045260246000fd5b50919050565b613407806200044c6000396000f3fe60806040526004361061030c5760003560e01c8063522445c01161019c5780639ead6ba1116100e2578063c87b56dd11610090578063c87b56dd146108db578063dbddb26a146108fb578063def6b87214610910578063e95e46e014610926578063e985e9c514610946578063f2fde38b14610966578063f7776f9614610986578063fc7f3d571461034657600080fd5b80639ead6ba114610827578063a22cb4651461083d578063a377d7ef1461085d578063a682f86214610872578063aeb5cd5e14610888578063b88d4fde1461089b578063b99630d5146108bb57600080fd5b806370a082311161014a57806370a0823114610779578063715018a614610799578063735d09a6146107ae5780638287ef2c146107ce5780638670f79d146107e15780638da5cb5b146107fd57806395d89b411461081257806396f983cb146104e557600080fd5b8063522445c0146106ab57806355f804b3146106c1578063599dd974146106e15780635c975abb1461070157806362f7d7b9146107165780636352211e1461072c5780636de1a6d91461074c57600080fd5b80632c304aa11161026157806342842e0e1161020f57806342842e0e146105b457806343f37b98146105d457806345979093146105f457806347ef867e1461061457806348c4c37f146106345780634984a719146106495780634e30e7c61461065e5780634f6ccce71461068b57600080fd5b80632c304aa1146104e55780632f745c59146104fb57806330a9af7f1461051b57806333f6832a146105315780633676edff1461055e5780633c1d4de7146105745780634036ab781461059457600080fd5b8063097f1f2f116102be578063097f1f2f146104255780630b8faf2d1461044557806318160ddd14610465578063238aa9cd1461047a57806323b872dd1461049a57806327b28a0b146104ba5780632891b6a8146104d057600080fd5b806301ffc9a71461031157806305c87a021461034657806306fdde03146103695780630805d8841461038b578063081812fc146103ab578063082ee8b2146103e3578063095ea7b314610403575b600080fd5b34801561031d57600080fd5b5061033161032c366004612aca565b61099b565b60405190151581526020015b60405180910390f35b34801561035257600080fd5b5061035b600181565b60405190815260200161033d565b34801561037557600080fd5b5061037e6109c6565b60405161033d9190612b3f565b34801561039757600080fd5b5061035b6103a6366004612b52565b610a58565b3480156103b757600080fd5b506103cb6103c6366004612b52565b610aa8565b6040516001600160a01b03909116815260200161033d565b3480156103ef57600080fd5b50600d546103cb906001600160a01b031681565b34801561040f57600080fd5b5061042361041e366004612b80565b610b30565b005b34801561043157600080fd5b50610423610440366004612bac565b610c41565b34801561045157600080fd5b50610423610460366004612bac565b610c92565b34801561047157600080fd5b5060085461035b565b34801561048657600080fd5b50610423610495366004612bc9565b610ce3565b3480156104a657600080fd5b506104236104b5366004612c02565b610e46565b3480156104c657600080fd5b5061035b60145481565b3480156104dc57600080fd5b5061035b600381565b3480156104f157600080fd5b5061035b61271081565b34801561050757600080fd5b5061035b610516366004612b80565b610e77565b34801561052757600080fd5b5061035b60125481565b34801561053d57600080fd5b5061035b61054c366004612b52565b600f6020526000908152604090205481565b34801561056a57600080fd5b5061035b60135481565b34801561058057600080fd5b5061042361058f366004612b52565b610f0d565b3480156105a057600080fd5b5061035b6105af366004612b52565b610f61565b3480156105c057600080fd5b506104236105cf366004612c02565b610f9b565b3480156105e057600080fd5b506104236105ef366004612c43565b610fb6565b34801561060057600080fd5b5061042361060f366004612b52565b610ff9565b34801561062057600080fd5b50600b546103cb906001600160a01b031681565b34801561064057600080fd5b5061035b603281565b34801561065557600080fd5b5061035b600281565b34801561066a57600080fd5b5061067e610679366004612c7a565b61104d565b60405161033d9190612caf565b34801561069757600080fd5b5061035b6106a6366004612b52565b6111b8565b3480156106b757600080fd5b5061035b60115481565b3480156106cd57600080fd5b506104236106dc366004612cfe565b61124b565b3480156106ed57600080fd5b506104236106fc366004612d70565b611286565b34801561070d57600080fd5b5061033161139b565b34801561072257600080fd5b5061035b61138881565b34801561073857600080fd5b506103cb610747366004612b52565b6113ab565b34801561075857600080fd5b5061035b610767366004612b52565b60106020526000908152604090205481565b34801561078557600080fd5b5061035b610794366004612bac565b611422565b3480156107a557600080fd5b506104236114a9565b3480156107ba57600080fd5b50600c546103cb906001600160a01b031681565b6104236107dc366004612b52565b6114e4565b3480156107ed57600080fd5b5061035b6714d1120d7b16000081565b34801561080957600080fd5b506103cb6115f4565b34801561081e57600080fd5b5061037e611603565b34801561083357600080fd5b5061035b60165481565b34801561084957600080fd5b50610423610858366004612da0565b611612565b34801561086957600080fd5b5061033161161d565b34801561087e57600080fd5b5061035b60155481565b610423610896366004612b52565b611639565b3480156108a757600080fd5b506104236108b6366004612def565b611718565b3480156108c757600080fd5b506104236108d6366004612bac565b61174a565b3480156108e757600080fd5b5061037e6108f6366004612b52565b61179b565b34801561090757600080fd5b5061037e611842565b34801561091c57600080fd5b5061035b60175481565b34801561093257600080fd5b50610423610941366004612b52565b6118d0565b34801561095257600080fd5b50610331610961366004612ecf565b611b0a565b34801561097257600080fd5b50610423610981366004612bac565b611b6f565b34801561099257600080fd5b50610331611c0f565b60006001600160e01b0319821663780e9d6360e01b14806109c057506109c082611c29565b92915050565b6060600080546109d590612efd565b80601f0160208091040260200160405190810160405280929190818152602001828054610a0190612efd565b8015610a4e5780601f10610a2357610100808354040283529160200191610a4e565b820191906000526020600020905b815481529060010190602001808311610a3157829003601f168201915b5050505050905090565b6000610a6382611c79565b610a885760405162461bcd60e51b8152600401610a7f90612f38565b60405180910390fd5b506000908152600f60209081526040808320548352601090915290205490565b6000610ab382611c79565b610b145760405162461bcd60e51b815260206004820152602c60248201527f4552433732313a20617070726f76656420717565727920666f72206e6f6e657860448201526b34b9ba32b73a103a37b5b2b760a11b6064820152608401610a7f565b506000908152600460205260409020546001600160a01b031690565b6000610b3b826113ab565b9050806001600160a01b0316836001600160a01b03161415610ba95760405162461bcd60e51b815260206004820152602160248201527f4552433732313a20617070726f76616c20746f2063757272656e74206f776e656044820152603960f91b6064820152608401610a7f565b336001600160a01b0382161480610bc55750610bc58133611b0a565b610c325760405162461bcd60e51b815260206004820152603860248201527f4552433732313a20617070726f76652063616c6c6572206973206e6f74206f776044820152771b995c881b9bdc88185c1c1c9bdd995908199bdc88185b1b60421b6064820152608401610a7f565b610c3c8383611c96565b505050565b33610c4a6115f4565b6001600160a01b031614610c705760405162461bcd60e51b8152600401610a7f90612f66565b600c80546001600160a01b0319166001600160a01b0392909216919091179055565b33610c9b6115f4565b6001600160a01b031614610cc15760405162461bcd60e51b8152600401610a7f90612f66565b600b80546001600160a01b0319166001600160a01b0392909216919091179055565b33610cec6115f4565b6001600160a01b031614610d125760405162461bcd60e51b8152600401610a7f90612f66565b60008311610d625760405162461bcd60e51b815260206004820152601f60248201527f7175616e74697479206d7573742062652067726561746572207468616e2030006044820152606401610a7f565b603283601354610d729190612fb1565b1115610d905760405162461bcd60e51b8152600401610a7f90612fc9565b6001821480610d9f5750600282145b610dbb5760405162461bcd60e51b8152600401610a7f9061300b565b60005b83811015610e4057600160136000828254610dd99190612fb1565b90915550506013546000908152600f602052604090205415610e0d5760405162461bcd60e51b8152600401610a7f90613039565b601380546000908152600f6020526040902084905554610e2e908390611d04565b80610e388161307f565b915050610dbe565b50505050565b610e503382611d9b565b610e6c5760405162461bcd60e51b8152600401610a7f9061309a565b610c3c838383611e65565b6000610e8283611422565b8210610ee45760405162461bcd60e51b815260206004820152602b60248201527f455243373231456e756d657261626c653a206f776e657220696e646578206f7560448201526a74206f6620626f756e647360a81b6064820152608401610a7f565b506001600160a01b03919091166000908152600660209081526040808320938352929052205490565b33610f166115f4565b6001600160a01b031614610f3c5760405162461bcd60e51b8152600401610a7f90612f66565b42811015610f5c5760405162461bcd60e51b8152600401610a7f906130eb565b601555565b6000610f6c82611c79565b610f885760405162461bcd60e51b8152600401610a7f90612f38565b506000908152600f602052604090205490565b610c3c83838360405180602001604052806000815250611718565b33610fbf6115f4565b6001600160a01b031614610fe55760405162461bcd60e51b8152600401610a7f90612f66565b610c3c6001600160a01b038416828461200c565b336110026115f4565b6001600160a01b0316146110285760405162461bcd60e51b8152600401610a7f90612f66565b428110156110485760405162461bcd60e51b8152600401610a7f906130eb565b601655565b606061105884611422565b83106110a357604080516000808252602082019092529061109b565b60408051808201909152600080825260208201528152602001906001900390816110745790505b5090506111b1565b816110ad85611422565b6110b78486612fb1565b106110d357836110c686611422565b6110d09190613122565b90505b60008167ffffffffffffffff8111156110ee576110ee612dd9565b60405190808252806020026020018201604052801561113357816020015b604080518082019091526000808252602082015281526020019060019003908161110c5790505b50905060005b828110156111ac57600061115188610516848a612fb1565b90506040518060400160405280828152602001600f60008481526020019081526020016000205481525083838151811061118d5761118d613139565b60200260200101819052505080806111a49061307f565b915050611139565b509150505b9392505050565b60006111c360085490565b82106112265760405162461bcd60e51b815260206004820152602c60248201527f455243373231456e756d657261626c653a20676c6f62616c20696e646578206f60448201526b7574206f6620626f756e647360a01b6064820152608401610a7f565b6008828154811061123957611239613139565b90600052602060002001549050919050565b336112546115f4565b6001600160a01b03161461127a5760405162461bcd60e51b8152600401610a7f90612f66565b610c3c600e8383612a1b565b600d546001600160a01b0316336001600160a01b0316146112f45760405162461bcd60e51b815260206004820152602260248201527f6d736773656e64657220646f6573206e6f742068617665207065726d6973736960448201526137b760f11b6064820152608401610a7f565b6000828152600f6020526040902054156113205760405162461bcd60e51b8152600401610a7f90613039565b600181148061132f5750600281145b61134b5760405162461bcd60e51b8152600401610a7f9061300b565b6000828152600f602090815260409182902083905581518481529081018390527f99bfcaa3dc7409b462b5c2023b3fd711f104e8fc2f126ed387e6af9abbd9c94591015b60405180910390a15050565b600a54600160a01b900460ff1690565b6000818152600260205260408120546001600160a01b0316806109c05760405162461bcd60e51b815260206004820152602960248201527f4552433732313a206f776e657220717565727920666f72206e6f6e657869737460448201526832b73a103a37b5b2b760b91b6064820152608401610a7f565b60006001600160a01b03821661148d5760405162461bcd60e51b815260206004820152602a60248201527f4552433732313a2062616c616e636520717565727920666f7220746865207a65604482015269726f206164647265737360b01b6064820152608401610a7f565b506001600160a01b031660009081526003602052604090205490565b336114b26115f4565b6001600160a01b0316146114d85760405162461bcd60e51b8152600401610a7f90612f66565b6114e2600061205e565b565b6114ec61139b565b156115095760405162461bcd60e51b8152600401610a7f9061314f565b61151161161d565b61152d5760405162461bcd60e51b8152600401610a7f90613179565b60008111801561153e5750600a8111155b61155a5760405162461bcd60e51b8152600401610a7f906131a8565b6115676032612710613122565b816011546115759190612fb1565b11156115935760405162461bcd60e51b8152600401610a7f90612fc9565b60006115a7826714d1120d7b1600006131e9565b9050803410156115c95760405162461bcd60e51b8152600401610a7f90613208565b81601160008282546115db9190612fb1565b909155506115f0905082336120b0565b6120b0565b5050565b600a546001600160a01b031690565b6060600180546109d590612efd565b6115f03383836120f3565b600060155460001415801561163457506015544210155b905090565b336116426115f4565b6001600160a01b0316146116685760405162461bcd60e51b8152600401610a7f90612f66565b804710156116885760405162461bcd60e51b8152600401610a7f90613208565b6040513390600090829084908381818185875af1925050503d80600081146116cc576040519150601f19603f3d011682016040523d82523d6000602084013e6116d1565b606091505b5050905080610c3c5760405162461bcd60e51b815260206004820152601360248201527208cc2d2d8cac840e8de40e6cadcc84082ac82b606b1b6044820152606401610a7f565b6117223383611d9b565b61173e5760405162461bcd60e51b8152600401610a7f9061309a565b610e40848484846121be565b336117536115f4565b6001600160a01b0316146117795760405162461bcd60e51b8152600401610a7f90612f66565b600d80546001600160a01b0319166001600160a01b0392909216919091179055565b60606117a682611c79565b61180a5760405162461bcd60e51b815260206004820152602f60248201527f4552433732314d657461646174613a2055524920717565727920666f72206e6f60448201526e3732bc34b9ba32b73a103a37b5b2b760891b6064820152608401610a7f565b6118126121f1565b61181b83612200565b60405160200161182c929190613231565b6040516020818303038152906040529050919050565b600e805461184f90612efd565b80601f016020809104026020016040519081016040528092919081815260200182805461187b90612efd565b80156118c85780601f1061189d576101008083540402835291602001916118c8565b820191906000526020600020905b8154815290600101906020018083116118ab57829003601f168201915b505050505081565b6118d861139b565b156118f55760405162461bcd60e51b8152600401610a7f9061314f565b6118fd611c0f565b6119195760405162461bcd60e51b8152600401610a7f90613179565b60008111801561192a5750600a8111155b6119465760405162461bcd60e51b8152600401610a7f906131a8565b612710816012546119579190612fb1565b11156119755760405162461bcd60e51b8152600401610a7f90612fc9565b60008160175461198591906131e9565b600b546040516370a0823160e01b815233600482015291925082916001600160a01b03909116906370a0823190602401602060405180830381865afa1580156119d2573d6000803e3d6000fd5b505050506040513d601f19601f820116820180604052508101906119f6919061327f565b1015611a3d5760405162461bcd60e51b81526020600482015260166024820152756e6f7420656e6f7567682056494e5441474557494e4560501b6044820152606401610a7f565b61138860125411158015611a5f575061138882601254611a5d9190612fb1565b115b15611a7657601754611a729060026131e9565b6017555b8160126000828254611a889190612fb1565b9091555050600b546001600160a01b0316639dc29fac336040516001600160e01b031960e084901b1681526001600160a01b03909116600482015260248101849052604401600060405180830381600087803b158015611ae757600080fd5b505af1158015611afb573d6000803e3d6000fd5b505050506115f0826115eb3390565b600c546000906001600160a01b031615801590611b345750600c546001600160a01b038381169116145b15611b41575060016109c0565b6001600160a01b0380841660009081526005602090815260408083209386168352929052205460ff166111b1565b33611b786115f4565b6001600160a01b031614611b9e5760405162461bcd60e51b8152600401610a7f90612f66565b6001600160a01b038116611c035760405162461bcd60e51b815260206004820152602660248201527f4f776e61626c653a206e6577206f776e657220697320746865207a65726f206160448201526564647265737360d01b6064820152608401610a7f565b611c0c8161205e565b50565b600060165460001415801561163457505060165442101590565b60006001600160e01b031982166380ac58cd60e01b1480611c5a57506001600160e01b03198216635b5e139f60e01b145b806109c057506301ffc9a760e01b6001600160e01b03198316146109c0565b6000908152600260205260409020546001600160a01b0316151590565b600081815260046020526040902080546001600160a01b0319166001600160a01b0384169081179091558190611ccb826113ab565b6001600160a01b03167f8c5be1e5ebec7d5bd14f71427d1e84f3dd0314c0f7b2291e5b200ac8c7c3b92560405160405180910390a45050565b611d1061271080612fb1565b6014541115611d615760405162461bcd60e51b815260206004820152601c60248201527f63616e6e6f74206d696e7420616e796d6f72652076696e746e657273000000006044820152606401610a7f565b611d6b82826122fe565b6040518181527f3926193096e67dd1d3b1874999e37846ff022578abd9b20fe806f5dcb52d788d9060200161138f565b6000611da682611c79565b611e075760405162461bcd60e51b815260206004820152602c60248201527f4552433732313a206f70657261746f7220717565727920666f72206e6f6e657860448201526b34b9ba32b73a103a37b5b2b760a11b6064820152608401610a7f565b6000611e12836113ab565b9050806001600160a01b0316846001600160a01b03161480611e395750611e398185611b0a565b80611e5d5750836001600160a01b0316611e5284610aa8565b6001600160a01b0316145b949350505050565b826001600160a01b0316611e78826113ab565b6001600160a01b031614611edc5760405162461bcd60e51b815260206004820152602560248201527f4552433732313a207472616e736665722066726f6d20696e636f72726563742060448201526437bbb732b960d91b6064820152608401610a7f565b6001600160a01b038216611f3e5760405162461bcd60e51b8152602060048201526024808201527f4552433732313a207472616e7366657220746f20746865207a65726f206164646044820152637265737360e01b6064820152608401610a7f565b611f49838383612318565b611f54600082611c96565b6001600160a01b0383166000908152600360205260408120805460019290611f7d908490613122565b90915550506001600160a01b0382166000908152600360205260408120805460019290611fab908490612fb1565b909155505060008181526002602052604080822080546001600160a01b0319166001600160a01b0386811691821790925591518493918716917fddf252ad1be2c89b69c2b068fc378daa952ba7f163c4a11628f55a4df523b3ef91a4505050565b604080516001600160a01b038416602482015260448082018490528251808303909101815260649091019091526020810180516001600160e01b031663a9059cbb60e01b179052610c3c9084906123d0565b600a80546001600160a01b038381166001600160a01b0319831681179093556040519116919082907f8be0079c531659141344cd1fd0a4f28419497f9722a3daafe3b4186f6b6457e090600090a35050565b60005b82811015610c3c576001601460008282546120ce9190612fb1565b925050819055506120e182601454611d04565b806120eb8161307f565b9150506120b3565b816001600160a01b0316836001600160a01b031614156121515760405162461bcd60e51b815260206004820152601960248201527822a9219b99189d1030b8383937bb32903a379031b0b63632b960391b6044820152606401610a7f565b6001600160a01b03838116600081815260056020908152604080832094871680845294825291829020805460ff191686151590811790915591519182527f17307eab39ab6107e8899845ad3d59bd9653f200f220920489ca2b5937696c31910160405180910390a3505050565b6121c9848484611e65565b6121d5848484846124a2565b610e405760405162461bcd60e51b8152600401610a7f90613298565b6060600e80546109d590612efd565b6060816122245750506040805180820190915260018152600360fc1b602082015290565b8160005b811561224e57806122388161307f565b91506122479050600a83613300565b9150612228565b60008167ffffffffffffffff81111561226957612269612dd9565b6040519080825280601f01601f191660200182016040528015612293576020820181803683370190505b5090505b8415611e5d576122a8600183613122565b91506122b5600a86613314565b6122c0906030612fb1565b60f81b8183815181106122d5576122d5613139565b60200101906001600160f81b031916908160001a9053506122f7600a86613300565b9450612297565b6115f08282604051806020016040528060008152506125a0565b6001600160a01b0383166123735761236e81600880546000838152600960205260408120829055600182018355919091527ff3f7a9fe364faab93b216da50a3214154f22a0a2b415b23a84c8169e8b636ee30155565b612396565b816001600160a01b0316836001600160a01b0316146123965761239683826125d3565b6001600160a01b0382166123ad57610c3c81612670565b826001600160a01b0316826001600160a01b031614610c3c57610c3c828261271f565b6000612425826040518060400160405280602081526020017f5361666545524332303a206c6f772d6c6576656c2063616c6c206661696c6564815250856001600160a01b03166127639092919063ffffffff16565b805190915015610c3c57808060200190518101906124439190613328565b610c3c5760405162461bcd60e51b815260206004820152602a60248201527f5361666545524332303a204552433230206f7065726174696f6e20646964206e6044820152691bdd081cdd58d8d9595960b21b6064820152608401610a7f565b60006001600160a01b0384163b1561259557604051630a85bd0160e11b81526001600160a01b0385169063150b7a02906124e6903390899088908890600401613345565b6020604051808303816000875af1925050508015612521575060408051601f3d908101601f1916820190925261251e91810190613382565b60015b61257b573d80801561254f576040519150601f19603f3d011682016040523d82523d6000602084013e612554565b606091505b5080516125735760405162461bcd60e51b8152600401610a7f90613298565b805181602001fd5b6001600160e01b031916630a85bd0160e11b149050611e5d565b506001949350505050565b6125aa8383612772565b6125b760008484846124a2565b610c3c5760405162461bcd60e51b8152600401610a7f90613298565b600060016125e084611422565b6125ea9190613122565b60008381526007602052604090205490915080821461263d576001600160a01b03841660009081526006602090815260408083208584528252808320548484528184208190558352600790915290208190555b5060009182526007602090815260408084208490556001600160a01b039094168352600681528383209183525290812055565b60085460009061268290600190613122565b600083815260096020526040812054600880549394509092849081106126aa576126aa613139565b9060005260206000200154905080600883815481106126cb576126cb613139565b60009182526020808320909101929092558281526009909152604080822084905585825281205560088054806127035761270361339f565b6001900381819060005260206000200160009055905550505050565b600061272a83611422565b6001600160a01b039093166000908152600660209081526040808320868452825280832085905593825260079052919091209190915550565b6060611e5d84846000856128b1565b6001600160a01b0382166127c85760405162461bcd60e51b815260206004820181905260248201527f4552433732313a206d696e7420746f20746865207a65726f20616464726573736044820152606401610a7f565b6127d181611c79565b1561281e5760405162461bcd60e51b815260206004820152601c60248201527f4552433732313a20746f6b656e20616c7265616479206d696e746564000000006044820152606401610a7f565b61282a60008383612318565b6001600160a01b0382166000908152600360205260408120805460019290612853908490612fb1565b909155505060008181526002602052604080822080546001600160a01b0319166001600160a01b03861690811790915590518392907fddf252ad1be2c89b69c2b068fc378daa952ba7f163c4a11628f55a4df523b3ef908290a45050565b6060824710156129125760405162461bcd60e51b815260206004820152602660248201527f416464726573733a20696e73756666696369656e742062616c616e636520666f6044820152651c8818d85b1b60d21b6064820152608401610a7f565b6001600160a01b0385163b6129695760405162461bcd60e51b815260206004820152601d60248201527f416464726573733a2063616c6c20746f206e6f6e2d636f6e74726163740000006044820152606401610a7f565b600080866001600160a01b0316858760405161298591906133b5565b60006040518083038185875af1925050503d80600081146129c2576040519150601f19603f3d011682016040523d82523d6000602084013e6129c7565b606091505b50915091506129d78282866129e2565b979650505050505050565b606083156129f15750816111b1565b825115612a015782518084602001fd5b8160405162461bcd60e51b8152600401610a7f9190612b3f565b828054612a2790612efd565b90600052602060002090601f016020900481019282612a495760008555612a8f565b82601f10612a625782800160ff19823516178555612a8f565b82800160010185558215612a8f579182015b82811115612a8f578235825591602001919060010190612a74565b50612a9b929150612a9f565b5090565b5b80821115612a9b5760008155600101612aa0565b6001600160e01b031981168114611c0c57600080fd5b600060208284031215612adc57600080fd5b81356111b181612ab4565b60005b83811015612b02578181015183820152602001612aea565b83811115610e405750506000910152565b60008151808452612b2b816020860160208601612ae7565b601f01601f19169290920160200192915050565b6020815260006111b16020830184612b13565b600060208284031215612b6457600080fd5b5035919050565b6001600160a01b0381168114611c0c57600080fd5b60008060408385031215612b9357600080fd5b8235612b9e81612b6b565b946020939093013593505050565b600060208284031215612bbe57600080fd5b81356111b181612b6b565b600080600060608486031215612bde57600080fd5b83359250602084013591506040840135612bf781612b6b565b809150509250925092565b600080600060608486031215612c1757600080fd5b8335612c2281612b6b565b92506020840135612c3281612b6b565b929592945050506040919091013590565b600080600060608486031215612c5857600080fd5b8335612c6381612b6b565b9250602084013591506040840135612bf781612b6b565b600080600060608486031215612c8f57600080fd5b8335612c9a81612b6b565b95602085013595506040909401359392505050565b602080825282518282018190526000919060409081850190868401855b82811015612cf157815180518552860151868501529284019290850190600101612ccc565b5091979650505050505050565b60008060208385031215612d1157600080fd5b823567ffffffffffffffff80821115612d2957600080fd5b818501915085601f830112612d3d57600080fd5b813581811115612d4c57600080fd5b866020828501011115612d5e57600080fd5b60209290920196919550909350505050565b60008060408385031215612d8357600080fd5b50508035926020909101359150565b8015158114611c0c57600080fd5b60008060408385031215612db357600080fd5b8235612dbe81612b6b565b91506020830135612dce81612d92565b809150509250929050565b634e487b7160e01b600052604160045260246000fd5b60008060008060808587031215612e0557600080fd5b8435612e1081612b6b565b93506020850135612e2081612b6b565b925060408501359150606085013567ffffffffffffffff80821115612e4457600080fd5b818701915087601f830112612e5857600080fd5b813581811115612e6a57612e6a612dd9565b604051601f8201601f19908116603f01168101908382118183101715612e9257612e92612dd9565b816040528281528a6020848701011115612eab57600080fd5b82602086016020830137600060208483010152809550505050505092959194509250565b60008060408385031215612ee257600080fd5b8235612eed81612b6b565b91506020830135612dce81612b6b565b600181811c90821680612f1157607f821691505b60208210811415612f3257634e487b7160e01b600052602260045260246000fd5b50919050565b6020808252601490820152731d1bdad95b88191bd95cc81b9bdd08195e1a5cdd60621b604082015260600190565b6020808252818101527f4f776e61626c653a2063616c6c6572206973206e6f7420746865206f776e6572604082015260600190565b634e487b7160e01b600052601160045260246000fd5b60008219821115612fc457612fc4612f9b565b500190565b60208082526022908201527f796f752063616e2774206d696e742074686174206d616e79207269676874206e6040820152616f7760f01b606082015260800190565b602080825260149082015273696e76616c69642076696e746e6572207479706560601b604082015260600190565b60208082526026908201527f7468617420746f6b656e277320747970652068617320616c7265616479206265604082015265195b881cd95d60d21b606082015260800190565b600060001982141561309357613093612f9b565b5060010190565b60208082526031908201527f4552433732313a207472616e736665722063616c6c6572206973206e6f74206f6040820152701ddb995c881b9bdc88185c1c1c9bdd9959607a1b606082015260800190565b6020808252601f908201527f737461727454696d652063616e6e6f7420626520696e20746865207061737400604082015260600190565b60008282101561313457613134612f9b565b500390565b634e487b7160e01b600052603260045260246000fd5b60208082526010908201526f14185d5cd8589b194e881c185d5cd95960821b604082015260600190565b60208082526015908201527463616e6e6f74206d696e74207269676874206e6f7760581b604082015260600190565b60208082526021908201527f7175616e74697479206d757374206265206265747765656e203120616e6420316040820152600360fc1b606082015260800190565b600081600019048311821515161561320357613203612f9b565b500290565b6020808252600f908201526e0dcdee840cadcdeeaced04082ac82b608b1b604082015260600190565b60008351613243818460208801612ae7565b602f60f81b9083019081528351613261816001840160208801612ae7565b64173539b7b760d91b60019290910191820152600601949350505050565b60006020828403121561329157600080fd5b5051919050565b60208082526032908201527f4552433732313a207472616e7366657220746f206e6f6e20455243373231526560408201527131b2b4bb32b91034b6b83632b6b2b73a32b960711b606082015260800190565b634e487b7160e01b600052601260045260246000fd5b60008261330f5761330f6132ea565b500490565b600082613323576133236132ea565b500690565b60006020828403121561333a57600080fd5b81516111b181612d92565b6001600160a01b038581168252841660208201526040810183905260806060820181905260009061337890830184612b13565b9695505050505050565b60006020828403121561339457600080fd5b81516111b181612ab4565b634e487b7160e01b600052603160045260246000fd5b600082516133c7818460208701612ae7565b919091019291505056fea2646970667358221220eb0f8d91e68b5c785bfc214fbe886853b494a300870c62ce5525910427c2e34064736f6c634300080b0033"
}