{
  "address": "0x5FbDB2315678afecb367f032d93F642f64180aa3",
  "abi": [
    {
      "anonymous": false,
      "inputs": [
        {
          "indexed": true,
          "internalType": "address",
          "name": "owner",
          "type": "address"
        },
        {
          "indexed": true,
          "internalType": "address",
          "name": "spender",
          "type": "address"
        },
        {
          "indexed": false,
          "internalType": "uint256",
          "name": "value",
          "type": "uint256"
        }
      ],
      "name": "Approval",
      "type": "event"
    },
    {
      "anonymous": false,
      "inputs": [
        {
          "indexed": true,
          "internalType": "address",
          "name": "previousOwner",
          "type": "address"
        },
        {
          "indexed": true,
          "internalType": "address",
          "name": "newOwner",
          "type": "address"
        }
      ],
      "name": "OwnershipTransferred",
      "type": "event"
    },
    {
      "anonymous": false,
      "inputs": [
        {
          "indexed": true,
          "internalType": "address",
          "name": "from",
          "type": "address"
        },
        {
          "indexed": true,
          "internalType": "address",
          "name": "to",
          "type": "address"
        },
        {
          "indexed": false,
          "internalType": "uint256",
          "name": "value",
          "type": "uint256"
        }
      ],
      "name": "Transfer",
      "type": "event"
    },
    {
      "inputs": [
        {
          "internalType": "address",
          "name": "owner",
          "type": "address"
        },
        {
          "internalType": "address",
          "name": "spender",
          "type": "address"
        }
      ],
      "name": "allowance",
      "outputs": [
        {
          "internalType": "uint256",
          "name": "",
          "type": "uint256"
        }
      ],
      "stateMutability": "view",
      "type": "function"
    },
    {
      "inputs": [
        {
          "internalType": "address",
          "name": "spender",
          "type": "address"
        },
        {
          "internalType": "uint256",
          "name": "amount",
          "type": "uint256"
        }
      ],
      "name": "approve",
      "outputs": [
        {
          "internalType": "bool",
          "name": "",
          "type": "bool"
        }
      ],
      "stateMutability": "nonpayable",
      "type": "function"
    },
    {
      "inputs": [
        {
          "internalType": "address",
          "name": "account",
          "type": "address"
        }
      ],
      "name": "balanceOf",
      "outputs": [
        {
          "internalType": "uint256",
          "name": "",
          "type": "uint256"
        }
      ],
      "stateMutability": "view",
      "type": "function"
    },
    {
      "inputs": [
        {
          "internalType": "address",
          "name": "_from",
          "type": "address"
        },
        {
          "internalType": "uint256",
          "name": "_amount",
          "type": "uint256"
        }
      ],
      "name": "burn",
      "outputs": [],
      "stateMutability": "nonpayable",
      "type": "function"
    },
    {
      "inputs": [],
      "name": "cellarAddress",
      "outputs": [
        {
          "internalType": "address",
          "name": "",
          "type": "address"
        }
      ],
      "stateMutability": "view",
      "type": "function"
    },
    {
      "inputs": [],
      "name": "decimals",
      "outputs": [
        {
          "internalType": "uint8",
          "name": "",
          "type": "uint8"
        }
      ],
      "stateMutability": "view",
      "type": "function"
    },
    {
      "inputs": [
        {
          "internalType": "address",
          "name": "spender",
          "type": "address"
        },
        {
          "internalType": "uint256",
          "name": "subtractedValue",
          "type": "uint256"
        }
      ],
      "name": "decreaseAllowance",
      "outputs": [
        {
          "internalType": "bool",
          "name": "",
          "type": "bool"
        }
      ],
      "stateMutability": "nonpayable",
      "type": "function"
    },
    {
      "inputs": [
        {
          "internalType": "address",
          "name": "spender",
          "type": "address"
        },
        {
          "internalType": "uint256",
          "name": "addedValue",
          "type": "uint256"
        }
      ],
      "name": "increaseAllowance",
      "outputs": [
        {
          "internalType": "bool",
          "name": "",
          "type": "bool"
        }
      ],
      "stateMutability": "nonpayable",
      "type": "function"
    },
    {
      "inputs": [
        {
          "internalType": "address",
          "name": "_to",
          "type": "address"
        },
        {
          "internalType": "uint256",
          "name": "_amount",
          "type": "uint256"
        }
      ],
      "name": "mint",
      "outputs": [],
      "stateMutability": "nonpayable",
      "type": "function"
    },
    {
      "inputs": [
        {
          "internalType": "address",
          "name": "_to",
          "type": "address"
        },
        {
          "internalType": "uint256",
          "name": "amount",
          "type": "uint256"
        }
      ],
      "name": "mintVintageWine",
      "outputs": [],
      "stateMutability": "nonpayable",
      "type": "function"
    },
    {
      "inputs": [],
      "name": "name",
      "outputs": [
        {
          "internalType": "string",
          "name": "",
          "type": "string"
        }
      ],
      "stateMutability": "view",
      "type": "function"
    },
    {
      "inputs": [],
      "name": "owner",
      "outputs": [
        {
          "internalType": "address",
          "name": "",
          "type": "address"
        }
      ],
      "stateMutability": "view",
      "type": "function"
    },
    {
      "inputs": [],
      "name": "renounceOwnership",
      "outputs": [],
      "stateMutability": "nonpayable",
      "type": "function"
    },
    {
      "inputs": [
        {
          "internalType": "address",
          "name": "_cellarAddress",
          "type": "address"
        }
      ],
      "name": "setCellarAddress",
      "outputs": [],
      "stateMutability": "nonpayable",
      "type": "function"
    },
    {
      "inputs": [
        {
          "internalType": "address",
          "name": "_upgradeAddress",
          "type": "address"
        }
      ],
      "name": "setUpgradeAddress",
      "outputs": [],
      "stateMutability": "nonpayable",
      "type": "function"
    },
    {
      "inputs": [
        {
          "internalType": "address",
          "name": "_wineryAddress",
          "type": "address"
        }
      ],
      "name": "setWineryAddress",
      "outputs": [],
      "stateMutability": "nonpayable",
      "type": "function"
    },
    {
      "inputs": [],
      "name": "symbol",
      "outputs": [
        {
          "internalType": "string",
          "name": "",
          "type": "string"
        }
      ],
      "stateMutability": "view",
      "type": "function"
    },
    {
      "inputs": [],
      "name": "totalSupply",
      "outputs": [
        {
          "internalType": "uint256",
          "name": "",
          "type": "uint256"
        }
      ],
      "stateMutability": "view",
      "type": "function"
    },
    {
      "inputs": [
        {
          "internalType": "address",
          "name": "to",
          "type": "address"
        },
        {
          "internalType": "uint256",
          "name": "amount",
          "type": "uint256"
        }
      ],
      "name": "transfer",
      "outputs": [
        {
          "internalType": "bool",
          "name": "",
          "type": "bool"
        }
      ],
      "stateMutability": "nonpayable",
      "type": "function"
    },
    {
      "inputs": [
        {
          "internalType": "address",
          "name": "_from",
          "type": "address"
        },
        {
          "internalType": "uint256",
          "name": "_amount",
          "type": "uint256"
        }
      ],
      "name": "transferForUpgradesFees",
      "outputs": [],
      "stateMutability": "nonpayable",
      "type": "function"
    },
    {
      "inputs": [
        {
          "internalType": "address",
          "name": "from",
          "type": "address"
        },
        {
          "internalType": "address",
          "name": "to",
          "type": "address"
        },
        {
          "internalType": "uint256",
          "name": "amount",
          "type": "uint256"
        }
      ],
      "name": "transferFrom",
      "outputs": [
        {
          "internalType": "bool",
          "name": "",
          "type": "bool"
        }
      ],
      "stateMutability": "nonpayable",
      "type": "function"
    },
    {
      "inputs": [
        {
          "internalType": "address",
          "name": "newOwner",
          "type": "address"
        }
      ],
      "name": "transferOwnership",
      "outputs": [],
      "stateMutability": "nonpayable",
      "type": "function"
    },
    {
      "inputs": [
        {
          "internalType": "address",
          "name": "_from",
          "type": "address"
        },
        {
          "internalType": "uint256",
          "name": "_amount",
          "type": "uint256"
        }
      ],
      "name": "transferToCellar",
      "outputs": [],
      "stateMutability": "nonpayable",
      "type": "function"
    },
    {
      "inputs": [],
      "name": "upgradeAddress",
      "outputs": [
        {
          "internalType": "address",
          "name": "",
          "type": "address"
        }
      ],
      "stateMutability": "view",
      "type": "function"
    },
    {
      "inputs": [],
      "name": "wineryAddress",
      "outputs": [
        {
          "internalType": "address",
          "name": "",
          "type": "address"
        }
      ],
      "stateMutability": "view",
      "type": "function"
    }
  ],
  "transactionHash": "0x9773063e3f3fca75504510aad5db69f6e0ddcad4c0ddd9babf652359e3a4d68b",
  "args": [],
  "solcInputHash": "4f0f4cc2ba9b504f6f940f0b03ce7082",
  "bytecode": "0x60806040523480156200001157600080fd5b506040518060400160405280600b81526020016a56696e7461676557696e6560a81b8152506040518060400160405280600b81526020016a56494e5441474557494e4560a81b81525081600390805190602001906200007292919062000101565b5080516200008890600490602084019062000101565b505050620000a56200009f620000ab60201b60201c565b620000af565b620001e4565b3390565b600580546001600160a01b038381166001600160a01b0319831681179093556040519116919082907f8be0079c531659141344cd1fd0a4f28419497f9722a3daafe3b4186f6b6457e090600090a35050565b8280546200010f90620001a7565b90600052602060002090601f0160209004810192826200013357600085556200017e565b82601f106200014e57805160ff19168380011785556200017e565b828001600101855582156200017e579182015b828111156200017e57825182559160200191906001019062000161565b506200018c92915062000190565b5090565b5b808211156200018c576000815560010162000191565b600181811c90821680620001bc57607f821691505b60208210811415620001de57634e487b7160e01b600052602260045260246000fd5b50919050565b61124780620001f46000396000f3fe608060405234801561001057600080fd5b50600436106101635760003560e01c806370a08231116100ce578063a457c2d711610087578063a457c2d7146102e3578063a9059cbb146102f6578063bca6c75314610309578063ca39ec511461031c578063dd62ed3e1461032f578063f2fde38b14610342578063f46470611461035557600080fd5b806370a082311461027c578063715018a6146102a5578063735d09a6146102ad5780638da5cb5b146102c057806395d89b41146102c85780639dc29fac146102d057600080fd5b8063313ce56711610120578063313ce567146101f657806339509351146102055780633f747e241461021857806340c10f1914610243578063631f0d661461025657806366f9c99e1461026957600080fd5b806306fdde0314610168578063095ea7b314610186578063097f1f2f146101a957806318160ddd146101be57806323b872dd146101d05780632ff3b415146101e3575b600080fd5b610170610368565b60405161017d9190610f97565b60405180910390f35b610199610194366004611008565b6103fa565b604051901515815260200161017d565b6101bc6101b7366004611032565b610412565b005b6002545b60405190815260200161017d565b6101996101de366004611054565b61046c565b6101bc6101f1366004611032565b610490565b6040516012815260200161017d565b610199610213366004611008565b6104e1565b60065461022b906001600160a01b031681565b6040516001600160a01b03909116815260200161017d565b6101bc610251366004611008565b610503565b60085461022b906001600160a01b031681565b6101bc610277366004611032565b61059a565b6101c261028a366004611032565b6001600160a01b031660009081526020819052604090205490565b6101bc6105eb565b60075461022b906001600160a01b031681565b61022b610626565b610170610635565b6101bc6102de366004611008565b610644565b6101996102f1366004611008565b6106df565b610199610304366004611008565b61075a565b6101bc610317366004611008565b610768565b6101bc61032a366004611008565b610831565b6101c261033d366004611090565b6108ef565b6101bc610350366004611032565b61091a565b6101bc610363366004611008565b6109ba565b606060038054610377906110c3565b80601f01602080910402602001604051908101604052809291908181526020018280546103a3906110c3565b80156103f05780601f106103c5576101008083540402835291602001916103f0565b820191906000526020600020905b8154815290600101906020018083116103d357829003601f168201915b5050505050905090565b6000336104088185856109e9565b5060019392505050565b3361041b610626565b6001600160a01b03161461044a5760405162461bcd60e51b8152600401610441906110fe565b60405180910390fd5b600780546001600160a01b0319166001600160a01b0392909216919091179055565b60003361047a858285610b0e565b610485858585610b88565b506001949350505050565b33610499610626565b6001600160a01b0316146104bf5760405162461bcd60e51b8152600401610441906110fe565b600680546001600160a01b0319166001600160a01b0392909216919091179055565b6000336104088185856104f483836108ef565b6104fe9190611149565b6109e9565b6007546001600160a01b03161580159061052757506006546001600160a01b031615155b801561053d57506008546001600160a01b031615155b6105595760405162461bcd60e51b815260040161044190611161565b6007546001600160a01b0316336001600160a01b03161461058c5760405162461bcd60e51b815260040161044190611198565b6105968282610d44565b5050565b336105a3610626565b6001600160a01b0316146105c95760405162461bcd60e51b8152600401610441906110fe565b600880546001600160a01b0319166001600160a01b0392909216919091179055565b336105f4610626565b6001600160a01b03161461061a5760405162461bcd60e51b8152600401610441906110fe565b6106246000610e11565b565b6005546001600160a01b031690565b606060048054610377906110c3565b6006546001600160a01b03161580159061066857506008546001600160a01b031615155b6106845760405162461bcd60e51b815260040161044190611161565b6006546001600160a01b0316336001600160a01b031614806106b957506008546001600160a01b0316336001600160a01b0316145b6106d55760405162461bcd60e51b815260040161044190611198565b6105968282610e63565b600033816106ed82866108ef565b90508381101561074d5760405162461bcd60e51b815260206004820152602560248201527f45524332303a2064656372656173656420616c6c6f77616e63652062656c6f77604482015264207a65726f60d81b6064820152608401610441565b61048582868684036109e9565b600033610408818585610b88565b6008546001600160a01b03166107905760405162461bcd60e51b815260040161044190611161565b6008546001600160a01b0316336001600160a01b0316146108195760405162461bcd60e51b815260206004820152603a60248201527f6f6e6c7920746865207570677261646520636f6e74726163742063616e20636160448201527f6c6c207472616e73666572466f725570677261646573466565730000000000006064820152608401610441565b6008546105969083906001600160a01b031683610b88565b6006546001600160a01b03166108595760405162461bcd60e51b815260040161044190611161565b6006546001600160a01b0316336001600160a01b0316146108d75760405162461bcd60e51b815260206004820152603260248201527f6f6e6c79207468652063656c6c617220636f6e74726163742063616e2063616c60448201527136103a3930b739b332b92a37a1b2b63630b960711b6064820152608401610441565b6006546105969083906001600160a01b031683610b88565b6001600160a01b03918216600090815260016020908152604080832093909416825291909152205490565b33610923610626565b6001600160a01b0316146109495760405162461bcd60e51b8152600401610441906110fe565b6001600160a01b0381166109ae5760405162461bcd60e51b815260206004820152602660248201527f4f776e61626c653a206e6577206f776e657220697320746865207a65726f206160448201526564647265737360d01b6064820152608401610441565b6109b781610e11565b50565b336109c3610626565b6001600160a01b03161461058c5760405162461bcd60e51b8152600401610441906110fe565b6001600160a01b038316610a4b5760405162461bcd60e51b8152602060048201526024808201527f45524332303a20617070726f76652066726f6d20746865207a65726f206164646044820152637265737360e01b6064820152608401610441565b6001600160a01b038216610aac5760405162461bcd60e51b815260206004820152602260248201527f45524332303a20617070726f766520746f20746865207a65726f206164647265604482015261737360f01b6064820152608401610441565b6001600160a01b0383811660008181526001602090815260408083209487168084529482529182902085905590518481527f8c5be1e5ebec7d5bd14f71427d1e84f3dd0314c0f7b2291e5b200ac8c7c3b92591015b60405180910390a3505050565b6000610b1a84846108ef565b90506000198114610b825781811015610b755760405162461bcd60e51b815260206004820152601d60248201527f45524332303a20696e73756666696369656e7420616c6c6f77616e63650000006044820152606401610441565b610b8284848484036109e9565b50505050565b6001600160a01b038316610bec5760405162461bcd60e51b815260206004820152602560248201527f45524332303a207472616e736665722066726f6d20746865207a65726f206164604482015264647265737360d81b6064820152608401610441565b6001600160a01b038216610c4e5760405162461bcd60e51b815260206004820152602360248201527f45524332303a207472616e7366657220746f20746865207a65726f206164647260448201526265737360e81b6064820152608401610441565b6001600160a01b03831660009081526020819052604090205481811015610cc65760405162461bcd60e51b815260206004820152602660248201527f45524332303a207472616e7366657220616d6f756e7420657863656564732062604482015265616c616e636560d01b6064820152608401610441565b6001600160a01b03808516600090815260208190526040808220858503905591851681529081208054849290610cfd908490611149565b92505081905550826001600160a01b0316846001600160a01b03166000805160206111f283398151915284604051610d3791815260200190565b60405180910390a3610b82565b6001600160a01b038216610d9a5760405162461bcd60e51b815260206004820152601f60248201527f45524332303a206d696e7420746f20746865207a65726f2061646472657373006044820152606401610441565b8060026000828254610dac9190611149565b90915550506001600160a01b03821660009081526020819052604081208054839290610dd9908490611149565b90915550506040518181526001600160a01b038316906000906000805160206111f28339815191529060200160405180910390a35050565b600580546001600160a01b038381166001600160a01b0319831681179093556040519116919082907f8be0079c531659141344cd1fd0a4f28419497f9722a3daafe3b4186f6b6457e090600090a35050565b6001600160a01b038216610ec35760405162461bcd60e51b815260206004820152602160248201527f45524332303a206275726e2066726f6d20746865207a65726f206164647265736044820152607360f81b6064820152608401610441565b6001600160a01b03821660009081526020819052604090205481811015610f375760405162461bcd60e51b815260206004820152602260248201527f45524332303a206275726e20616d6f756e7420657863656564732062616c616e604482015261636560f01b6064820152608401610441565b6001600160a01b0383166000908152602081905260408120838303905560028054849290610f669084906111da565b90915550506040518281526000906001600160a01b038516906000805160206111f283398151915290602001610b01565b600060208083528351808285015260005b81811015610fc457858101830151858201604001528201610fa8565b81811115610fd6576000604083870101525b50601f01601f1916929092016040019392505050565b80356001600160a01b038116811461100357600080fd5b919050565b6000806040838503121561101b57600080fd5b61102483610fec565b946020939093013593505050565b60006020828403121561104457600080fd5b61104d82610fec565b9392505050565b60008060006060848603121561106957600080fd5b61107284610fec565b925061108060208501610fec565b9150604084013590509250925092565b600080604083850312156110a357600080fd5b6110ac83610fec565b91506110ba60208401610fec565b90509250929050565b600181811c908216806110d757607f821691505b602082108114156110f857634e487b7160e01b600052602260045260246000fd5b50919050565b6020808252818101527f4f776e61626c653a2063616c6c6572206973206e6f7420746865206f776e6572604082015260600190565b634e487b7160e01b600052601160045260246000fd5b6000821982111561115c5761115c611133565b500190565b6020808252601c908201527f6d697373696e6720696e697469616c20726571756972656d656e747300000000604082015260600190565b60208082526022908201527f6d736773656e64657220646f6573206e6f742068617665207065726d6973736960408201526137b760f11b606082015260800190565b6000828210156111ec576111ec611133565b50039056feddf252ad1be2c89b69c2b068fc378daa952ba7f163c4a11628f55a4df523b3efa2646970667358221220c0882ce127f5b7188a99452e597051cb8930f732f4eab3c2ce61a42f3907dd3b64736f6c634300080b0033"
}