{
  "address": "0xDc64a140Aa3E981100a9becA4E685f962f0cF6C9",
  "abi": [
    {
      "inputs": [
        {
          "internalType": "address",
          "name": "_grapeAddress",
          "type": "address"
        },
        {
          "internalType": "address",
          "name": "_couponSigner",
          "type": "address"
        },
        {
          "internalType": "address",
          "name": "_vintnerTypeOracleAddress",
          "type": "address"
        },
        {
          "internalType": "string",
          "name": "_BASE_URI",
          "type": "string"
        }
      ],
      "stateMutability": "nonpayable",
      "type": "constructor"
    },
    {
      "anonymous": false,
      "inputs": [
        {
          "indexed": true,
          "internalType": "address",
          "name": "owner",
          "type": "address"
        },
        {
          "indexed": true,
          "internalType": "address",
          "name": "approved",
          "type": "address"
        },
        {
          "indexed": true,
          "internalType": "uint256",
          "name": "tokenId",
          "type": "uint256"
        }
      ],
      "name": "Approval",
      "type": "event"
    },
    {
      "anonymous": false,
      "inputs": [
        {
          "indexed": true,
          "internalType": "address",
          "name": "owner",
          "type": "address"
        },
        {
          "indexed": true,
          "internalType": "address",
          "name": "operator",
          "type": "address"
        },
        {
          "indexed": false,
          "internalType": "bool",
          "name": "approved",
          "type": "bool"
        }
      ],
      "name": "ApprovalForAll",
      "type": "event"
    },
    {
      "anonymous": false,
      "inputs": [
        {
          "indexed": true,
          "internalType": "address",
          "name": "previousOwner",
          "type": "address"
        },
        {
          "indexed": true,
          "internalType": "address",
          "name": "newOwner",
          "type": "address"
        }
      ],
      "name": "OwnershipTransferred",
      "type": "event"
    },
    {
      "anonymous": false,
      "inputs": [
        {
          "indexed": false,
          "internalType": "address",
          "name": "account",
          "type": "address"
        }
      ],
      "name": "Paused",
      "type": "event"
    },
    {
      "anonymous": false,
      "inputs": [
        {
          "indexed": true,
          "internalType": "address",
          "name": "from",
          "type": "address"
        },
        {
          "indexed": true,
          "internalType": "address",
          "name": "to",
          "type": "address"
        },
        {
          "indexed": true,
          "internalType": "uint256",
          "name": "tokenId",
          "type": "uint256"
        }
      ],
      "name": "Transfer",
      "type": "event"
    },
    {
      "anonymous": false,
      "inputs": [
        {
          "indexed": false,
          "internalType": "address",
          "name": "account",
          "type": "address"
        }
      ],
      "name": "Unpaused",
      "type": "event"
    },
    {
      "anonymous": false,
      "inputs": [
        {
          "indexed": false,
          "internalType": "uint256",
          "name": "tokenId",
          "type": "uint256"
        }
      ],
      "name": "onVintnerCreated",
      "type": "event"
    },
    {
      "anonymous": false,
      "inputs": [
        {
          "indexed": false,
          "internalType": "uint256",
          "name": "tokenId",
          "type": "uint256"
        },
        {
          "indexed": false,
          "internalType": "uint256",
          "name": "vintnerType",
          "type": "uint256"
        }
      ],
      "name": "onVintnerRevealed",
      "type": "event"
    },
    {
      "inputs": [],
      "name": "BASE_URI",
      "outputs": [
        {
          "internalType": "string",
          "name": "",
          "type": "string"
        }
      ],
      "stateMutability": "view",
      "type": "function"
    },
    {
      "inputs": [],
      "name": "MASTER_VINTNER_TYPE",
      "outputs": [
        {
          "internalType": "uint256",
          "name": "",
          "type": "uint256"
        }
      ],
      "stateMutability": "view",
      "type": "function"
    },
    {
      "inputs": [],
      "name": "MASTER_VINTNER_YIELD",
      "outputs": [
        {
          "internalType": "uint256",
          "name": "",
          "type": "uint256"
        }
      ],
      "stateMutability": "view",
      "type": "function"
    },
    {
      "inputs": [],
      "name": "NUM_VINTNERS",
      "outputs": [
        {
          "internalType": "uint256",
          "name": "",
          "type": "uint256"
        }
      ],
      "stateMutability": "view",
      "type": "function"
    },
    {
      "inputs": [],
      "name": "PROMOTIONAL_VINTNERS",
      "outputs": [
        {
          "internalType": "uint256",
          "name": "",
          "type": "uint256"
        }
      ],
      "stateMutability": "view",
      "type": "function"
    },
    {
      "inputs": [],
      "name": "VINTNER_PRICE_AVAX",
      "outputs": [
        {
          "internalType": "uint256",
          "name": "",
          "type": "uint256"
        }
      ],
      "stateMutability": "view",
      "type": "function"
    },
    {
      "inputs": [],
      "name": "VINTNER_PRICE_GRAPE",
      "outputs": [
        {
          "internalType": "uint256",
          "name": "",
          "type": "uint256"
        }
      ],
      "stateMutability": "view",
      "type": "function"
    },
    {
      "inputs": [],
      "name": "VINTNER_TYPE",
      "outputs": [
        {
          "internalType": "uint256",
          "name": "",
          "type": "uint256"
        }
      ],
      "stateMutability": "view",
      "type": "function"
    },
    {
      "inputs": [],
      "name": "VINTNER_YIELD",
      "outputs": [
        {
          "internalType": "uint256",
          "name": "",
          "type": "uint256"
        }
      ],
      "stateMutability": "view",
      "type": "function"
    },
    {
      "inputs": [],
      "name": "WHITELIST_VINTNERS",
      "outputs": [
        {
          "internalType": "uint256",
          "name": "",
          "type": "uint256"
        }
      ],
      "stateMutability": "view",
      "type": "function"
    },
    {
      "inputs": [
        {
          "internalType": "address",
          "name": "to",
          "type": "address"
        },
        {
          "internalType": "uint256",
          "name": "tokenId",
          "type": "uint256"
        }
      ],
      "name": "approve",
      "outputs": [],
      "stateMutability": "nonpayable",
      "type": "function"
    },
    {
      "inputs": [
        {
          "internalType": "address",
          "name": "owner",
          "type": "address"
        }
      ],
      "name": "balanceOf",
      "outputs": [
        {
          "internalType": "uint256",
          "name": "",
          "type": "uint256"
        }
      ],
      "stateMutability": "view",
      "type": "function"
    },
    {
      "inputs": [],
      "name": "couponSigner",
      "outputs": [
        {
          "internalType": "address",
          "name": "",
          "type": "address"
        }
      ],
      "stateMutability": "view",
      "type": "function"
    },
    {
      "inputs": [
        {
          "internalType": "contract IERC20",
          "name": "_token",
          "type": "address"
        },
        {
          "internalType": "uint256",
          "name": "_amount",
          "type": "uint256"
        },
        {
          "internalType": "address",
          "name": "target",
          "type": "address"
        }
      ],
      "name": "forwardERC20s",
      "outputs": [],
      "stateMutability": "nonpayable",
      "type": "function"
    },
    {
      "inputs": [
        {
          "internalType": "uint256",
          "name": "tokenId",
          "type": "uint256"
        }
      ],
      "name": "getApproved",
      "outputs": [
        {
          "internalType": "address",
          "name": "",
          "type": "address"
        }
      ],
      "stateMutability": "view",
      "type": "function"
    },
    {
      "inputs": [
        {
          "internalType": "uint256",
          "name": "_tokenId",
          "type": "uint256"
        }
      ],
      "name": "getType",
      "outputs": [
        {
          "internalType": "uint256",
          "name": "",
          "type": "uint256"
        }
      ],
      "stateMutability": "view",
      "type": "function"
    },
    {
      "inputs": [
        {
          "internalType": "uint256",
          "name": "_tokenId",
          "type": "uint256"
        }
      ],
      "name": "getYield",
      "outputs": [
        {
          "internalType": "uint256",
          "name": "",
          "type": "uint256"
        }
      ],
      "stateMutability": "view",
      "type": "function"
    },
    {
      "inputs": [],
      "name": "grapeAddress",
      "outputs": [
        {
          "internalType": "contract IERC20",
          "name": "",
          "type": "address"
        }
      ],
      "stateMutability": "view",
      "type": "function"
    },
    {
      "inputs": [
        {
          "internalType": "address",
          "name": "_owner",
          "type": "address"
        },
        {
          "internalType": "address",
          "name": "_operator",
          "type": "address"
        }
      ],
      "name": "isApprovedForAll",
      "outputs": [
        {
          "internalType": "bool",
          "name": "",
          "type": "bool"
        }
      ],
      "stateMutability": "view",
      "type": "function"
    },
    {
      "inputs": [
        {
          "internalType": "uint256",
          "name": "qty",
          "type": "uint256"
        },
        {
          "internalType": "uint256",
          "name": "vintnerType",
          "type": "uint256"
        },
        {
          "internalType": "address",
          "name": "target",
          "type": "address"
        }
      ],
      "name": "mintPromotional",
      "outputs": [],
      "stateMutability": "nonpayable",
      "type": "function"
    },
    {
      "inputs": [
        {
          "internalType": "uint256",
          "name": "qty",
          "type": "uint256"
        }
      ],
      "name": "mintVintnerWithAVAX",
      "outputs": [],
      "stateMutability": "payable",
      "type": "function"
    },
    {
      "inputs": [
        {
          "internalType": "uint256",
          "name": "qty",
          "type": "uint256"
        }
      ],
      "name": "mintVintnerWithGrape",
      "outputs": [],
      "stateMutability": "nonpayable",
      "type": "function"
    },
    {
      "inputs": [
        {
          "internalType": "uint256",
          "name": "qty",
          "type": "uint256"
        },
        {
          "internalType": "uint256",
          "name": "allotted",
          "type": "uint256"
        },
        {
          "components": [
            {
              "internalType": "bytes32",
              "name": "r",
              "type": "bytes32"
            },
            {
              "internalType": "bytes32",
              "name": "s",
              "type": "bytes32"
            },
            {
              "internalType": "uint8",
              "name": "v",
              "type": "uint8"
            }
          ],
          "internalType": "struct Vintner.Coupon",
          "name": "coupon",
          "type": "tuple"
        }
      ],
      "name": "mintWhitelist",
      "outputs": [],
      "stateMutability": "nonpayable",
      "type": "function"
    },
    {
      "inputs": [],
      "name": "mintingStarted",
      "outputs": [
        {
          "internalType": "bool",
          "name": "",
          "type": "bool"
        }
      ],
      "stateMutability": "view",
      "type": "function"
    },
    {
      "inputs": [],
      "name": "mintingStartedWhitelist",
      "outputs": [
        {
          "internalType": "bool",
          "name": "",
          "type": "bool"
        }
      ],
      "stateMutability": "view",
      "type": "function"
    },
    {
      "inputs": [],
      "name": "name",
      "outputs": [
        {
          "internalType": "string",
          "name": "",
          "type": "string"
        }
      ],
      "stateMutability": "view",
      "type": "function"
    },
    {
      "inputs": [],
      "name": "owner",
      "outputs": [
        {
          "internalType": "address",
          "name": "",
          "type": "address"
        }
      ],
      "stateMutability": "view",
      "type": "function"
    },
    {
      "inputs": [
        {
          "internalType": "uint256",
          "name": "tokenId",
          "type": "uint256"
        }
      ],
      "name": "ownerOf",
      "outputs": [
        {
          "internalType": "address",
          "name": "",
          "type": "address"
        }
      ],
      "stateMutability": "view",
      "type": "function"
    },
    {
      "inputs": [],
      "name": "paused",
      "outputs": [
        {
          "internalType": "bool",
          "name": "",
          "type": "bool"
        }
      ],
      "stateMutability": "view",
      "type": "function"
    },
    {
      "inputs": [],
      "name": "renounceOwnership",
      "outputs": [],
      "stateMutability": "nonpayable",
      "type": "function"
    },
    {
      "inputs": [
        {
          "internalType": "address",
          "name": "from",
          "type": "address"
        },
        {
          "internalType": "address",
          "name": "to",
          "type": "address"
        },
        {
          "internalType": "uint256",
          "name": "tokenId",
          "type": "uint256"
        }
      ],
      "name": "safeTransferFrom",
      "outputs": [],
      "stateMutability": "nonpayable",
      "type": "function"
    },
    {
      "inputs": [
        {
          "internalType": "address",
          "name": "from",
          "type": "address"
        },
        {
          "internalType": "address",
          "name": "to",
          "type": "address"
        },
        {
          "internalType": "uint256",
          "name": "tokenId",
          "type": "uint256"
        },
        {
          "internalType": "bytes",
          "name": "_data",
          "type": "bytes"
        }
      ],
      "name": "safeTransferFrom",
      "outputs": [],
      "stateMutability": "nonpayable",
      "type": "function"
    },
    {
      "inputs": [
        {
          "internalType": "address",
          "name": "operator",
          "type": "address"
        },
        {
          "internalType": "bool",
          "name": "approved",
          "type": "bool"
        }
      ],
      "name": "setApprovalForAll",
      "outputs": [],
      "stateMutability": "nonpayable",
      "type": "function"
    },
    {
      "inputs": [
        {
          "internalType": "string",
          "name": "_BASE_URI",
          "type": "string"
        }
      ],
      "name": "setBaseURI",
      "outputs": [],
      "stateMutability": "nonpayable",
      "type": "function"
    },
    {
      "inputs": [
        {
          "internalType": "address",
          "name": "couponSigner_",
          "type": "address"
        }
      ],
      "name": "setCouponSigner",
      "outputs": [],
      "stateMutability": "nonpayable",
      "type": "function"
    },
    {
      "inputs": [
        {
          "internalType": "address",
          "name": "_grapeAddress",
          "type": "address"
        }
      ],
      "name": "setGrapeAddress",
      "outputs": [],
      "stateMutability": "nonpayable",
      "type": "function"
    },
    {
      "inputs": [
        {
          "internalType": "uint256",
          "name": "_startTime",
          "type": "uint256"
        }
      ],
      "name": "setStartTime",
      "outputs": [],
      "stateMutability": "nonpayable",
      "type": "function"
    },
    {
      "inputs": [
        {
          "internalType": "uint256",
          "name": "_startTime",
          "type": "uint256"
        }
      ],
      "name": "setStartTimeWhitelist",
      "outputs": [],
      "stateMutability": "nonpayable",
      "type": "function"
    },
    {
      "inputs": [
        {
          "internalType": "uint256",
          "name": "tokenId",
          "type": "uint256"
        },
        {
          "internalType": "uint256",
          "name": "vintnerType",
          "type": "uint256"
        }
      ],
      "name": "setVintnerType",
      "outputs": [],
      "stateMutability": "nonpayable",
      "type": "function"
    },
    {
      "inputs": [
        {
          "internalType": "uint256",
          "name": "qty",
          "type": "uint256"
        }
      ],
      "name": "setWhitelistMintCount",
      "outputs": [],
      "stateMutability": "nonpayable",
      "type": "function"
    },
    {
      "inputs": [
        {
          "internalType": "address",
          "name": "_wineryAddress",
          "type": "address"
        }
      ],
      "name": "setWineryAddress",
      "outputs": [],
      "stateMutability": "nonpayable",
      "type": "function"
    },
    {
      "inputs": [
        {
          "internalType": "address",
          "name": "_vintnerTypeOracleAddress",
          "type": "address"
        }
      ],
      "name": "setvintnerTypeOracleAddress",
      "outputs": [],
      "stateMutability": "nonpayable",
      "type": "function"
    },
    {
      "inputs": [],
      "name": "startTime",
      "outputs": [
        {
          "internalType": "uint256",
          "name": "",
          "type": "uint256"
        }
      ],
      "stateMutability": "view",
      "type": "function"
    },
    {
      "inputs": [],
      "name": "startTimeWhitelist",
      "outputs": [
        {
          "internalType": "uint256",
          "name": "",
          "type": "uint256"
        }
      ],
      "stateMutability": "view",
      "type": "function"
    },
    {
      "inputs": [
        {
          "internalType": "bytes4",
          "name": "interfaceId",
          "type": "bytes4"
        }
      ],
      "name": "supportsInterface",
      "outputs": [
        {
          "internalType": "bool",
          "name": "",
          "type": "bool"
        }
      ],
      "stateMutability": "view",
      "type": "function"
    },
    {
      "inputs": [],
      "name": "symbol",
      "outputs": [
        {
          "internalType": "string",
          "name": "",
          "type": "string"
        }
      ],
      "stateMutability": "view",
      "type": "function"
    },
    {
      "inputs": [
        {
          "internalType": "uint256",
          "name": "",
          "type": "uint256"
        }
      ],
      "name": "tokenTypes",
      "outputs": [
        {
          "internalType": "uint256",
          "name": "",
          "type": "uint256"
        }
      ],
      "stateMutability": "view",
      "type": "function"
    },
    {
      "inputs": [
        {
          "internalType": "uint256",
          "name": "tokenId",
          "type": "uint256"
        }
      ],
      "name": "tokenURI",
      "outputs": [
        {
          "internalType": "string",
          "name": "",
          "type": "string"
        }
      ],
      "stateMutability": "view",
      "type": "function"
    },
    {
      "inputs": [
        {
          "internalType": "address",
          "name": "from",
          "type": "address"
        },
        {
          "internalType": "address",
          "name": "to",
          "type": "address"
        },
        {
          "internalType": "uint256",
          "name": "tokenId",
          "type": "uint256"
        }
      ],
      "name": "transferFrom",
      "outputs": [],
      "stateMutability": "nonpayable",
      "type": "function"
    },
    {
      "inputs": [
        {
          "internalType": "address",
          "name": "newOwner",
          "type": "address"
        }
      ],
      "name": "transferOwnership",
      "outputs": [],
      "stateMutability": "nonpayable",
      "type": "function"
    },
    {
      "inputs": [
        {
          "internalType": "uint256",
          "name": "",
          "type": "uint256"
        }
      ],
      "name": "typeYields",
      "outputs": [
        {
          "internalType": "uint256",
          "name": "",
          "type": "uint256"
        }
      ],
      "stateMutability": "view",
      "type": "function"
    },
    {
      "inputs": [],
      "name": "vintnerPublicMinted",
      "outputs": [
        {
          "internalType": "uint256",
          "name": "",
          "type": "uint256"
        }
      ],
      "stateMutability": "view",
      "type": "function"
    },
    {
      "inputs": [],
      "name": "vintnerTypeOracleAddress",
      "outputs": [
        {
          "internalType": "address",
          "name": "",
          "type": "address"
        }
      ],
      "stateMutability": "view",
      "type": "function"
    },
    {
      "inputs": [],
      "name": "vintnersMinted",
      "outputs": [
        {
          "internalType": "uint256",
          "name": "",
          "type": "uint256"
        }
      ],
      "stateMutability": "view",
      "type": "function"
    },
    {
      "inputs": [],
      "name": "vintnersMintedPromotional",
      "outputs": [
        {
          "internalType": "uint256",
          "name": "",
          "type": "uint256"
        }
      ],
      "stateMutability": "view",
      "type": "function"
    },
    {
      "inputs": [],
      "name": "vintnersMintedWhitelist",
      "outputs": [
        {
          "internalType": "uint256",
          "name": "",
          "type": "uint256"
        }
      ],
      "stateMutability": "view",
      "type": "function"
    },
    {
      "inputs": [
        {
          "internalType": "address",
          "name": "",
          "type": "address"
        }
      ],
      "name": "whitelistClaimed",
      "outputs": [
        {
          "internalType": "uint256",
          "name": "",
          "type": "uint256"
        }
      ],
      "stateMutability": "view",
      "type": "function"
    },
    {
      "inputs": [],
      "name": "wineryAddress",
      "outputs": [
        {
          "internalType": "address",
          "name": "",
          "type": "address"
        }
      ],
      "stateMutability": "view",
      "type": "function"
    },
    {
      "inputs": [
        {
          "internalType": "uint256",
          "name": "_amount",
          "type": "uint256"
        }
      ],
      "name": "withdrawAVAX",
      "outputs": [],
      "stateMutability": "payable",
      "type": "function"
    }
  ],
  "transactionHash": "0x3a4276f51d21e2f740de81b2c20f98ffe3c7a05a8925d6178aae3854a7056238",
  "args": [
    "0xe7f1725E7734CE288F8367e1Bb143E90bb3F0512",
    "0xC8ce9e95470F052C4506B8778FEF2880Bffd427D",
    "0x70997970C51812dc3A010C7d01b50e0d17dc79C8",
    "https://api.pizza.game/chefs"
  ],
  "solcInputHash": "2ecbda5a37657f0107401ac050080254",
  "bytecode": "0x6080604052610a8c60075560326011553480156200001c57600080fd5b5060405162003687380380620036878339810160408190526200003f91620002f6565b604080518082018252601981527f56696e7461676557696e652047616d652056696e746e6572730000000000000060208083019182528351808501909452601884527f56494e5441474557494e452d47414d452d56494e544e45520000000000000000908401528151919291620000b9916000916200021d565b508051620000cf9060019060208401906200021d565b505050620000ec620000e6620001c760201b60201c565b620001cb565b6006805460ff60a01b19169055601480546001600160a01b0319166001600160a01b038581169190911790915582166200012557600080fd5b600880546001600160a01b038087166001600160a01b031992831617909255600a80549285169290911691909117905580516200016a90600b9060208401906200021d565b5050600d602052505060017ffd54ff1ed53f34a900b24c5ba64f85761163b5d82d98a47b9bd80e45466993c55550600260005260037f10a81eed9d63d16face5e76357905348e6253d3394086026bb2bf2145d7cc2495562000448565b3390565b600680546001600160a01b038381166001600160a01b0319831681179093556040519116919082907f8be0079c531659141344cd1fd0a4f28419497f9722a3daafe3b4186f6b6457e090600090a35050565b8280546200022b906200040b565b90600052602060002090601f0160209004810192826200024f57600085556200029a565b82601f106200026a57805160ff19168380011785556200029a565b828001600101855582156200029a579182015b828111156200029a5782518255916020019190600101906200027d565b50620002a8929150620002ac565b5090565b5b80821115620002a85760008155600101620002ad565b80516001600160a01b0381168114620002db57600080fd5b919050565b634e487b7160e01b600052604160045260246000fd5b600080600080608085870312156200030d57600080fd5b6200031885620002c3565b9350602062000329818701620002c3565b93506200033960408701620002c3565b60608701519093506001600160401b03808211156200035757600080fd5b818801915088601f8301126200036c57600080fd5b815181811115620003815762000381620002e0565b604051601f8201601f19908116603f01168101908382118183101715620003ac57620003ac620002e0565b816040528281528b86848701011115620003c557600080fd5b600093505b82841015620003e95784840186015181850187015292850192620003ca565b82841115620003fb5760008684830101525b989b979a50959850505050505050565b600181811c908216806200042057607f821691505b602082108114156200044257634e487b7160e01b600052602260045260246000fd5b50919050565b61322f80620004586000396000f3fe60806040526004361061030c5760003560e01c80636352211e1161019c5780639c508cc0116100e2578063da98026711610090578063da98026714610900578063db4bec4414610916578063dbddb26a14610943578063e985e9c514610958578063eb41903a14610978578063efe0d7ce14610998578063f2fde38b146109ad578063fc7f3d571461034657600080fd5b80639c508cc014610837578063a22cb46514610857578063aeb5cd5e14610877578063b88d4fde1461088a578063b99630d5146108aa578063c87b56dd146108ca578063cda17416146108ea57600080fd5b80638287ef2c1161014a5780638287ef2c1461076b57806385ed3a5a1461077e5780638670f79d1461079b5780638942a6a3146107b75780638da5cb5b146107cd57806395d89b41146107e25780639a91952f146107f75780639b1a51731461081757600080fd5b80636352211e1461069e5780636de1a6d9146106be5780636f8608e4146106eb57806370a0823114610700578063715018a614610720578063735d09a61461073557806378e979251461075557600080fd5b80632891b6a81161026157806342842e0e1161020f57806342842e0e146105bf57806343f37b98146105df57806348c4c37f146105ff5780634984a7191461061457806355f804b314610629578063599dd974146106495780635c975abb146106695780635fe95a301461067e57600080fd5b80632891b6a8146104e757806332d90812146104fc57806333f6832a1461051c5780633676edff146105495780633ca1a3a11461055f5780633e0a322d1461057f5780634036ab781461059f57600080fd5b8063097f1f2f116102be578063097f1f2f1461042557806314a91014146104455780631ea111791461045b578063238aa9cd1461047b57806323b872dd1461049b5780632476703e146104bb57806327b28a0b146104d157600080fd5b806301ffc9a71461031157806305c87a021461034657806306fdde03146103695780630805d8841461038b578063081812fc146103ab578063082ee8b2146103e3578063095ea7b314610403575b600080fd5b34801561031d57600080fd5b5061033161032c3660046128b7565b6109cd565b60405190151581526020015b60405180910390f35b34801561035257600080fd5b5061035b600181565b60405190815260200161033d565b34801561037557600080fd5b5061037e610a1f565b60405161033d919061292c565b34801561039757600080fd5b5061035b6103a636600461293f565b610ab1565b3480156103b757600080fd5b506103cb6103c636600461293f565b610b01565b6040516001600160a01b03909116815260200161033d565b3480156103ef57600080fd5b50600a546103cb906001600160a01b031681565b34801561040f57600080fd5b5061042361041e36600461296d565b610b89565b005b34801561043157600080fd5b50610423610440366004612999565b610c9a565b34801561045157600080fd5b5061035b61271081565b34801561046757600080fd5b506014546103cb906001600160a01b031681565b34801561048757600080fd5b506104236104963660046129b6565b610ceb565b3480156104a757600080fd5b506104236104b63660046129ef565b610e59565b3480156104c757600080fd5b5061035b60125481565b3480156104dd57600080fd5b5061035b60115481565b3480156104f357600080fd5b5061035b600381565b34801561050857600080fd5b5061042361051736600461293f565b610e8a565b34801561052857600080fd5b5061035b61053736600461293f565b600c6020526000908152604090205481565b34801561055557600080fd5b5061035b60105481565b34801561056b57600080fd5b506008546103cb906001600160a01b031681565b34801561058b57600080fd5b5061042361059a36600461293f565b6110be565b3480156105ab57600080fd5b5061035b6105ba36600461293f565b611112565b3480156105cb57600080fd5b506104236105da3660046129ef565b61114c565b3480156105eb57600080fd5b506104236105fa366004612a30565b611167565b34801561060b57600080fd5b5061035b603281565b34801561062057600080fd5b5061035b600281565b34801561063557600080fd5b50610423610644366004612a67565b6111aa565b34801561065557600080fd5b50610423610664366004612ad9565b6111e5565b34801561067557600080fd5b506103316112fa565b34801561068a57600080fd5b50610423610699366004612b42565b61130a565b3480156106aa57600080fd5b506103cb6106b936600461293f565b611470565b3480156106ca57600080fd5b5061035b6106d936600461293f565b600d6020526000908152604090205481565b3480156106f757600080fd5b506103316114e7565b34801561070c57600080fd5b5061035b61071b366004612999565b611503565b34801561072c57600080fd5b5061042361158a565b34801561074157600080fd5b506009546103cb906001600160a01b031681565b34801561076157600080fd5b5061035b60135481565b61042361077936600461293f565b6115c5565b34801561078a57600080fd5b5061035b68056bc75e2d6310000081565b3480156107a757600080fd5b5061035b6729a2241af62c000081565b3480156107c357600080fd5b5061035b600e5481565b3480156107d957600080fd5b506103cb6116cb565b3480156107ee57600080fd5b5061037e6116da565b34801561080357600080fd5b50610423610812366004612999565b6116e9565b34801561082357600080fd5b50610423610832366004612999565b61173a565b34801561084357600080fd5b5061042361085236600461293f565b61178b565b34801561086357600080fd5b50610423610872366004612be0565b6117df565b61042361088536600461293f565b6117ea565b34801561089657600080fd5b506104236108a5366004612c19565b6118c9565b3480156108b657600080fd5b506104236108c5366004612999565b6118fb565b3480156108d657600080fd5b5061037e6108e536600461293f565b61194c565b3480156108f657600080fd5b5061035b60075481565b34801561090c57600080fd5b5061035b600f5481565b34801561092257600080fd5b5061035b610931366004612999565b60156020526000908152604090205481565b34801561094f57600080fd5b5061037e6119f3565b34801561096457600080fd5b50610331610973366004612cdd565b611a81565b34801561098457600080fd5b5061042361099336600461293f565b611ae9565b3480156109a457600080fd5b50610331611b3d565b3480156109b957600080fd5b506104236109c8366004612999565b611b57565b60006001600160e01b031982166380ac58cd60e01b14806109fe57506001600160e01b03198216635b5e139f60e01b145b80610a1957506301ffc9a760e01b6001600160e01b03198316145b92915050565b606060008054610a2e90612d0b565b80601f0160208091040260200160405190810160405280929190818152602001828054610a5a90612d0b565b8015610aa75780601f10610a7c57610100808354040283529160200191610aa7565b820191906000526020600020905b815481529060010190602001808311610a8a57829003601f168201915b5050505050905090565b6000610abc82611bf7565b610ae15760405162461bcd60e51b8152600401610ad890612d46565b60405180910390fd5b506000908152600c60209081526040808320548352600d90915290205490565b6000610b0c82611bf7565b610b6d5760405162461bcd60e51b815260206004820152602c60248201527f4552433732313a20617070726f76656420717565727920666f72206e6f6e657860448201526b34b9ba32b73a103a37b5b2b760a11b6064820152608401610ad8565b506000908152600460205260409020546001600160a01b031690565b6000610b9482611470565b9050806001600160a01b0316836001600160a01b03161415610c025760405162461bcd60e51b815260206004820152602160248201527f4552433732313a20617070726f76616c20746f2063757272656e74206f776e656044820152603960f91b6064820152608401610ad8565b336001600160a01b0382161480610c1e5750610c1e8133611a81565b610c8b5760405162461bcd60e51b815260206004820152603860248201527f4552433732313a20617070726f76652063616c6c6572206973206e6f74206f776044820152771b995c881b9bdc88185c1c1c9bdd995908199bdc88185b1b60421b6064820152608401610ad8565b610c958383611c14565b505050565b33610ca36116cb565b6001600160a01b031614610cc95760405162461bcd60e51b8152600401610ad890612d74565b600980546001600160a01b0319166001600160a01b0392909216919091179055565b33610cf46116cb565b6001600160a01b031614610d1a5760405162461bcd60e51b8152600401610ad890612d74565b60008311610d3a5760405162461bcd60e51b8152600401610ad890612da9565b603283601054610d4a9190612df6565b1115610da35760405162461bcd60e51b815260206004820152602260248201527f796f752063616e2774206d696e742074686174206d616e79207269676874206e6044820152616f7760f01b6064820152608401610ad8565b6001821480610db25750600282145b610dce5760405162461bcd60e51b8152600401610ad890612e0e565b60005b83811015610e5357600160106000828254610dec9190612df6565b90915550506010546000908152600c602052604090205415610e205760405162461bcd60e51b8152600401610ad890612e3c565b601080546000908152600c6020526040902084905554610e41908390611c82565b80610e4b81612e82565b915050610dd1565b50505050565b610e633382611d10565b610e7f5760405162461bcd60e51b8152600401610ad890612e9d565b610c95838383611dda565b610e926112fa565b15610eaf5760405162461bcd60e51b8152600401610ad890612eee565b610eb76114e7565b610ed35760405162461bcd60e51b8152600401610ad890612f18565b600081118015610ee4575060148111155b610f005760405162461bcd60e51b8152600401610ad890612f47565b6032600f54612710610f129190612f7e565b610f1c9190612f7e565b81600e54610f2a9190612df6565b1115610f485760405162461bcd60e51b8152600401610ad890612f95565b6000610f5c826729a2241af62c0000612fda565b6008546040516370a0823160e01b815233600482015291925082916001600160a01b03909116906370a0823190602401602060405180830381865afa158015610fa9573d6000803e3d6000fd5b505050506040513d601f19601f82011682018060405250810190610fcd9190612ff9565b101561100e5760405162461bcd60e51b815260206004820152601060248201526f6e6f7420656e6f75676820477261706560801b6044820152606401610ad8565b6008546001600160a01b03166323b872dd336040516001600160e01b031960e084901b1681526001600160a01b039091166004820152306024820152604481018490526064016020604051808303816000875af1158015611073573d6000803e3d6000fd5b505050506040513d601f19601f820116820180604052508101906110979190613012565b5081600e60008282546110aa9190612df6565b909155506110ba90508233611f76565b5050565b336110c76116cb565b6001600160a01b0316146110ed5760405162461bcd60e51b8152600401610ad890612d74565b4281101561110d5760405162461bcd60e51b8152600401610ad89061302f565b601355565b600061111d82611bf7565b6111395760405162461bcd60e51b8152600401610ad890612d46565b506000908152600c602052604090205490565b610c95838383604051806020016040528060008152506118c9565b336111706116cb565b6001600160a01b0316146111965760405162461bcd60e51b8152600401610ad890612d74565b610c956001600160a01b0384168284611fb9565b336111b36116cb565b6001600160a01b0316146111d95760405162461bcd60e51b8152600401610ad890612d74565b610c95600b8383612808565b600a546001600160a01b0316336001600160a01b0316146112535760405162461bcd60e51b815260206004820152602260248201527f6d736773656e64657220646f6573206e6f742068617665207065726d6973736960448201526137b760f11b6064820152608401610ad8565b6000828152600c60205260409020541561127f5760405162461bcd60e51b8152600401610ad890612e3c565b600181148061128e5750600281145b6112aa5760405162461bcd60e51b8152600401610ad890612e0e565b6000828152600c602090815260409182902083905581518481529081018390527f99bfcaa3dc7409b462b5c2023b3fd711f104e8fc2f126ed387e6af9abbd9c94591015b60405180910390a15050565b600654600160a01b900460ff1690565b6113126112fa565b1561132f5760405162461bcd60e51b8152600401610ad890612eee565b611337611b3d565b6113535760405162461bcd60e51b8152600401610ad890612f18565b61135e826001612df6565b336000908152601560205260409020546113789085612df6565b106113bc5760405162461bcd60e51b8152602060048201526014602482015273115e18d959591cc813585e08105b1b1bdd1d195960621b6044820152606401610ad8565b6040805160208082018590523382840152825180830384018152606090920190925280519101206113ed818361200b565b61142a5760405162461bcd60e51b815260206004820152600e60248201526d24b73b30b634b21021b7bab837b760911b6044820152606401610ad8565b83600f600082825461143c9190612df6565b90915550503360009081526015602052604081208054869290611460908490612df6565b90915550610e5390508433611f76565b6000818152600260205260408120546001600160a01b031680610a195760405162461bcd60e51b815260206004820152602960248201527f4552433732313a206f776e657220717565727920666f72206e6f6e657869737460448201526832b73a103a37b5b2b760b91b6064820152608401610ad8565b60006013546000141580156114fe57506013544210155b905090565b60006001600160a01b03821661156e5760405162461bcd60e51b815260206004820152602a60248201527f4552433732313a2062616c616e636520717565727920666f7220746865207a65604482015269726f206164647265737360b01b6064820152608401610ad8565b506001600160a01b031660009081526003602052604090205490565b336115936116cb565b6001600160a01b0316146115b95760405162461bcd60e51b8152600401610ad890612d74565b6115c360006120e2565b565b6115cd6112fa565b156115ea5760405162461bcd60e51b8152600401610ad890612eee565b6115f26114e7565b61160e5760405162461bcd60e51b8152600401610ad890612f18565b60008111801561161f575060148111155b61163b5760405162461bcd60e51b8152600401610ad890612f47565b6032600f5461271061164d9190612f7e565b6116579190612f7e565b81600e546116659190612df6565b11156116835760405162461bcd60e51b8152600401610ad890612f95565b6000611697826729a2241af62c0000612fda565b9050803410156116b95760405162461bcd60e51b8152600401610ad890613066565b81600e60008282546110aa9190612df6565b6006546001600160a01b031690565b606060018054610a2e90612d0b565b336116f26116cb565b6001600160a01b0316146117185760405162461bcd60e51b8152600401610ad890612d74565b600880546001600160a01b0319166001600160a01b0392909216919091179055565b336117436116cb565b6001600160a01b0316146117695760405162461bcd60e51b8152600401610ad890612d74565b601480546001600160a01b0319166001600160a01b0392909216919091179055565b336117946116cb565b6001600160a01b0316146117ba5760405162461bcd60e51b8152600401610ad890612d74565b600081116117da5760405162461bcd60e51b8152600401610ad890612da9565b600755565b6110ba338383612134565b336117f36116cb565b6001600160a01b0316146118195760405162461bcd60e51b8152600401610ad890612d74565b804710156118395760405162461bcd60e51b8152600401610ad890613066565b6040513390600090829084908381818185875af1925050503d806000811461187d576040519150601f19603f3d011682016040523d82523d6000602084013e611882565b606091505b5050905080610c955760405162461bcd60e51b815260206004820152601360248201527208cc2d2d8cac840e8de40e6cadcc84082ac82b606b1b6044820152606401610ad8565b6118d33383611d10565b6118ef5760405162461bcd60e51b8152600401610ad890612e9d565b610e53848484846121ff565b336119046116cb565b6001600160a01b03161461192a5760405162461bcd60e51b8152600401610ad890612d74565b600a80546001600160a01b0319166001600160a01b0392909216919091179055565b606061195782611bf7565b6119bb5760405162461bcd60e51b815260206004820152602f60248201527f4552433732314d657461646174613a2055524920717565727920666f72206e6f60448201526e3732bc34b9ba32b73a103a37b5b2b760891b6064820152608401610ad8565b6119c3612232565b6119cc83612241565b6040516020016119dd92919061308f565b6040516020818303038152906040529050919050565b600b8054611a0090612d0b565b80601f0160208091040260200160405190810160405280929190818152602001828054611a2c90612d0b565b8015611a795780601f10611a4e57610100808354040283529160200191611a79565b820191906000526020600020905b815481529060010190602001808311611a5c57829003601f168201915b505050505081565b6009546000906001600160a01b031615801590611aab57506009546001600160a01b038381169116145b15611ab857506001610a19565b6001600160a01b0380841660009081526005602090815260408083209386168352929052205460ff165b9392505050565b33611af26116cb565b6001600160a01b031614611b185760405162461bcd60e51b8152600401610ad890612d74565b42811015611b385760405162461bcd60e51b8152600401610ad89061302f565b601255565b60006012546000141580156114fe57505060125442101590565b33611b606116cb565b6001600160a01b031614611b865760405162461bcd60e51b8152600401610ad890612d74565b6001600160a01b038116611beb5760405162461bcd60e51b815260206004820152602660248201527f4f776e61626c653a206e6577206f776e657220697320746865207a65726f206160448201526564647265737360d01b6064820152608401610ad8565b611bf4816120e2565b50565b6000908152600260205260409020546001600160a01b0316151590565b600081815260046020526040902080546001600160a01b0319166001600160a01b0384169081179091558190611c4982611470565b6001600160a01b03167f8c5be1e5ebec7d5bd14f71427d1e84f3dd0314c0f7b2291e5b200ac8c7c3b92560405160405180910390a45050565b6127106011541115611cd65760405162461bcd60e51b815260206004820152601c60248201527f63616e6e6f74206d696e7420616e796d6f72652076696e746e657273000000006044820152606401610ad8565b611ce0828261233f565b6040518181527f3926193096e67dd1d3b1874999e37846ff022578abd9b20fe806f5dcb52d788d906020016112ee565b6000611d1b82611bf7565b611d7c5760405162461bcd60e51b815260206004820152602c60248201527f4552433732313a206f70657261746f7220717565727920666f72206e6f6e657860448201526b34b9ba32b73a103a37b5b2b760a11b6064820152608401610ad8565b6000611d8783611470565b9050806001600160a01b0316846001600160a01b03161480611dae5750611dae8185611a81565b80611dd25750836001600160a01b0316611dc784610b01565b6001600160a01b0316145b949350505050565b826001600160a01b0316611ded82611470565b6001600160a01b031614611e515760405162461bcd60e51b815260206004820152602560248201527f4552433732313a207472616e736665722066726f6d20696e636f72726563742060448201526437bbb732b960d91b6064820152608401610ad8565b6001600160a01b038216611eb35760405162461bcd60e51b8152602060048201526024808201527f4552433732313a207472616e7366657220746f20746865207a65726f206164646044820152637265737360e01b6064820152608401610ad8565b611ebe600082611c14565b6001600160a01b0383166000908152600360205260408120805460019290611ee7908490612f7e565b90915550506001600160a01b0382166000908152600360205260408120805460019290611f15908490612df6565b909155505060008181526002602052604080822080546001600160a01b0319166001600160a01b0386811691821790925591518493918716917fddf252ad1be2c89b69c2b068fc378daa952ba7f163c4a11628f55a4df523b3ef91a4505050565b60005b82811015610c9557600160116000828254611f949190612df6565b92505081905550611fa782601154611c82565b80611fb181612e82565b915050611f79565b604080516001600160a01b038416602482015260448082018490528251808303909101815260649091019091526020810180516001600160e01b031663a9059cbb60e01b179052610c95908490612359565b60008060018484604001518560000151866020015160405160008152602001604052604051612056949392919093845260ff9290921660208401526040830152606082015260800190565b6020604051602081039080840390855afa158015612078573d6000803e3d6000fd5b5050604051601f1901519150506001600160a01b0381166120ca5760405162461bcd60e51b815260206004820152600c60248201526b5a65726f204164647265737360a01b6044820152606401610ad8565b6014546001600160a01b039081169116149392505050565b600680546001600160a01b038381166001600160a01b0319831681179093556040519116919082907f8be0079c531659141344cd1fd0a4f28419497f9722a3daafe3b4186f6b6457e090600090a35050565b816001600160a01b0316836001600160a01b031614156121925760405162461bcd60e51b815260206004820152601960248201527822a9219b99189d1030b8383937bb32903a379031b0b63632b960391b6044820152606401610ad8565b6001600160a01b03838116600081815260056020908152604080832094871680845294825291829020805460ff191686151590811790915591519182527f17307eab39ab6107e8899845ad3d59bd9653f200f220920489ca2b5937696c31910160405180910390a3505050565b61220a848484611dda565b6122168484848461242b565b610e535760405162461bcd60e51b8152600401610ad8906130dd565b6060600b8054610a2e90612d0b565b6060816122655750506040805180820190915260018152600360fc1b602082015290565b8160005b811561228f578061227981612e82565b91506122889050600a83613145565b9150612269565b60008167ffffffffffffffff8111156122aa576122aa612afb565b6040519080825280601f01601f1916602001820160405280156122d4576020820181803683370190505b5090505b8415611dd2576122e9600183612f7e565b91506122f6600a86613159565b612301906030612df6565b60f81b8183815181106123165761231661316d565b60200101906001600160f81b031916908160001a905350612338600a86613145565b94506122d8565b6110ba828260405180602001604052806000815250612529565b60006123ae826040518060400160405280602081526020017f5361666545524332303a206c6f772d6c6576656c2063616c6c206661696c6564815250856001600160a01b031661255c9092919063ffffffff16565b805190915015610c9557808060200190518101906123cc9190613012565b610c955760405162461bcd60e51b815260206004820152602a60248201527f5361666545524332303a204552433230206f7065726174696f6e20646964206e6044820152691bdd081cdd58d8d9595960b21b6064820152608401610ad8565b60006001600160a01b0384163b1561251e57604051630a85bd0160e11b81526001600160a01b0385169063150b7a029061246f903390899088908890600401613183565b6020604051808303816000875af19250505080156124aa575060408051601f3d908101601f191682019092526124a7918101906131c0565b60015b612504573d8080156124d8576040519150601f19603f3d011682016040523d82523d6000602084013e6124dd565b606091505b5080516124fc5760405162461bcd60e51b8152600401610ad8906130dd565b805181602001fd5b6001600160e01b031916630a85bd0160e11b149050611dd2565b506001949350505050565b612533838361256b565b612540600084848461242b565b610c955760405162461bcd60e51b8152600401610ad8906130dd565b6060611dd2848460008561269e565b6001600160a01b0382166125c15760405162461bcd60e51b815260206004820181905260248201527f4552433732313a206d696e7420746f20746865207a65726f20616464726573736044820152606401610ad8565b6125ca81611bf7565b156126175760405162461bcd60e51b815260206004820152601c60248201527f4552433732313a20746f6b656e20616c7265616479206d696e746564000000006044820152606401610ad8565b6001600160a01b0382166000908152600360205260408120805460019290612640908490612df6565b909155505060008181526002602052604080822080546001600160a01b0319166001600160a01b03861690811790915590518392907fddf252ad1be2c89b69c2b068fc378daa952ba7f163c4a11628f55a4df523b3ef908290a45050565b6060824710156126ff5760405162461bcd60e51b815260206004820152602660248201527f416464726573733a20696e73756666696369656e742062616c616e636520666f6044820152651c8818d85b1b60d21b6064820152608401610ad8565b6001600160a01b0385163b6127565760405162461bcd60e51b815260206004820152601d60248201527f416464726573733a2063616c6c20746f206e6f6e2d636f6e74726163740000006044820152606401610ad8565b600080866001600160a01b0316858760405161277291906131dd565b60006040518083038185875af1925050503d80600081146127af576040519150601f19603f3d011682016040523d82523d6000602084013e6127b4565b606091505b50915091506127c48282866127cf565b979650505050505050565b606083156127de575081611ae2565b8251156127ee5782518084602001fd5b8160405162461bcd60e51b8152600401610ad8919061292c565b82805461281490612d0b565b90600052602060002090601f016020900481019282612836576000855561287c565b82601f1061284f5782800160ff1982351617855561287c565b8280016001018555821561287c579182015b8281111561287c578235825591602001919060010190612861565b5061288892915061288c565b5090565b5b80821115612888576000815560010161288d565b6001600160e01b031981168114611bf457600080fd5b6000602082840312156128c957600080fd5b8135611ae2816128a1565b60005b838110156128ef5781810151838201526020016128d7565b83811115610e535750506000910152565b600081518084526129188160208601602086016128d4565b601f01601f19169290920160200192915050565b602081526000611ae26020830184612900565b60006020828403121561295157600080fd5b5035919050565b6001600160a01b0381168114611bf457600080fd5b6000806040838503121561298057600080fd5b823561298b81612958565b946020939093013593505050565b6000602082840312156129ab57600080fd5b8135611ae281612958565b6000806000606084860312156129cb57600080fd5b833592506020840135915060408401356129e481612958565b809150509250925092565b600080600060608486031215612a0457600080fd5b8335612a0f81612958565b92506020840135612a1f81612958565b929592945050506040919091013590565b600080600060608486031215612a4557600080fd5b8335612a5081612958565b92506020840135915060408401356129e481612958565b60008060208385031215612a7a57600080fd5b823567ffffffffffffffff80821115612a9257600080fd5b818501915085601f830112612aa657600080fd5b813581811115612ab557600080fd5b866020828501011115612ac757600080fd5b60209290920196919550909350505050565b60008060408385031215612aec57600080fd5b50508035926020909101359150565b634e487b7160e01b600052604160045260246000fd5b604051601f8201601f1916810167ffffffffffffffff81118282101715612b3a57612b3a612afb565b604052919050565b600080600083850360a0811215612b5857600080fd5b84359350602085013592506060603f1982011215612b7557600080fd5b506040516060810181811067ffffffffffffffff82111715612b9957612b99612afb565b6040908152850135815260608501356020820152608085013560ff81168114612bc157600080fd5b604082015292959194509192509050565b8015158114611bf457600080fd5b60008060408385031215612bf357600080fd5b8235612bfe81612958565b91506020830135612c0e81612bd2565b809150509250929050565b60008060008060808587031215612c2f57600080fd5b8435612c3a81612958565b9350602085810135612c4b81612958565b935060408601359250606086013567ffffffffffffffff80821115612c6f57600080fd5b818801915088601f830112612c8357600080fd5b813581811115612c9557612c95612afb565b612ca7601f8201601f19168501612b11565b91508082528984828501011115612cbd57600080fd5b808484018584013760008482840101525080935050505092959194509250565b60008060408385031215612cf057600080fd5b8235612cfb81612958565b91506020830135612c0e81612958565b600181811c90821680612d1f57607f821691505b60208210811415612d4057634e487b7160e01b600052602260045260246000fd5b50919050565b6020808252601490820152731d1bdad95b88191bd95cc81b9bdd08195e1a5cdd60621b604082015260600190565b6020808252818101527f4f776e61626c653a2063616c6c6572206973206e6f7420746865206f776e6572604082015260600190565b6020808252601f908201527f7175616e74697479206d7573742062652067726561746572207468616e203000604082015260600190565b634e487b7160e01b600052601160045260246000fd5b60008219821115612e0957612e09612de0565b500190565b602080825260149082015273696e76616c69642076696e746e6572207479706560601b604082015260600190565b60208082526026908201527f7468617420746f6b656e277320747970652068617320616c7265616479206265604082015265195b881cd95d60d21b606082015260800190565b6000600019821415612e9657612e96612de0565b5060010190565b60208082526031908201527f4552433732313a207472616e736665722063616c6c6572206973206e6f74206f6040820152701ddb995c881b9bdc88185c1c1c9bdd9959607a1b606082015260800190565b60208082526010908201526f14185d5cd8589b194e881c185d5cd95960821b604082015260600190565b60208082526015908201527463616e6e6f74206d696e74207269676874206e6f7760581b604082015260600190565b6020808252601f908201527f45786365656473206e756d626572206f66206d696e747320616c6c6f77656400604082015260600190565b600082821015612f9057612f90612de0565b500390565b60208082526025908201527f45786365656473206e756d626572206f6620746f74616c206d696e747320616c6040820152641b1bddd95960da1b606082015260800190565b6000816000190483118215151615612ff457612ff4612de0565b500290565b60006020828403121561300b57600080fd5b5051919050565b60006020828403121561302457600080fd5b8151611ae281612bd2565b6020808252601f908201527f737461727454696d652063616e6e6f7420626520696e20746865207061737400604082015260600190565b6020808252600f908201526e0dcdee840cadcdeeaced04082ac82b608b1b604082015260600190565b600083516130a18184602088016128d4565b602f60f81b90830190815283516130bf8160018401602088016128d4565b64173539b7b760d91b60019290910191820152600601949350505050565b60208082526032908201527f4552433732313a207472616e7366657220746f206e6f6e20455243373231526560408201527131b2b4bb32b91034b6b83632b6b2b73a32b960711b606082015260800190565b634e487b7160e01b600052601260045260246000fd5b6000826131545761315461312f565b500490565b6000826131685761316861312f565b500690565b634e487b7160e01b600052603260045260246000fd5b6001600160a01b03858116825284166020820152604081018390526080606082018190526000906131b690830184612900565b9695505050505050565b6000602082840312156131d257600080fd5b8151611ae2816128a1565b600082516131ef8184602087016128d4565b919091019291505056fea26469706673582212204eb7484538e836763e622662f6be1df4c4ccf288443372e8ff76a46f0c90c88e64736f6c634300080b0033"
}