{
  "address": "0xDc64a140Aa3E981100a9becA4E685f962f0cF6C9",
  "abi": [
    {
      "inputs": [
        {
          "internalType": "address",
          "name": "_couponSigner",
          "type": "address"
        },
        {
          "internalType": "address",
          "name": "_vintnerTypeOracleAddress",
          "type": "address"
        },
        {
          "internalType": "string",
          "name": "_BASE_URI",
          "type": "string"
        }
      ],
      "stateMutability": "nonpayable",
      "type": "constructor"
    },
    {
      "anonymous": false,
      "inputs": [
        {
          "indexed": true,
          "internalType": "address",
          "name": "owner",
          "type": "address"
        },
        {
          "indexed": true,
          "internalType": "address",
          "name": "approved",
          "type": "address"
        },
        {
          "indexed": true,
          "internalType": "uint256",
          "name": "tokenId",
          "type": "uint256"
        }
      ],
      "name": "Approval",
      "type": "event"
    },
    {
      "anonymous": false,
      "inputs": [
        {
          "indexed": true,
          "internalType": "address",
          "name": "owner",
          "type": "address"
        },
        {
          "indexed": true,
          "internalType": "address",
          "name": "operator",
          "type": "address"
        },
        {
          "indexed": false,
          "internalType": "bool",
          "name": "approved",
          "type": "bool"
        }
      ],
      "name": "ApprovalForAll",
      "type": "event"
    },
    {
      "anonymous": false,
      "inputs": [
        {
          "indexed": true,
          "internalType": "address",
          "name": "previousOwner",
          "type": "address"
        },
        {
          "indexed": true,
          "internalType": "address",
          "name": "newOwner",
          "type": "address"
        }
      ],
      "name": "OwnershipTransferred",
      "type": "event"
    },
    {
      "anonymous": false,
      "inputs": [
        {
          "indexed": false,
          "internalType": "address",
          "name": "account",
          "type": "address"
        }
      ],
      "name": "Paused",
      "type": "event"
    },
    {
      "anonymous": false,
      "inputs": [
        {
          "indexed": true,
          "internalType": "address",
          "name": "from",
          "type": "address"
        },
        {
          "indexed": true,
          "internalType": "address",
          "name": "to",
          "type": "address"
        },
        {
          "indexed": true,
          "internalType": "uint256",
          "name": "tokenId",
          "type": "uint256"
        }
      ],
      "name": "Transfer",
      "type": "event"
    },
    {
      "anonymous": false,
      "inputs": [
        {
          "indexed": false,
          "internalType": "address",
          "name": "account",
          "type": "address"
        }
      ],
      "name": "Unpaused",
      "type": "event"
    },
    {
      "anonymous": false,
      "inputs": [
        {
          "indexed": false,
          "internalType": "uint256",
          "name": "tokenId",
          "type": "uint256"
        }
      ],
      "name": "onVintnerCreated",
      "type": "event"
    },
    {
      "anonymous": false,
      "inputs": [
        {
          "indexed": false,
          "internalType": "uint256",
          "name": "tokenId",
          "type": "uint256"
        },
        {
          "indexed": false,
          "internalType": "uint256",
          "name": "vintnerType",
          "type": "uint256"
        }
      ],
      "name": "onVintnerRevealed",
      "type": "event"
    },
    {
      "inputs": [],
      "name": "BASE_URI",
      "outputs": [
        {
          "internalType": "string",
          "name": "",
          "type": "string"
        }
      ],
      "stateMutability": "view",
      "type": "function"
    },
    {
      "inputs": [],
      "name": "MASTER_VINTNER_TYPE",
      "outputs": [
        {
          "internalType": "uint256",
          "name": "",
          "type": "uint256"
        }
      ],
      "stateMutability": "view",
      "type": "function"
    },
    {
      "inputs": [],
      "name": "MASTER_VINTNER_YIELD",
      "outputs": [
        {
          "internalType": "uint256",
          "name": "",
          "type": "uint256"
        }
      ],
      "stateMutability": "view",
      "type": "function"
    },
    {
      "inputs": [],
      "name": "NUM_VINTNERS",
      "outputs": [
        {
          "internalType": "uint256",
          "name": "",
          "type": "uint256"
        }
      ],
      "stateMutability": "view",
      "type": "function"
    },
    {
      "inputs": [],
      "name": "PROMOTIONAL_VINTNERS",
      "outputs": [
        {
          "internalType": "uint256",
          "name": "",
          "type": "uint256"
        }
      ],
      "stateMutability": "view",
      "type": "function"
    },
    {
      "inputs": [],
      "name": "VINTNER_PRICE_AVAX",
      "outputs": [
        {
          "internalType": "uint256",
          "name": "",
          "type": "uint256"
        }
      ],
      "stateMutability": "view",
      "type": "function"
    },
    {
      "inputs": [],
      "name": "VINTNER_TYPE",
      "outputs": [
        {
          "internalType": "uint256",
          "name": "",
          "type": "uint256"
        }
      ],
      "stateMutability": "view",
      "type": "function"
    },
    {
      "inputs": [],
      "name": "VINTNER_YIELD",
      "outputs": [
        {
          "internalType": "uint256",
          "name": "",
          "type": "uint256"
        }
      ],
      "stateMutability": "view",
      "type": "function"
    },
    {
      "inputs": [],
      "name": "WHITELIST_VINTNERS",
      "outputs": [
        {
          "internalType": "uint256",
          "name": "",
          "type": "uint256"
        }
      ],
      "stateMutability": "view",
      "type": "function"
    },
    {
      "inputs": [
        {
          "internalType": "address",
          "name": "to",
          "type": "address"
        },
        {
          "internalType": "uint256",
          "name": "tokenId",
          "type": "uint256"
        }
      ],
      "name": "approve",
      "outputs": [],
      "stateMutability": "nonpayable",
      "type": "function"
    },
    {
      "inputs": [
        {
          "internalType": "address",
          "name": "owner",
          "type": "address"
        }
      ],
      "name": "balanceOf",
      "outputs": [
        {
          "internalType": "uint256",
          "name": "",
          "type": "uint256"
        }
      ],
      "stateMutability": "view",
      "type": "function"
    },
    {
      "inputs": [],
      "name": "couponSigner",
      "outputs": [
        {
          "internalType": "address",
          "name": "",
          "type": "address"
        }
      ],
      "stateMutability": "view",
      "type": "function"
    },
    {
      "inputs": [
        {
          "internalType": "contract IERC20",
          "name": "_token",
          "type": "address"
        },
        {
          "internalType": "uint256",
          "name": "_amount",
          "type": "uint256"
        },
        {
          "internalType": "address",
          "name": "target",
          "type": "address"
        }
      ],
      "name": "forwardERC20s",
      "outputs": [],
      "stateMutability": "nonpayable",
      "type": "function"
    },
    {
      "inputs": [
        {
          "internalType": "uint256",
          "name": "tokenId",
          "type": "uint256"
        }
      ],
      "name": "getApproved",
      "outputs": [
        {
          "internalType": "address",
          "name": "",
          "type": "address"
        }
      ],
      "stateMutability": "view",
      "type": "function"
    },
    {
      "inputs": [
        {
          "internalType": "uint256",
          "name": "_tokenId",
          "type": "uint256"
        }
      ],
      "name": "getType",
      "outputs": [
        {
          "internalType": "uint256",
          "name": "",
          "type": "uint256"
        }
      ],
      "stateMutability": "view",
      "type": "function"
    },
    {
      "inputs": [
        {
          "internalType": "uint256",
          "name": "_tokenId",
          "type": "uint256"
        }
      ],
      "name": "getYield",
      "outputs": [
        {
          "internalType": "uint256",
          "name": "",
          "type": "uint256"
        }
      ],
      "stateMutability": "view",
      "type": "function"
    },
    {
      "inputs": [
        {
          "internalType": "address",
          "name": "_owner",
          "type": "address"
        },
        {
          "internalType": "address",
          "name": "_operator",
          "type": "address"
        }
      ],
      "name": "isApprovedForAll",
      "outputs": [
        {
          "internalType": "bool",
          "name": "",
          "type": "bool"
        }
      ],
      "stateMutability": "view",
      "type": "function"
    },
    {
      "inputs": [
        {
          "internalType": "uint256",
          "name": "qty",
          "type": "uint256"
        },
        {
          "internalType": "uint256",
          "name": "vintnerType",
          "type": "uint256"
        },
        {
          "internalType": "address",
          "name": "target",
          "type": "address"
        }
      ],
      "name": "mintPromotional",
      "outputs": [],
      "stateMutability": "nonpayable",
      "type": "function"
    },
    {
      "inputs": [
        {
          "internalType": "uint256",
          "name": "qty",
          "type": "uint256"
        }
      ],
      "name": "mintVintnerWithAVAX",
      "outputs": [],
      "stateMutability": "payable",
      "type": "function"
    },
    {
      "inputs": [
        {
          "internalType": "uint256",
          "name": "qty",
          "type": "uint256"
        },
        {
          "internalType": "uint256",
          "name": "allotted",
          "type": "uint256"
        },
        {
          "components": [
            {
              "internalType": "bytes32",
              "name": "r",
              "type": "bytes32"
            },
            {
              "internalType": "bytes32",
              "name": "s",
              "type": "bytes32"
            },
            {
              "internalType": "uint8",
              "name": "v",
              "type": "uint8"
            }
          ],
          "internalType": "struct Vintner.Coupon",
          "name": "coupon",
          "type": "tuple"
        }
      ],
      "name": "mintWhitelist",
      "outputs": [],
      "stateMutability": "nonpayable",
      "type": "function"
    },
    {
      "inputs": [],
      "name": "mintingStartedAVAX",
      "outputs": [
        {
          "internalType": "bool",
          "name": "",
          "type": "bool"
        }
      ],
      "stateMutability": "view",
      "type": "function"
    },
    {
      "inputs": [],
      "name": "mintingStartedWhitelist",
      "outputs": [
        {
          "internalType": "bool",
          "name": "",
          "type": "bool"
        }
      ],
      "stateMutability": "view",
      "type": "function"
    },
    {
      "inputs": [],
      "name": "name",
      "outputs": [
        {
          "internalType": "string",
          "name": "",
          "type": "string"
        }
      ],
      "stateMutability": "view",
      "type": "function"
    },
    {
      "inputs": [],
      "name": "owner",
      "outputs": [
        {
          "internalType": "address",
          "name": "",
          "type": "address"
        }
      ],
      "stateMutability": "view",
      "type": "function"
    },
    {
      "inputs": [
        {
          "internalType": "uint256",
          "name": "tokenId",
          "type": "uint256"
        }
      ],
      "name": "ownerOf",
      "outputs": [
        {
          "internalType": "address",
          "name": "",
          "type": "address"
        }
      ],
      "stateMutability": "view",
      "type": "function"
    },
    {
      "inputs": [],
      "name": "paused",
      "outputs": [
        {
          "internalType": "bool",
          "name": "",
          "type": "bool"
        }
      ],
      "stateMutability": "view",
      "type": "function"
    },
    {
      "inputs": [],
      "name": "renounceOwnership",
      "outputs": [],
      "stateMutability": "nonpayable",
      "type": "function"
    },
    {
      "inputs": [
        {
          "internalType": "address",
          "name": "from",
          "type": "address"
        },
        {
          "internalType": "address",
          "name": "to",
          "type": "address"
        },
        {
          "internalType": "uint256",
          "name": "tokenId",
          "type": "uint256"
        }
      ],
      "name": "safeTransferFrom",
      "outputs": [],
      "stateMutability": "nonpayable",
      "type": "function"
    },
    {
      "inputs": [
        {
          "internalType": "address",
          "name": "from",
          "type": "address"
        },
        {
          "internalType": "address",
          "name": "to",
          "type": "address"
        },
        {
          "internalType": "uint256",
          "name": "tokenId",
          "type": "uint256"
        },
        {
          "internalType": "bytes",
          "name": "_data",
          "type": "bytes"
        }
      ],
      "name": "safeTransferFrom",
      "outputs": [],
      "stateMutability": "nonpayable",
      "type": "function"
    },
    {
      "inputs": [
        {
          "internalType": "address",
          "name": "operator",
          "type": "address"
        },
        {
          "internalType": "bool",
          "name": "approved",
          "type": "bool"
        }
      ],
      "name": "setApprovalForAll",
      "outputs": [],
      "stateMutability": "nonpayable",
      "type": "function"
    },
    {
      "inputs": [
        {
          "internalType": "string",
          "name": "_BASE_URI",
          "type": "string"
        }
      ],
      "name": "setBaseURI",
      "outputs": [],
      "stateMutability": "nonpayable",
      "type": "function"
    },
    {
      "inputs": [
        {
          "internalType": "address",
          "name": "couponSigner_",
          "type": "address"
        }
      ],
      "name": "setCouponSigner",
      "outputs": [],
      "stateMutability": "nonpayable",
      "type": "function"
    },
    {
      "inputs": [
        {
          "internalType": "uint256",
          "name": "_startTime",
          "type": "uint256"
        }
      ],
      "name": "setStartTimeAVAX",
      "outputs": [],
      "stateMutability": "nonpayable",
      "type": "function"
    },
    {
      "inputs": [
        {
          "internalType": "uint256",
          "name": "_startTime",
          "type": "uint256"
        }
      ],
      "name": "setStartTimeWhitelist",
      "outputs": [],
      "stateMutability": "nonpayable",
      "type": "function"
    },
    {
      "inputs": [
        {
          "internalType": "uint256",
          "name": "tokenId",
          "type": "uint256"
        },
        {
          "internalType": "uint256",
          "name": "vintnerType",
          "type": "uint256"
        }
      ],
      "name": "setVintnerType",
      "outputs": [],
      "stateMutability": "nonpayable",
      "type": "function"
    },
    {
      "inputs": [
        {
          "internalType": "uint256",
          "name": "qty",
          "type": "uint256"
        }
      ],
      "name": "setWhitelistMintCount",
      "outputs": [],
      "stateMutability": "nonpayable",
      "type": "function"
    },
    {
      "inputs": [
        {
          "internalType": "address",
          "name": "_wineryAddress",
          "type": "address"
        }
      ],
      "name": "setWineryAddress",
      "outputs": [],
      "stateMutability": "nonpayable",
      "type": "function"
    },
    {
      "inputs": [
        {
          "internalType": "address",
          "name": "_vintnerTypeOracleAddress",
          "type": "address"
        }
      ],
      "name": "setvintnerTypeOracleAddress",
      "outputs": [],
      "stateMutability": "nonpayable",
      "type": "function"
    },
    {
      "inputs": [],
      "name": "startTimeAVAX",
      "outputs": [
        {
          "internalType": "uint256",
          "name": "",
          "type": "uint256"
        }
      ],
      "stateMutability": "view",
      "type": "function"
    },
    {
      "inputs": [],
      "name": "startTimeWhitelist",
      "outputs": [
        {
          "internalType": "uint256",
          "name": "",
          "type": "uint256"
        }
      ],
      "stateMutability": "view",
      "type": "function"
    },
    {
      "inputs": [
        {
          "internalType": "bytes4",
          "name": "interfaceId",
          "type": "bytes4"
        }
      ],
      "name": "supportsInterface",
      "outputs": [
        {
          "internalType": "bool",
          "name": "",
          "type": "bool"
        }
      ],
      "stateMutability": "view",
      "type": "function"
    },
    {
      "inputs": [],
      "name": "symbol",
      "outputs": [
        {
          "internalType": "string",
          "name": "",
          "type": "string"
        }
      ],
      "stateMutability": "view",
      "type": "function"
    },
    {
      "inputs": [
        {
          "internalType": "uint256",
          "name": "",
          "type": "uint256"
        }
      ],
      "name": "tokenTypes",
      "outputs": [
        {
          "internalType": "uint256",
          "name": "",
          "type": "uint256"
        }
      ],
      "stateMutability": "view",
      "type": "function"
    },
    {
      "inputs": [
        {
          "internalType": "uint256",
          "name": "tokenId",
          "type": "uint256"
        }
      ],
      "name": "tokenURI",
      "outputs": [
        {
          "internalType": "string",
          "name": "",
          "type": "string"
        }
      ],
      "stateMutability": "view",
      "type": "function"
    },
    {
      "inputs": [
        {
          "internalType": "address",
          "name": "from",
          "type": "address"
        },
        {
          "internalType": "address",
          "name": "to",
          "type": "address"
        },
        {
          "internalType": "uint256",
          "name": "tokenId",
          "type": "uint256"
        }
      ],
      "name": "transferFrom",
      "outputs": [],
      "stateMutability": "nonpayable",
      "type": "function"
    },
    {
      "inputs": [
        {
          "internalType": "address",
          "name": "newOwner",
          "type": "address"
        }
      ],
      "name": "transferOwnership",
      "outputs": [],
      "stateMutability": "nonpayable",
      "type": "function"
    },
    {
      "inputs": [
        {
          "internalType": "uint256",
          "name": "",
          "type": "uint256"
        }
      ],
      "name": "typeYields",
      "outputs": [
        {
          "internalType": "uint256",
          "name": "",
          "type": "uint256"
        }
      ],
      "stateMutability": "view",
      "type": "function"
    },
    {
      "inputs": [],
      "name": "vintnerTypeOracleAddress",
      "outputs": [
        {
          "internalType": "address",
          "name": "",
          "type": "address"
        }
      ],
      "stateMutability": "view",
      "type": "function"
    },
    {
      "inputs": [],
      "name": "vintnersMinted",
      "outputs": [
        {
          "internalType": "uint256",
          "name": "",
          "type": "uint256"
        }
      ],
      "stateMutability": "view",
      "type": "function"
    },
    {
      "inputs": [],
      "name": "vintnersMintedPromotional",
      "outputs": [
        {
          "internalType": "uint256",
          "name": "",
          "type": "uint256"
        }
      ],
      "stateMutability": "view",
      "type": "function"
    },
    {
      "inputs": [],
      "name": "vintnersMintedWhitelist",
      "outputs": [
        {
          "internalType": "uint256",
          "name": "",
          "type": "uint256"
        }
      ],
      "stateMutability": "view",
      "type": "function"
    },
    {
      "inputs": [],
      "name": "vintnersMintedWithAVAX",
      "outputs": [
        {
          "internalType": "uint256",
          "name": "",
          "type": "uint256"
        }
      ],
      "stateMutability": "view",
      "type": "function"
    },
    {
      "inputs": [
        {
          "internalType": "address",
          "name": "",
          "type": "address"
        }
      ],
      "name": "whitelistClaimed",
      "outputs": [
        {
          "internalType": "uint256",
          "name": "",
          "type": "uint256"
        }
      ],
      "stateMutability": "view",
      "type": "function"
    },
    {
      "inputs": [],
      "name": "wineryAddress",
      "outputs": [
        {
          "internalType": "address",
          "name": "",
          "type": "address"
        }
      ],
      "stateMutability": "view",
      "type": "function"
    },
    {
      "inputs": [
        {
          "internalType": "uint256",
          "name": "_amount",
          "type": "uint256"
        }
      ],
      "name": "withdrawAVAX",
      "outputs": [],
      "stateMutability": "payable",
      "type": "function"
    }
  ],
  "transactionHash": "0x87a8f33185bcc7222c3a6c8e83d83f1300671758f879b073c6dbfb532fecc1c5",
  "args": [
    "0xC8ce9e95470F052C4506B8778FEF2880Bffd427D",
    "0x70997970C51812dc3A010C7d01b50e0d17dc79C8",
    "https://api.pizza.game/chefs"
  ],
  "solcInputHash": "e51acfbc8ee77418a48884f0e6edea5d",
  "bytecode": "0x6080604052610a8c60075560326010553480156200001c57600080fd5b5060405162003349380380620033498339810160408190526200003f91620002e0565b604080518082018252601981527f56696e7461676557696e652047616d652056696e746e6572730000000000000060208083019182528351808501909452601884527f56494e5441474557494e452d47414d452d56494e544e45520000000000000000908401528151919291620000b99160009162000207565b508051620000cf90600190602084019062000207565b505050620000ec620000e6620001b160201b60201c565b620001b5565b6006805460ff60a01b19169055601380546001600160a01b0319166001600160a01b038581169190911790915582166200012557600080fd5b600980546001600160a01b0319166001600160a01b03841617905580516200015590600a90602084019062000207565b5050600c602052505060017fd421a5181c571bba3f01190c922c3b2a896fc1d84e86c9f17ac10e67ebef8b5c55600260005260037f5d6016397a73f5e079297ac5a36fef17b4d9c3831618e63ab105738020ddd7205562000421565b3390565b600680546001600160a01b038381166001600160a01b0319831681179093556040519116919082907f8be0079c531659141344cd1fd0a4f28419497f9722a3daafe3b4186f6b6457e090600090a35050565b8280546200021590620003e4565b90600052602060002090601f01602090048101928262000239576000855562000284565b82601f106200025457805160ff191683800117855562000284565b8280016001018555821562000284579182015b828111156200028457825182559160200191906001019062000267565b506200029292915062000296565b5090565b5b8082111562000292576000815560010162000297565b80516001600160a01b0381168114620002c557600080fd5b919050565b634e487b7160e01b600052604160045260246000fd5b600080600060608486031215620002f657600080fd5b6200030184620002ad565b9250602062000312818601620002ad565b60408601519093506001600160401b03808211156200033057600080fd5b818701915087601f8301126200034557600080fd5b8151818111156200035a576200035a620002ca565b604051601f8201601f19908116603f01168101908382118183101715620003855762000385620002ca565b816040528281528a868487010111156200039e57600080fd5b600093505b82841015620003c25784840186015181850187015292850192620003a3565b82841115620003d45760008684830101525b8096505050505050509250925092565b600181811c90821680620003f957607f821691505b602082108114156200041b57634e487b7160e01b600052602260045260246000fd5b50919050565b612f1880620004316000396000f3fe6080604052600436106102e05760003560e01c80635fe95a3011610186578063a682f862116100d7578063db4bec4411610085578063db4bec441461086d578063dbddb26a1461089a578063e985e9c5146108af578063eb41903a146108cf578063efe0d7ce146108ef578063f2fde38b14610904578063fc7f3d571461031a57600080fd5b8063a682f862146107b8578063aeb5cd5e146107ce578063b88d4fde146107e1578063b99630d514610801578063c87b56dd14610821578063cda1741614610841578063da9802671461085757600080fd5b80638670f79d116101345780638670f79d146106fd5780638da5cb5b1461071957806395d89b411461072e5780639b1a5173146107435780639c508cc014610763578063a22cb46514610783578063a377d7ef146107a357600080fd5b80635fe95a30146106285780636352211e146106485780636de1a6d91461066857806370a0823114610695578063715018a6146106b5578063735d09a6146106ca5780638287ef2c146106ea57600080fd5b806327b28a0b1161024057806343f37b98116101ee57806343f37b981461057357806348c4c37f146105935780634984a719146105a8578063522445c0146105bd57806355f804b3146105d3578063599dd974146105f35780635c975abb1461061357600080fd5b806327b28a0b146104a55780632891b6a8146104bb57806333f6832a146104d05780633676edff146104fd5780633c1d4de7146105135780634036ab781461053357806342842e0e1461055357600080fd5b8063095ea7b31161029d578063095ea7b3146103d7578063097f1f2f146103f957806314a91014146104195780631ea111791461042f578063238aa9cd1461044f57806323b872dd1461046f5780632476703e1461048f57600080fd5b806301ffc9a7146102e557806305c87a021461031a57806306fdde031461033d5780630805d8841461035f578063081812fc1461037f578063082ee8b2146103b7575b600080fd5b3480156102f157600080fd5b50610305610300366004612635565b610924565b60405190151581526020015b60405180910390f35b34801561032657600080fd5b5061032f600181565b604051908152602001610311565b34801561034957600080fd5b50610352610976565b60405161031191906126aa565b34801561036b57600080fd5b5061032f61037a3660046126bd565b610a08565b34801561038b57600080fd5b5061039f61039a3660046126bd565b610a58565b6040516001600160a01b039091168152602001610311565b3480156103c357600080fd5b5060095461039f906001600160a01b031681565b3480156103e357600080fd5b506103f76103f23660046126eb565b610ae0565b005b34801561040557600080fd5b506103f7610414366004612717565b610bf1565b34801561042557600080fd5b5061032f61271081565b34801561043b57600080fd5b5060135461039f906001600160a01b031681565b34801561045b57600080fd5b506103f761046a366004612734565b610c42565b34801561047b57600080fd5b506103f761048a36600461276d565b610db0565b34801561049b57600080fd5b5061032f60115481565b3480156104b157600080fd5b5061032f60105481565b3480156104c757600080fd5b5061032f600381565b3480156104dc57600080fd5b5061032f6104eb3660046126bd565b600b6020526000908152604090205481565b34801561050957600080fd5b5061032f600f5481565b34801561051f57600080fd5b506103f761052e3660046126bd565b610de1565b34801561053f57600080fd5b5061032f61054e3660046126bd565b610e35565b34801561055f57600080fd5b506103f761056e36600461276d565b610e6f565b34801561057f57600080fd5b506103f761058e3660046127ae565b610e8a565b34801561059f57600080fd5b5061032f603281565b3480156105b457600080fd5b5061032f600281565b3480156105c957600080fd5b5061032f600d5481565b3480156105df57600080fd5b506103f76105ee3660046127e5565b610ecd565b3480156105ff57600080fd5b506103f761060e366004612857565b610f08565b34801561061f57600080fd5b5061030561101d565b34801561063457600080fd5b506103f76106433660046128c0565b61102d565b34801561065457600080fd5b5061039f6106633660046126bd565b611193565b34801561067457600080fd5b5061032f6106833660046126bd565b600c6020526000908152604090205481565b3480156106a157600080fd5b5061032f6106b0366004612717565b61120a565b3480156106c157600080fd5b506103f7611291565b3480156106d657600080fd5b5060085461039f906001600160a01b031681565b6103f76106f83660046126bd565b6112cc565b34801561070957600080fd5b5061032f6729a2241af62c000081565b34801561072557600080fd5b5061039f61147a565b34801561073a57600080fd5b50610352611489565b34801561074f57600080fd5b506103f761075e366004612717565b611498565b34801561076f57600080fd5b506103f761077e3660046126bd565b6114e9565b34801561078f57600080fd5b506103f761079e36600461295e565b61153d565b3480156107af57600080fd5b5061030561154c565b3480156107c457600080fd5b5061032f60125481565b6103f76107dc3660046126bd565b611568565b3480156107ed57600080fd5b506103f76107fc366004612997565b611647565b34801561080d57600080fd5b506103f761081c366004612717565b611679565b34801561082d57600080fd5b5061035261083c3660046126bd565b6116ca565b34801561084d57600080fd5b5061032f60075481565b34801561086357600080fd5b5061032f600e5481565b34801561087957600080fd5b5061032f610888366004612717565b60146020526000908152604090205481565b3480156108a657600080fd5b50610352611771565b3480156108bb57600080fd5b506103056108ca366004612a5b565b6117ff565b3480156108db57600080fd5b506103f76108ea3660046126bd565b611867565b3480156108fb57600080fd5b506103056118bb565b34801561091057600080fd5b506103f761091f366004612717565b6118d5565b60006001600160e01b031982166380ac58cd60e01b148061095557506001600160e01b03198216635b5e139f60e01b145b8061097057506301ffc9a760e01b6001600160e01b03198316145b92915050565b60606000805461098590612a89565b80601f01602080910402602001604051908101604052809291908181526020018280546109b190612a89565b80156109fe5780601f106109d3576101008083540402835291602001916109fe565b820191906000526020600020905b8154815290600101906020018083116109e157829003601f168201915b5050505050905090565b6000610a1382611975565b610a385760405162461bcd60e51b8152600401610a2f90612ac4565b60405180910390fd5b506000908152600b60209081526040808320548352600c90915290205490565b6000610a6382611975565b610ac45760405162461bcd60e51b815260206004820152602c60248201527f4552433732313a20617070726f76656420717565727920666f72206e6f6e657860448201526b34b9ba32b73a103a37b5b2b760a11b6064820152608401610a2f565b506000908152600460205260409020546001600160a01b031690565b6000610aeb82611193565b9050806001600160a01b0316836001600160a01b03161415610b595760405162461bcd60e51b815260206004820152602160248201527f4552433732313a20617070726f76616c20746f2063757272656e74206f776e656044820152603960f91b6064820152608401610a2f565b336001600160a01b0382161480610b755750610b7581336117ff565b610be25760405162461bcd60e51b815260206004820152603860248201527f4552433732313a20617070726f76652063616c6c6572206973206e6f74206f776044820152771b995c881b9bdc88185c1c1c9bdd995908199bdc88185b1b60421b6064820152608401610a2f565b610bec8383611992565b505050565b33610bfa61147a565b6001600160a01b031614610c205760405162461bcd60e51b8152600401610a2f90612af2565b600880546001600160a01b0319166001600160a01b0392909216919091179055565b33610c4b61147a565b6001600160a01b031614610c715760405162461bcd60e51b8152600401610a2f90612af2565b60008311610c915760405162461bcd60e51b8152600401610a2f90612b27565b603283600f54610ca19190612b74565b1115610cfa5760405162461bcd60e51b815260206004820152602260248201527f796f752063616e2774206d696e742074686174206d616e79207269676874206e6044820152616f7760f01b6064820152608401610a2f565b6001821480610d095750600282145b610d255760405162461bcd60e51b8152600401610a2f90612b8c565b60005b83811015610daa576001600f6000828254610d439190612b74565b9091555050600f546000908152600b602052604090205415610d775760405162461bcd60e51b8152600401610a2f90612bba565b600f80546000908152600b6020526040902084905554610d98908390611a00565b80610da281612c00565b915050610d28565b50505050565b610dba3382611a8e565b610dd65760405162461bcd60e51b8152600401610a2f90612c1b565b610bec838383611b58565b33610dea61147a565b6001600160a01b031614610e105760405162461bcd60e51b8152600401610a2f90612af2565b42811015610e305760405162461bcd60e51b8152600401610a2f90612c6c565b601255565b6000610e4082611975565b610e5c5760405162461bcd60e51b8152600401610a2f90612ac4565b506000908152600b602052604090205490565b610bec83838360405180602001604052806000815250611647565b33610e9361147a565b6001600160a01b031614610eb95760405162461bcd60e51b8152600401610a2f90612af2565b610bec6001600160a01b0384168284611cf4565b33610ed661147a565b6001600160a01b031614610efc5760405162461bcd60e51b8152600401610a2f90612af2565b610bec600a8383612586565b6009546001600160a01b0316336001600160a01b031614610f765760405162461bcd60e51b815260206004820152602260248201527f6d736773656e64657220646f6573206e6f742068617665207065726d6973736960448201526137b760f11b6064820152608401610a2f565b6000828152600b602052604090205415610fa25760405162461bcd60e51b8152600401610a2f90612bba565b6001811480610fb15750600281145b610fcd5760405162461bcd60e51b8152600401610a2f90612b8c565b6000828152600b602090815260409182902083905581518481529081018390527f99bfcaa3dc7409b462b5c2023b3fd711f104e8fc2f126ed387e6af9abbd9c94591015b60405180910390a15050565b600654600160a01b900460ff1690565b61103561101d565b156110525760405162461bcd60e51b8152600401610a2f90612ca3565b61105a6118bb565b6110765760405162461bcd60e51b8152600401610a2f90612ccd565b611081826001612b74565b3360009081526014602052604090205461109b9085612b74565b106110df5760405162461bcd60e51b8152602060048201526014602482015273115e18d959591cc813585e08105b1b1bdd1d195960621b6044820152606401610a2f565b6040805160208082018590523382840152825180830384018152606090920190925280519101206111108183611d46565b61114d5760405162461bcd60e51b815260206004820152600e60248201526d24b73b30b634b21021b7bab837b760911b6044820152606401610a2f565b83600e600082825461115f9190612b74565b90915550503360009081526014602052604081208054869290611183908490612b74565b90915550610daa90508433611e1d565b6000818152600260205260408120546001600160a01b0316806109705760405162461bcd60e51b815260206004820152602960248201527f4552433732313a206f776e657220717565727920666f72206e6f6e657869737460448201526832b73a103a37b5b2b760b91b6064820152608401610a2f565b60006001600160a01b0382166112755760405162461bcd60e51b815260206004820152602a60248201527f4552433732313a2062616c616e636520717565727920666f7220746865207a65604482015269726f206164647265737360b01b6064820152608401610a2f565b506001600160a01b031660009081526003602052604090205490565b3361129a61147a565b6001600160a01b0316146112c05760405162461bcd60e51b8152600401610a2f90612af2565b6112ca6000611e60565b565b6112d461101d565b156112f15760405162461bcd60e51b8152600401610a2f90612ca3565b6112f961154c565b6113155760405162461bcd60e51b8152600401610a2f90612ccd565b60006113203361120a565b9050600061132e8383612b74565b118015611345575060146113428383612b74565b11155b6113915760405162461bcd60e51b815260206004820152601f60248201527f45786365656473206e756d626572206f66206d696e747320616c6c6f776564006044820152606401610a2f565b6032600e546127106113a39190612cfc565b6113ad9190612cfc565b8282600d546113bc9190612b74565b6113c69190612b74565b11156114225760405162461bcd60e51b815260206004820152602560248201527f45786365656473206e756d626572206f6620746f74616c206d696e747320616c6044820152641b1bddd95960da1b6064820152608401610a2f565b6000611436836729a2241af62c0000612d13565b9050803410156114585760405162461bcd60e51b8152600401610a2f90612d32565b82600d600082825461146a9190612b74565b90915550610bec90508333611e1d565b6006546001600160a01b031690565b60606001805461098590612a89565b336114a161147a565b6001600160a01b0316146114c75760405162461bcd60e51b8152600401610a2f90612af2565b601380546001600160a01b0319166001600160a01b0392909216919091179055565b336114f261147a565b6001600160a01b0316146115185760405162461bcd60e51b8152600401610a2f90612af2565b600081116115385760405162461bcd60e51b8152600401610a2f90612b27565b600755565b611548338383611eb2565b5050565b600060125460001415801561156357506012544210155b905090565b3361157161147a565b6001600160a01b0316146115975760405162461bcd60e51b8152600401610a2f90612af2565b804710156115b75760405162461bcd60e51b8152600401610a2f90612d32565b6040513390600090829084908381818185875af1925050503d80600081146115fb576040519150601f19603f3d011682016040523d82523d6000602084013e611600565b606091505b5050905080610bec5760405162461bcd60e51b815260206004820152601360248201527208cc2d2d8cac840e8de40e6cadcc84082ac82b606b1b6044820152606401610a2f565b6116513383611a8e565b61166d5760405162461bcd60e51b8152600401610a2f90612c1b565b610daa84848484611f7d565b3361168261147a565b6001600160a01b0316146116a85760405162461bcd60e51b8152600401610a2f90612af2565b600980546001600160a01b0319166001600160a01b0392909216919091179055565b60606116d582611975565b6117395760405162461bcd60e51b815260206004820152602f60248201527f4552433732314d657461646174613a2055524920717565727920666f72206e6f60448201526e3732bc34b9ba32b73a103a37b5b2b760891b6064820152608401610a2f565b611741611fb0565b61174a83611fbf565b60405160200161175b929190612d5b565b6040516020818303038152906040529050919050565b600a805461177e90612a89565b80601f01602080910402602001604051908101604052809291908181526020018280546117aa90612a89565b80156117f75780601f106117cc576101008083540402835291602001916117f7565b820191906000526020600020905b8154815290600101906020018083116117da57829003601f168201915b505050505081565b6008546000906001600160a01b03161580159061182957506008546001600160a01b038381169116145b1561183657506001610970565b6001600160a01b0380841660009081526005602090815260408083209386168352929052205460ff165b9392505050565b3361187061147a565b6001600160a01b0316146118965760405162461bcd60e51b8152600401610a2f90612af2565b428110156118b65760405162461bcd60e51b8152600401610a2f90612c6c565b601155565b600060115460001415801561156357505060115442101590565b336118de61147a565b6001600160a01b0316146119045760405162461bcd60e51b8152600401610a2f90612af2565b6001600160a01b0381166119695760405162461bcd60e51b815260206004820152602660248201527f4f776e61626c653a206e6577206f776e657220697320746865207a65726f206160448201526564647265737360d01b6064820152608401610a2f565b61197281611e60565b50565b6000908152600260205260409020546001600160a01b0316151590565b600081815260046020526040902080546001600160a01b0319166001600160a01b03841690811790915581906119c782611193565b6001600160a01b03167f8c5be1e5ebec7d5bd14f71427d1e84f3dd0314c0f7b2291e5b200ac8c7c3b92560405160405180910390a45050565b6127106010541115611a545760405162461bcd60e51b815260206004820152601c60248201527f63616e6e6f74206d696e7420616e796d6f72652076696e746e657273000000006044820152606401610a2f565b611a5e82826120bd565b6040518181527f3926193096e67dd1d3b1874999e37846ff022578abd9b20fe806f5dcb52d788d90602001611011565b6000611a9982611975565b611afa5760405162461bcd60e51b815260206004820152602c60248201527f4552433732313a206f70657261746f7220717565727920666f72206e6f6e657860448201526b34b9ba32b73a103a37b5b2b760a11b6064820152608401610a2f565b6000611b0583611193565b9050806001600160a01b0316846001600160a01b03161480611b2c5750611b2c81856117ff565b80611b505750836001600160a01b0316611b4584610a58565b6001600160a01b0316145b949350505050565b826001600160a01b0316611b6b82611193565b6001600160a01b031614611bcf5760405162461bcd60e51b815260206004820152602560248201527f4552433732313a207472616e736665722066726f6d20696e636f72726563742060448201526437bbb732b960d91b6064820152608401610a2f565b6001600160a01b038216611c315760405162461bcd60e51b8152602060048201526024808201527f4552433732313a207472616e7366657220746f20746865207a65726f206164646044820152637265737360e01b6064820152608401610a2f565b611c3c600082611992565b6001600160a01b0383166000908152600360205260408120805460019290611c65908490612cfc565b90915550506001600160a01b0382166000908152600360205260408120805460019290611c93908490612b74565b909155505060008181526002602052604080822080546001600160a01b0319166001600160a01b0386811691821790925591518493918716917fddf252ad1be2c89b69c2b068fc378daa952ba7f163c4a11628f55a4df523b3ef91a4505050565b604080516001600160a01b038416602482015260448082018490528251808303909101815260649091019091526020810180516001600160e01b031663a9059cbb60e01b179052610bec9084906120d7565b60008060018484604001518560000151866020015160405160008152602001604052604051611d91949392919093845260ff9290921660208401526040830152606082015260800190565b6020604051602081039080840390855afa158015611db3573d6000803e3d6000fd5b5050604051601f1901519150506001600160a01b038116611e055760405162461bcd60e51b815260206004820152600c60248201526b5a65726f204164647265737360a01b6044820152606401610a2f565b6013546001600160a01b039081169116149392505050565b60005b82811015610bec57600160106000828254611e3b9190612b74565b92505081905550611e4e82601054611a00565b80611e5881612c00565b915050611e20565b600680546001600160a01b038381166001600160a01b0319831681179093556040519116919082907f8be0079c531659141344cd1fd0a4f28419497f9722a3daafe3b4186f6b6457e090600090a35050565b816001600160a01b0316836001600160a01b03161415611f105760405162461bcd60e51b815260206004820152601960248201527822a9219b99189d1030b8383937bb32903a379031b0b63632b960391b6044820152606401610a2f565b6001600160a01b03838116600081815260056020908152604080832094871680845294825291829020805460ff191686151590811790915591519182527f17307eab39ab6107e8899845ad3d59bd9653f200f220920489ca2b5937696c31910160405180910390a3505050565b611f88848484611b58565b611f94848484846121a9565b610daa5760405162461bcd60e51b8152600401610a2f90612da9565b6060600a805461098590612a89565b606081611fe35750506040805180820190915260018152600360fc1b602082015290565b8160005b811561200d5780611ff781612c00565b91506120069050600a83612e11565b9150611fe7565b60008167ffffffffffffffff81111561202857612028612879565b6040519080825280601f01601f191660200182016040528015612052576020820181803683370190505b5090505b8415611b5057612067600183612cfc565b9150612074600a86612e25565b61207f906030612b74565b60f81b81838151811061209457612094612e39565b60200101906001600160f81b031916908160001a9053506120b6600a86612e11565b9450612056565b6115488282604051806020016040528060008152506122a7565b600061212c826040518060400160405280602081526020017f5361666545524332303a206c6f772d6c6576656c2063616c6c206661696c6564815250856001600160a01b03166122da9092919063ffffffff16565b805190915015610bec578080602001905181019061214a9190612e4f565b610bec5760405162461bcd60e51b815260206004820152602a60248201527f5361666545524332303a204552433230206f7065726174696f6e20646964206e6044820152691bdd081cdd58d8d9595960b21b6064820152608401610a2f565b60006001600160a01b0384163b1561229c57604051630a85bd0160e11b81526001600160a01b0385169063150b7a02906121ed903390899088908890600401612e6c565b6020604051808303816000875af1925050508015612228575060408051601f3d908101601f1916820190925261222591810190612ea9565b60015b612282573d808015612256576040519150601f19603f3d011682016040523d82523d6000602084013e61225b565b606091505b50805161227a5760405162461bcd60e51b8152600401610a2f90612da9565b805181602001fd5b6001600160e01b031916630a85bd0160e11b149050611b50565b506001949350505050565b6122b183836122e9565b6122be60008484846121a9565b610bec5760405162461bcd60e51b8152600401610a2f90612da9565b6060611b50848460008561241c565b6001600160a01b03821661233f5760405162461bcd60e51b815260206004820181905260248201527f4552433732313a206d696e7420746f20746865207a65726f20616464726573736044820152606401610a2f565b61234881611975565b156123955760405162461bcd60e51b815260206004820152601c60248201527f4552433732313a20746f6b656e20616c7265616479206d696e746564000000006044820152606401610a2f565b6001600160a01b03821660009081526003602052604081208054600192906123be908490612b74565b909155505060008181526002602052604080822080546001600160a01b0319166001600160a01b03861690811790915590518392907fddf252ad1be2c89b69c2b068fc378daa952ba7f163c4a11628f55a4df523b3ef908290a45050565b60608247101561247d5760405162461bcd60e51b815260206004820152602660248201527f416464726573733a20696e73756666696369656e742062616c616e636520666f6044820152651c8818d85b1b60d21b6064820152608401610a2f565b6001600160a01b0385163b6124d45760405162461bcd60e51b815260206004820152601d60248201527f416464726573733a2063616c6c20746f206e6f6e2d636f6e74726163740000006044820152606401610a2f565b600080866001600160a01b031685876040516124f09190612ec6565b60006040518083038185875af1925050503d806000811461252d576040519150601f19603f3d011682016040523d82523d6000602084013e612532565b606091505b509150915061254282828661254d565b979650505050505050565b6060831561255c575081611860565b82511561256c5782518084602001fd5b8160405162461bcd60e51b8152600401610a2f91906126aa565b82805461259290612a89565b90600052602060002090601f0160209004810192826125b457600085556125fa565b82601f106125cd5782800160ff198235161785556125fa565b828001600101855582156125fa579182015b828111156125fa5782358255916020019190600101906125df565b5061260692915061260a565b5090565b5b80821115612606576000815560010161260b565b6001600160e01b03198116811461197257600080fd5b60006020828403121561264757600080fd5b81356118608161261f565b60005b8381101561266d578181015183820152602001612655565b83811115610daa5750506000910152565b60008151808452612696816020860160208601612652565b601f01601f19169290920160200192915050565b602081526000611860602083018461267e565b6000602082840312156126cf57600080fd5b5035919050565b6001600160a01b038116811461197257600080fd5b600080604083850312156126fe57600080fd5b8235612709816126d6565b946020939093013593505050565b60006020828403121561272957600080fd5b8135611860816126d6565b60008060006060848603121561274957600080fd5b83359250602084013591506040840135612762816126d6565b809150509250925092565b60008060006060848603121561278257600080fd5b833561278d816126d6565b9250602084013561279d816126d6565b929592945050506040919091013590565b6000806000606084860312156127c357600080fd5b83356127ce816126d6565b9250602084013591506040840135612762816126d6565b600080602083850312156127f857600080fd5b823567ffffffffffffffff8082111561281057600080fd5b818501915085601f83011261282457600080fd5b81358181111561283357600080fd5b86602082850101111561284557600080fd5b60209290920196919550909350505050565b6000806040838503121561286a57600080fd5b50508035926020909101359150565b634e487b7160e01b600052604160045260246000fd5b604051601f8201601f1916810167ffffffffffffffff811182821017156128b8576128b8612879565b604052919050565b600080600083850360a08112156128d657600080fd5b84359350602085013592506060603f19820112156128f357600080fd5b506040516060810181811067ffffffffffffffff8211171561291757612917612879565b6040908152850135815260608501356020820152608085013560ff8116811461293f57600080fd5b604082015292959194509192509050565b801515811461197257600080fd5b6000806040838503121561297157600080fd5b823561297c816126d6565b9150602083013561298c81612950565b809150509250929050565b600080600080608085870312156129ad57600080fd5b84356129b8816126d6565b93506020858101356129c9816126d6565b935060408601359250606086013567ffffffffffffffff808211156129ed57600080fd5b818801915088601f830112612a0157600080fd5b813581811115612a1357612a13612879565b612a25601f8201601f1916850161288f565b91508082528984828501011115612a3b57600080fd5b808484018584013760008482840101525080935050505092959194509250565b60008060408385031215612a6e57600080fd5b8235612a79816126d6565b9150602083013561298c816126d6565b600181811c90821680612a9d57607f821691505b60208210811415612abe57634e487b7160e01b600052602260045260246000fd5b50919050565b6020808252601490820152731d1bdad95b88191bd95cc81b9bdd08195e1a5cdd60621b604082015260600190565b6020808252818101527f4f776e61626c653a2063616c6c6572206973206e6f7420746865206f776e6572604082015260600190565b6020808252601f908201527f7175616e74697479206d7573742062652067726561746572207468616e203000604082015260600190565b634e487b7160e01b600052601160045260246000fd5b60008219821115612b8757612b87612b5e565b500190565b602080825260149082015273696e76616c69642076696e746e6572207479706560601b604082015260600190565b60208082526026908201527f7468617420746f6b656e277320747970652068617320616c7265616479206265604082015265195b881cd95d60d21b606082015260800190565b6000600019821415612c1457612c14612b5e565b5060010190565b60208082526031908201527f4552433732313a207472616e736665722063616c6c6572206973206e6f74206f6040820152701ddb995c881b9bdc88185c1c1c9bdd9959607a1b606082015260800190565b6020808252601f908201527f737461727454696d652063616e6e6f7420626520696e20746865207061737400604082015260600190565b60208082526010908201526f14185d5cd8589b194e881c185d5cd95960821b604082015260600190565b60208082526015908201527463616e6e6f74206d696e74207269676874206e6f7760581b604082015260600190565b600082821015612d0e57612d0e612b5e565b500390565b6000816000190483118215151615612d2d57612d2d612b5e565b500290565b6020808252600f908201526e0dcdee840cadcdeeaced04082ac82b608b1b604082015260600190565b60008351612d6d818460208801612652565b602f60f81b9083019081528351612d8b816001840160208801612652565b64173539b7b760d91b60019290910191820152600601949350505050565b60208082526032908201527f4552433732313a207472616e7366657220746f206e6f6e20455243373231526560408201527131b2b4bb32b91034b6b83632b6b2b73a32b960711b606082015260800190565b634e487b7160e01b600052601260045260246000fd5b600082612e2057612e20612dfb565b500490565b600082612e3457612e34612dfb565b500690565b634e487b7160e01b600052603260045260246000fd5b600060208284031215612e6157600080fd5b815161186081612950565b6001600160a01b0385811682528416602082015260408101839052608060608201819052600090612e9f9083018461267e565b9695505050505050565b600060208284031215612ebb57600080fd5b81516118608161261f565b60008251612ed8818460208701612652565b919091019291505056fea26469706673582212202a9f37f76dd93791780d6f505aabd037a7dfcaa86d845369b6c8b453448b114864736f6c634300080b0033"
}