{
  "address": "0x5FC8d32690cc91D4c39d9d3abcBD16989F875707",
  "abi": [
    {
      "inputs": [
        {
          "internalType": "address",
          "name": "_grape",
          "type": "address"
        }
      ],
      "stateMutability": "nonpayable",
      "type": "constructor"
    },
    {
      "anonymous": false,
      "inputs": [
        {
          "indexed": true,
          "internalType": "address",
          "name": "previousOwner",
          "type": "address"
        },
        {
          "indexed": true,
          "internalType": "address",
          "name": "newOwner",
          "type": "address"
        }
      ],
      "name": "OwnershipTransferred",
      "type": "event"
    },
    {
      "anonymous": false,
      "inputs": [
        {
          "indexed": false,
          "internalType": "address",
          "name": "owner",
          "type": "address"
        },
        {
          "indexed": false,
          "internalType": "uint256",
          "name": "skillPoints",
          "type": "uint256"
        }
      ],
      "name": "receivedSkillPoints",
      "type": "event"
    },
    {
      "anonymous": false,
      "inputs": [
        {
          "indexed": false,
          "internalType": "address",
          "name": "owner",
          "type": "address"
        },
        {
          "indexed": false,
          "internalType": "uint256",
          "name": "level",
          "type": "uint256"
        }
      ],
      "name": "respec",
      "type": "event"
    },
    {
      "anonymous": false,
      "inputs": [
        {
          "indexed": false,
          "internalType": "address",
          "name": "owner",
          "type": "address"
        },
        {
          "indexed": false,
          "internalType": "uint256",
          "name": "skillGroup",
          "type": "uint256"
        },
        {
          "indexed": false,
          "internalType": "uint256",
          "name": "skillLevel",
          "type": "uint256"
        }
      ],
      "name": "skillLearned",
      "type": "event"
    },
    {
      "inputs": [],
      "name": "BURN_ID",
      "outputs": [
        {
          "internalType": "uint256",
          "name": "",
          "type": "uint256"
        }
      ],
      "stateMutability": "view",
      "type": "function"
    },
    {
      "inputs": [],
      "name": "CELLAR_ID",
      "outputs": [
        {
          "internalType": "uint256",
          "name": "",
          "type": "uint256"
        }
      ],
      "stateMutability": "view",
      "type": "function"
    },
    {
      "inputs": [],
      "name": "FATIGUE_ID",
      "outputs": [
        {
          "internalType": "uint256",
          "name": "",
          "type": "uint256"
        }
      ],
      "stateMutability": "view",
      "type": "function"
    },
    {
      "inputs": [],
      "name": "MASTERVINTNER_ID",
      "outputs": [
        {
          "internalType": "uint256",
          "name": "",
          "type": "uint256"
        }
      ],
      "stateMutability": "view",
      "type": "function"
    },
    {
      "inputs": [
        {
          "internalType": "uint256",
          "name": "",
          "type": "uint256"
        }
      ],
      "name": "MAX_SKILL_LEVEL",
      "outputs": [
        {
          "internalType": "uint256",
          "name": "",
          "type": "uint256"
        }
      ],
      "stateMutability": "view",
      "type": "function"
    },
    {
      "inputs": [],
      "name": "STORAGE_ID",
      "outputs": [
        {
          "internalType": "uint256",
          "name": "",
          "type": "uint256"
        }
      ],
      "stateMutability": "view",
      "type": "function"
    },
    {
      "inputs": [],
      "name": "UPGRADES_ID",
      "outputs": [
        {
          "internalType": "uint256",
          "name": "",
          "type": "uint256"
        }
      ],
      "stateMutability": "view",
      "type": "function"
    },
    {
      "inputs": [],
      "name": "VINTNERS_ID",
      "outputs": [
        {
          "internalType": "uint256",
          "name": "",
          "type": "uint256"
        }
      ],
      "stateMutability": "view",
      "type": "function"
    },
    {
      "inputs": [],
      "name": "baseCostRespect",
      "outputs": [
        {
          "internalType": "uint256",
          "name": "",
          "type": "uint256"
        }
      ],
      "stateMutability": "view",
      "type": "function"
    },
    {
      "inputs": [
        {
          "internalType": "uint256",
          "name": "",
          "type": "uint256"
        }
      ],
      "name": "burnSkillValue",
      "outputs": [
        {
          "internalType": "uint256",
          "name": "",
          "type": "uint256"
        }
      ],
      "stateMutability": "view",
      "type": "function"
    },
    {
      "inputs": [
        {
          "internalType": "uint256",
          "name": "",
          "type": "uint256"
        }
      ],
      "name": "cellarSkillValue",
      "outputs": [
        {
          "internalType": "uint256",
          "name": "",
          "type": "uint256"
        }
      ],
      "stateMutability": "view",
      "type": "function"
    },
    {
      "inputs": [
        {
          "internalType": "address",
          "name": "_owner",
          "type": "address"
        }
      ],
      "name": "checkIfNeedUpdate",
      "outputs": [
        {
          "internalType": "bool",
          "name": "",
          "type": "bool"
        }
      ],
      "stateMutability": "view",
      "type": "function"
    },
    {
      "inputs": [
        {
          "internalType": "uint256",
          "name": "_amount",
          "type": "uint256"
        }
      ],
      "name": "depositGrape",
      "outputs": [],
      "stateMutability": "nonpayable",
      "type": "function"
    },
    {
      "inputs": [
        {
          "internalType": "uint256",
          "name": "",
          "type": "uint256"
        }
      ],
      "name": "fatigueSkillValue",
      "outputs": [
        {
          "internalType": "uint256",
          "name": "",
          "type": "uint256"
        }
      ],
      "stateMutability": "view",
      "type": "function"
    },
    {
      "inputs": [
        {
          "internalType": "address",
          "name": "_player",
          "type": "address"
        }
      ],
      "name": "fixSkillPoints",
      "outputs": [],
      "stateMutability": "nonpayable",
      "type": "function"
    },
    {
      "inputs": [
        {
          "internalType": "address",
          "name": "_owner",
          "type": "address"
        }
      ],
      "name": "getBurnSkillModifier",
      "outputs": [
        {
          "internalType": "uint256",
          "name": "",
          "type": "uint256"
        }
      ],
      "stateMutability": "view",
      "type": "function"
    },
    {
      "inputs": [
        {
          "internalType": "address",
          "name": "_owner",
          "type": "address"
        }
      ],
      "name": "getCellarSkillModifier",
      "outputs": [
        {
          "internalType": "uint256",
          "name": "",
          "type": "uint256"
        }
      ],
      "stateMutability": "view",
      "type": "function"
    },
    {
      "inputs": [
        {
          "internalType": "address",
          "name": "_owner",
          "type": "address"
        }
      ],
      "name": "getFatigueSkillModifier",
      "outputs": [
        {
          "internalType": "uint256",
          "name": "",
          "type": "uint256"
        }
      ],
      "stateMutability": "view",
      "type": "function"
    },
    {
      "inputs": [
        {
          "internalType": "address",
          "name": "_owner",
          "type": "address"
        }
      ],
      "name": "getGrapeDeposited",
      "outputs": [
        {
          "internalType": "uint256",
          "name": "",
          "type": "uint256"
        }
      ],
      "stateMutability": "view",
      "type": "function"
    },
    {
      "inputs": [
        {
          "internalType": "address",
          "name": "_owner",
          "type": "address"
        }
      ],
      "name": "getGrapeToNextLevel",
      "outputs": [
        {
          "internalType": "uint256",
          "name": "",
          "type": "uint256"
        }
      ],
      "stateMutability": "view",
      "type": "function"
    },
    {
      "inputs": [
        {
          "internalType": "address",
          "name": "_owner",
          "type": "address"
        }
      ],
      "name": "getLevel",
      "outputs": [
        {
          "internalType": "uint256",
          "name": "",
          "type": "uint256"
        }
      ],
      "stateMutability": "view",
      "type": "function"
    },
    {
      "inputs": [
        {
          "internalType": "address",
          "name": "_owner",
          "type": "address"
        },
        {
          "internalType": "uint256",
          "name": "_masterVintnerNumber",
          "type": "uint256"
        }
      ],
      "name": "getMasterVintnerSkillModifier",
      "outputs": [
        {
          "internalType": "uint256",
          "name": "",
          "type": "uint256"
        }
      ],
      "stateMutability": "view",
      "type": "function"
    },
    {
      "inputs": [
        {
          "internalType": "address",
          "name": "_owner",
          "type": "address"
        }
      ],
      "name": "getMaxLevelUpgrade",
      "outputs": [
        {
          "internalType": "uint256",
          "name": "",
          "type": "uint256"
        }
      ],
      "stateMutability": "view",
      "type": "function"
    },
    {
      "inputs": [
        {
          "internalType": "address",
          "name": "_owner",
          "type": "address"
        }
      ],
      "name": "getMaxNumberVintners",
      "outputs": [
        {
          "internalType": "uint256",
          "name": "",
          "type": "uint256"
        }
      ],
      "stateMutability": "view",
      "type": "function"
    },
    {
      "inputs": [
        {
          "internalType": "address",
          "name": "_owner",
          "type": "address"
        }
      ],
      "name": "getSkillPoints",
      "outputs": [
        {
          "internalType": "uint256",
          "name": "",
          "type": "uint256"
        }
      ],
      "stateMutability": "view",
      "type": "function"
    },
    {
      "inputs": [
        {
          "internalType": "address",
          "name": "_owner",
          "type": "address"
        }
      ],
      "name": "getSkillsLearned",
      "outputs": [
        {
          "internalType": "uint256",
          "name": "burn",
          "type": "uint256"
        },
        {
          "internalType": "uint256",
          "name": "fatigue",
          "type": "uint256"
        },
        {
          "internalType": "uint256",
          "name": "cellar",
          "type": "uint256"
        },
        {
          "internalType": "uint256",
          "name": "mastervintner",
          "type": "uint256"
        },
        {
          "internalType": "uint256",
          "name": "upgrades",
          "type": "uint256"
        },
        {
          "internalType": "uint256",
          "name": "vintners",
          "type": "uint256"
        },
        {
          "internalType": "uint256",
          "name": "vintageWineStorage",
          "type": "uint256"
        }
      ],
      "stateMutability": "view",
      "type": "function"
    },
    {
      "inputs": [
        {
          "internalType": "address",
          "name": "_owner",
          "type": "address"
        }
      ],
      "name": "getVintageWineStorage",
      "outputs": [
        {
          "internalType": "uint256",
          "name": "",
          "type": "uint256"
        }
      ],
      "stateMutability": "view",
      "type": "function"
    },
    {
      "inputs": [],
      "name": "grape",
      "outputs": [
        {
          "internalType": "contract IGrape",
          "name": "",
          "type": "address"
        }
      ],
      "stateMutability": "view",
      "type": "function"
    },
    {
      "inputs": [
        {
          "internalType": "address",
          "name": "",
          "type": "address"
        }
      ],
      "name": "grapeDeposited",
      "outputs": [
        {
          "internalType": "uint256",
          "name": "",
          "type": "uint256"
        }
      ],
      "stateMutability": "view",
      "type": "function"
    },
    {
      "inputs": [
        {
          "internalType": "uint256",
          "name": "",
          "type": "uint256"
        }
      ],
      "name": "grapeLevels",
      "outputs": [
        {
          "internalType": "uint256",
          "name": "",
          "type": "uint256"
        }
      ],
      "stateMutability": "view",
      "type": "function"
    },
    {
      "inputs": [],
      "name": "levelStarted",
      "outputs": [
        {
          "internalType": "bool",
          "name": "",
          "type": "bool"
        }
      ],
      "stateMutability": "view",
      "type": "function"
    },
    {
      "inputs": [],
      "name": "levelTime",
      "outputs": [
        {
          "internalType": "uint256",
          "name": "",
          "type": "uint256"
        }
      ],
      "stateMutability": "view",
      "type": "function"
    },
    {
      "inputs": [
        {
          "internalType": "uint256",
          "name": "",
          "type": "uint256"
        }
      ],
      "name": "masterVintnerSkillValue",
      "outputs": [
        {
          "internalType": "uint256",
          "name": "",
          "type": "uint256"
        }
      ],
      "stateMutability": "view",
      "type": "function"
    },
    {
      "inputs": [],
      "name": "maxGrapeAmount",
      "outputs": [
        {
          "internalType": "uint256",
          "name": "",
          "type": "uint256"
        }
      ],
      "stateMutability": "view",
      "type": "function"
    },
    {
      "inputs": [],
      "name": "oldWinery",
      "outputs": [
        {
          "internalType": "contract IWinery",
          "name": "",
          "type": "address"
        }
      ],
      "stateMutability": "view",
      "type": "function"
    },
    {
      "inputs": [],
      "name": "owner",
      "outputs": [
        {
          "internalType": "address",
          "name": "",
          "type": "address"
        }
      ],
      "stateMutability": "view",
      "type": "function"
    },
    {
      "inputs": [],
      "name": "renounceOwnership",
      "outputs": [],
      "stateMutability": "nonpayable",
      "type": "function"
    },
    {
      "inputs": [],
      "name": "resetSkills",
      "outputs": [],
      "stateMutability": "nonpayable",
      "type": "function"
    },
    {
      "inputs": [
        {
          "internalType": "uint256",
          "name": "_baseCostRespect",
          "type": "uint256"
        }
      ],
      "name": "setBaseCostRespect",
      "outputs": [],
      "stateMutability": "nonpayable",
      "type": "function"
    },
    {
      "inputs": [
        {
          "internalType": "address",
          "name": "_grape",
          "type": "address"
        }
      ],
      "name": "setGrape",
      "outputs": [],
      "stateMutability": "nonpayable",
      "type": "function"
    },
    {
      "inputs": [
        {
          "internalType": "uint256",
          "name": "_index",
          "type": "uint256"
        },
        {
          "internalType": "uint256",
          "name": "_newValue",
          "type": "uint256"
        }
      ],
      "name": "setGrapeLevels",
      "outputs": [],
      "stateMutability": "nonpayable",
      "type": "function"
    },
    {
      "inputs": [
        {
          "internalType": "uint256",
          "name": "_startTime",
          "type": "uint256"
        }
      ],
      "name": "setLevelStartTime",
      "outputs": [],
      "stateMutability": "nonpayable",
      "type": "function"
    },
    {
      "inputs": [
        {
          "internalType": "address",
          "name": "_oldWinery",
          "type": "address"
        }
      ],
      "name": "setOldWinery",
      "outputs": [],
      "stateMutability": "nonpayable",
      "type": "function"
    },
    {
      "inputs": [
        {
          "internalType": "uint256",
          "name": "_index",
          "type": "uint256"
        },
        {
          "internalType": "uint256",
          "name": "_value",
          "type": "uint256"
        }
      ],
      "name": "setburnSkillValue",
      "outputs": [],
      "stateMutability": "nonpayable",
      "type": "function"
    },
    {
      "inputs": [
        {
          "internalType": "uint256",
          "name": "_index",
          "type": "uint256"
        },
        {
          "internalType": "uint256",
          "name": "_value",
          "type": "uint256"
        }
      ],
      "name": "setcellarSkillValue",
      "outputs": [],
      "stateMutability": "nonpayable",
      "type": "function"
    },
    {
      "inputs": [
        {
          "internalType": "uint256",
          "name": "_index",
          "type": "uint256"
        },
        {
          "internalType": "uint256",
          "name": "_value",
          "type": "uint256"
        }
      ],
      "name": "setfatigueSkillValue",
      "outputs": [],
      "stateMutability": "nonpayable",
      "type": "function"
    },
    {
      "inputs": [
        {
          "internalType": "uint256",
          "name": "_index",
          "type": "uint256"
        },
        {
          "internalType": "uint256",
          "name": "_value",
          "type": "uint256"
        }
      ],
      "name": "setmasterVintnerSkillValue",
      "outputs": [],
      "stateMutability": "nonpayable",
      "type": "function"
    },
    {
      "inputs": [
        {
          "internalType": "uint256",
          "name": "_index",
          "type": "uint256"
        },
        {
          "internalType": "uint256",
          "name": "_value",
          "type": "uint256"
        }
      ],
      "name": "setupgradesSkillValue",
      "outputs": [],
      "stateMutability": "nonpayable",
      "type": "function"
    },
    {
      "inputs": [
        {
          "internalType": "uint256",
          "name": "_index",
          "type": "uint256"
        },
        {
          "internalType": "uint256",
          "name": "_value",
          "type": "uint256"
        }
      ],
      "name": "setvintageWineStorageSkillValue",
      "outputs": [],
      "stateMutability": "nonpayable",
      "type": "function"
    },
    {
      "inputs": [
        {
          "internalType": "uint256",
          "name": "_index",
          "type": "uint256"
        },
        {
          "internalType": "uint256",
          "name": "_value",
          "type": "uint256"
        }
      ],
      "name": "setvintnersSkillValue",
      "outputs": [],
      "stateMutability": "nonpayable",
      "type": "function"
    },
    {
      "inputs": [
        {
          "internalType": "address",
          "name": "",
          "type": "address"
        }
      ],
      "name": "skillPoints",
      "outputs": [
        {
          "internalType": "uint256",
          "name": "",
          "type": "uint256"
        }
      ],
      "stateMutability": "view",
      "type": "function"
    },
    {
      "inputs": [
        {
          "internalType": "address",
          "name": "",
          "type": "address"
        },
        {
          "internalType": "uint256",
          "name": "",
          "type": "uint256"
        }
      ],
      "name": "skillsLearned",
      "outputs": [
        {
          "internalType": "uint256",
          "name": "",
          "type": "uint256"
        }
      ],
      "stateMutability": "view",
      "type": "function"
    },
    {
      "inputs": [
        {
          "internalType": "uint256",
          "name": "_skillGroup",
          "type": "uint256"
        },
        {
          "internalType": "uint256",
          "name": "_skillLevel",
          "type": "uint256"
        }
      ],
      "name": "spendSkillPoints",
      "outputs": [],
      "stateMutability": "nonpayable",
      "type": "function"
    },
    {
      "inputs": [
        {
          "internalType": "address",
          "name": "newOwner",
          "type": "address"
        }
      ],
      "name": "transferOwnership",
      "outputs": [],
      "stateMutability": "nonpayable",
      "type": "function"
    },
    {
      "inputs": [
        {
          "internalType": "address",
          "name": "_owner",
          "type": "address"
        }
      ],
      "name": "updateDataFromOldWinery",
      "outputs": [],
      "stateMutability": "nonpayable",
      "type": "function"
    },
    {
      "inputs": [
        {
          "internalType": "address",
          "name": "",
          "type": "address"
        }
      ],
      "name": "updateOnce",
      "outputs": [
        {
          "internalType": "bool",
          "name": "",
          "type": "bool"
        }
      ],
      "stateMutability": "view",
      "type": "function"
    },
    {
      "inputs": [
        {
          "internalType": "uint256",
          "name": "",
          "type": "uint256"
        }
      ],
      "name": "upgradesSkillValue",
      "outputs": [
        {
          "internalType": "uint256",
          "name": "",
          "type": "uint256"
        }
      ],
      "stateMutability": "view",
      "type": "function"
    },
    {
      "inputs": [
        {
          "internalType": "uint256",
          "name": "",
          "type": "uint256"
        }
      ],
      "name": "vintageWineStorageSkillValue",
      "outputs": [
        {
          "internalType": "uint256",
          "name": "",
          "type": "uint256"
        }
      ],
      "stateMutability": "view",
      "type": "function"
    },
    {
      "inputs": [
        {
          "internalType": "uint256",
          "name": "",
          "type": "uint256"
        }
      ],
      "name": "vintnersSkillValue",
      "outputs": [
        {
          "internalType": "uint256",
          "name": "",
          "type": "uint256"
        }
      ],
      "stateMutability": "view",
      "type": "function"
    }
  ],
  "transactionHash": "0x206f30c0a88f829a54d0e605112b01f8b59f8cf38e090843e71cca1213b8daf1",
  "args": [
    "0xe7f1725E7734CE288F8367e1Bb143E90bb3F0512"
  ],
  "solcInputHash": "790cab6ab2e21bc9a546330ddfdca5aa",
  "bytecode": "0x610440604052600060809081526801158e460913d0000060a05268029a2241af62c0000060c05268047fdb3c3f456c000060e0526806c6b935b8bbd400006101005268097c9ce4cf6d5c000061012052680cbd47b6eaa8cc0000610140526810ce1d3d8cb3180000610160526815af1d78b58c40000061018052681ba5abf9e7793800006101a0526822bfa977d6216400006101c052682ba39e82ed5d7400006101e052683643aa647986040000610200526841c1c1b14024d40000610220526851270c608dd7c4000061024052686457c904fb500c000061026052687b61d8553c35100000610280526896453a515086d000006102a05268b41602d74a27a800006102c05268d527762f5f03f000006102e05268fe7656021f439800006103005269013002a24f8ae6a0000061032052690168ee4fac6776c80000610340526901ab0355a5dd87f40000610360526901fda1154b5e0744000061038052690260b9ade6354d5400006103a0526902d468e0e3caa8ec00006103c05269035892ecd6b6cb4400006103e0526903ed53932c6103240000610400526904928f12776201c4000061042052620001b890600190601e62000518565b506001620001c881601e620006c0565b601e8110620001db57620001db620006e6565b0154601f5568015af1d78b58c4000060209081556040805160808101825260008152600392810192909252600690820152600860608201526200022390602190600462000566565b506040805160c08101825260648152605c60208201526055918101919091526050606082015260466080820152603260a0820152620002679060259060066200059c565b506040805160608101825260008152600460208201526009918101919091526200029690602b906003620005d1565b50604080516060810182526064815260676020820152606e91810191909152620002c590602e906003620005d1565b506040805160c0810182526001815260046020820152600691810182905260086060820152600b6080820152606460a08201526200030791603191906200059c565b506040805160c081018252600a8152600f6020820152601491810191909152601e606082015260326080820152614e2060a08201526200034c90603790600662000606565b506040805160c08101825269014542ba12a337c00000815269032d26d12e980b6000006020820152690a968163f0a57b4000009181019190915269152d02c7e14af68000006060820152693f870857a3e0e380000060808201526969e10de76676d080000060a0820152620003c690603d9060066200063d565b506040518060e0016040528060016004620003e29190620006c0565b8152602001620003f560016006620006c0565b81526020016200040860016003620006c0565b81526020016200041b60016003620006c0565b81526020016200042e60016006620006c0565b81526020016200044160016006620006c0565b81526020016200045460016006620006c0565b90526200046690604390600762000678565b503480156200047457600080fd5b5060405162002a5638038062002a568339810160408190526200049791620006fc565b620004a233620004c8565b604b80546001600160a01b0319166001600160a01b03929092169190911790556200072e565b600080546001600160a01b038381166001600160a01b0319831681178455604051919092169283917f8be0079c531659141344cd1fd0a4f28419497f9722a3daafe3b4186f6b6457e09190a35050565b82601e810192821562000554579160200282015b828111156200055457825182906001600160501b03169055916020019190600101906200052c565b5062000562929150620006a9565b5090565b826004810192821562000554579160200282015b8281111562000554578251829060ff169055916020019190600101906200057a565b826006810192821562000554579160200282018281111562000554578251829060ff169055916020019190600101906200057a565b826003810192821562000554579160200282018281111562000554578251829060ff169055916020019190600101906200057a565b826006810192821562000554579160200282015b8281111562000554578251829061ffff169055916020019190600101906200061a565b82600681019282156200055457916020028201828111156200055457825182906001600160501b03169055916020019190600101906200052c565b826008810192821562000554579160200282015b82811115620005545782518255916020019190600101906200068c565b5b80821115620005625760008155600101620006aa565b600082821015620006e157634e487b7160e01b600052601160045260246000fd5b500390565b634e487b7160e01b600052603260045260246000fd5b6000602082840312156200070f57600080fd5b81516001600160a01b03811681146200072757600080fd5b9392505050565b612318806200073e6000396000f3fe608060405234801561001057600080fd5b50600436106103195760003560e01c806379037a06116101a9578063be7a63cd116100ef578063e67454341161009d578063e6745434146106f5578063ec4005ce14610708578063f2fde38b1461071b578063f370d48e1461072e578063f5d2f6be14610741578063f6a27b6c14610749578063f8584ae414610769578063f8aaf4a31461077c57600080fd5b8063be7a63cd14610690578063c9b4f24a146106a3578063d119e2b6146106ac578063d1d0b9ff146106b4578063d61a5786146106bc578063e51c2521146106cf578063e659643a146106e257600080fd5b806398da8ecf1161015757806398da8ecf146105f757806399f081681461060a578063a2a0cc2b14610633578063a2dafee61461063c578063b10b44c71461064f578063b1ada73714610662578063b3af245614610675578063b99fa7e11461068857600080fd5b806379037a0614610588578063817c89661461059057806385b109bd146105a357806386ce6a89146105b65780638c03e5d6146105c95780638da5cb5b146105dc57806391352f0e146105e457600080fd5b80634d6b0c051161026e57806365fcc9241161021c57806365fcc924146104f45780636712f76314610507578063674731c31461050f5780636e2d25ac146105225780636f4b79c314610545578063715018a614610558578063731ca03814610560578063757bf6391461056857600080fd5b80634d6b0c051461047a5780635015f7961461048d57806355c5747a146104a05780636071e3ac146104b3578063618113f2146104c65780636598d4c5146104ce57806365b615a3146104e157600080fd5b8063337d0221116102cb578063337d0221146103ae578063356d7d2e146103c6578063394ca9c7146103d95780633c78bb1f146104215780633f3df9171461043457806341410224146104475780634c9277891461046757600080fd5b8063088207461461031e57806308ecd02714610333578063094e8c9a1461034f57806312636f4a14610362578063240707921461037557806331626cc714610388578063331bc4641461039b575b600080fd5b61033161032c3660046120af565b61078f565b005b61033c60205481565b6040519081526020015b60405180910390f35b61033161035d3660046120e4565b6107cc565b61033c6103703660046120e4565b610c9f565b6103316103833660046120af565b610cd7565b61033c6103963660046120e4565b610dab565b61033c6103a93660046120e4565b610e16565b6103b6610e45565b6040519015158152602001610346565b61033c6103d43660046120e4565b610e61565b6103ec6103e73660046120e4565b610e8d565b604080519788526020880196909652948601939093526060850191909152608084015260a083015260c082015260e001610346565b61033161042f3660046120ff565b610f33565b6103316104423660046120ff565b610f7c565b60505461045a906001600160a01b031681565b6040516103469190612121565b604b5461045a906001600160a01b031681565b61033c6104883660046120e4565b610fbf565b61033161049b3660046120e4565b610fee565b61033c6104ae3660046120e4565b611108565b61033c6104c1366004612135565b61116c565b61033c600481565b6103316104dc3660046120ff565b6111dc565b61033c6104ef3660046120af565b61121f565b61033c6105023660046120af565b611236565b61033c600081565b6103b661051d3660046120e4565b611246565b6103b66105303660046120e4565b60516020526000908152604090205460ff1681565b6103316105533660046120ff565b6112fb565b61033161133e565b61033c600681565b61033c6105763660046120e4565b604d6020526000908152604090205481565b61033c600381565b61033c61059e3660046120e4565b611379565b61033c6105b13660046120af565b611384565b61033c6105c43660046120e4565b611394565b61033c6105d73660046120af565b6113c7565b61045a6113d7565b6103316105f23660046120ff565b6113e6565b6103316106053660046120ff565b61161c565b61033c6106183660046120e4565b6001600160a01b03166000908152604e602052604090205490565b61033c604c5481565b61033c61064a3660046120af565b61165f565b61033c61065d366004612135565b61166f565b61033c6106703660046120e4565b611694565b6103316106833660046120e4565b6116c3565b610331611714565b61033161069e3660046120e4565b6119c5565b61033c601f5481565b61033c600181565b61033c600581565b61033c6106ca3660046120af565b611a16565b6103316106dd3660046120ff565b611a26565b6103316106f03660046120ff565b611a69565b61033c6107033660046120af565b611b28565b6103316107163660046120af565b611b38565b6103316107293660046120e4565b611e80565b61033c61073c3660046120af565b611f20565b61033c600281565b61033c6107573660046120e4565b604e6020526000908152604090205481565b61033c6107773660046120af565b611f30565b61033161078a3660046120ff565b611f40565b336107986113d7565b6001600160a01b0316146107c75760405162461bcd60e51b81526004016107be9061215f565b60405180910390fd5b602055565b6107d581611246565b61081d5760405162461bcd60e51b81526020600482015260196024820152784f776e657220646f6e74206e65656420746f2075706461746560381b60448201526064016107be565b6001600160a01b0380821660009081526051602052604090819020805460ff19166001179055605054905163757bf63960e01b815291169063757bf63990610869908490600401612121565b602060405180830381865afa158015610886573d6000803e3d6000fd5b505050506040513d601f19601f820116820180604052508101906108aa9190612194565b6001600160a01b038083166000908152604d602052604090819020929092556050549151633da89edb60e21b815291169063f6a27b6c906108ef908490600401612121565b602060405180830381865afa15801561090c573d6000803e3d6000fd5b505050506040513d601f19601f820116820180604052508101906109309190612194565b6001600160a01b038083166000908152604e602052604080822093909355605054925163b10b44c760e01b815290929091169063b10b44c79061097990859085906004016121ad565b602060405180830381865afa158015610996573d6000803e3d6000fd5b505050506040513d601f19601f820116820180604052508101906109ba9190612194565b60505460405163b10b44c760e01b81529192506000916001600160a01b039091169063b10b44c7906109f39086906001906004016121ad565b602060405180830381865afa158015610a10573d6000803e3d6000fd5b505050506040513d601f19601f82011682018060405250810190610a349190612194565b60505460405163b10b44c760e01b81529192506000916001600160a01b039091169063b10b44c790610a6d9087906002906004016121ad565b602060405180830381865afa158015610a8a573d6000803e3d6000fd5b505050506040513d601f19601f82011682018060405250810190610aae9190612194565b60505460405163b10b44c760e01b81529192506000916001600160a01b039091169063b10b44c790610ae79088906003906004016121ad565b602060405180830381865afa158015610b04573d6000803e3d6000fd5b505050506040513d601f19601f82011682018060405250810190610b289190612194565b60505460405163b10b44c760e01b81529192506000916001600160a01b039091169063b10b44c790610b6090899060049081016121ad565b602060405180830381865afa158015610b7d573d6000803e3d6000fd5b505050506040513d601f19601f82011682018060405250810190610ba19190612194565b60505460405163b10b44c760e01b81529192506000916001600160a01b039091169063b10b44c790610bda908a906005906004016121ad565b602060405180830381865afa158015610bf7573d6000803e3d6000fd5b505050506040513d601f19601f82011682018060405250810190610c1b9190612194565b9050604051806101000160405280878152602001868152602001858152602001848152602001838152602001828152602001600081526020016000815250604f6000896001600160a01b03166001600160a01b03168152602001908152602001600020906008610c8c92919061205c565b50610c9687610fee565b50505050505050565b6001600160a01b0381166000908152604f602052604081206005015460378160068110610cce57610cce6121c6565b01549392505050565b33610ce06113d7565b6001600160a01b031614610d065760405162461bcd60e51b81526004016107be9061215f565b42811015610d565760405162461bcd60e51b815260206004820152601f60248201527f737461727454696d652063616e6e6f7420626520696e2074686520706173740060448201526064016107be565b610d5e610e45565b15610da65760405162461bcd60e51b81526020600482015260186024820152771b195d995b1a5b99c8185b1c9958591e481cdd185c9d195960421b60448201526064016107be565b604c55565b600080610db783611f83565b6001600160a01b0384166000908152604d6020526040902054909150601e821415610de6575060009392505050565b6001610df281846121f2565b601e8110610e0257610e026121c6565b0154610e0e90826121f2565b949350505050565b6001600160a01b0381166000908152604f6020526040812060020154602b8160038110610cce57610cce6121c6565b6000604c54600014158015610e5c5750604c544210155b905090565b6001600160a01b0381166000908152604f602052604081205460218160048110610cce57610cce6121c6565b6001600160a01b0381166000908152604f60205260408082208151610100810192839052839283928392839283928392839290919060089082845b815481526020019060010190808311610ec8575050505050905080600060088110610ef557610ef56121c6565b602090810291909101519082015160408301516060840151608085015160a086015160c090960151949e939d50919b50995097509195509350915050565b33610f3c6113d7565b6001600160a01b031614610f625760405162461bcd60e51b81526004016107be9061215f565b80602e8360038110610f7657610f766121c6565b01555050565b33610f856113d7565b6001600160a01b031614610fab5760405162461bcd60e51b81526004016107be9061215f565b8060258360068110610f7657610f766121c6565b6001600160a01b0381166000908152604f602052604081206001015460258160068110610cce57610cce6121c6565b6000610ff982611f83565b6001600160a01b0383166000908152604e6020908152604080832054604f90925282206006810154600582015460048301546003840154600285015460018601549554989950959793959294919390929161105391612209565b61105d9190612209565b6110679190612209565b6110719190612209565b61107b9190612209565b6110859190612209565b905060006110946001856121f2565b9050601e8414156110ad576110aa600182612209565b90505b6110b78284612209565b81111561110157816110c984836121f2565b6110d391906121f2565b6001600160a01b0386166000908152604e6020526040812080549091906110fb908490612209565b90915550505b5050505050565b60008061111483611f83565b9050601e8114156111285750600092915050565b600161113481836121f2565b601e8110611144576111446121c6565b0154600182601e8110611159576111596121c6565b015461116591906121f2565b9392505050565b6001600160a01b0382166000908152604f6020526040812060030154600281148015611199575060058310155b156111ad57602e60025b01549150506111d6565b600181101580156111bf575060028310155b156111cd57602e60016111a3565b602e60006111a3565b92915050565b336111e56113d7565b6001600160a01b03161461120b5760405162461bcd60e51b81526004016107be9061215f565b8060318360068110610f7657610f766121c6565b6025816006811061122f57600080fd5b0154905081565b603d816006811061122f57600080fd5b6001600160a01b03811660009081526051602052604081205460ff161561126f57506000919050565b60505460405163757bf63960e01b81526000916001600160a01b03169063757bf639906112a0908690600401612121565b602060405180830381865afa1580156112bd573d6000803e3d6000fd5b505050506040513d601f19601f820116820180604052508101906112e19190612194565b905080156112f25750600192915050565b50600092915050565b336113046113d7565b6001600160a01b03161461132a5760405162461bcd60e51b81526004016107be9061215f565b80602b8360038110610f7657610f766121c6565b336113476113d7565b6001600160a01b03161461136d5760405162461bcd60e51b81526004016107be9061215f565b611377600061200c565b565b60006111d682611f83565b6043816008811061122f57600080fd5b6001600160a01b0381166000908152604f602052604081208190600601549050603d8160068110610cce57610cce6121c6565b602e816003811061122f57600080fd5b6000546001600160a01b031690565b336000818152604e602052604090205461143c5760405162461bcd60e51b81526020600482015260176024820152764e6f7420656e6f75676820736b696c6c20706f696e747360481b60448201526064016107be565b611448600160086121f2565b83111561148d5760405162461bcd60e51b81526020600482015260136024820152720496e76616c696420536b696c6c2047726f757606c1b60448201526064016107be565b600182101580156114b25750604383600881106114ac576114ac6121c6565b01548211155b6114f45760405162461bcd60e51b8152602060048201526013602482015272125b9d985b1a590814dada5b1b0813195d995b606a1b60448201526064016107be565b6001600160a01b0381166000908152604f60205260408120846008811061151d5761151d6121c6565b0154905061152c816001612209565b83146115755760405162461bcd60e51b81526020600482015260186024820152770496e76616c696420536b696c6c204c6576656c206a756d760441b60448201526064016107be565b6001600160a01b0382166000908152604f60205260409020839085600881106115a0576115a06121c6565b01556001600160a01b0382166000908152604e602052604081208054916115c683612221565b9091555050604080516001600160a01b0384168152602081018690529081018490527f02fea7e54a35a3ee09c63260b2dd902669f9c351cc6b0ec6b15f84f361fa8000906060015b60405180910390a150505050565b336116256113d7565b6001600160a01b03161461164b5760405162461bcd60e51b81526004016107be9061215f565b8060378360068110610f7657610f766121c6565b6031816006811061122f57600080fd5b604f602052816000526040600020816008811061168b57600080fd5b01549150829050565b6001600160a01b0381166000908152604f602052604081206004015460318160068110610cce57610cce6121c6565b336116cc6113d7565b6001600160a01b0316146116f25760405162461bcd60e51b81526004016107be9061215f565b604b80546001600160a01b0319166001600160a01b0392909216919091179055565b33600061172082611f83565b90506000602054826117329190612238565b90506001821161177f5760405162461bcd60e51b8152602060048201526018602482015277796f7520617265207374696c6c206174206c6576656c203160401b60448201526064016107be565b604b546040516370a0823160e01b815282916001600160a01b0316906370a08231906117af908790600401612121565b602060405180830381865afa1580156117cc573d6000803e3d6000fd5b505050506040513d601f19601f820116820180604052508101906117f09190612194565b101561180e5760405162461bcd60e51b81526004016107be90612257565b604b546040516323b872dd60e01b81526001600160a01b03909116906323b872dd9061184290869030908690600401612281565b6020604051808303816000875af1158015611861573d6000803e3d6000fd5b505050506040513d601f19601f8201168201806040525081019061188591906122a5565b50604b54604051630852cd8d60e31b8152600481018390526001600160a01b03909116906342966c6890602401600060405180830381600087803b1580156118cc57600080fd5b505af11580156118e0573d6000803e3d6000fd5b505050506001600160a01b0383166000908152604f6020526040812081815560018082018390556002820183905560038201839055600482018390556005820183905560069091019190915561193690836121f2565b6001600160a01b0384166000908152604e6020526040902055601e821415611987576001600160a01b0383166000908152604e60205260408120805460019290611981908490612209565b90915550505b7f368a2f7ca65548f6d12e89fb0e783a1a73e53164519cf1b75c74a51ef9ef323383836040516119b89291906121ad565b60405180910390a1505050565b336119ce6113d7565b6001600160a01b0316146119f45760405162461bcd60e51b81526004016107be9061215f565b605080546001600160a01b0319166001600160a01b0392909216919091179055565b602b816003811061122f57600080fd5b33611a2f6113d7565b6001600160a01b031614611a555760405162461bcd60e51b81526004016107be9061215f565b80603d8360068110610f7657610f766121c6565b33611a726113d7565b6001600160a01b031614611a985760405162461bcd60e51b81526004016107be9061215f565b601e8210611ad85760405162461bcd60e51b815260206004820152600d60248201526c0d2dcecc2d8d2c840d2dcc8caf609b1b60448201526064016107be565b80600183601e8110611aec57611aec6121c6565b0155611afa6001601e6121f2565b821415611b24576001611b0e81601e6121f2565b601e8110611b1e57611b1e6121c6565b0154601f555b5050565b6021816004811061122f57600080fd5b33611b41610e45565b611b835760405162461bcd60e51b8152602060048201526013602482015272165bdd4818d85b89dd081b195d995b081e595d606a1b60448201526064016107be565b601e611b8e82611f83565b10611bd25760405162461bcd60e51b8152602060048201526014602482015273185b1c9958591e48185d081b585e081b195d995b60621b60448201526064016107be565b604b546040516370a0823160e01b815283916001600160a01b0316906370a0823190611c02908590600401612121565b602060405180830381865afa158015611c1f573d6000803e3d6000fd5b505050506040513d601f19601f82011682018060405250810190611c439190612194565b1015611c615760405162461bcd60e51b81526004016107be90612257565b601f546001600160a01b0382166000908152604d6020526040902054611c879084612209565b1115611cb6576001600160a01b0381166000908152604d6020526040902054601f54611cb391906121f2565b91505b604b546040516323b872dd60e01b81526001600160a01b03909116906323b872dd90611cea90849030908790600401612281565b6020604051808303816000875af1158015611d09573d6000803e3d6000fd5b505050506040513d601f19601f82011682018060405250810190611d2d91906122a5565b50604b54604051630852cd8d60e31b8152600481018490526001600160a01b03909116906342966c6890602401600060405180830381600087803b158015611d7457600080fd5b505af1158015611d88573d6000803e3d6000fd5b505050506000611d9782611f83565b6001600160a01b0383166000908152604d6020526040812080549293508592909190611dc4908490612209565b9091555060009050611dd583611f83565b9050611de182826121f2565b6001600160a01b0384166000908152604e602052604081208054909190611e09908490612209565b9091555050601e811415611e46576001600160a01b0383166000908152604e60205260408120805460019290611e40908490612209565b90915550505b7f7419048d061603bf7a956364c6589c295c710d3ab6d99e05fbb4ea272179a0e283611e7284846121f2565b60405161160e9291906121ad565b33611e896113d7565b6001600160a01b031614611eaf5760405162461bcd60e51b81526004016107be9061215f565b6001600160a01b038116611f145760405162461bcd60e51b815260206004820152602660248201527f4f776e61626c653a206e6577206f776e657220697320746865207a65726f206160448201526564647265737360d01b60648201526084016107be565b611f1d8161200c565b50565b6037816006811061122f57600080fd5b600181601e811061122f57600080fd5b33611f496113d7565b6001600160a01b031614611f6f5760405162461bcd60e51b81526004016107be9061215f565b8060218360048110610f7657610f766121c6565b6001600160a01b0381166000908152604d602052604081205481611fa96001601e6121f2565b905060005b81811015612001576001611fc28282612209565b601e8110611fd257611fd26121c6565b0154831015611fef57611fe6816001612209565b95945050505050565b80611ff9816122c7565b915050611fae565b50601e949350505050565b600080546001600160a01b038381166001600160a01b0319831681178455604051919092169283917f8be0079c531659141344cd1fd0a4f28419497f9722a3daafe3b4186f6b6457e09190a35050565b826008810192821561208a579160200282015b8281111561208a57825182559160200191906001019061206f565b5061209692915061209a565b5090565b5b80821115612096576000815560010161209b565b6000602082840312156120c157600080fd5b5035919050565b80356001600160a01b03811681146120df57600080fd5b919050565b6000602082840312156120f657600080fd5b611165826120c8565b6000806040838503121561211257600080fd5b50508035926020909101359150565b6001600160a01b0391909116815260200190565b6000806040838503121561214857600080fd5b612151836120c8565b946020939093013593505050565b6020808252818101527f4f776e61626c653a2063616c6c6572206973206e6f7420746865206f776e6572604082015260600190565b6000602082840312156121a657600080fd5b5051919050565b6001600160a01b03929092168252602082015260400190565b634e487b7160e01b600052603260045260246000fd5b634e487b7160e01b600052601160045260246000fd5b600082821015612204576122046121dc565b500390565b6000821982111561221c5761221c6121dc565b500190565b600081612230576122306121dc565b506000190190565b6000816000190483118215151615612252576122526121dc565b500290565b60208082526010908201526f6e6f7420656e6f75676820475241504560801b604082015260600190565b6001600160a01b039384168152919092166020820152604081019190915260600190565b6000602082840312156122b757600080fd5b8151801515811461116557600080fd5b60006000198214156122db576122db6121dc565b506001019056fea26469706673582212203868aa5c39008336b00b74e4da6877c22d7de98bbb58a6e100299359e2746aa264736f6c634300080b0033"
}